:020000040800F2
:10000000E8CE01208D0200082D4200083D3B00088B
:1000100029420008B90800087158000800000000D3
:10002000000000000000000000000000914E0008E9
:10003000D50800080000000031420008954E000875
:10004000A7020008A7020008A7020008A7020008EC
:10005000A7020008A7020008A7020008A7020008DC
:10006000A7020008A7020008A7020008BD080008B0
:10007000C9080008A7020008A7020008A702000894
:10008000A7020008A7020008A7020008A7020008AC
:10009000A7020008A7020008A7020008A70200089C
:1000A000A7020008A7020008A7020008A70200088C
:1000B000A7020008A7020008A7020008A70200087C
:1000C000A7020008A7020008A7020008354200089E
:1000D000A7020008A7020008A7020008A70200085C
:1000E000A7020008A7020008A7020008A70200084C
:1000F000A7020008A7020008A7020008A70200083C
:10010000A7020008A7020008A7020008A70200082B
:10011000A7020008A7020008D54E0008A7020008A1
:10012000A7020008A7020008A7020008A70200080B
:10013000A7020008A7020008A7020008A7020008FB
:10014000A7020008A7020008A7020008A7020008EB
:10015000A7020008A7020008A7020008A7020008DB
:10016000A7020008A7020008A7020008A7020008CB
:10017000A7020008A7020008A7020008A7020008BB
:10018000A7020008A7020008A7020008A7020008AB
:10019000A702000800000000A7020008A70200084C
:1001A000A7020008A7020008A7020008A70200088B
:1001B000A7020008A7020008A7020008A70200087B
:1001C000A7020008A7020008A7020008A70200086B
:1001D000A7020008A702000800F002F800F047F8A4
:1001E0000AA090E8000C82448344AAF10107DA4592
:1001F00001D100F03CF8AFF2090EBAE80F0013F09D
:10020000010F18BFFB1A43F00103184708C8030089
:1002100028C80300103A24BF78C878C1FAD852071A
:1002200024BF30C830C144BF04680C607047000070
:100230000023002400250026103A28BF78C1FBD8EF
:10024000520728BF30C148BF0B607047642900F0D7
:100250002781782900F06081732900F0EE82002068
:1002600070471FB538F05BF81FBD10B510BD00F02A
:10027000E8FA1146FFF7F5FF30F07CFD00F006FBD1
:1002800003B4FFF7F2FF03BC00F00EFB0948804700
:1002900009480047FEE7FEE7FEE7FEE7FEE7FEE768
:1002A000FEE7FEE7FEE7FEE704480549054A064B80
:1002B00070470000C14E0008D9010008E8EE002098
:1002C000E8CE0120E8AE0120E8AE012053EA020C9E
:1002D00000F069802DE9F04B4FF00006002B1FBFA6
:1002E000B3FA83F503FA05F424FA05F65E4012BF6B
:1002F0001643B2FA82F502FA05F4C5F120051EBFD5
:1003000022FA05FC44EA0C04203556EA044C4FEA74
:10031000144418BF641C4FF000084FF000099042CD
:1003200071EB030C39D3002919BFB1FA81F701FA37
:1003300007F6B0FA80F700FA07F6C7F120071EBFEC
:1003400020FA07FC46EA0C062037B6FBF4FCA7EBC4
:100350000507103F07F01F0BCBF120062CFA06F61D
:100360000CFA0BFB44BFB3460026202FA4BF5E4609
:100370004FF0000B5BEA060C08BF4FF0010B19EBC6
:100380000B0948EB0608ABFB027C06FB02CC0BFB1F
:1003900003CCC01B71EB0C01C1E70B460246414682
:1003A0004846BDE8F08B13B5084318BF4FF0FF3047
:1003B0000146AFF30080BDE81C4070470FB41CB588
:1003C000074B06AA7B4469460090059800F00BFA9B
:1003D0000020694600F01AFA1CBC5DF814FB00000E
:1003E000450400002DE9F0410E460446002020623D
:1003F0002046E168884730B3252805D0D4E901219B
:100400009047206A401CF2E7E168204600278847B1
:10041000050018D0A5F14100192802D820354FF465
:1004200000673246294620462760FFF70FFF40B19C
:10043000012804D0F61D26F007060836D8E7361D39
:10044000D6E72846DAE7206ABDE8F08170B50C46A9
:100450000546012A05D02878800600D5EA690023E0
:1004600002E0012305E05B1C934202D2E05C00281D
:10047000F9D1A869E618C01AA861286A1844286248
:100480002846AFF3008004E0D5E9012114F8010B00
:100490009047B442F8D32846AFF3008070BD000007
:1004A0002DE9F0410646002410687529314616A54D
:1004B00010D0AFF30080002802DA404213A507E015
:1004C00031688A0701D512A502E0490704D511A5B4
:1004D000012401E0AFF3008000210A2206F1240785
:1004E00009E0B0FBF2FCB0FBF2F302FB1C00303081
:1004F00078541846491C0028F3D123462A46304632
:10050000BDE8F04100F011B9000000002D0000002E
:100510002B0000002000000070B504460D46214667
:100520001068AFF300802188090502D50F4A7A448C
:1005300002E00E4A7A440E32002104F1240305E061
:1005400000F00F060009965D5E54491C0028F7D1A3
:1005500020780023000704D5702D02D009B10223B2
:1005600011322046BDE8704000F0DFB8067E03007F
:1005700040EA0103024630B59B0710D14FF0013429
:1005800000E008C208C91D1B9D4315EAC41FF8D02E
:1005900013F0FF0102F8011B0DD01B0AF8E711F858
:1005A000013B002B02F8013B05D011F8013B002B69
:1005B00002F8013BF3D130BD10B5431C02E010F846
:1005C000011B71B18107FAD14FF0013202C88C1AB8
:1005D0008C4314EAC211F9D0C01A0A0603D0C01E17
:1005E00010BDC01A10BD0A0401D0801E10BD090242
:1005F000FCD0401E10BD02F0FF0343EA032242EA92
:10060000024200F00AB802F0FF0343EA032242EA82
:10061000024200F024B84FF000020429C0F012801A
:1006200010F0030C00F01B80CCF1040CBCF1020FA5
:1006300018BF00F8012BA8BF20F8022BA1EB0C017A
:1006400000F00DB85FEAC17C24BF00F8012B00F870
:10065000012B48BF00F8012B70474FF0000200B596
:10066000134694469646203922BFA0E80C50A0E8D5
:100670000C50B1F12001BFF4F7AF090728BFA0E883
:100680000C5048BF0CC05DF804EB890028BF40F84F
:10069000042B08BF704748BF20F8022B11F0804F91
:1006A00018BF00F8012B704730B44FF0013C50F8F0
:1006B000042B51F8043BCCFA52F4D51A20D1FCB9E2
:1006C00050F8042B51F8043BCCFA52F4D51A17D148
:1006D000B4B950F8042B51F8043BCCFA52F4D51AB3
:1006E0000ED16CB950F8042B51F8043BCCFA52F4FB
:1006F000D51A05D1002CDAD030BC4FF0000070477D
:1007000029BAB1FA81F111F01801D1F12000844029
:10071000F2D1CA40CB4012F0FF0213F0FF0330BC0D
:10072000D01A70477047704770472DE9F0470D4663
:1007300099469246044600F124080168880604D5CB
:10074000E06921F01001216000E00120A84201DDF4
:10075000471B00E00027A1697A1902EB0900081A7B
:10076000A0612078C00602D42046AFF300800026A6
:1007700008E0D4E901211AF806009047206A401CDD
:10078000761C20624E45F4DB2078C0060AD5204650
:10079000AFF3008006E0D4E9012130209047206AC1
:1007A000401C2062381EA7F10107F4DC07E0D4E901
:1007B000012118F805009047206A401C2062281E7D
:1007C000A5F10105F3DC2046AFF300802078000698
:1007D00002D50220BDE8F0870120FBE701694A1C31
:1007E00002610878704700B58FB0CDE90131002172
:1007F000059105497944CDE9031011466846FFF794
:10080000F1FD0FB000BD0000E5FFFFFF0A6802F830
:10081000010B0A60704710B5436913B1AFF3008054
:1008200001E0FFF713FE012010BD127800F1240152
:100830000A7000224A700122EDE711684FF0FF3282
:10084000E9E7754600F02CF8AE46050069465346C8
:1008500020F00700854618B020B5FFF725FDBDE85C
:1008600020404FF000064FF000074FF000084FF017
:10087000000BAC46ACE8C009ACE8C009ACE8C00964
:10088000ACE8C00921F007018D46704710B5044659
:10089000AFF300802046BDE81040FFF7F1BC000038
:1008A00000487047A800002001491820ABBEFEE7B1
:1008B0002600020070470000FEE7000041F2EC2035
:1008C000C2F2000000F0B8BD41F28C20C2F200007C
:1008D00000F0B2BD70470000EFF3108072B600BFA9
:1008E000FEE700002DE9F0478AB040F60004C4F6A8
:1008F000000420464021002240254FF0000800F06F
:10090000FFFF20468021002200F0FAFF642000F063
:10091000EDFE2046402101224FF0010900F0F0FFDA
:100920000A2000F0E3FE20468021012200F0E8FFCB
:100930000A2000F0DBFE0320CDE90558CDE9078051
:1009400005A9204600F0E6FE642000F0CFFE41F24B
:100950004C34042004ADC2F20004FF27CDE900505E
:100960002046292148F24012022302974FF0020A42
:1009700001F076F84EF67C66C2F200061CA1304605
:100980002A46FFF71BFD642000F0B0FE0DF10F00BA
:10099000CDE900092046292148F2470202230297A7
:1009A00001F05EF89DF80F2014A13046FFF706FD18
:1009B0000DF10E052046282148F2400202238DF851
:1009C0000EA0CDE90059029701F066F9642000F00D
:1009D0008DFE2046282148F2400202238DF80E8029
:1009E000CDE90059029701F057F90AB0BDE8F08748
:1009F0004754505F49443A25730A0000436F6E66BE
:100A00002056657273696F6E3A307825580A000077
:100A10002DE9F04F85B0FF200121CDE9011041F211
:100A20004C300DF1130AC2F20000292148F24E1297
:100A30000223CDF800A001F013F89DF8131040F246
:100A400044384AB201F00F00C2F2000801F0800100
:100A5000B2F1FF3F88F8010088F8001002DD05B010
:100A6000BDE8F08F002800F08C8041F24C3448F251
:100A70005519A8F1060700264FF0FF0B0125C2F219
:100A80000004CFF6FF7900BF48F25010CFF6FF7098
:100A900000EBC60082B2204629210223CDE900A541
:100AA000CDF808B000F0DCFF9DF813002921388153
:100AB00048F25110CFF6FF7000EBC60082B220461C
:100AC0000223CDE900A5CDF808B000F0C9FF9DF8DC
:100AD00013003989022341EA0020388148F252107C
:100AE000CFF6FF7000EBC60082B220462921CDE987
:100AF00000A5CDF808B000F0B3FF9DF81300292140
:100B0000788148F25310CFF6FF7000EBC60082B236
:100B100020460223CDE900A5CDF808B000F0A0FFE3
:100B20009DF813007989022341EA0020788148F278
:100B30005410CFF6FF7000EBC60082B22046292188
:100B4000CDE900A5CDF808B000F08AFF9DF81300AC
:100B50002921B88109EBC60082B220460223CDE9E3
:100B600000A5CDF808B000F07BFF9DF81300B9890F
:100B7000013641EA0020B88198F801000637864224
:100B800082D300208DF813000120CDE900A041F2AE
:100B90004C30FF27C2F20000282148F24E120223F7
:100BA000029701F079F805B0BDE8F08F70B582B01A
:100BB00090F85820012A03D10221084602B070BDE6
:100BC000012280F85820002201920092036840F22E
:100BD000080CC5F2000CB3F1A04F0CF1F80E08D0D0
:100BE00040F20042C5F2000293423AD10CF59F62F6
:100BF00000E0724692689C682243520731D40CF59B
:100C00003E742246734518BF0CF5DF62B3F1A04F66
:100C100008BF2246D1F800E09468BEF1000F24F42A
:100C2000604429D04D6890F838602C4340F200159C
:100C300043F48073C5F2000544EA4634AB42946045
:100C400031D1DCF80030DCF800412343DB0734D13C
:100C50009368896840F61F76B34341EA0E01194351
:100C60001EE0C16D41F02001C1650121002280F824
:100C70005820084602B070BD43F4807140F2001362
:100C8000C5F200039942946019D1DCF80010DCF839
:100C900000311943C9071CD1916840F61F7399436D
:100CA00091600021E2E7DCF80044DCF80055DCF854
:100CB00000362C432343DB07CAD00021D6E7DCF8FB
:100CC0000034DCF80065DCF8001633431943C9072B
:100CD000E2D00021CAE70000F0B581B00022009206
:100CE00090F85820012A03D10221084601B0F0BD36
:100CF0000123076880F85830BB685B0734D4D1E91A
:100D000000531F26C3F3012407EB8404226B03F076
:100D10001F039E40B243C5F3846606FA03F31A43E9
:100D20002263BA68BB68DB0843EA9202D20740F04C
:100D3000BC800A68D1F808E007F114030426C2F366
:100D4000406406EAD25C53F82440C2F304550722FB
:100D5000AA40BEF1004F24EA02040BD143F80C4034
:100D60001A6842F000430DE0C16D41F02001C165F9
:100D70000121A0E10EFA05F2224343F80C201A6883
:100D800022F000437B61D1E90435FC68042B5FD17C
:100D90003A6E3A6E4FF6FF7EC2F384620B68C0F281
:100DA000070E93FAA3F6C3F3846C6FF3DF43B6FA2E
:100DB00086F5002B2C4608BF6446A2420CD13A6E41
:100DC00022F000423A660A6802EA0E03C2F3846C1B
:100DD00092FAA2F2B2FA82F57A6E7A6E002BC2F320
:100DE00084622C4608BF6446A2420CD17A6E22F07F
:100DF00000427A660A6802EA0E03C2F3846C92FA31
:100E0000A2F2B2FA82F5BA6EBA6E002BC2F3846215
:100E10002C4608BF6446A2420CD1BA6E22F00042B2
:100E2000BA660A6802EA0E03C2F3846C92FAA2F26E
:100E3000B2FA82F5FA6EFA6E002BC2F3846208BF32
:100E40006546AA4231D1FA6E22F00042FA662CE0E1
:100E5000062202EA940205FA02FC0E6807F1600518
:100E600055F823404FF20002C0F2FF3206F0F84678
:100E7000224046EA0C06324342F0004245F8232065
:100E80000A698B6955F8226026F08076334345F86D
:100E900022300A690B7F55F82260012B26F000767C
:100EA00008BF06F1007645F82260BA68D20755D12E
:100EB0000D68CA68D7F8B0602B466FF3DF4326EAA7
:100EC000030C4FF6FF7602F01804C0F20706E64066
:100ED00000241E40C4F27F0446EA0C06A242C7F872
:100EE000B0603BD195FAA5F2B2FA82F42246002B0B
:100EF00008BFAA0E013202F01E02092A4FEA9565C8
:100F00000CD8002B14BF621C6A1C02F01F030122C4
:100F10009A4003EB430342EA035311E0002B14BF52
:100F2000621C6A1C02F01F03012200269A4003EB98
:100F30004303CFF6206606EB03531A4342F00073D7
:100F40008A68C3F3406607EB86067569C3F30453EA
:100F500007249C40A5439A402A4372610B680021F4
:100F6000C8F208010B4265D040F2003EC5F2000E07
:100F7000AEF500710EF580648F4204BF40F200347C
:100F8000C5F200042146B7F1A04F04BF40F2003182
:100F9000C5F200018D680022CCF22132934205F0A7
:100FA000E07C04D01022C9F2C002934244D12A024C
:100FB0005FD440F20062C5F20002974202D0B7F15E
:100FC000A04F58D18A6822F0E07242EA0C0242F443
:100FD00000028A6040F26001C2F20001096842F634
:100FE00063528909C0F23E52A1FB0212910901EB42
:100FF00041010C2202EB810100910099002946D0A9
:101000000099013900910099002942D000990139D5
:101010000091009900293ED0009901390091009972
:10102000D9B3009901390091009900294FF00001CE
:10103000E6D140E000213EE00022CCF25272934221
:1010400008BF15F0807218D00021CCF684318B4295
:101050004FF0000108BF15F480022CD1B7F1A04F6A
:101060001ED040F20011C5F200018F4217D10021BD
:1010700021E000211FE000211DE08A6822F0E072DB
:1010800042EA0C0242F080728A60002113E00021E3
:1010900011E000210FE000210DE000210BE0A64649
:1010A000DEF8081021F0E07141EA0C0141F4800102
:1010B000CEF808100021002280F85820084601B020
:1010C000F0BD0000B0B582B00446002001904CB1E4
:1010D000E06D50B121688868800011D48868C00034
:1010E00018D54AE0012002B0B0BD204600F020F93A
:1010F0000020206684F85800216888688000EDD5BB
:1011000088684FF6C072C5F6FF7210408860886824
:10111000C00032D44FF6C0728868C5F6FF7202F183
:101120008052104000F18050886040F26000C2F2AE
:101130000000006842F663528009C0F23E52A0FBF4
:1011400002029009022202EB400001900198A0B136
:10115000019801380190019878B101980138019007
:10116000019850B1019801380190019828B1019877
:101170000138019001980028EAD18868C00009D49C
:10118000E06D40F01000E065206E40F00100206648
:10119000012000E000208A68C2F38002E36D03F0C2
:1011A0001003D218E26D05D042F010010120E16574
:1011B00002B0B0BD22F481720232E2658A68D207C1
:1011C00027D140F2001341F48072C5F2000340F2CF
:1011D000080C9A42C5F2000C6AD1DCF80030DCF849
:1011E00000211A43D20714D10CF1F8020CF53E731A
:1011F00091421A4618BF0CF5DF62B1F1A04F08BF4B
:101200001A46D4F804C0936823F47C1343EA0C0311
:101210009360627FE36B43EA4232D4E902C31A432C
:1012200094F8243042EA0C02012B42EA034207D12F
:10123000D4F828C00023CFF6FE7303EB4C431A43C7
:10124000E36A33B103F47873D4F830C01A4342EA46
:101250000C02D1F80CC044F20703CFF6F07303EA96
:101260000C031A43CA600A69636B22F040621A4396
:101270000A618A6812074AD494F83820237F520002
:1012800042EA833CCB6844F2020223EA020242EAC9
:101290000C02CA6022690B69B2B143F480330B615E
:1012A000D1F8C0C043F6FF732CEA03031A4313E0DE
:1012B000DCF800E4DCF80025DCF8003642EA0E0237
:1012C0001A43D20790D0A4E723F480320A61D1F800
:1012D000C02043F6FF739A43C1F8C02094F8403011
:1012E0000A69012B10D140F2FD7322EA030CD4E904
:1012F0001132D4E913E543EA0C031A4342EA0E0221
:101300002A4342F0010201E022F001020A6162690F
:101310000B6B012A23F00F0202D1236A013B1A430F
:101320000A63E16D012262F30101E16502B0B0BD23
:1013300010B59CB0044600201B90CDE91900CDE902
:10134000170002A85421FFF788F92068B0F1A04FD8
:1013500001D01CB010BD4FF4004002904FF000507F
:10136000139002A800F04CFF002818BFFFF7B4FA52
:1013700041F24C00C4F20200016841F400510160E6
:10138000016801F4005101910199016841F00201E5
:101390000160006817A900F00200019001984FF465
:1013A00000601790032018900020199040F2004030
:1013B000C4F6000000F0AEF91CB010BD80B590F886
:1013C000251002292DD10168D0E910CE826C0B685E
:1013D00023F00E030B600B6823F001030B60116810
:1013E00021F4807111600EF01F02012101FA02F256
:1013F000CCF80420D0E913325A60426D32B1136840
:1014000023F480731360D0E91623536080F825100D
:10141000826B002180F824100AB190470021084611
:1014200080BD0421C1630121002280F8251080F8CD
:101430002420084680BD0000B0B50268D0E910C481
:10144000DCF80050136804F01F0E590713D504216F
:1014500001FA0EF414EA05010DD01168890603D4CF
:10146000116821F004011160CCF80440016BD1B384
:10147000BDE8B0400847990719D5022101FA0EF4DA
:1014800014EA050113D01168890606D4116821F009
:101490000A011160012180F82510CCF80440C16ACE
:1014A000002280F82420F1B1BDE8B04008471907B8
:1014B00019D5082101FA0EF1294008BFB0BD116805
:1014C00021F00E011160012101FA0EF2CCF8042086
:1014D000C16380F82510416B002280F8242011B1EF
:1014E000BDE8B0400847B0BD00284FF0010100F052
:1014F00088802DE9F04740F2000CC4F2020C02682B
:101500004FF6F8340CF58168CBF6FD74424538BFD0
:1015100004F580644CF6CD451444CCF6CC45A4FBD0
:10152000054E6FF0070454FA82F4A4FB05490CF54C
:1015300080636FF00305D0E90264D0F810A03CBFCF
:101540000023C4F2020305EA9E05C0E91035022318
:1015500080F82530136847F6F077BB4333432343C5
:10156000476943EA0A0384693B43C7692343046A22
:101570003B432343136042450CF5026238BF0CF530
:101580000062AB180CF50862C0E91232C9F304120C
:1015900040F6840C01FA02F4B6F5804FC4F2020C56
:1015A000046505D1002141601960CCF8004019E0C4
:1015B0004168CAB2013903294FF000011A60CCF822
:1015C00000400FD8013A0CEB820747F87C1F02F06D
:1015D0001F01012202FA01F30CF1BC023946CCF8DA
:1015E000C03001E00022002300F1540C8CE80E0012
:1015F00000210122C16380F8252080F82410BDE875
:10160000F0470846704700002DE9F04190F824C0EB
:10161000BCF1010F43D04FF0010C80F824C090F8CA
:1016200025C0BCF1010F37D14FF0020C80F825C066
:101630004FF0000CC0F83CC0D0F800C000F14C0ED8
:101640009EE83040DCF80060BEF1000F26F0010695
:10165000CCF8006065601CBFD0E916456560D0E934
:101660001076012506F01F068468B540D0F830805A
:101670007D60CCF804300B46102C04BF13460A469C
:10168000CCF80830CCF80C20DCF80010B8F1000FD2
:1016900008D041F00E010DE0002180F82410022056
:1016A000BDE8F08121F00401CCF80010DCF8001056
:1016B00041F00A01CCF80010806C0168C90303D521
:1016C000016841F480710160BEF1000F05D0DEF8C1
:1016D000000040F48070CEF80000DCF8000040F01C
:1016E0000100CCF800000020BDE8F081B0B5044650
:1016F00000F00CF9054640F20000C2F2000040681C
:10170000611C18BF044400BF00F000F9401BA04258
:10171000FAD3B0BD2DE9F04F84B00C680190002CD5
:1017200000F0E280019841F2004600F13842C4F630
:1017300000068E464FEAB2270621B04208BF0521B7
:10174000052F4FF000054FF001074FF000064FF056
:10175000000838BF4FEAB2210091CDF808E00DE053
:10176000DEF8004008F1010834FA07F106F102063C
:1017700007F1010705F1040500F0B680A7F1010AA1
:10178000012000FA0AF214EA0209E9D0DEF804C0E6
:101790000CF0030BABF10104012C17D8019874462F
:1017A00081680323E468B3409943B44021438160D6
:1017B00041684FEA480E9143CCF3001202FA0AF254
:1017C0000446D843114361600CE000BF0321B140DF
:1017D000019CC843BBF1030FB64603D1B6464FF098
:1017E000030B23E0E168029B01409A68BBF1020F02
:1017F00002FA0EF241EA0201E16017D16FF0030133
:1018000001EA5A01214405F01C040F22D1F820C03E
:1018100002FA04FB1A692CEA0B0CA24042EA0C0201
:10182000019C0A62D3F804C00CF0030B21680BFA88
:101830000EF2014011432160DDF808E01CF4403F46
:101840008ED041F26000C4F20200016840F2004C08
:1018500041F0010101600168C4F2010C01F00101D5
:10186000039103992AF003014FF6084A6144CFF629
:10187000FF7A05F00C030F2051F80A2000FA03F458
:101880000098A24300FA03F31A4341F80A20DCF857
:101890000810DEF8042041EA090340F20C40D402AB
:1018A00058BF21EA0903CCF80830C4F201000168EE
:1018B000940241EA090358BF21EA09030360DCF8F6
:1018C0000410940341EA090358BF21EA0903CCF844
:1018D0000430DCF80010D20341EA090358BF21EAC2
:1018E0000903CCF800303BE704B0BDE8F08F0000FE
:1018F000426902EA0103914341EA03418161704771
:101900001823002A08BF2823C15070474EF6E06014
:10191000C2F200000068704790F84120202A03D1ED
:1019200090F84020012A01D102207047242280F83B
:1019300041200268136823F001031360136823F445
:1019400080531360136819431160116841F001015D
:101950001160202180F84110002180F840100846D5
:101960007047000090F84120202A03D190F84020D1
:10197000012A01D102207047242280F84120026808
:10198000136823F001031360136823F4706343EAC0
:1019900001211160116841F001011160202180F8DE
:1019A0004110002180F8401008467047002804BF0D
:1019B0000120704710B5044690F8410028B9002076
:1019C00084F84000204600F081FA242084F8410089
:1019D00094E80910E2680168012A21F00101016020
:1019E00023F070610161816821F40041816006D1BA
:1019F0004CF400418160014651F8043F0AE04CF488
:101A000004418160014651F8043F022A02D143F4A7
:101A1000006201E023F400620A60416804F1100CE6
:101A200041F0007141F400414160C16821F400417E
:101A3000C1609CE80E10114341EA0321C160216A94
:101A400041EA0C010160016841F0010101600020E0
:101A50002021606484F84110206384F8420010BDA6
:101A60002DE9F04F81B0044690F8410020280DD1B7
:101A7000DDF828B0BBF1000F0CD0DDF82CA0BAF1D6
:101A8000000F07D094F8400001280AD1022001B0CD
:101A9000BDE8F08F4FF400706064012001B0BDE834
:101AA000F08F01201D461746894684F84000FFF755
:101AB0002DFF216806468A69120446D4222084F844
:101AC000410040204FF000080C9A84F84200C4F80E
:101AD0004480C4F824B0A4F82AA0C4F8348049F69D
:101AE00000034868CFF6004392466FF39F29EAB29D
:101AF000184049EA0242104400F500504860204670
:101B0000514632469B4602F07DF9A8B9012D08D016
:101B10002068390A816220465146324602F072F945
:101B200050B92068F9B28162204640210022534614
:101B3000009602F0B9F840B384F84080012001B06B
:101B4000BDE8F08F88690004B8D5204619213246D7
:101B500001F0F6FF0028A0D1FFF7D8FE801B216816
:101B60001A28EFD388690004ECD5606C40F020009F
:101B70006064202084F84100002084F8420084F84A
:101B80004000012001B0BDE8F08F608D40F20008F8
:101B9000B0F5807FC0F2FF180AD3206808F5105313
:101BA00050F8041F01EA0B0141EA0902FF210BE092
:101BB000618D2068CBB250F8042F49EA034302EA52
:101BC0000B021A4308F592331A43FF270BF5806581
:101BD000026021850FE0618D2068218550F8042F77
:101BE000C9B22A4049EA014111434FF00072114342
:101BF0000160608D98B32046042100225346009670
:101C000002F052F800287FF448AF2068616A406A09
:101C10000870606A218D0130013960622185608D14
:101C20000904A0F101006085608DE2D10028E0D0B8
:101C30002046802100225346009602F035F8002805
:101C40007FF42BAF608DB0F5807FC4D320682785EB
:101C500050F8041F4246294041EA0901C7E72046DF
:101C60005146324602F090F800287FF416AF206803
:101C70002021C16142684EF60003CFF600631A408E
:101C80004260002084F8411084F8420084F840004B
:101C900001B0BDE8F08F00002DE9F04F81B004469F
:101CA00090F8410020280DD1DDF828B0BBF1000FDD
:101CB0000CD0DDF82CA0BAF1000F07D094F840004A
:101CC00001280AD1022001B0BDE8F08F4FF4007066
:101CD0006064012001B0BDE8F08F01201D46174669
:101CE000894684F84000FFF711FE216806468A699C
:101CF00012044AD421200C9A84F8410040204FF06D
:101D0000000849F6004384F84200C4F84480C4F84F
:101D100024B0A4F82AA0C4F83480CFF60043924639
:101D20004A689B466FF39F29E8B2A3F580631A4087
:101D300049EA0040104440F0807040F40050486090
:101D400020465146324602F05DF8A8B9012D08D070
:101D50002068390A816220465146324602F052F824
:101D600050B92068F9B28162204680210022534692
:101D7000009601F099FF40B384F84080012001B043
:101D8000BDE8F08F88690004B4D520461921324699
:101D900001F0D6FE00289CD1FFF7B8FD801B21681A
:101DA0001A28EFD388690004ECD5606C40F020005D
:101DB0006064202084F84100002084F8420084F808
:101DC0004000012001B0BDE8F08F608D0025B0F526
:101DD000807FC0F2FF1509D320682B4650F8041FFE
:101DE00001EA0B0141EA0902FF210BE0618D206845
:101DF000CBB250F8042F49EA034302EA0B021A431C
:101E00004FF000731A43FF270260218510E0618DB7
:101E10002068218550F8042FC9B202EA0B0249EA72
:101E2000014111434FF0007211430160608D80B396
:101E300020465146324601F0E5FF00287FF449AFC5
:101E4000606A216810F8012B8A626062608D013837
:101E50006085208D411E2185608D0904E6D1002812
:101E6000E4D02046802100225346009601F01CFF5A
:101E700000287FF42EAF608DB0F5807FC7D3206837
:101E8000278550F8041F2A4601EA0B0141EA09019F
:101E9000CAE720465146324601F076FF00287FF41B
:101EA00018AF20682021C16142684EF60003CFF6CA
:101EB00000631A404260002084F8411084F8420018
:101EC00084F8400001B0BDE8F08F0000B0B59CB0D0
:101ED0000446002502A854211B95CDE91955CDE9EA
:101EE0001755FEF7BAFB206847F60001C4F200015F
:101EF000884201D01CB0B0BD4FF48070029002A89F
:101F00000B9500F07DF9002818BFFEF7E5FC41F2C3
:101F10004C04C4F20204206817A940F004002060B9
:101F2000206800F00400019001984FF44070179071
:101F3000122018900020199003201A9008201B905E
:101F400040F60000C4F60000FFF7E4FBE06840F054
:101F50008040E060E06800F08040019001981CB093
:101F6000B0BD000040F200004EF6E061C2F2000099
:101F7000C2F2000140680A6810440860704700001F
:101F800080B5032000F08AF80F2000F009F800283F
:101F90001CBF012080BD00F02BF8002080BD000098
:101FA00070B540F20006C2F200067168E1B1044665
:101FB00040F26000C2F200004FF47A720068B2FB97
:101FC000F1F1B0FBF1F001F0FDF90F2C4FF001053C
:101FD00008D838B94FF0FF3021460022002500F024
:101FE00031F83460284670BD0125284670BD0000D8
:101FF00082B041F25800C4F20200816841F0010150
:102000008160816801F0010101910199016841F04D
:1020100080510160006800F080500090009802B08C
:1020200000F0E4B8002848BF704700F01F0101220B
:1020300002FA01F14EF200124009CEF2000242F81B
:102040002010704710B54EF60C5CCEF2000CDCF898
:102050000030C3F3022E8EF00704042C28BF0424A2
:10206000BEF103034FF0FF3E0EFA04F438BF002325
:10207000A14399400EFA03F39A4300F00F03043B87
:102080001143634409010C3300F16042B0F1FF3F9A
:10209000C8BF02F56443197010BD00004EF60C5124
:1020A000CEF200010A684FF6FF031A4060F30A22DD
:1020B00042F0806040F0FD7008607047002848D012
:1020C00047F21401C4F2000151F8142CB0F5007F5E
:1020D00040F08480C86E02F4C06240F48070B2F5B3
:1020E000806FC86633D151F8140C012262F34A2084
:1020F00041F8140C40F26000C2F200000068322285
:1021000050434DF68362C4F21B32A0FB0202900CD6
:102110000A68431C18BF12F4806213D00A680028B2
:1021200018BF12F480620DD00A68012818BF12F49B
:10213000806207D00A68022804D012F48062A0F1FD
:102140000400E5D10868400544BF03207047002023
:10215000704747F21400C4F2000050F8141CC26E1D
:1021600001F4C06122F48072B1F5806FC266EED1D5
:1021700050F8141C012262F34A2140F8141C40F26A
:102180006001C2F200010968322251434DF68362B8
:10219000C4F21B32A1FB0212910C02684B1C18BF47
:1021A00012F4806213D00268002918BF12F4806212
:1021B0000DD00268012918BF12F4806207D00268AE
:1021C000022904D012F48062A1F10401E5D1006873
:1021D000400544BF0320704700207047022060F391
:1021E0004A2241F8142C00207047000047F20800F2
:1021F000C4F20000016841F48041016070470000B2
:102200002DE9F04182B00446807841F2880600074B
:10221000C4F2020601D4002033E056F8300CC000AE
:102220000ED456F8300C4FF0010840F0805046F8BC
:10223000300C56F8300C00F080500190019801E00D
:102240004FF0000847F20007C4F20007386840F476
:1022500080703860FFF75AFB054600BF3868C0053C
:1022600000F10A81FFF752FB401B0228F6D9032038
:10227000B8F1000F05D056F8301C21F0805146F817
:10228000301C2168CA0716D18A071CD44A0722D4F9
:102290000A0728D4CA062ED48A0634D44A063AD469
:1022A0000A0640D4CA0546D48A034CD48A0552D4BF
:1022B0004A0558D466E03268636822F003021A4384
:1022C00032608A07E2D53268A36822F00C021A4312
:1022D00032604A07DCD53268E36822F030021A43E4
:1022E00032600A07D6D53268236922F0C0021A4349
:1022F0003260CA06D0D53268636922F440721A434C
:1023000032608A06CAD53268A36922F440621A4351
:1023100032604A06C4D53268E36922F440521A4357
:1023200032600A06BED53268236A22F440421A435C
:102330003260CA05B8D53268636A22F440321A4363
:1023400032608A03B2D57269A36A22F003021A438B
:1023500072618A05ACD53268E36A22F440221A43DE
:1023600032604A050ED53268236B22F440121A43BC
:10237000B3F5801F326005D156F87C2C42F48012F0
:1023800046F87C2C0A050ED53268636B22F44002B5
:102390001A43B3F5800F326005D156F87C2C42F415
:1023A000801246F87C2CCA040ED53268A36B22F04A
:1023B00040721A43B3F1807F326005D156F87C2C0D
:1023C00042F4801246F87C2C8A040ED53268E36B06
:1023D00022F040621A43B3F1006F326005D156F823
:1023E0007C2C42F4801246F87C2C4A040ED53268CC
:1023F000236C22F040621A43B3F1006F326005D1C2
:1024000056F87C2C42F4801246F87C2C0A040ED537
:102410003268636C22F040521A43B3F1805F32603D
:1024200005D156F87C2C42F4803246F87C2CCA0345
:102430000ED53268A36C22F040421A43B3F1804FAC
:10244000326005D156F87C2C42F4803246F87C2C60
:1024500049030ED57169E26C21F440111143B2F5C4
:10246000001F716105D156F87C1C41F4801146F8BB
:102470007C1C02B0BDE8F081B06810F4407010D050
:10248000216D88420BD0B068B16820F4407041F4EF
:102490008031B160B16821F48031B160B060C007B3
:1024A0000BD1B068216D20F440700843B06000206B
:1024B000B8F1000F3FF4E5AEDDE6FFF727FA054679
:1024C00041F28837B0688007EBD4FFF71FFA401B52
:1024D000B842F7D9CBE600002DE9F047002874D0C8
:1024E00042F2000AC4F2020A0446DAF800000D467D
:1024F00000F00F0088420CD2DAF8000020F00F0044
:102500002843CAF80000DAF8000000F00F00A842E3
:102510005BD1216841F20808C807C4F202080DD156
:102520004FF00009880700F1BB80B9F1800F40F03F
:10253000D080D8F8000020F0F000C8E060680328E0
:1025400037D158F8082C92013FD5D8F80420D8F894
:10255000043042F2004702F00302C0F2F407C3F372
:102560000313032A04BF43F20067C0F26E17D8F8C2
:1025700004200133B7FBF3F3C2F30622D8F804704A
:102580005A43C7F34163022707EB4303B2FBF3F25D
:102590004BF20043C0F2C4439A425ED9D8F80020FF
:1025A00012F0F00F4FD0890757D5A168002954D1F8
:1025B00049E058F8081C022805D189035CBF0120B6
:1025C000BDE8F08704E0490502D40120BDE8F087AA
:1025D000D8F8001001F00C0104293ED0D8F8001002
:1025E00001F00C01082938D0D8F8001001F00C01D6
:1025F0000C2932D1D8F80410D8F8042042F2004354
:1026000001F00301C0F2F403C2F30312032904BF73
:1026100043F20063C0F26E13D8F804100132B3FB2A
:10262000F2F2C1F30621D8F804305143C3F34162FA
:10263000022303EB4202B1FBF2F14BF20042C0F283
:10264000C442914209D9D8F80010082262F3071158
:102650004FF08009C8F8001001E04FF00009D8F8E9
:10266000001021F003010843C8F80000FFF74EF9FD
:10267000064641F2883700BFD8F80000616800F0D4
:102680000C00B0EB810F07D0FFF740F9801BB84278
:10269000F2D90320BDE8F087216888077FF545AFB0
:1026A000480705D5D8F8000040F4E060C8F80000FD
:1026B000080706D5D8F80000072262F30D20C8F8F5
:1026C0000000D8F80000A26820F0F0001043C8F81D
:1026D0000000DAF8000000F00F00A8421BD9DAF879
:1026E000000020F00F002843CAF80000FFF70EF9A1
:1026F000064641F2883700BFDAF8000000F00F000C
:10270000A84207D0FFF702F9801BB842F4D9032092
:10271000BDE8F0872168480707D5D8F80000E268CF
:1027200020F4E0601043C8F80000080708D5D8F886
:102730000000216920F4605040EAC100C8F80000A0
:10274000D8F8000042F20041C0F2F40100F00C00A1
:10275000042808462DD0D8F8000000F00C00082806
:1027600043F20060C0F26E1023D0D8F8002002F0CF
:102770000C020C2A1CD1D8F80420D8F8043002F03E
:102780000302C3F30313032A08BF0146D8F8040069
:102790000133B1FBF3F1C0F30620D8F8042048431D
:1027A000C2F34161022202EB4101B0FBF1F000E013
:1027B0000020D8F8001048F26C32C1F30311C0F6C3
:1027C0000302515C40F2600201F01F0120FA01F1A6
:1027D00040F20000C2F200000068C2F20002116084
:1027E000BDE8F047FFF7DCBB40F2600041F20801B2
:1027F000C2F20000C4F202010068096848F27C32AB
:10280000C1F30221C0F60302515C01F01F01C84070
:102810007047000040F2600041F20801C2F200007F
:10282000C4F202010068096848F27C32C1F3C22197
:10283000C0F60302515C01F01F01C8407047000060
:1028400041F20C01C4F2020151F8040C42F20042C0
:10285000C0F2F40200F00C000428104608BF7047D4
:1028600051F8040C00F00C00082843F20060C0F29C
:102870006E1021D051F8043C03F00C030C2B1CBF4C
:1028800000207047D1F800C00B680CF0030CC3F3B4
:102890000313BCF1030F08BF024608680133B2FB03
:1028A000F3F2C0F3062009685043C1F341610222EC
:1028B00002EB4101B0FBF1F0704700002DE9F0415F
:1028C00082B0002800F0F9800446007841F200064A
:1028D000C007C4F2020655D12078800700F180803D
:1028E0002078000700F1A2802078400700F1C08026
:1028F0002078800600F1E580E569002D00F0248253
:10290000B06800F00C000C2840F05A81012D00F056
:10291000D480F068216A00F003028A4240F0CD8042
:10292000626A6FF00F0300F0F00103EB02129142B4
:1029300040F0C380A16A00F4FE42B2EB012F40F0E8
:10294000BC80E16A00F07842B2EBC16F40F0B58024
:10295000226B0023CFF6E07303EA025200F4C001B9
:10296000A2F50012914240F0A880616B4FF07E42C8
:1029700002EA016100F0C06001F17E41884240F04E
:102980009C80E1E1B06800F00C01F068082966D095
:10299000032281F00C0122EA00000844B0FA80F022
:1029A00040095CD16568B5F5803F07D03068B5F562
:1029B000A02F40F02F8140F480203060306840F438
:1029C00080303060FEF7A2FF054600BF306880030C
:1029D0003FF582AFFEF79AFF401B6428F6D9D9E095
:1029E000B068F16800F00C00042850D001F0030139
:1029F00080F00C0081F002010844B0FA80F0400938
:102A000045D1E1683068002900F0C88040F480704A
:102A10003060FEF77BFF05463068400500F1F2802C
:102A2000FEF774FF401B0228F6D9B3E06169D6F8BF
:102A30009400002900F09D8040F00100C6F8940049
:102A4000FEF764FF054600BFD6F8940080073FF507
:102A50004BAFFEF75BFF401B0228F5D99AE03068C8
:102A600080037FF539AF606800287FF435AF24E03C
:102A7000B06DC00041D4B06D4FF0010840F08050FF
:102A8000B065B06D00F080500190019837E030687B
:102A9000400501D5E06880B17068216920F0FE40F2
:102AA00040EA0160706040F20000C2F2000000687D
:102AB000FFF776FA00283FF413AF012002B0BDE81B
:102AC000F081A169D6F89800002900F0BD8040F09F
:102AD0000100C6F89800FEF719FF0546D6F89800E1
:102AE00080073FF509AFFEF711FF401B02284FF0AA
:102AF0000300F3D902B0BDE8F0814FF0000847F2BF
:102B00000007C4F200073868C00510D4386840F4E4
:102B100080703860FEF7FAFE054600BF3868C005D1
:102B200005D4FEF7F3FE401B0228F7D932E0A56872
:102B3000012D08D0D6F89000052D40F09A8040F085
:102B40000400C6F89000D6F8900040F00100C6F8E6
:102B50009000FEF7DBFE054641F28837D6F890007C
:102B6000800700F1A480FEF7D1FE401BB842F5D9E2
:102B700010E020F00100C6F89400FEF7C7FE0546FD
:102B8000D6F8940080077FF5AFAEFEF7BFFE401B7E
:102B90000228F5D9032002B0BDE8F08120F480704E
:102BA0003060FEF7B3FE0546306840057FF598AE0D
:102BB000FEF7ACFE401B02284FF00300F4D999E762
:102BC000306820F080703060FEF7A0FE022D0546D0
:102BD0000CD100BF3068800172D5FEF797FE401B14
:102BE00002284FF00300F5D984E700BF3068800168
:102BF00040F1A380FEF78AFE401B02284FF003003D
:102C0000F4D977E77068216920F0FE4040EA01605E
:102C1000706065E620F480303060306820F48020F9
:102C20003060FEF773FE002D05467FF4CFAE07E05F
:102C3000FEF76CFE401B64284FF003003FF65AAFCE
:102C400030688003F4D447E620F00100C6F898000D
:102C5000FEF75CFE054600BFD6F8980080077FF5BA
:102C60004BAEFEF753FE401B02284FF00300F3D992
:102C700040E720F00100C6F89000D6F8900020F060
:102C80000400C6F89000FEF741FE002D05467FF4D3
:102C900063AF41F28837D6F89000800707D5FEF77A
:102CA00035FE401BB8424FF00300F4D922E7B8F1DB
:102CB000000F3FF41DAEB06D20F08050B06517E6F8
:102CC000F06848F20C01C0F29F1104F1200700EAFD
:102CD000010C8ECF6FF00F00D4E90C5400EB021002
:102CE0000022CFF6E07241EA0C0102EA05520843E5
:102CF000A2F500124FF07E4540EA032005EA046584
:102D0000104305F17E4540EAC7602843F060306813
:102D100040F080703060F06840F08070F060FEF746
:102D2000F5FD0446306880010ED4FEF7EFFD001B70
:102D300002284FF00300F5D9DCE6F0684FF6FC718D
:102D4000CFF6EE610840F060002002B0BDE8F081EF
:102D500070470000B0B582B00446006841688268E0
:102D60004B0609D502F04103012B05D1E16C204649
:102D700002B0BDE8B04008470B0608D512F00203C8
:102D800005D0216D204602B0BDE8B04008478B0653
:102D900010D512F4B0730DD012F0400317D094F890
:102DA0005D30032B08D100210191C1680191806839
:102DB0000190019802B0B0BD236E43F00403236676
:102DC00000230193C368019383680193019B12F070
:102DD000200302F4807203D18AB9226EDAB9E9E7DE
:102DE000236E43F00103236600230193836801935C
:102DF000036823F040030360019B002AEDD0226E9C
:102E000042F0080222660022019282680192019A31
:102E1000226E002ACED04268890722F0E00242608A
:102E20004FF0010284F85D201FD0416844F2412533
:102E300021F003014160A06DC0F6000538B1856343
:102E4000FEF7BCFA18B1206E40F040002066606DBD
:102E50000028AFD08563FEF7B1FA0028AAD0206E13
:102E600040F04000206602B0B0BD204602B0BDE890
:102E7000B040FFF76DBF0000002804BF012070477D
:102E8000B0B50446406A20B10020206104F114006E
:102E900005E06068B0F5827F03D004F11C000021DA
:102EA00001600025A56294F85D0020B9204684F8F1
:102EB0005C5000F053F8022084F85D002068D4F8DC
:102EC0000CE00268BEF5E06F22F0400202604EF4B2
:102ED000006298BF0125B2F5706F1CBF0023A3628A
:102EE0004FEA053CD4E90135D4E9042103F48273A7
:102EF00005F404452B4402F002021A44A36901F0D0
:102F00000101E569114403F40072114405F038022F
:102F1000256A114405F08002A56A114405F40052A7
:102F2000114301600421626A0EF4706501EA1341E5
:102F3000636B45EA0C0502F01002294303F0080315
:102F4000114319434160C16921F40061C16100204E
:102F50000121206684F85D10B0BD000070B586B018
:102F60000026CDE90466CDE902660446006843F216
:102F70000001C4F201018842019601D006B070BD83
:102F800041F24C00C4F20200416941F480514161B8
:102F9000416901F4805100910099016841F00101FB
:102FA0000160006801A900F0010000900098A020D5
:102FB00001900220CDE90200032004900520059035
:102FC0004FF09040FEF7A6FB41F2EC250820C2F23C
:102FD0000005C4F202000B211022802385E847007F
:102FE0004FF40050C5E90436C5E906662862284654
:102FF000FEF77AFA002818BFFDF76EFC23200121A6
:1030000000226565AC62FFF71DF82320FFF70AF880
:1030100006B070BD2DE9F04182B0044690F85C0026
:10302000012803D1022002B0BDE8F08101201D4635
:1030300016460F4684F85C00FEF768FC94F85D10B5
:1030400001290CD18046002F4FF0010018BF002E3F
:103050000CD1002184F85C1002B0BDE8F0810220A0
:10306000002184F85C1002B0BDE8F081032000214B
:1030700084F85D002166A763A687E6872164A4F82B
:103080004410A4F84610A068E164B0F5004F206831
:10309000216507D1016821F040010160016841F418
:1030A000804101600168490603D4016841F0400194
:1030B00001606168731EE268B1FA81F1B3FA83F3CB
:1030C00049095B09B2F5E06F41EA03013BD931B12F
:1030D00037F8021BC160A763E18F0139E187E18FF7
:1030E000002900F09180691C1BD000BF816889070E
:1030F00006D4FEF70BFCA0EB0800A84208D3B7E00B
:10310000A16B31F8022BC260A163E08F0138E08728
:10311000E08F002878D0206881688907E9D5EFE73B
:1031200020688168890702D4FEF7F0FB07E0A16BF5
:1031300031F8022BC260A163E08F0138E087E08F95
:103140000028EDD160E089B1E18F02294FF6FE71D0
:1031500003D337F8022BC26004E03A7801310273DE
:10316000A06B471CA763E08F0844E087E08F00282E
:103170004AD0681C2AD04FF6FE70461C07E0FEF7C6
:10318000C5FBA0EB0800A84272D2E08FE0B3216833
:1031900088688007F3D5E28FA06B012A05D930F843
:1031A000022BCA604FF6FE7104E000780873A06B32
:1031B00031460130A063E08F0844E087E08F0028AB
:1031C000E5D121E0FEF7A2FBE08FE8B1206881683D
:1031D0008907F7D5E28FA16B022A0AD331F8022BB7
:1031E000C260A163E08F0238E087E08F0028EDD154
:1031F0000AE009780173A06B0130A063E08F013809
:10320000E087E08F0028E1D120464FF4C0512A46E4
:10321000434601F081F868B920462946424601F04C
:103220001DF938B920464FF4C0612A46434601F0E3
:1032300073F828B1206E40F0200020662020206620
:10324000A06838B9002001902068C16801918068A9
:1032500001900198206E00284FF0010004BF84F80F
:103260005D000020002184F85C1002B0BDE8F08110
:10327000012084F85D000320002184F85C1002B076
:10328000BDE8F08170B5044690F85C00012804BFE9
:10329000022070BD012084F85C0094F85D000128D4
:1032A00009D100294FF0010018BF002A08D10021E0
:1032B00084F85C1070BD0220002184F85C1070BDA1
:1032C0000320002384F85D002366A163A287E287C0
:1032D0002364C4E91333A4F84430A4F84630A0684A
:1032E0002268B0F5004F07D1106820F04000106050
:1032F000106840F480401060606D44F2712E44F21A
:10330000792544F25126C0F6000EC0F60005C0F63D
:103310000006D4F80CC0C0E90B5EC0E90D63536829
:10332000BCF5E06F23F48043536015D88369B3F58F
:10333000806F11D1E68F5368F60705D123F48043DF
:103340005360E38F5B0806E043F480435360E38FF0
:10335000012606EB5303E387E38F0C32FEF754F9A3
:1033600040B1206E40F0100020660120002184F85A
:103370005C1070BD20680168490603D4016841F003
:1033800040010160416841F020014160416841F025
:10339000020141600020002184F85C1070BD000033
:1033A000006843F20001C4F20101884218BF70476F
:1033B00040F20810C2F200001C3011F057BA0000B1
:1033C00070470000411E0020B0EB116F1CBF0120B0
:1033D00070474EF21002CEF2000251604EF62351B9
:1033E000CEF20001F0230B7007219060116070474E
:1033F00070470000704700007047000070470000F1
:10340000704700007047000070B590F83C20012A1A
:103410004FF0020264D0012380F83C3080F83D2058
:10342000026842F600435468D2F808C0C4F20103AF
:1034300045F2000E9A42C4F2010E18BF72452AD11D
:103440004D6824F470042C434FF68F75CFF6FF556A
:103450000E682C4042F6FF35C4F201053443AA42FF
:1034600054600DDC40F2FF73C4F200039A4219DC91
:10347000B2F1804F29D040F20043C4F2000322E0B1
:1034800043F6FF74C4F20104A24216DC9A421CD037
:1034900043F2004315E043F20045C4F20105AA429D
:1034A000CED0D1E740F60003C4F200039A420CD01C
:1034B00040F60043C4F2000305E0724505D044F233
:1034C0000003C4F201039A4204D189682CF08003FE
:1034D000194391600121002280F83D1080F83C20C2
:1034E000104670BD70470000002804BF01207047DF
:1034F00010B5044690F83D0028B9002084F83C003F
:10350000204600F023F8022084F83D002068211DA9
:1035100001F0E6FC012084F8480084F83E0084F8BD
:103520003F0084F8400084F8410084F8420084F8A9
:10353000430084F8440084F8450084F8460084F889
:10354000470084F83D00002010BD000080B582B027
:10355000006841F20001C4F2000188421CBF02B0C1
:1035600080BD41F25800C4F202000168002241F01F
:103570001001016000680E2100F010000190019818
:103580003620FEF75FFD362002B0BDE88040FEF732
:1035900049BD000090F83D1001291CBF0120704773
:1035A000022180F83D10016842F6FF32C868C4F27B
:1035B0000102914240F00100C8600DDC40F2FF7052
:1035C000C4F20000814216DCB1F1804F2AD040F2F3
:1035D0000040C4F2000023E043F6FF70C4F2010093
:1035E000814213DC42F60040C4F20100814219D04E
:1035F00043F2004012E040F60000C4F200008142B5
:1036000010D040F60040C4F2000009E045F200008E
:10361000C4F20100814205D044F20000C4F201006E
:10362000814212D188680722C0F201020240062AB4
:103630004FF000000ED0B2F5803F08BF7047086819
:1036400040F00100086000207047086840F0010069
:10365000086000207047000070470000F0B581B09E
:1036600004460068C768066906EA0705A90739D451
:10367000680751D428076BD4E80600F18680E80774
:1036800040F0A18017F0800718BF16F4025040F0F8
:10369000A880002F18BF16F4807040F0AF80680635
:1036A00000F1B680A80600F1BD80E80200F1C480F8
:1036B000A80200F1CB80680206D520686FF4800173
:1036C00001612046FFF79EFE28025CBF01B0F0BDFD
:1036D00021686FF4000220460A6101B0BDE8F040A5
:1036E000FFF700BF6FF002010161012121778069BE
:1036F000800707D02046FFF7AFFF0020207768073C
:10370000B8D509E0204600F0ADF8204600F0ACF84E
:10371000002020776807ADD520686FF004010161B3
:1037200002212177806910F4407F07D02046FFF7FF
:1037300093FF0020207728079ED509E0204600F05F
:1037400091F8204600F090F800202077280793D5C4
:1037500020686FF00801016104212177C0698007AA
:1037600008D02046FFF778FF00202077E8067FF595
:1037700086AF0AE0204600F075F8204600F074F8A5
:1037800000202077E8067FF57AAF20686FF01001FF
:10379000016108212177C06910F4407F08D02046DC
:1037A000FFF75AFF00202077E8073FF46BAF0AE0ED
:1037B000204600F057F8204600F056F80020207709
:1037C000E8073FF45FAF20686FF001010161204618
:1037D00000F04CF817F0800718BF16F402503FF4C1
:1037E00058AF20686FF4025101612046FFF702FED6
:1037F000002F18BF16F480703FF451AF20686FF4AB
:10380000807101612046FFF7F3FD68067FF54AAF3E
:1038100020686FF040010161204600F04BF8A806D7
:103820007FF543AF20686FF0200101612046FFF76C
:10383000E3FDE8027FF53CAF20686FF48011016181
:103840002046FFF7DDFDA8027FF535AF20686FF455
:10385000001101612046FFF7D1FD68027FF534AF0A
:103860002BE70000704700007047000080B500683B
:1038700041F20001C4F20001884218BF80BD01205E
:103880002CF08EFB40F24032C2F200021088411C44
:10389000B0F5FA7F11800BD9002340F60000C4F682
:1038A00000004FF400511380BDE88040FEF720B8BF
:1038B00080BD00007047000090F88410012904BF0B
:1038C000022070472421C0F888100268116813682C
:1038D00023F00103136021F00053002141661360BF
:1038E0002022C0F8882080F8841008467047000025
:1038F000B0B590F88420012A04BF0220B0BD012396
:10390000242280F88430C0F888200268D0F864E06F
:10391000D2F800C01468BEF1000F24F00104146056
:10392000946824F0606441EA0401916019D09168C0
:1039300048F25C5EC1F342619368C0F6030E5B0F10
:1039400048F264551EF80340C0F60305EB5CE40042
:10395000B4FBF3F31EF80140695CE500B5FBF1F13F
:1039600000E00121A0F868102021A0F86A30C2F818
:1039700000C0C0F88810002180F884100846B0BD4F
:10398000B0B590F88420012A04BF0220B0BD012305
:10399000242280F88430C0F888200268D0F864E0DF
:1039A000D2F800C01468BEF1000F24F001041460C6
:1039B000946824F0604441EA0401916019D0916850
:1039C00048F25C5EC1F342619368C0F6030E5B0F80
:1039D00048F264551EF80340C0F60305EB5CE400B2
:1039E000B4FBF3F31EF80140695CE500B5FBF1F1AF
:1039F00000E00121A0F868102021A0F86A30C2F888
:103A000000C0C0F88810002180F884100846B0BDBE
:103A100010B5D8B10446D0F8880028B9002084F841
:103A20008400204600F026F82420C4F8880020688E
:103A3000A16A026822F00102026011B1204601F081
:103A4000F3FA204601F01AFC012801D1012010BD33
:103A50002168486820F490404860886820F02A0077
:103A60008860086840F0010220460A60BDE8104006
:103A700001F04EBB70B59CB00446002502A854214D
:103A80001B95CDE91955CDE91755FCF7E6FD2068E2
:103A900048F20001C4F20001884201D01CB070BDA0
:103AA0002020029002A80895FEF7AAFB002818BF64
:103AB000FCF712FF41F24C00C4F20200016900263B
:103AC00041F001010161016901F0010101910199D8
:103AD000016841F004010160006817A900F00400CA
:103AE0000190019803201790022018900820CDE93A
:103AF00019661B9040F60000C4F60000FDF70AFEB0
:103B000041F28C251C20C2F20005C4F202002321E0
:103B10001022802385E847004FF44050C5E9043661
:103B2000C5E9066628622846FDF7DEFC002818BFB6
:103B3000FCF7D2FEE567AC621CB070BDFEE700008A
:103B400070B50446006815468369DA0602D4002180
:103B500000226AE00E461021C1618169890660D4A5
:103B6000711C54D046BBFDF7D1FE2068426894F822
:103B700042308169202B0DD012F480420AD111F419
:103B8000004107D0416841F480414160FDF7BEFE2D
:103B9000054600BF20688169890605D4FDF7B6FE99
:103BA000401B1A28F6D32AE081698906DBD538E064
:103BB00020688169890634D4FDF7A8FE401BB04215
:103BC000F6D92068426894F842308169202B0DD0E4
:103BD00012F480420AD111F4004107D0416841F447
:103BE00080414160FDF792FE054600BF2068806974
:103BF0008006DDD4FDF78AFE401B1A28F6D3206824
:103C000001228169242110E08169890609D4816932
:103C1000890606D4816989065CBF81695FEA816192
:103C2000F2D52021C161012204218369DE0506D479
:103C30005E050CD49B0512D4B2B9002070BD4FF4C0
:103C4000807241F00101C26101225E05F2D54FF49C
:103C5000806241F00801C26101229B05ECD541F070
:103C600002014FF40072C2618269920744BF0022D0
:103C700082628269D20703D1826942F001028261C5
:103C800042684EF60003CFF600631A404260606C53
:103C900008436064202084F84100002084F842003A
:103CA00084F84000012070BD2DE9F0410446006811
:103CB00080690840401AB0FA80F04009904233D140
:103CC000DDF8188015460E461F46581C1CD0BFBB99
:103CD000204600214246FFF733FF002851D1FDF76F
:103CE00015FE206881693140891BB1FA81F14909CB
:103CF000A9423AD080693040801BB0FA80F0400978
:103D0000A842E5D010E000BF20464FF0FF31424608
:103D1000FFF716FFA8BB206880693040801BB0FA0F
:103D200080F04009A842EFD00020BDE8F08100BF3C
:103D300080693040801BB0FA80F04009A842F3D17E
:103D4000204639464246FFF7FBFED0B9FDF7DEFDBF
:103D5000A0EB08012068B942EAD981693140891B8A
:103D6000B1FA81F14909A942E2D1606C40F020002A
:103D70006064202084F84100002084F8420084F828
:103D800040000120BDE8F08170B5044600688069FC
:103D9000800635D415460E4619B928E0806980069C
:103DA0002ED4204631462A46FFF7CAFE30BBFDF727
:103DB000ADFD411B2068B142F0D981698906EDD47F
:103DC000606C40F020006064202084F841000020F6
:103DD00084F8420084F84000012070BDFDF796FD94
:103DE000206881698906EBD58069800608D4204661
:103DF00000212A46FFF7A4FE0028EFD0012070BD65
:103E0000002070BD70B5044600688069800720D42A
:103E100015460E46481C11D00EBB00BF204600219F
:103E20002A46FFF78DFEA8BBFDF770FD206881696B
:103E3000890723D580698007F0D50AE020464FF036
:103E4000FF312A46FFF77CFE20BB2068806980078F
:103E5000F4D5002070BD00BF80698007F9D42046EA
:103E600031462A46FFF76CFEA0B9FDF74FFD411B16
:103E70002068B142F0D981698907EDD4606C40F0C7
:103E800020006064202084F84100002084F8420073
:103E900084F84000012070BD10B58CB041F22020A4
:103EA000C2F200004FF0A04100244FF4403204233E
:103EB00080E8160001210B94CDE90944CDE90744BF
:103EC000CDE90544CDE90344CDE90144C0E903440B
:103ED000C0E905438483016280F82440C0E90B44B3
:103EE00080F83840C46380F84040FDF7EBF80028C4
:103EF00018BFFCF7F1FC41F22020C2F2000009A932
:103F00000994FCF753FE002818BFFCF7E5FC44F2C7
:103F10000000C3F6C020019006207F2102900020FF
:103F2000049104210390CDE9051041F22020C2F252
:103F3000000001A9FCF7D0FE002818BFFCF7CCFC5C
:103F40000CB010BD80B582B041F24800C4F202004E
:103F50000168002241F004010160016801F00401E0
:103F600001910199016841F001010160006802219D
:103F700000F00100009000980B20FEF763F80B2082
:103F8000FEF750F80C2004210022FEF75BF80C200D
:103F900002B0BDE88040FEF745B800002DE9F043CF
:103FA00087B0002641F24C000696C4F20200016878
:103FB00040F6000441F0040101600168C4F6000409
:103FC00001F00401019101990168002241F02001F2
:103FD0000160016801F0200101910199016841F03F
:103FE00001010160016801F001010191019901687D
:103FF00041F002010160006842F2D00100F00200CD
:10400000019001982046FDF77BFC4FF09040102175
:1040100000224FF01009FDF773FC4FF09040402153
:1040200001224FF040080127FDF76AFC4FF40050D1
:1040300002ADCDE9020720462946CDE90466FDF729
:1040400069FB5020CDE90207032005904FF0904016
:1040500029460497FDF75EFB20462946CDE90297E5
:10406000CDE90476FDF756FBCDE9028704960226DA
:10407000204629460596FDF74DFB8020CDE9020735
:1040800020462946CDE90476FDF744FB07B0BDE89C
:10409000F083000080B541F24C3047F60001C2F2D7
:1040A0000000C4F200014AF2FB720023C3F2A00236
:1040B0004FF0010C80E80E10C0E90433C0E906336C
:1040C0000362FDF773FC002818BFFCF705FC41F202
:1040D0004C30C2F200000021FDF71EFC002818BF82
:1040E000FCF7FAFB41F24C30C2F200000021FDF770
:1040F00039FC002808BF80BDBDE88040FCF7ECBB60
:1041000080B541F2A03048F20001C2F20000C4F2D2
:10411000000100234FF00C0C4FF4E13280E80E0058
:10412000C0E90333C0E905C3C0E908338362FFF780
:104130006FFC002818BFFCF7CFFB41F2A030C2F2A1
:1041400000000021FFF71CFC002818BFFCF7C4FB8F
:1041500041F2A030C2F200000021FFF7C9FB0028A5
:1041600018BFFCF7B9FB41F2A030C2F20000FFF724
:10417000A3FB002808BF80BDBDE88040FCF7ACBBB6
:10418000B0B541F2344043F20001C2F20000C4F283
:1041900001014FF4827200234FF4E06C4FF0020EE5
:1041A00080E80E5000F114014FF40074082538C166
:1041B0000721C0E90833C0E90A31C0E90C35FEF730
:1041C0005BFE002808BFB0BDBDE8B040FCF784BB73
:1041D00010B584B041F2984041F20001C2F20000F3
:1041E000C4F200010024A92240F2E73380E816005F
:1041F00080210394CDE90144C3608161FFF774F924
:10420000002818BFFCF768FB41F29840C2F200009A
:1042100001A901940394FFF7F7F8002818BFFCF7F1
:104220005BFB04B010BD0000FEE70000FEE70000ED
:104230007047000041F23440C2F20000FEF78ABD30
:10424000806A0021A0F84610C187FEF781BD0000FA
:10425000806A01684A6822F003024A60016E41F0F8
:1042600010010166012180F85D10FEF771BD0000AC
:10427000806AFFF7A5B80000B0B582B0846A054631
:10428000FDF744FB2968096889063ED40546206885
:10429000642241682B4621F020014160416821F0F1
:1042A0000201416020464FF4C05100F035F868B972
:1042B000204664212A4600F0D1F838B920464FF450
:1042C000C06164222B4600F027F838B1206E40F020
:1042D00020002066206E40F020002066A06838B9DB
:1042E000002001902068C1680191806801900198C8
:1042F0000020E087012084F85D00206E28B1204670
:1043000002B0BDE8B040FEF723BD204602B0BDE8D4
:10431000B040FFF745B800002DE9F04782B0002714
:104320001D4690460E4681468DF80370FDF7EEFA65
:10433000281A00EB0804FDF7E9FA40F26001C2F226
:104340000001096823225143090DD9F80050614347
:104350000191A968314277D08246B6F5C06F1FD16E
:1043600008F10106284603E0816811F4C06F6FD0A0
:10437000297B002E8DF803109DF80310F4D0FDF773
:10438000C5FAA0EB0A00A04223D2019901980029A6
:10439000A0F101000190D9F8000008BF0C46E3E746
:1043A00018F1010042D000BFFDF7B0FAA0EB0A00FF
:1043B000A0420ED2019801990028A1F101010191BA
:1043C000D9F80010896808BF04463142ECD10027B3
:1043D0003AE0D9E900014268B1F5827F22F0E002BB
:1043E00042600BD1D9F80810B1F5004F02D0B1F5F9
:1043F000806F03D1016821F040010160D9F82810D5
:10440000B1F5005F07D1016821F400510160016836
:1044100041F400510160012089F85D00002089F815
:104420005C000327384602B0BDE8F087002700BFD4
:10443000A86830420CD0A868304209D0A868304241
:1044400006D0A8683042F3D1384602B0BDE8F08704
:104450000027384602B0BDE8F0870000F0B581B013
:1044600015460E460446FDF751FA281A8719FDF73E
:104470004DFA40F26001C2F200010968C1F3CB318C
:104480007943009121688A68120622D50546701C7E
:1044900015D000BFFDF73AFA401BB8421CD2009875
:1044A00000990028A1F1010100912168896808BFE5
:1044B00007460806EED40CE08868000609D588682F
:1044C000000606D58868000644BF88685FEA006079
:1044D000F2D4002001B0F0BDD4E900014268B1F58A
:1044E000827F22F0E00242600AD1A168B1F5004F5C
:1044F00002D0B1F5806F03D1016821F04001016065
:10450000A16AB1F5005F07D1016821F40051016093
:10451000016841F400510160012084F85D00002031
:1045200084F85C00032001B0F0BD00002DE9F047E5
:1045300084B007468009042800F2D1800E46EF2996
:1045400000F2CD80D0191546B0F5A07F00F2C780EB
:1045500003EB06091C46B9F1F00F00F2C080A0F190
:10456000010A2A208DF80D004FF0904040210022D2
:10457000FDF7C6F941F23448C2F200080DF10D0111
:10458000404601224FF0FF33FEF744FD380A8DF814
:1045900009004FEA1A208DF80B004FF0904040219F
:1045A00001228DF80A708DF80CA0FDF7A9F940F2F0
:1045B0005C0AC2F2000ABAF80000042840F29280B5
:1045C00041F23440C2F200000DF1090104224FF023
:1045D000FF33FEF71FFD2B208DF80E004FF09040AB
:1045E00040210022A9F10107FDF78AF941F2344880
:1045F000C2F200080DF10E01404601224FF0FF33D8
:10460000FEF708FD300A8DF80500380A8DF807001E
:104610004FF09040402101228DF806608DF808701F
:10462000FDF76EF9BAF80000042877D941F234405A
:10463000C2F200000DF1050104224FF0FF33FEF736
:10464000E9FC2C208DF80F004FF090404021002213
:104650000027FDF755F941F23446C2F200060DF18C
:104660000F01304601224FF0FF33FEF7D3FC4FF02D
:104670009040402101226543FDF742F9B7EB450F19
:104680002DD00C9C6D004FF6FF7808E03046214697
:104690004FF0FF33FEF7BEFCED1B3C441FD0BAF8D1
:1046A000000045454FF6FF7738BF2F46BAB2854226
:1046B000ECD330462146FEF7E5FD706D90F82510ED
:1046C0000129E9D090F825100129E5D090F82510AE
:1046D0000129E1D090F825100129EFD1DCE704B0E1
:1046E000BDE8F0870DF1090140460422FEF7CAFD3E
:1046F000D8F8540090F8251001293FF46CAF90F8D9
:10470000251001293FF467AF90F8251001293FF4E7
:1047100062AF90F825100129ECD15CE70DF105019D
:1047200040460422FEF7AEFDD8F8540090F825105C
:1047300001293FF486AF90F8251001293FF481AF9D
:1047400090F8251001293FF47CAF90F8251001293D
:10475000ECD176E72DE9F04184B004462A208DF8AB
:104760000D004FF0904040210022FDF7C9F841F2C2
:104770003445C2F200050DF10D01284601224FF02B
:10478000FF33FEF747FC0020C3F60170CDF80900A7
:104790004FF0904040210122FDF7B2F840F25C0852
:1047A000C2F20008B8F80000042840F2898041F203
:1047B0003440C2F200000DF1090104224FF0FF3332
:1047C000FEF728FC2B208DF80E004FF09040402182
:1047D0000022FDF795F841F23445C2F200050DF1D3
:1047E0000E01284601224FF0FF33FEF713FC4FF075
:1047F0006F40CDF805004FF0904040210122FDF7B9
:104800007FF8B8F80000042876D941F23440C2F2AB
:1048100000000DF1050104224FF0FF33FEF7FAFB13
:104820002C208DF80F004FF09040402100220027EF
:10483000FDF766F80DF10F01284601224FF0FF3316
:10484000FEF7E8FB40F29446E4B2C2F200060BE049
:10485000284631464FF448624FF0FF33FEF7DAFB4B
:104860002F2F07F1010728D230464FF44861224626
:10487000FBF7C9FE4FF0904040210122FDF740F8C0
:10488000B8F80000B0F5486FE2D8284631464FF43A
:104890004862FEF7F7FC686D90F825100129DFD01B
:1048A00090F825100129DBD090F825100129D7D0E8
:1048B00090F825100129EFD1D2E704B0BDE8F081CE
:1048C0000DF1090128460422FEF7DCFC686D00BFEB
:1048D00090F8251001293FF475AF90F825100129B3
:1048E0003FF470AF90F8251001293FF46BAF90F8BA
:1048F00025100129ECD165E70DF1050128460422B8
:10490000FEF7C0FC686D00BF90F8251001293FF448
:1049100087AF90F8251001293FF482AF90F8251059
:1049200001293FF47DAF90F825100129ECD177E7FC
:1049300070B584B040F29440C2F200004FF4486178
:10494000FBF78BFE0A20FCF7D1FE4FF090401021C0
:104950000022FCF7D5FF0A20FCF7C8FE4FF090407C
:1049600010210122FCF7CCFF1420FCF7BFFE3A20F7
:104970008DF800004FF0904040210022FCF7C0FF6E
:1049800041F23444C2F200046946204601224FF04D
:10499000FF33FEF73FFB55208DF800004FF09040AD
:1049A00040210122FCF7ACFF6946204601224FF06E
:1049B000FF33FEF72FFBB2208DF800004FF0904040
:1049C00040210022FCF79CFF6946204601224FF05F
:1049D000FF33FEF71FFB3320019040F60C40C3F27B
:1049E000003000904FF0904040210122FCF788FFFA
:1049F00040F25C05C2F200052888052840F2FA81E1
:104A000041F23440C2F20000694605224FF0FF3304
:104A1000FEF700FB36208DF800004FF0904040215B
:104A20000022FCF76DFF41F23444C2F200046946F3
:104A3000204601224FF0FF330126FEF7EBFA6020FB
:104A40008DF800004FF0904040210122FCF758FF04
:104A50006946204601224FF0FF33FEF7DBFAB7200C
:104A60008DF800004FF0904040210022FCF748FFF5
:104A70006946204601224FF0FF33FEF7CBFA35207E
:104A80008DF800004FF0904040210122FCF738FFE4
:104A90006946204601224FF0FF33FEF7BBFABB20E8
:104AA0008DF800004FF0904040210022FCF728FFD5
:104AB0006946204601224FF0FF33FEF7ABFA19207A
:104AC0008DF800004FF0904040210122FCF718FFC4
:104AD0006946204601224FF0FF33FEF79BFAC020C3
:104AE0008DF800004FF0904040210022FCF708FFB5
:104AF0006946204601224FF0FF33FEF78BFA2C2047
:104B00008DF800004FF0904040210122FCF7F8FEA4
:104B10006946204601224FF0FF33FEF77BFAC220A0
:104B20008DF800004FF0904040210022FCF7E8FE95
:104B30006946204601224FF0FF33FEF76BFA4FF033
:104B40009040402101228DF80060FCF7D9FE6946B3
:104B5000204601224FF0FF33FEF75CFAC3208DF8A8
:104B600000004FF0904040210022FCF7C9FE69464A
:104B7000204601224FF0FF33FEF74CFA12208DF849
:104B800000004FF0904040210122FCF7B9FE694639
:104B9000204601224FF0FF33FEF73CFAC4208DF887
:104BA00000004FF0904040210022FCF7A9FE69462A
:104BB000204601224FF0FF33FEF72CFA20208DF81B
:104BC00000004FF0904040210122FCF799FE694619
:104BD000204601224FF0FF33FEF71CFAC6208DF865
:104BE00000004FF0904040210022FCF789FE69460A
:104BF000204601224FF0FF33FEF70CFA0F208DF80C
:104C000000004FF0904040210122FCF779FE6946F8
:104C1000204601224FF0FF33FEF7FCF9D0208DF83B
:104C200000004FF0904040210022FCF769FE6946E9
:104C3000204601224FF0FF33FEF7ECF9A4208DF857
:104C400000004FF0904040210122FCF759FE6946D8
:104C5000204601224FF0FF33FEF7DCF9A1208DF84A
:104C600000004FF0904040210122FCF749FE6946C8
:104C7000204601224FF0FF33FEF7CCF9E0208DF8FB
:104C800000004FF0904040210022FCF739FE6946B9
:104C9000204601224FF0FF33FEF7BCF942F21F30ED
:104CA000039041F64C00C0F60D30029042F61330EE
:104CB000C5F23F40019040F2D040C1F20D1000908B
:104CC0004FF0904040210122FCF71AFE28880E2860
:104CD00040F2AA8041F23440C2F2000069460E223E
:104CE0004FF0FF33FEF796F9E1208DF800004FF00A
:104CF000904040210022FCF703FE41F23444C2F20E
:104D000000046946204601224FF0FF33FEF782F986
:104D100042F22030039042F65170C1F61F700290AB
:104D200042F61340C4F23F40019040F2D040C1F23D
:104D30000C1000904FF0904040210122FCF7E0FD64
:104D400028880E2840F28A8041F23440C2F20000E6
:104D500069460E224FF0FF33FEF75CF920208DF8F4
:104D600000004FF0904040210022FCF7C9FD41F2C5
:104D70003444C2F200046946204601224FF0FF335A
:104D8000FEF748F911208DF800004FF090404021C7
:104D90000022FCF7B5FD6946204601224FF0FF33A3
:104DA000FEF738F913208DF800004FF090404021B5
:104DB0000022FCF7A5FD6946204601224FF0FF3393
:104DC000FEF728F929208DF800004FF0904040218F
:104DD0000022FCF795FD6946204601224FF0FF3383
:104DE000FEF718F93220FCF781FC0020FFF7B2FC37
:104DF00004B070BD694620460522FEF743FA606D97
:104E000090F8251001293FF405AE90F825100129EE
:104E10003FF400AE90F8251001293FF4FBAD90F867
:104E200025100129ECD1F5E5694620460E22FEF752
:104E300029FA606D90F8251001293FF455AF90F8DC
:104E4000251001293FF450AF90F8251001293FF4B7
:104E50004BAF90F825100129ECD145E76946204673
:104E60000E22FEF70FFA606D90F8251001293FF42D
:104E700075AF90F8251001293FF470AF90F8251018
:104E800001293FF46BAF90F825100129ECD165E7BB
:104E90007047000080B5FDF765F840F24230C2F27D
:104EA00000000188042908D141F21C21C2F200014E
:104EB00001220A700021018080BD0131018080BD86
:104EC0004EF68850CEF20000016841F47001016096
:104ED0007047000041F29840C2F20000FEF7BEBBEE
:104EE00080B540F6FF330268C4F2000343F2FF3C92
:104EF0009842C4F2010C0ADD60452EDC40F6004306
:104F0000C4F20003984234D042F600432DE0B0F1E1
:104F1000804F2ED040F20043C4F20003984228D0C4
:104F200040F60003C4F20003984222D0604526DC1C
:104F300040F2FF73C4F20003984235DD40F60003EF
:104F4000C4F20003984243D040F60043C4F2000389
:104F500098423DD042F6004336E045F20003C4F2E9
:104F60000103984205D043F20043C4F20103984282
:104F7000DCD14B6822F070021A436045D8DD44F260
:104F8000FF33C4F20103984216DD44F20043C4F239
:104F9000010398421CD045F20003C4F20103984279
:104FA00016D044F600030FE0B0F1804F10D040F26D
:104FB0000043C4F2000309E043F20043C4F20103DA
:104FC000984205D044F20003C4F20103984203D191
:104FD000CB6822F440721A434B6922F0800E8A6833
:104FE00043EA0E03D1F800C00360C262A0F1804220
:104FF000A2F596324FEAB222092AC0F828C008D892
:10500000012303FA02F240F2E5231A421CBF0969A8
:105010000163012141610169C90708BF80BD0169C0
:1050200021F00101016180BD80B5816A0A070CD4BD
:10503000CA0715D18A071ED44A0727D4CA0630D416
:105040008A0639D44A0657D541E00268D0F838C0FC
:10505000536823F4004343EA0C035360CA07E9D0C2
:105060000268D0F82CC0536823F4003343EA0C03E1
:1050700053608A07E0D50268D0F830C0536823F443
:10508000803343EA0C0353604A07D7D50268D0F84F
:1050900034C0536823F4802343EA0C035360CA06E8
:1050A000CED50268D0F83CC0936823F4805343EA1D
:1050B0000C0393608A06C5D50268D0F840C0936897
:1050C00023F4005343EA0C0393604A0614D50268A4
:1050D000D0F844C05368BCF5801F23F4801343EA22
:1050E0000C03536008D1D2F804C0D0F848E02CF487
:1050F000C00343EA0E035360090658BF80BD016830
:10510000C06C4A6822F400221043486080BD000051
:10511000B0B582B004460020C4F89000FCF7F6FB5E
:10512000216805460A68120736D56FF07E4C204686
:105130004FF4001100222B46CDF800C000F0FAF920
:1051400048B300BF206850E8000F216820F08000BD
:1051500041E80002DAB1206850E8000F216820F031
:10516000800041E8000292B1206850E8000F2168F9
:1051700020F0800041E800024AB1206850E8000FAA
:10518000216820F0800041E80002002ADAD12020C6
:10519000C4F888005EE021680868400760D56FF0B9
:1051A0007E4C20464FF4800100222B46CDF800C0F3
:1051B00000F0C0F9002853D0206850E8000F2168A3
:1051C00020F4907041E80002BAB3206850E8000F64
:1051D000216820F4907041E8000272B3206850E822
:1051E000000F216820F4907041E800022AB3206883
:1051F00050E8000F216820F4907041E80002002A76
:10520000DAD11AE0206850E8020F216820F001008E
:1052100041E80202DAB1206850E8020F216820F06C
:10522000010041E8020292B1206850E8020F2168B3
:1052300020F0010041E802024AB1206850E8020F64
:10524000216820F0010041E80202002ADAD1202082
:10525000C4F88C000320002184F8841002B0B0BD93
:105260002020C4F88800C4F88C000020E066206785
:10527000002184F8841002B0B0BD000070B504466F
:105280002269D4E9021300680A436169E66911439F
:10529000026846F6F315CCF6FF7531432A401143F8
:1052A0000160416848F2000C21F44051194341600B
:1052B000A269C4F2000C60451CBF216A0A438168E0
:1052C0004FF2FF43C1F2FF13194011438160C16ADD
:1052D000D4F824E021F00F0141EA0E01C16244F646
:1052E000FF71C4F2000188424FF0100318DC44F251
:1052F0000041C4F20001884227D044F60001C4F204
:105300000001884228D044F60041C4F200018842DE
:105310003ED141F28801C4F2020109688B092FE0F5
:1053200045F20001C4F2000188421CD0604521D042
:1053300043F60001C4F20101884229D141F28801FB
:10534000C4F202010B6877A21EE041F28801C4F2A8
:10535000020109688B0813E041F28801C4F20201DE
:1053600009680B090CE041F28801C4F202010968E6
:105370000B0A05E041F28801C4F2020109688B0AB8
:1053800048F24C52C0F6030203F0030152F82130F8
:10539000604542F20040C0F2F40013D0B6F5004F71
:1053A00022D1082B4FF0010100F2B480DFE803F0B6
:1053B000055E6CB264B2B2B26A00FDF715FA00285D
:1053C00057D15DE0082B4FF0010100F2A380DFE828
:1053D00003F005A124A11CA1A1A12200FDF704FA5C
:1053E000B8B1D4F824E018E0082B4FF0010100F226
:1053F0009180DFE803F00569778F6F8F8F8F7500DD
:10540000FDF7F2F9002862D168E0FDF719FA0028EB
:10541000E7D100217EE04FF4004048F28431C0F62D
:10542000030131F81E106268B0FBF1F002EB42019B
:1054300088424FF001016DD3130398426AD8010EE0
:10544000000210EB520041F100010023FAF73EFF89
:105450004FF6FF42A0F54071C0F20F02914203D80F
:105460002168C860002155E0012153E0FDF7D2F921
:1054700030B1D4F824E007E0FDF7E2F90028F8D1D4
:10548000002147E04FF4004048F28431C0F60301A8
:1054900031F81E106268B0FBF1F0510801EB4000DA
:1054A000B0FBF2F04FF6EF72A0F11001914209D873
:1054B0004FF6F0710140C0F3420022680844D0600A
:1054C000002127E0012125E0FDF7A4F930B1D4F84F
:1054D00024E007E0FDF7B4F90028F8D1002119E035
:1054E0004FF4004048F28431C0F6030131F81E1039
:1054F0004FF6EF72B0FBF1F0616800EB5100B0FBCA
:10550000F1F0A0F11001914203D82168C860002198
:1055100000E001214FF00110A066002208466267FA
:10552000A26770BD0100000004000000020000003E
:10553000080000002DE9F041804600681546C26968
:105540000E461140891BB1FA81F14909A94223D1C4
:10555000069C24B3611C27D1C1693140891BB1FA73
:1055600081F14909A94217D1C1693140891BB1FABA
:1055700081F14909A9420FD1C1693140891BB1FAB2
:1055800081F14909A94207D1C1693140891BB1FAAA
:1055900081F14909A942DFD00020BDE8F081FCF784
:1055A000B5F90320BDE8F0811F4607E0C06930402F
:1055B000801BB0FA80F04009A842EDD1FCF7A6F9B3
:1055C000C01BA04241D8D8F8000001684907EDD5BA
:1055D000402EEBD0802EE9D0C169090738D4C169CB
:1055E0000905E3D54FF40061016250E8000FD8F8D7
:1055F000001020F4907041E80002002A5DD0D8F835
:10560000000050E8000FD8F8001020F4907041E836
:105610000002002A51D0D8F8000050E8000FD8F856
:10562000001020F4907041E80002002A45D0D8F81C
:10563000000050E8000FD8F8001020F4907041E806
:105640000002D2B3D8F80000CFE70320BDE8F08114
:105650000821016250E8000FD8F8001020F4907083
:1056600041E80002002A00F09580D8F8000050E8D8
:10567000000FD8F8001020F4907041E80002002AD2
:1056800000F08880D8F8000050E8000FD8F800102B
:1056900020F4907041E80002002A7BD0D8F8000086
:1056A00050E8000FD8F8001020F4907041E8000294
:1056B000002A6FD0D8F80000CCE74FF6FE70CEF687
:1056C000FF70D8F8001051E8021FD8F80020014000
:1056D00042E80213F3B1D8F8001051E8021FD8F8DD
:1056E0000020014042E80213A3B1D8F8001051E8AD
:1056F000021FD8F80020014042E8021353B1D8F845
:10570000001051E8021FD8F80020014042E80213BF
:10571000002BD6D1D8F86C0001282CD1D8F8000085
:1057200050E8000FD8F8001020F0100041E8000207
:105730000AB3D8F8000050E8000FD8F8001020F0A5
:10574000100041E80002B2B1D8F8000050E8000FA4
:10575000D8F8001020F0100041E800025AB1D8F843
:10576000000050E8000FD8F8001020F0100041E8C9
:105770000002002AD2D120200021C8F88C00C8F8ED
:105780006C10C8F87410C8F89000032088F88410D2
:10579000BDE8F0814FF6FE70CEF6FF70D8F800102D
:1057A00051E8021FD8F80020014042E80213F3B18B
:1057B000D8F8001051E8021FD8F80020014042E854
:1057C0000213A3B1D8F8001051E8021FD8F8002046
:1057D000014042E8021353B1D8F8001051E8021F0B
:1057E000D8F80020014042E80213002BD6D1D8F8A7
:1057F0006C0001282CD1D8F8000050E8000FD8F830
:10580000001020F0100041E800020AB3D8F80000B0
:1058100050E8000FD8F8001020F0100041E8000216
:10582000B2B1D8F8000050E8000FD8F8001020F00E
:10583000100041E800025AB1D8F8000050E8000F0B
:10584000D8F8001020F0100041E80002002AD2D160
:105850002020C8F88C0000200821C8F86C00C8F887
:105860007400C8F8901088F884000120BDE8F08129
:10587000FEE70000B0B540F2EC24C2F2000420467E
:10588000442101F069FD48F65540C0F6000014219E
:1058900000222AF0E1FB40F29025C2F20005686088
:1058A00001202870204601F027FD0146686821B1DB
:1058B0002AF0DAFC00202870B0BD2AF0C5FC0020D8
:1058C0002870B0BD2DE9F043B1F900E0B2F90460F1
:1058D000B64511DCB1F90440B2F90050AC420BDB23
:1058E000B1F902C0B2F90690CC4505DCB1F90670F9
:1058F000B2F902309F4203DAFF2358B2BDE8F083C9
:10590000AE4509DB634507DCB44205DC4F4503DCEB
:10591000002358B2BDE8F083A3EB0C052DB2012D96
:10592000A7EB0C060BDBA0F800E0A0F802C0848017
:10593000C380B2F80690B1F802C0012300E0002352
:10594000A6EB090565442DB2012D16DBB1F9065011
:105950000FFA89F7AF4210DA0D888F88B44400EB54
:10596000C30620F83350A6F80290B780A6F806C008
:10597000B1F802C0B2F806900133B2F902500FFA42
:105980008CF6B542C8BFAC46B1F90660B2F80080EB
:105990000F880FFA89F5B542A8EB07052DB2B8BFFD
:1059A0004E46012DA4EB0E050FDBA6EB0C0424B232
:1059B000012C0ADB00EBC30420F83370A4F802C00A
:1059C000A4F80480E6800F88013391886A1A3A446B
:1059D00012B2012A09DB7A1900EBC30720F8331051
:1059E0000133A7F802C0BA80FE8058B2BDE8F08348
:1059F00070B50346B1F90000B2F90040B1F902C038
:105A0000B2F90250B1F904E0B2F90460A042B1F970
:105A10000610B2F90620C8BF0446AC451C80C8BFBA
:105A20006546B6455D80B8BF764691429E80B8BF58
:105A30000A460020B4424FF00001D8BF0121954230
:105A4000D8BF01200840DA8070BD00002DE9F04386
:105A500081B00C46B0F90070B1F900108F423DDB07
:105A6000B0F90260B4F902108E4237DBB0F904904D
:105A7000B4F90410894531DCB0F90680B4F90600A8
:105A800080452BDC15466AB3694620462A46ADF8A8
:105A90000070ADF8026000F097F8F8B16946204652
:105AA0002A46ADF80090ADF8026000F08DF8A8B17C
:105AB000694620462A46ADF80070ADF8028000F035
:105AC00083F858B1694620462A46ADF80090ADF8F3
:105AD000028000F079F801B0BDE8F083002001B049
