:020000040800F2
:10000000F809002099020008295A00080551000843
:10001000255A000871150008B964000800000000A6
:10002000000000000000000000000000E95C000883
:100030004116000800000000F95B00081D5D000883
:10004000B3020008B3020008B3020008B3020008BC
:10005000B3020008B3020008B3020008B3020008AC
:10006000B3020008B3020008B302000875150008C7
:10007000B3020008B3020008B3020008B30200088C
:10008000B3020008B3020008FD0D0008B302000827
:10009000B3020008B3020008B3020008B30200086C
:1000A000B3020008B3020008B3020008B30200085C
:1000B000B3020008B3020008B3020008B30200084C
:1000C000B3020008B3020008B3020008B30200083C
:1000D000B3020008A9640008B3020008B3020008D4
:1000E000B3020008B3020008B3020008B30200081C
:1000F000B3020008B3020008B3020008B30200080C
:10010000B3020008B3020008B3020008B3020008FB
:10011000B3020008B3020008B3020008B3020008EB
:10012000B3020008B3020008B3020008B3020008DB
:10013000B3020008B3020008B3020008B3020008CB
:10014000B3020008B3020008B30200089D4900088A
:10015000B3020008B3020008B3020008B3020008AB
:10016000B3020008B3020008B3020008B30200089B
:10017000B3020008B3020008B3020008B30200088B
:10018000B3020008B3020008B3020008B30200087B
:10019000B302000800000000B3020008B302000828
:1001A000B3020008B3020008B3020008B30200085B
:1001B000B3020008B3020008B3020008B30200084B
:1001C000B3020008B3020008B3020008B30200083B
:1001D000B3020008B302000800F002F800F04CF887
:1001E0000AA090E8000C82448344AAF10107DA4592
:1001F00001D100F041F8AFF2090EBAE80F0013F098
:10020000010F18BFFB1A43F001031847486D0000A7
:10021000686D0000103A24BF78C878C1FAD8520738
:1002200024BF30C830C144BF04680C607047000070
:100230000023002400250026103A28BF78C1FBD8EF
:10024000520728BF30C148BF0B607047662906F0CF
:100250000786642900F0CC80002070471FB506F0A7
:10026000F2FD00F057FC04000020002106F05EFDC6
:10027000E0601FBD10B510BD00F04CFD1146FFF74A
:10028000EDFF06F055F900F06AFD03B4FFF7F2FF49
:1002900003BC00F0ABFD0000094880470948004757
:1002A000FEE7FEE7FEE7FEE7FEE7FEE7FEE7FEE726
:1002B000FEE7FEE704480549054A064B7047000083
:1002C0008D5D0008D9010008F8030020F80900201E
:1002D000F8050020F805002053EA020C00F06980C0
:1002E0002DE9F04B4FF00006002B1FBFB3FA83F54A
:1002F00003FA05F424FA05F65E4012BF1643B2FA7B
:1003000082F502FA05F4C5F120051EBF22FA05FCAC
:1003100044EA0C04203556EA044C4FEA144418BF52
:10032000641C4FF000084FF00009904271EB030C81
:1003300039D3002919BFB1FA81F701FA07F6B0FAEB
:1003400080F700FA07F6C7F120071EBF20FA07FC66
:1003500046EA0C062037B6FBF4FCA7EB0507103F76
:1003600007F01F0BCBF120062CFA06F60CFA0BFB5C
:1003700044BFB3460026202FA4BF5E464FF0000BBB
:100380005BEA060C08BF4FF0010B19EB0B0948EBB9
:100390000608ABFB027C06FB02CC0BFB03CCC01BAC
:1003A00071EB0C01C1E70B46024641464846BDE8E9
:1003B000F08B13B5084318BF4FF0FF300146AFF381
:1003C0000080BDE81C4070470FB41CB5074B06AA5F
:1003D0007B4469460090059800F083FB0020694645
:1003E00000F092FB1CBC5DF814FB00003507000018
:1003F0002DE9F0410646002410687529314616A5FE
:1004000010D0AFF30080002802DA404213A507E0C5
:1004100031688A0701D512A502E0490704D511A564
:10042000012401E0AFF3008000210A2206F1240735
:1004300009E0B0FBF2FCB0FBF2F302FB1C00303031
:1004400078541846491C0028F3D123462A463046E2
:10045000BDE8F04100F0D8B8000000002D00000019
:100460002B000000200000002DE9F0474FF0000AAB
:1004700089460446C0F820A02046E1688847002845
:1004800076D0252806D0D4E901219047206A401C67
:100490002062F1E7E168204600258847C4F81CA0E7
:1004A00006460027C4F818A02A2E09D0304606F0C8
:1004B00035FC38B304EB8708303EC8F8186019E003
:1004C00059F8041B204604EB87029161E1688847D4
:1004D000012F064618D1E069002820DA25F0200512
:1004E0001DE0D8F8180000EB800006EB4000303823
:1004F000C8F818002046E1688847064606F00EFC5A
:100500000028EED1012F0AD02E2E08D12046E16816
:1005100088477F1C0646022F45F02005C4DBA069F2
:10052000002803DA404245F00105A061E80701D048
:1005300025F01005B6B1A6F14100192802D82036E1
:1005400045F400654A463146204625604D46FFF792
:100550007DFE58B1012806D0ED1D25F0070000F101
:10056000080989E704E005F1040985E730468AE7D0
:10057000206ABDE8F08710B5431C02E010F8011BAB
:1005800071B18107FAD14FF0013202C88C1A8C4345
:1005900014EAC211F9D0C01A0A0603D0C01E10BD59
:1005A000C01A10BD0A0401D0801E10BD0902FCD083
:1005B000401E10BD4FF0000200B51346944696460B
:1005C000203922BFA0E80C50A0E80C50B1F1200166
:1005D000BFF4F7AF090728BFA0E80C5048BF0CC014
:1005E0005DF804EB890028BF40F8042B08BF704772
:1005F00048BF20F8022B11F0804F18BF00F8012BE4
:1006000070477047704770472DE9F0470D4699468F
:100610009246044600F124080168880604D5E06982
:1006200021F01001216000E00120A84201DD471BFC
:1006300000E00027A1697A1902EB0900081AA061FD
:100640002078C00602D42046AFF30080002608E0E0
:10065000D4E901211AF806009047206A401C761C54
:1006600020624E45F4DB2078C0060AD52046AFF361
:10067000008006E0D4E9012130209047206A401C28
:100680002062381EA7F10107F4DC07E0D4E901215C
:1006900018F805009047206A401C2062281EA5F12A
:1006A0000105F3DC2046AFF300802078000602D578
:1006B0000220BDE8F0870120FBE72DE9FF4F0C4643
:1006C0001E464FF0FF378BB0D2E90001DDF86080A5
:1006D0000A908A46C1F30A5505B93D4600210846ED
:1006E0004FF00000BAF1000F00F4400005DA00EB13
:1006F00080004FF4400101EA50004FEA9059B9F1EF
:10070000010F00DDB9460A9850EA4A000ED044F6BF
:100710001050A5F2FF3545432F14B8F1000F1ED03D
:100720007542291E1EDDC9F100021CE0B8F1010F5F
:100730004FF0000001D0302103E0F24305E02154E6
:10074000401CB042FBDB30460022002121540B99B3
:10075000C1F80880C1E900200FB0BDE8F08FBD1BD3
:100760006D1CDEE74A4600DA694206A800F05CFA32
:1007700006AB93E8070003AB83E8070050460A99ED
:1007800005F0EBFE8DE80700A0F500501F38009043
:100790000398002D0ADD42F21F014A460844002357
:1007A00003A90390684606F055F909E0A0F500504A
:1007B0004A461F38002303A90390684606F05FF9F4
:1007C0008DE807000004000C03D04FF0FF30410813
:1007D00000E01046B8F1000F03D000220092154649
:1007E0001EE0751E05D400F099F9303262556D1E79
:1007F000F9D5B3460122084302D000227F1C04E051
:100800002078302801D100227F1E002A099784D049
:100810001DE0112D07DA00F081F9303262556D1CB0
:1008200050EA0102F5D1084302D00098C8B10EE0A9
:100830000021681E05E0235C625C63542254401E64
:10084000491C8142F7DBAB46A81B401E09900020E3
:1008500004F80B000B98099AC0F80880C0E9002B37
:100860007AE711264FF0000857E72DE9F04F884648
:100870000446D21D22F0070191B0D1E90001CDE973
:100880000A0106F033FA02460B98C00F01D02D2062
:1008900007E02068810701D52B2002E0202101EA32
:1008A000C000032A099001D0072A05DB0346414610
:1008B000204600F079F90BE12078800601D5E06947
:1008C00000E00620B8F1650F814606D0B8F1660F4A
:1008D00018D0B8F1670F70D131E00020B9F1110FD5
:1008E000009001DB112301E009F101030AAA01A92B
:1008F0000CA8FFF7E2FEDDE90C70002609F1010506
:10090000834647E001204B4600904FF000470AAA7B
:1009100001A90CA8FFF7D1FEDDE90DB00C995D46E9
:10092000002610B909F101000D18B9EB050003D438
:10093000C0F1FF3609F10105A5EB09002BE0B9F183
:10094000010F01DA4FF001090020B9F1110F0090F9
:10095000484601DD112300E003460AAA01A90CA8BC
:10096000FFF7ABFEDDE90C704D460026834620788C
:1009700000070AD4AB4500DA5D4601A8012D04DD6D
:10098000411911F8011C302907D04F4502DA17F13F
:10099000040F04DA012082460FE06D1EEEE7002FFF
:1009A00002DCED1B3E4403E0781CA84200DD7D1C08
:1009B000B81B00F1010A4FF000472078000703D46C
:1009C000AA4501DB4FF0FF3A0021B7F1004F0DF1CE
:1009D00043088DF8431024D002202B23002F01DA86
:1009E0007F422D230A21021EA0F1010000DC5FB12D
:1009F00097FBF1FC97FBF1F201FB1C7C17460CF115
:100A0000300C08F801CDEEE7A8F101000370218851
:100A1000090501D5452100E06521A0F1010800F894
:100A2000011C09980FA9A1EB0807FF1D00B10120C7
:100A3000411901EBEA70A1693844081A401EA0610F
:100A40002078C00602D42046AFF30080099828B170
:100A5000D4E901219047206A401C20622078C0061A
:100A600022D52046AFF300801EE0002E04DBB34504
:100A700002DD01A8805D00E03020D4E9012190472B
:100A8000206A401C2062761CAAF101005FEA000A7D
:100A90000AD100F03FF8C0680168405CD4E9012148
:100AA0009047206A401C2062281EA5F10105DCDC6D
:100AB00007E0D4E9012118F8010B9047206A401C97
:100AC0002062381EA7F10107F3DC2046AFF3008057
:100AD000032011B041E6000001694A1C0261087858
:100AE000704700B58FB0CDE901310021059105496E
:100AF0007944CDE9031011466846FFF7B5FC0FB005
:100B000000BD0000E5FFFFFF0A6802F8010B0A6064
:100B100070470000004870475000002030B5B0F129
:100B20000A0271F100034FEA900E4EEA817EB0EBAB
:100B30000E0061EB91014FEA101E4EEA017E10EBB0
:100B40000E0041EB11114FEA102E4EEA016E10EB30
:100B50000E0041EB11214FEA104E4EEA014E10EB10
:100B60000E0041EB1141401841F100014FEAD00065
:100B700040EA41704FEAD1014FEA810444EA90749F
:100B800010EB800544EB01046D1944EB0404521B87
:100B9000A3414FF0000348BF0A3200D530BD401CCE
:100BA00041F1000130BD00002DE9F0411F4604462F
:100BB00003260168072A01F4006004DB08B116A5CA
:100BC00005E016A503E008B115A500E015A521F084
:100BD00010002060A069C01EA0610FB1401EA0617E
:100BE0002046AFF300804FB1D4E901213846904749
:100BF000206A401C2062C01C206206E0206AFAE7DE
:100C0000D4E9012115F8010B9047761EF8D2204651
:100C1000AFF30080BDE8F0814E414E006E616E0082
:100C2000494E4600696E66002DE9F047814616463A
:100C30008AB0354878440DC88DE80D0032487844B4
:100C4000801C03AC0DC884E80D0041F69B300844BD
:100C5000372190FBF1F290FBF1F5A5F1800501FB46
:100C600012041B3C02D56442012000E00020DFF8A2
:100C700098A080460027FA44AAF1BE0A0EE0E007D9
:100C80000AD03246684607EB470101230AEB81018F
:100C900005F0F5FE8DE8070064107F1C002CEED1F6
:100CA000194F7F44AE3F19E0E80715D007EB041059
:100CB0000DF1180A90E80E008AE80E00C068F042B4
:100CC00001D1981908903246012306A903A805F01E
:100CD000D6FE03AB83E807006D10641C002DE3D142
:100CE0004FF0010332466946B8F1000F03A802D065
:100CF00005F0B0FE01E005F0C2FEC9E90001C9F847
:100D000008200AB0BDE8F087A862000000487047DC
:100D1000300000207546FFF7F9FFAE460500694632
:100D2000534620F00700854618B020B5FFF7C2FAF9
:100D3000BDE820404FF000064FF000074FF00008DC
:100D40004FF0000BAC46ACE8C009ACE8C009ACE819
:100D5000C009ACE8C00921F007018D46704710B505
:100D60000446AFF300802046BDE81040FFF78DBA7F
:100D700030B44FF0013C50F8042B51F8043BCCFA4E
:100D800052F4D51A20D1FCB950F8042B51F8043B89
:100D9000CCFA52F4D51A17D1B4B950F8042B51F843
:100DA000043BCCFA52F4D51A0ED16CB950F8042B8E
:100DB00051F8043BCCFA52F4D51A05D1002CDAD004
:100DC00030BC4FF00000704729BAB1FA81F111F040
:100DD0001801D1F120008440F2D1CA40CB4012F07A
:100DE000FF0213F0FF0330BCD01A704701491820EE
:100DF000ABBEFEE7260002007047000080B540F25F
:100E0000A800C2F2000001F0E9F980BDB0B50446C7
:100E1000006804F0E5F921680546084604F0E4F9A5
:100E200001464FF000007DBB002908BFB0BD20681F
:100E3000816801F00D0101291BD104F065F92068DA
:100E40000321016001F00CFF21688968C90704BF14
:100E50000020B0BD054603E020688068C00712D0BE
:100E600001F0FEFE401B0328F6D320688068C0070F
:100E7000F2D0E06D40F01000E065206E40F001001F
:100E800020660120B0BD0020B0BD0000B0B582B02A
:100E9000002501950446006804F0A6F9002869D1F0
:100EA00020683F228168C8F20002114209D0E06D3B
:100EB000012540F01000E065206E40F00100206642
:100EC00058E004F033F940F20012C5F20002216844
:100ED00002F500731846914218BF02F5C060B1F1E7
:100EE000A04F08BF184604F035F9000226D401F0DF
:100EF000B7FE21680A68D20739D1054604E000BF71
:100F000021680868C00734D1084604F06DF910B9AB
:100F1000206804F00BF901F0A3FE401B0328EFD377
:100F200020680068C007EBD1E06D012540F010009B
:100F3000E065206E40F0010020661BE040F20000FA
:100F4000C2F20000006842F663518009C0F23E51CF
:100F5000A0FB0101880900EB40000C2101EB80009F
:100F6000019001980028C2D001980138F8E70025C7
:100F700000E00025284602B0B0BD000080B500F0BA
:100F8000EDF880BD10B54FF4FA7001F077FD40F236
:100F90009400C2F2000090ED002A40F298009FED0C
:100FA000221AC2F2000090ED000AB4EE412AF1EEDE
:100FB00010FA0CDDB4EE410AF1EE10FA07DD002064
:100FC000B4EE402AF1EE10FAD8BF012025E0B4EECD
:100FD000412A0020F1EE10FAD8BF01201DDCB4EE4A
:100FE000410AF1EE10FA18DC40F6000440F2A200CB
:100FF000C4F60004C2F200000121017020464FF443
:101000000051012201F026FE20464FF4805101F0EC
:1010100019FEC82001F032FDF0E740F2A001C2F253
:101020000001087010BD00BF33333B4180B540F272
:101030001C00C2F2000090ED000AB7EE001A81EE2B
:10104000000A40F22000C2F2000080ED000A04F025
:101050004FFD04F033FE04F091FDFFF793FF40F2E3
:101060007410C2F2000000684FF4AA41C16140F25E
:10107000A300C2F200000121017080BDF0B581B073
:101080002DED068B8AB040F2A107C2F20007387836
:1010900000284DD040F29400C2F20000006805F034
:1010A00061FE044640F29800C2F2000000680D465E
:1010B00005F058FE41EC180B40F20400C2F20000AB
:1010C000006805F04FFE41EC190B40F20800C2F237
:1010D0000000006805F046FE41EC1A0B40F29C301F
:1010E000C2F20000806905F03DFE41EC100B40F2B9
:1010F000A000C2F20000007840F2BD36C2F2000645
:1011000008900EA1304622462B468DEC068B8DEDC5
:10111000060BFFF759F93046FFF72DFA82B240F27D
:101120007020C2F20000314603F0EAFB0020387064
:101130000AB0BDEC068B01B0F0BD00BF252E3366B2
:101140002C252E33662C252E33662C252E33662C2B
:10115000252E33662C25640A00000000F0B581B00E
:1011600040F2A200C2F200000078002840F0F181B5
:1011700040F2A300C2F200000078002800F0E981EC
:1011800040F21400C2F2000040F294050178C2F26D
:10119000000595ED000A89B39FEDEF1AB4EE410A00
:1011A000F1EE10FA40F392800021017040F2A400A9
:1011B000C2F200000121017040F2180046F266619F
:1011C0009FEDE60ADFEDE60AC2F20000C3F62671E3
:1011D000016004F0DDFC04F0C1FC40F60004C4F63C
:1011E000000420464FF40051002201F033FD204658
:1011F0004FF48051012201F02DFD29E09FEDD91A15
:10120000B4EE410AF1EE10FA22DA0121017004F085
:1012100095FC9FEDD20ADFEDD20A04F0B9FC40F252
:101220009C3040F60004C2F200000021C4F6000425
:101230008161C16020464FF40051012201F00AFD96
:1012400020464FF48051002201F004FD01B0F0BDB2
:1012500040F2A404C2F200042078002849D040F2F1
:101260002000C2F2000040F2180740F2BC3690EDB8
:10127000000AC2F20007C2F20006B3EE0E1A97EDA2
:10128000002A327820EE010A40F2040040F2080100
:1012900032EE000A012AC2F20000C2F2000187ED1C
:1012A000000A00F08580002A40F0958095ED001A34
:1012B0004CF6CD4280EE010A9FEDA91AC3F64C52BE
:1012C0000A6020EE010A80ED000A84E040F2A400EA
:1012D000C2F200000021017040F2BC309FED9F0A75
:1012E000DFED9F0AC2F20000017004F051FC01B072
:1012F000F0BD40F22404C2F2000495ED000A94ED22
:10130000001A40F298010020B4EE410AC2F2000136
:1013100040F29836F1EE10FAD8BF012091ED000AA4
:10132000C2F20006307040F29C3031EE400AC2F248
:10133000000004F091FB307840F29C01C2F2000101
:10134000012881ED000A00F09580002840F0C5805A
:1013500094ED001A95ED002A40F2080081EE021A81
:101360009FED7F2A4CF6CD41C2F20000C3F64C51EE
:10137000016040F20401C2F2000121EE021A30EED7
:10138000010AB4EE420AF1EE10FA81ED000A40F3D0
:10139000A4809FED761A9FED712A30EE010A30EE9F
:1013A000020A80ED000A43F23330C3F6737093E013
:1013B00095ED001A9FED6A2A43F2333221EE021AAC
:1013C00081EE000AB7EE001AC3F67372026031EEC6
:1013D000400A81ED000A90ED001A9FED600AB4EE1C
:1013E000401AF1EE10FA02DA80ED000A08E09FEDF3
:1013F0005C0AB4EE401AF1EE10FAC8BF80ED000AA4
:1014000091ED001A9FED550AB4EE401AF1EE10FA74
:1014100002DA81ED000A08E09FED510AB4EE401AAD
:10142000F1EE10FAC8BF81ED000A91ED001A90EDBF
:10143000000AB7EE002A72EE410A04F0A9FB97ED0C
:10144000000A95ED001AB4EE410AF1EE10FAA4BFBD
:101450000120307040F22400C2F2000090ED001A2A
:10146000B4EE410AF1EE10FA73DB00202070307008
:1014700001B0F0BD95ED002A9FED391A94ED003AC8
:1014800022EE012A82EE032AB7EE003A40F204006F
:1014900043F23331C2F20000C3F67371016040F2CF
:1014A0000801C2F2000133EE422A30EE020A9FED3B
:1014B0002B2A81ED000AB4EE420AF1EE10FA0CDAA2
:1014C0009FED292A30EE020A30EE010A80ED000A73
:1014D0004CF6CD40C3F64C50086040F20400C2F216
:1014E000000090ED001A9FED1D0AB4EE401AF1EED7
:1014F00010FA02DA80ED000A08E09FED190AB4EE56
:10150000401AF1EE10FAC8BF80ED000A40F208015F
:10151000C2F2000191ED001A9FED100AB4EE401ADC
:10152000F1EE10FA02DA81ED000A08E09FED0C0AF4
:10153000B4EE401AF1EE10FAC8BF81ED000A91ED49
:10154000001A90ED000AB7EE002A72EE410A04F08C
:101550001FFB01B0F0BD00BF33333B41CDCC4C3D50
:101560003333733FCDCC3441CDCC4CBD333373BF1B
:10157000FEE7000080B540F21410C2F2000001F056
:1015800075F980BD80B501686FF007024CF6CD4358
:1015900052FA81F2CCF6CC43A2FB032C40F2084273
:1015A000C4F20202D0F844E002F58363914238BFEE
:1015B00002F57E732EF00301194402F58F6ECCF311
:1015C000041301229A40C0E9121E026580BD00008A
:1015D000017940F600120139C4F2020202EB8103E4
:1015E00002F1400C01F01F01012202FA01F1C0E9F1
:1015F000153CC1657047000070B5D0E913C4D0F840
:1016000054E0CCF80440BEF1000F1CBFD0E916C472
:10161000CCF80440D0E9106E0468D0F808C00EF091
:101620001F00012505FA00F0706008466360BCF1F8
:10163000100F04BF10460A46A060E26070BD0000B3
:1016400070470000EFF3108072B600BFFEE70000A5
:1016500070B582B004460020019094F8580001282B
:1016600001D1022533E0012084F8580020460E46BF
:10167000FFF7CCFB0546E06D15B140F0100022E00D
:1016800041F2021188430230E0652068314603F0E0
:101690009DFE4DF60266C0F2040600BF206803F00E
:1016A00097FD60B10198013001900198B042F5D3E7
:1016B000E06D012540F0100020F0020003E0E06D35
:1016C000012161F30100E065002084F858002846FC
:1016D00002B070BD704700002DE9F04381B00446B0
:1016E0000020009094F85800012802D14FF0020821
:1016F00039E260690D46012184F8581010B1296A59
:10170000012919D16868092840D12868A96A4FF4CD
:10171000785202EA504021B1EA6A01F07C0111439B
:101720000843216844F20003CA6CC0F210431A4017
:101730000243CA64606629E0A06E00284FF00000F2
:101740000AD1AA6A6066A1F10100A16622B102F085
:101750007C01EA6A08431043D5E9002101F01F012A
:10176000C2F3846202FA01F10843D4E91921013974
:1017700040EA0200C4E9190108D1216844F20003DB
:10178000CA6CC0F210431A401043C864206803F0CA
:1017900009FD98B92068C16895F8252095F826308C
:1017A00021F44011002A4FEA435201D0114304E0D2
:1017B00095F82430114341EA0351C160206803F0D9
:1017C00023FD21680646084603F0ECFC304302D0B6
:1017D0004FF00008E8E0A86A60B1E86A50B195F8F7
:1017E000250001280FD1E06D4FF0010840F02000E6
:1017F000E0650FE0206895F82520C168012A04D132
:1018000041F0007103E02068C16821F000714FF0E1
:101810000008C160206895F830200169012A08D1CC
:10182000D5E90D2321F4FF711143194341F0020161
:1018300001E021F002010161AB68296803F1004079
:10184000B0FA80F047092068B3F1004218BF1A4689
:10185000FE0703F00BFD2068314603F0B1FD206860
:1018600029696B69C268042940F088804FF6FF77C8
:101870000021C0F2070703F087FC216806460846EE
:10188000002103F081FC720390FAA0F12A68B1FAFA
:1018900081F108BFC0F3846192FAA2F0B0FA80F03F
:1018A000530308BFC2F38460814203D12068002142
:1018B00003F078FD2068012103F066FC21680646EC
:1018C0000846012103F060FC90FAA0F12A68B1FA01
:1018D00081F13E4208BFC0F3846192FAA2F0B0FAEF
:1018E00080F03A4208BFC2F38460814203D120688D
:1018F000012103F057FD2068022103F045FC216817
:1019000006460846022103F03FFC90FAA0F12A683F
:10191000B1FA81F13E4208BFC0F3846192FAA2F0AD
:10192000B0FA80F03A4208BFC2F38460814203D12A
:101930002068022103F036FD2068032103F024FC17
:10194000216806460846032103F01EFC90FAA0F128
:101950002A68B1FA81F13E4208BFC0F3846192FA6D
:10196000A2F0B0FA80F03A4208BFC2F3846081422C
:101970001AD12068032103F015FD15E0062707EAB8
:1019800092072A68BB4003F0D3FC20682969AA6942
:1019900003F0F8FC2A7F2068013AB2FA82F2296942
:1019A0005209520603F0DEFC206803F021FC0028F7
:1019B0004DD120682968EA6803F080FCE8680021BE
:1019C000C4F27F01884242D1D5F800E04FF0806137
:1019D0009EFAAEF27346B2FA82F76FF3DF433A46ED
:1019E0002068002B08BF4FEA9E62561C01EB826103
:1019F00006F01E0C01F0F84206F01F010126BCF1B2
:101A0000090F06FA01F60DD842EA0601002B08BFBD
:101A10004FEA9E677A1C02F01F0202EB420241EA83
:101A2000025111E0002B08BF4FEA9E67791C01F0BC
:101A30001F01002301EB4101CFF6206303EB0151AD
:101A40003243114341F00071AA6803F00FFC68882B
:101A500048F20801084200F0838040F20037C5F2E6
:101A60000007216807F58066A7F5007930464945EB
:101A700004BF40F20030C5F20000B1F1A04F04BF36
:101A800040F20030C5F2000003F068FB2968002234
:101A9000CCF22132914204D01022C9F2C00291420C
:101AA00030D102022ED4216840F20062C5F2000259
:101AB000914202D0B1F1A04F52D1494508BF3E46F4
:101AC000B1F1A04F08BF3E4640F40001304603F09C
:101AD00017FC40F20000C2F20000006842F66351B9
:101AE0008009C0F23E51A0FB0101880900EB4000D3
:101AF000182101EB800000BF0090009880B300988F
:101B00000138F9E70022CCF25272914208BF10F07E
:101B1000807218D00022CCF68432914208BF10F4B3
:101B200080011DD12168B1F1A04F08D040F2001210
:101B3000C5F20002914213D0494518BF374640F420
:101B4000800138460AE02168494508BF3E46B1F1A8
:101B5000A04F08BF3E4640F08071304603F0D0FBF6
:101B6000002084F85800404601B0BDE8F083000032
:101B70007047000040F20F1291420CD040F2152243
:101B800091420CD040F21B320068914214BF803069
:101B90008C300068704700688430006870470068C7
:101BA000883000687047000070470000F0B581B0D1
:101BB00040F20047C5F2000701680446A7F54070EF
:101BC000A7F580728142104618BF07F54070B1F149
:101BD000A04F08BF104603F0CDFA2168064608461C
:101BE00003F0E0FA08B102256CE02068C168C06C1F
:101BF000002908D410F4C07005D1E06D012540F033
:101C00002000E0655EE094F85800012801D102252B
:101C100058E0012084F858002046FFF737F90546C0
:101C200018B1002084F858004CE0E06D43F2010147
:101C3000C00546BF206E20F0080000202066E06D41
:101C400040F20012884300F58050E0652068C5F23C
:101C5000000240F200519042C5F2000104D0034658
:101C6000884208BF3B4601E04FF0A043002E18BF5A
:101C7000834203D1E36D23F48013E36560230360A3
:101C80000023904284F8583006D08842014608BFAD
:101C90003946814204D10AE04FF0A041814206D08A
:101CA000072E0BD80121B14011F0C10F06D003F06F
:101CB00071FA38B9206803F081FA03E0E06D40F46E
:101CC0008010E065284601B0F0BD000070470000BC
:101CD000704700002DE9F04383B0044690F85800A7
:101CE000012803D1022003B0BDE8F0830E46012095
:101CF000002184F8580002910191206840F20015FB
:101D0000B0F1A04FC5F200050AD040F20041C5F283
:101D10000001884207D105F58060002131B10EE055
:101D2000284619B10BE00020012141B903F06CFAFB
:101D300021680746084603F067FA38430AD0E06D89
:101D400040F02000E0650120002184F8581003B025
:101D5000BDE8F08320684FF4C1673168A84208BF2E
:101D60004FF40277B0F1A04F08BF4FF40277EA5961
:101D7000002922F4604118D0726894F83830114379
:101D800040F4807041EA4331A842E9511CD14FF040
:101D9000A04003F02DFA8146284603F029FA804638
:101DA00058EA090023D00020CEE740F48070A84212
:101DB000E95125D14FF0A04003F01AFA0646284613
:101DC00003F016FA80462BE005F5407003F010FA98
:101DD000804605F5806003F00BFA48EA000805F537
:101DE000A06003F005FA814658EA0900DBD1E85902
:101DF00040F61F7188433168B2680843104318E009
:101E000005F5407003F0F4F9064605F5806003F02F
:101E1000EFF940EA060805F5A06003F0E9F9064687
:101E200058EA060001D000208EE7E85940F61F71FD
:101E30008843E851002087E72DE9F04182B004464D
:101E40000020019094F85800012801D10221BCE142
:101E500020680D46012184F8581003F0D1F928B10B
:101E6000E06D012140F02000E065ABE12068D5E99C
:101E7000002103F0D5F9206803F0C2F92168064675
:101E8000084603F08BF9304340F0B880AB6829680E
:101E900003F10040B0FA80F047092068B3F1004236
:101EA00018BF1A46FE0703F0CFF92068314603F049
:101EB00081FA206829696B69C268042940F088802A
:101EC0004FF6FF770021C0F2070703F057F92168AA
:101ED00006460846002103F051F9720390FAA0F17A
:101EE0002A68B1FA81F108BFC0F3846192FAA2F0C6
:101EF000B0FA80F0530308BFC2F38460814203D17B
:101F00002068002103F046FA2068012103F036F929
:101F1000216806460846012103F030F990FAA0F145
:101F20002A68B1FA81F13E4208BFC0F3846192FA97
:101F3000A2F0B0FA80F03A4208BFC2F38460814256
:101F400003D12068012103F025FA2068022103F063
:101F500015F9216806460846022103F00FF990FAA8
:101F6000A0F12A68B1FA81F13E4208BFC0F3846152
:101F700092FAA2F0B0FA80F03A4208BFC2F384604D
:101F8000814203D12068022103F004FA2068032172
:101F900003F0F4F8216806460846032103F0EEF842
:101FA00090FAA0F12A68B1FA81F13E4208BFC0F36D
:101FB000846192FAA2F0B0FA80F03A4208BFC2F30C
:101FC000846081421AD12068032103F0E3F915E00F
:101FD000062707EA92072A68BB4003F097F92068B2
:101FE0002969AA6903F0C6F92A7F2068013AB2FA82
:101FF00082F229695209520603F0ACF9206803F015
:10200000F3F800284DD120682968EA6803F040F908
:10201000E8680021C4F27F01884242D1D5F800E08F
:102020004FF080619EFAAEF27346B2FA82F76FF318
:10203000DF433A462068002B08BF4FEA9E62561CD9
:1020400001EB826106F01E0C01F0F84206F01F0160
:102050000126BCF1090F06FA01F60DD842EA060185
:10206000002B08BF4FEA9E677A1C02F01F0202EBAA
:10207000420241EA025111E0002B08BF4FEA9E677D
:10208000791C01F01F01002301EB4101CFF6206311
:1020900003EB01513243114341F00071AA6803F090
:1020A000D3F8688848F20801084274D040F200363C
:1020B000C5F20006216806F58067A6F50078384667
:1020C000414504BF40F20030C5F20000B1F1A04F1D
:1020D00004BF40F20030C5F2000003F03BF829686D
:1020E0000022CCF22132914204D01022C9F2C00267
:1020F000914234D1020232D4216840F20062C5F22A
:102100000002914202D0B1F1A04F44D1414508BF35
:102110003746B1F1A04F08BF374640F400013846BA
:1021200003F0E8F840F20000C2F20000006842F656
:1021300063518009C0F23E51A0FB0101880900EB08
:1021400040000C2101EB80000190019818B300BF02
:1021500001980138019001980028F9D11BE0002274
:10216000CCF25272914208BF10F0807215D000225A
:10217000CCF6843291424FF0000108BF10F4800287
:1021800020D12168B1F1A04F16D040F20012C5F263
:10219000000291420DD1002114E02168414508BFA1
:1021A0003746B1F1A04F08BF374640F0807138463E
:1021B00005E0414518BF3E4640F48001304603F03B
:1021C00099F80021002084F85800084602B0BDE8C4
:1021D000F081000070470000704700002DE9F04FCB
:1021E00081B040F2004B0168C5F2000B0446ABF52C
:1021F00040700BF540790E684F6800908142484668
:10220000ABF5807508BF2846B1F1A04F08BF28463E
:1022100002F0ACFF3E40B10780460CD5E06DC00631
:1022200003D4E06D40F40060E0652046FFF752FA09
:1022300020680221016040F2001A7007C5F2000A0E
:1022400058BF5FEA06705BD5E06DC00603D4E06D51
:1022500040F40070E065206802F0DAFF002849D001
:102260002068504508D040F20051C5F20001884274
:10227000014608BF594601E04FF0A04181420146A6
:102280000AD0B8F1090F19D8012101FA08F140F27A
:1022900021221142014611D0C96889042AD401685B
:1022A000090727D502F0ACFFA0B1E06D40F01000A7
:1022B000E065206E40F0010020661BE0504500F014
:1022C000FB8040F20051C5F200018842014608BF80
:1022D0005946E1E72068416821F00C014160E06D5A
:1022E00020F48070E065E06DC00403D4E06D40F040
:1022F0000100E0652046FFF76DFF20680C210160BA
:10230000B00658BF5FEA466066D5E06DC00603D4EC
:10231000E06D40F40050E065206802F047FF21685E
:102320000746084602F074FF2168514508D040F284
:102330000052C5F2000291420A4608BF5A4601E027
:102340004FF0A0428A420A4609D0B8F1070F21D8BF
:10235000012202FA08F212F0C10F0A461AD0D2681E
:10236000A7B3930103D588B312F400502ED10868A7
:1023700092022BD410F0400028D0084602F00EFF45
:10238000A0B1E06D40F01000E065206E40F001006B
:1023900020661BE0514500F08C8040F20052C5F2EF
:1023A000000291420A4608BF5A46D8E720684168B1
:1023B00021F060014160E06D20F48050E065E06D47
:1023C000C00503D4E06D40F00100E0652046FFF752
:1023D000CFFB20686021016030060AD4F00514D4D8
:1023E000B0051FD4F0062AD470054AD401B0BDE868
:1023F000F08FE06D40F48030E065204600F072F927
:10240000206880210160F005EAD5E06D40F40030DD
:10241000E0652046FFF75AFC20684FF480710160A8
:10242000B005DFD5E06D40F48020E0652046FFF781
:102430004FFC20684FF400710160F006D4D5E06BCA
:1024400078B12068B8F1000F2DD00099884208BFFC
:10245000A946B0F1A04F08BFA946484602F082FE47
:1024600050B1E06D40F48060E065206E40F0020005
:1024700020662046FFF7B0FE20681021016070053D
:10248000B4D52068E16D41F48041E165216E41F0F1
:10249000080121664FF4806101602046FFF784FB4C
:1024A00001B0BDE8F08FC06800F001000028D8D16D
:1024B000E2E74FF0A04252E74FF0A041ECE6000007
:1024C0002DE9F04182B0044600200190CCB1E06DCE
:1024D00030B9204600F008F90020206684F8580042
:1024E000206802F079FE10B1206802F017FE206823
:1024F00002F082FE38B1206802F07EFEE8B10025CD
:1025000024E00125D5E0206802F01AFE40F2000028
:10251000C2F20000006842F663518009C0F23E51E9
:10252000A0FB01018809022101EB40000190019804
:102530000028E0D001980138F8E7E06D012540F06F
:102540001000E065206E40F001002066206802F077
:1025500057FEE16D01F010010843E06D03D040F03B
:1025600010000125A4E020F481700230E0652068AD
:1025700002F03AFE20BB206840F20018C5F20008C5
:1025800040F48070404540F098804FF0A04002F049
:102590002BFE0646404602F027FE074657EA060095
:1025A0000ED108F50072D4E900311046434518BF3A
:1025B00008F5C060B3F1A04F08BF104602F094FECA
:1025C000607FE16B41EA4030D4E90221084394F88E
:1025D00024101043012940EA014106D1A06A0022DB
:1025E000CFF6FE7202EB40400143E06A28B100F4EE
:1025F0007870226B084340EA02012068626BC3686E
:1026000044F20707CFF6F0773B401943C1600169F8
:1026100021F040611143016102F0C0FDC8BB94F894
:102620003800217F400040EA813220682169C36878
:1026300044F20207BB431A43C260026949B142F443
:1026400080320261D0F8C02043F6FF739A431143F1
:1026500007E022F480310161D0F8C01043F6FF7228
:102660009143C0F8C01094F840200169012A0DD1AF
:1026700040F2FD7204F1440791438CCF266D114363
:1026800019433943314341F0010101E021F00101D7
:10269000016120686169026B012922F00F0102D1FA
:1026A000226A013A11430163E06D012161F30100E7
:1026B000E065284602B0BDE8F08108F5407002F000
:1026C00093FD064608F5806002F08EFD40EA06079D
:1026D00008F5A06002F088FD064657EA06007FF480
:1026E0006FAF5EE77047000010B59CB00446002055
:1026F0001B90CDE91900CDE9170002A85421FDF780
:1027000059FF2068B0F1A04F01D01CB010BD4FF4AC
:10271000004002904FF00050139002A801F0E0F842
:10272000002818BFFEF78EFF41F24C00C4F20200F1
:10273000016841F400510160016801F40051019108
:102740000199016841F001010160006817A900F0DA
:102750000100019001980F2017900320189000208D
:1027600019904FF0904000F09DF9122001210022B5
:1027700001F020F8122001F019F81CB010BD000083
:1027800080B5014690F82500022824D10868D1E9D7
:1027900010CE8A6C036823F00E030360136823F4E1
:1027A00080731360026822F0010202600EF01F00C5
:1027B000012202FA00F0CCF80400D1E913205060A5
:1027C000486D60B1026822F480720260D1E916029D
:1027D0004260002004E00420C863012000E00020E3
:1027E000012281F82520002281F8242080BD0000EC
:1027F00080B590F8251002292DD10168D0E910CEBE
:10280000826C0B6823F00E030B600B6823F001034E
:102810000B60116821F4807111600EF01F0201211C
:1028200001FA02F2CCF80420D0E913325A60426D6A
:1028300032B1136823F480731360D0E91623536018
:1028400080F82510826B002180F824100AB190478F
:102850000021084680BD0421C1630121002280F8C7
:10286000251080F82420084680BD0000B0B502681D
:10287000D0E910C4DCF80050136804F01F0E5907AB
:1028800012D5042101FA0EF414EA05010CD01168E6
:10289000890603D4116821F004011160CCF80440CA
:1028A000016BB9B38847B0BD990718D5022101FA69
:1028B0000EF414EA050112D01168890606D41168D5
:1028C00021F00A011160012180F82510CCF80440A4
:1028D000C16A002280F82420E1B18847B0BD190701
:1028E00058BFB0BD082101FA0EF1294012D011687D
:1028F00021F00E011160012101FA0EF2CCF8042042
:10290000C16380F82510416B0022002980F8242043
:1029100018BF8847B0BD0000002804BF01207047E1
:102920002DE9F04140F2000C0446C4F2020C0068AC
:102930004FF6F8330CF58162CBF6FD73904238BF49
:1029400003F5806303EB00024CF6CD43CCF6CC4399
:10295000A2FB032304F1080E0CF580616FF0030560
:102960009EE804413CBF0021C4F2020105EA930342
:10297000C4E91013022184F82510016847F6F073AA
:10298000994304F114071143E8CF41EA080141EAF1
:102990000E01194329433143394301602046FEF7B4
:1029A000F1FDA06804F14803B0F5804F04BF00209A
:1029B000606060680ECBC7B2013803280F605360B7
:1029C00009D82046FEF704FE04F1540207CA00238A
:1029D00003604A6003E00020C4E91500E0650020C0
:1029E0000121E06384F8251084F82400BDE8F0811B
:1029F00010B5044690F82400012820D0012084F866
:102A0000240094F82500012816D1022084F825001E
:102A10000020E063D4F800C0DCF8000020F00100E2
:102A2000CCF800002046FEF7E7FD2068226B016825
:102A30003AB141F00E010AE0002084F8240002209F
:102A400010BD21F004010160016841F00A0101603C
:102A5000A06C0168C90303D5016841F4807101606D
:102A6000606D18B1016841F48071016020680168EF
:102A700041F001010160002010BD0000B0B5044626
:102A800000F0EEF8054640F22800C2F200000068AF
:102A9000611C18BF044400BF00F0E2F8401BA042D4
:102AA000FAD3B0BD2DE9F04F83B00D68002D00F0D2
:102AB000C58000F138424FEAB22241F2004701924C
:102AC000C4F600070622002600244FF0010AB8428F
:102AD00008BF0522009209E00D68043435FA0AF2B5
:102AE0000AF1010A06F1020600F0A880AAF1010C21
:102AF000012202FA0CFB15EA0B09EDD0D1F8048093
:102B000008F00305A5F1010EBEF1010F11D8876889
:102B10000322CB68B24027EA0202B3401A43826024
:102B20004268C8F3001322EA0B0203FA0CF31A43BB
:102B30004260032D1CD0C26803238F68B3409A43C0
:102B400007FA06F31A43022DC26011D16FF0030297
:102B500002EA5C02024404F01C070F23D2F820E0D2
:102B600003FA07F50B692EEA0505BB402B431362F8
:102B7000026803234F68B3409A4307F00303B3404E
:102B80001A4317F4403F0260A6D041F26003C4F23A
:102B900002031A6840F2004E42F001021A601A68FD
:102BA000C4F2010E02F001020292029A2CF003021A
:102BB0004FF608487244CFF6FF7852F8083004F018
:102BC0000C070F25BD4023EA050C019B009D052B3A
:102BD00038BF1D4605FA07F747EA0C0342F80830EC
:102BE000DEF808204B6842EA090740F20C4CDD028F
:102BF00058BF22EA0907CEF80870C4F2010CDCF8CD
:102C000000209D0242EA090758BF22EA0907CCF8D2
:102C10000070DEF804209D0342EA090758BF22EA4B
:102C20000907CEF80470DEF80020DB0342EA09074A
:102C300058BF22EA0907CEF800704DE703B0BDE89F
:102C4000F08F0000426902EA0103914341EA034127
:102C5000816170471823002A08BF2823C15070479C
:102C600040F2F030C2F200000068704790F8DD30AA
:102C7000022B04BF0220704790F8DC304FF0020CAA
:102C8000012B00F0988001237F2980F8DC3080F848
:102C9000DDC000F32E8001393F2900F27A80DFE8A1
:102CA00001F02038784078787848787878787878A3
:102CB00078507878787878787878787878787878BC
:102CC00078587878787878787878787878787878A4
:102CD0007878787878787878787878787878787874
:102CE00078600168D1F8003462F30403C1F800345D
:102CF00055E080293DD0B1F5807F42D0B1F5007F0D
:102D000047D10168D1F8043462F31C63C1F804347C
:102D100045E00168D1F8003462F38A13C1F8003449
:102D20003DE00168D1F8003462F31033C1F800349B
:102D300035E00168D1F8003462F39643C1F80034FD
:102D40002DE00168D1F8003462F31C63C1F800344F
:102D500025E00168D1F8043462F30403C1F80434B7
:102D60001DE00168D1F8043462F38A13C1F8043419
:102D700015E00168D1F8043462F31033C1F804346B
:102D80000DE00168D1F8043462F39643C1F80434CD
:102D900005E0072180F8DD10002180F8DC1090F8B4
:102DA000DD104FF0010C07291EBF80F8DDC04FF089
:102DB000000C80F8DCC0604670470000B0B590F8A9
:102DC000DD30022B04BF0220B0BD90F8DC30012BB7
:102DD0004FF0020300F00D81012480F8DC4080F800
:102DE000DD3003687F29D3F880C3D3F8FCE300F318
:102DF0004D804C1E3F2C00F2E480DFE814F04000D0
:102E00006600E2006F00E200E200E2007800E2000B
:102E1000E200E200E200E200E200E2008100E20003
:102E2000E200E200E200E200E200E200E200E20092
:102E3000E200E200E200E200E200E2009600E200CE
:102E4000E200E200E200E200E200E200E200E20072
:102E5000E200E200E200E200E200E200E200E20062
:102E6000E200E200E200E200E200E200E200E20052
:102E7000E200E200E200E200E200E200A900548881
:102E8000526864F3124CC3F8BC23A0E0802972D0CE
:102E9000B1F5807F00F08280B1F5007F40F0918035
:102EA000D2E90042D3F8F853C4F30B4464F3165E3E
:102EB00025F0F844C3F8F843D3F8F84302F01F02B2
:102EC00044EA8262C3F8F82381E0D2E90042C4F305
:102ED0000C4464F3D54CC3F8C02378E0D2E9004237
:102EE000C4F3094464F3985CC3F8C4236FE0D2E9E7
:102EF0000042C4F3064464F35B6CC3F8C82366E085
:102F00004FEADE05B2F802E0D3F8F84365F3DF0ECE
:102F100024F01F04C3F8F8435268D3F8F84302F0D2
:102F20001F022243C3F8F82351E05488D3F8F85322
:102F300064F3061E25F47874C3F8F8435268D3F896
:102F4000F84302F01F0244EA4212C3F8F8233EE0BD
:102F50005488D3F8F85364F30A2E25F4F844C3F8E0
:102F6000F8435268D3F8F84302F01F0244EA822281
:102F7000C3F8F8232BE05488D3F8F85364F30E3EDB
:102F800025F4F814C3F8F8435268D3F8F84302F074
:102F90001F0244EA0242C3F8F82318E05488D3F829
:102FA000F85364F3124E25F07874C3F8F84352686E
:102FB000D3F8F84302F01F0244EA4252C3F8F82360
:102FC00005E0072280F8DD20002280F8DC2090F860
:102FD000DD20072A04BF0120B0BD0F298CBFC3F834
:102FE000FCE3C3F880C30121002380F8DD1080F8E2
:102FF000DC301846B0BD000070470000704700008C
:1030000070470000704700007047000070470000E4
:1030100070470000704700007047000090F8DC2007
:10302000012A4FF0020221D0012380F8DC3080F821
:10303000DD2002684B1CD2F8CCC309D04CF002034F
:10304000C2F8CC33D2F8CC3323F00C03194301E09F
:103050002CF00201C2F8CC13D2F8CC1341F00101DC
:10306000C2F8CC130121002280F8DD101046704711
:1030700070B590F8DD30022B04BF022070BD90F8CF
:10308000DC30012B4FF002033AD080F8DD30D2E97A
:1030900000C3D2E902E60CF4E0546FF35F23156934
:1030A00023440EF40074234405F480452B4406F4B5
:1030B0000046334456690025C0F2FF1505EA06466E
:1030C0009569334405F00076156A334405F080466F
:1030D000D2693343066802F0004206EBC1111A437D
:1030E000D1F8B83042F20006C3F6004633401A4326
:1030F000C1F8B8200121002380F8DD1080F8DC3011
:10310000184670BD7047000070470000704700000F
:1031100070470000704700007047000070470000D3
:1031200080B5062904D0FF2905D101F05DFC80BDE2
:1031300001F00AFD80BD01F0F7FD80BD002804BF4D
:103140000120704710B582B00446022084F8DD00EB
:10315000207AC0074FF00000C4E93800C4E93A0003
:10316000C4E93C00C4F8F8001FD0206846F600010E
:10317000C4F2010188420CD141F26001C4F20201A3
:103180000A6842F080620A60096801F0806101917A
:1031900001990168D4E9042321F4704102F440420A
:1031A000114403F4405211440160204600F01EF81F
:1031B000207A800706D52068E1680268090A61F371
:1031C00009220260012084F8DD0000206FF01B015D
:1031D00084F8DC0062181C31A829D064C2E90D0013
:1031E000C2E90F005064F5D102B010BD80B582B0C5
:1031F000006846F60001C4F20101884201D002B025
:1032000080BD41F26000C4F202000168002241F07A
:10321000806101600068022100F0806001900198E7
:10322000432000F0C7FA432000F0C0FA02B080BD8E
:1032300080B586B0006846F60002C4F201020021A3
:103240009042CDE90411CDE90211019101D006B0FF
:1032500080BD41F24C00C4F20200026842F001025B
:103260000260006800F00100009000984FF4706068
:1032700001900220CDE90201032004900D20059069
:1032800001A94FF09040FFF70DFC06B080BD000093
:103290007047000070470000704700007047000052
:1032A000F0B581B00D460446FFF7DAFC2168D1F88D
:1032B0008813C90315D406466F1C04E02068D0F8B3
:1032C0008803C0030DD4002FF8D0FFF7C9FC15B157
:1032D000801BA842F2D9072084F8DD00032001B04A
:1032E000F0BD012084F8DD00002084F8DC0001B08E
:1032F000F0BD00007047000080B502F0A3FCFDF7B0
:103300003DFE40F2A100C2F200000121017080BD2B
:10331000704700007047000010B5044690F8DD00CB
:1033200002284FF0020008BF10BD062984F8DD0016
:10333000204603D1114601F0ABFB01E001F0D2FDC4
:10334000012084F8DD00002010BD000080B590F859
:10335000DDC0BCF1020F04BF022080BD90F8DCC0CC
:10336000BCF1010F4FF0020C00F094804FF0010E01
:10337000062980F8DCE080F8DDC00ED1511E072957
:1033800023D80FF20602DFE801F0041C20272020DA
:10339000202B19680268D16125E0A2F1010CBCF173
:1033A000070F3BD80FF20402DFE80CF00424383F8B
:1033B0003838384602681B6802EBC111C1F89C30EE
:1033C0005BE01968026851620DE0072180F8DD10AA
:1033D000002180F8DC1006E019680268916202E0C2
:1033E00019680268D16290F8DD10072904BF012036
:1033F00080BD48E0026802EBC11CD3E9001ECCF896
:10340000A410614651F8802FBEF1000F22F4405203
:103410000A6032D00A6842EA0E0220E0072180F8F2
:10342000DD10002180F8DC1027E002681B6802EB49
:10343000C111C1F8A83020E0026802EBC11CD3E939
:10344000001ECCF8AC10614651F8802FBEF1000F81
:1034500022F440420A6010D00A6842EA8E02BEF5A9
:10346000405F0A6006D0BEF5005F06D19968CCF8CF
:103470009C1002E09968CCF8A81090F8DD1007299C
:1034800004BF012080BD01214FF0000C80F8DD1049
:1034900080F8DCC0604680BD90F8DC20012A4FF047
:1034A00002020BD080F8DD20026813681943116016
:1034B0000121002280F8DD1080F8DC2010467047E2
:1034C00070B590F8DC20012A4FF0020239D00123B8
:1034D00080F8DC3080F8DD20D0E900C2DCF89033E1
:1034E0001A43CB03CCF8902306D5D0F8C820DCF8DB
:1034F0000C301A43CCF80C2046F610740CF18C03F7
:1035000000F1200E0022C0F6000405E001328033F5
:10351000062A0EF11C0E09D054F822500D42F5D0A7
:10352000DEF800501E6835431D60EFE7DCF8002030
:103530001143CCF800100121002280F8DD1080F842
:10354000DC20104670BD000090F8DC20012A4FF00E
:1035500002020CD080F8DD200268136823EA010122
:1035600011600121002280F8DD1080F8DC20104677
:1035700070470000B0B5044690F8DD00022804BF93
:103580000220B0BD94F8DC0001284FF0020008BF13
:10359000B0BD012584F8DC5084F8DD00204601F040
:1035A00047FB002084F8DD5084F8DC00B0BD00004B
:1035B00090F8DC20012A4FF002020DD080F8DD20C7
:1035C0000268D2F894331943C2F8941301210022FF
:1035D00080F8DD1080F8DC201046704790F8DC2081
:1035E000012A4FF002020DD080F8DD200268D2F8E7
:1035F00098331943C2F898130121002280F8DD1096
:1036000080F8DC201046704770B5044690F8DD0065
:10361000022804BF022070BD94F8DC0001284FF09E
:10362000020008BF70BD0E460121154684F8DC106B
:10363000062E84F8DD00204603D1294601F03CFA2D
:1036400003E031462A4601F065FCC6EBC60004EBF8
:10365000800095E80E1000F1200E8EE80E0029691A
:10366000C0E90BC12046314601F0A2F9062E0DD06B
:10367000E86A58B9206800EBC610D0F88010EA6DEF
:1036800021F4007141EA4221C0F88010012084F841
:10369000DD00002084F8DC0070BD000070B5044639
:1036A00090F8DD00022804BF022070BD94F8DC0011
:1036B00001284FF0020008BF70BD012684F8DC60CD
:1036C00084F8DD0020460D4601F0F0FC2046294636
:1036D00001F06EF9002084F8DD6084F8DC0070BD34
:1036E00040F2280040F2F031C2F20000C2F20001C4
:1036F00000680A68104408607047000080B5032025
:1037000000F068F80F2000F009F800281CBF012025
:1037100080BD00F02FF8002080BD0000B0B540F261
:103720002801C2F20001096801B3044640F200001A
:10373000C2F200004FF47A720068B2FBF1F1B0FB04
:10374000F1F000F0FFFD0F2C4FF001050CD858B937
:103750004FF0FF3021460022002500F02BF840F208
:103760002C00C2F2000004602846B0BD01252846A6
:10377000B0BD000080B582B041F25800C4F2020032
:10378000816841F001018160816801F001010191CE
:103790000199016841F080510160006800F080509B
:1037A0000090009800F092F802B080BD80B502F061
:1037B00085FE80BD70B514460D46064602F08EFEAD
:1037C0002946224602F032F90146304602F08EFECA
:1037D00070BD000080B502F09BFE80BDB0F5007F9B
:1037E00035D0002866D147F20000C4F2000001681D
:1037F000D0F8802001F4C06122F48072B1F5806FAE
:10380000C0F8802021D10168012262F34A210160C1
:1038100040F20001C2F200010968322359434DF61B
:103820008363C4F21B33A1FB031302EB934100BF7C
:1038300043694A1E8A4203D213F480611146F7D1CC
:103840004069400544BF032070470020704747F29D
:103850000000C4F200000168D0F8802001F4C061CB
:1038600042F48072B1F5806FC0F88020EDD101681C
:10387000012262F34A21016040F20001C2F200011C
:103880000968322359434DF68363C4F21B33A1FB0D
:10389000031302EB934100BF43694A1E8A4203D2DD
:1038A00013F480611146F7D14069400544BF0320FD
:1038B0007047CAE747F20000C4F200000168022224
:1038C00062F34A21016000207047000047F20800BF
:1038D000C4F20000016841F48041016070470000BB
:1038E0002DE9F04381B08146807841F288070007D6
:1038F000C4F2020701D4002565E057F8300C10F03F
:1039000080580BD157F8300C40F0805047F8300CFD
:1039100057F8300C00F080500090009847F20004F7
:10392000C4F20004206840F480702060FFF798F92A
:10393000054600BF206810F4807607D1FFF790F9A4
:10394000401B0328F6D3032516B933E000258EB3B8
:10395000B86810F4407012D0D9F8501088420BD0DB
:10396000B868B96820F4407041F48031B960B96832
:1039700021F48031B960B860C00703D111E00020A4
:10398000C0070ED0FFF76CF9064641F2893400BF3C
:10399000B868800705D4FFF763F9801BA042F7D30E
:1039A00003253DB9B868D9F8501020F44070084399
:1039B0000025B860B8F1000F05D157F8300C20F0A1
:1039C000805047F8300CD9F80000C10716D18107A4
:1039D0001DD4410724D401072BD4C10632D481065B
:1039E00039D4410640D4010647D4C1054ED48103E1
:1039F00055D481055CD4410563D472E03968D9F8A7
:103A0000042021F00301114339608107E1D53968B1
:103A1000D9F8082021F00C01114339604107DAD5AB
:103A20003968D9F80C2021F03001114339600107C1
:103A3000D3D53968D9F8102021F0C001114339607D
:103A4000C106CCD53968D9F8142021F4407111434E
:103A500039608106C5D53968D9F8182021F440614C
:103A6000114339604106BED53968D9F81C2021F4CC
:103A70004051114339600106B7D53968D9F8202083
:103A800021F4404111433960C105B0D53968D9F8F6
:103A9000242021F44031114339608103A9D579698B
:103AA000D9F8282021F00301114379618105A2D5BD
:103AB0003968D9F82C2021F440211143396041059F
:103AC0000FD53968D9F8302021F440111143B2F5EF
:103AD000801F396005D157F87C1C41F4801147F8EC
:103AE0007C1C01050FD53968D9F8342021F4400138
:103AF0001143B2F5800F396005D157F87C1C41F4B1
:103B0000801147F87C1CC1040FD53968D9F83820DA
:103B100021F040711143B2F1807F396005D157F82F
:103B20007C1C41F4801147F87C1C81040FD5396856
:103B3000D9F83C2021F040611143B2F1006F3960A7
:103B400005D157F87C1C41F4801147F87C1C4104D6
:103B50000FD53968D9F8402021F040611143B2F106
:103B6000006F396005D157F87C1C41F4801147F88B
:103B70007C1C01040FD53968D9F8442021F040514C
:103B80001143B2F1805F396005D157F87C1C41F4D4
:103B9000803147F87C1CC1030FD53968D9F848201B
:103BA00021F040411143B2F1804F396005D157F8FF
:103BB0007C1C41F4803147F87C1C40030FD57869A8
:103BC000D9F84C1020F440100843B1F5001F78617B
:103BD00005D157F87C0C40F4801047F87C0C28463F
:103BE00001B0BDE8F08300002DE9F047002800F0A7
:103BF000CA8042F2000AC4F2020A0446DAF800005F
:103C00000D4600F00F0088420DD2DAF8000020F0D7
:103C10000F002843CAF80000DAF8000000F00F0097
:103C2000A84240F0B080207841F20808C007C4F2F2
:103C300002080CD14FF00009206881072BD4B9F19C
:103C4000800F41D1D8F8000020F0F0003AE0606821
:103C5000022800F08C80032840F0918058F8080C6E
:103C6000800140F1908001F0C9FF4BF20041C0F2A9
:103C7000C44188420CD9D8F8000010F0F00F00F0D1
:103C80008E802078800703D5A068002800F0878008
:103C90004FF000098CE0410705D5D8F8001041F439
:103CA000E061C8F80010000706D5D8F80000072129
:103CB00061F30D20C8F80000D8F80000A16820F0DA
:103CC000F0000843C8F80000DAF8000000F00F0028
:103CD000A84219D9DAF8000020F00F002843CAF8EA
:103CE0000000FEF7BDFF064641F28837DAF8000013
:103CF00000F00F00A84207D0FEF7B2FF801BB842C9
:103D0000F4D90320BDE8F0872068410707D5D8F82B
:103D10000010E26821F4E0611143C8F800100007C8
:103D200008D5D8F80000216920F4605040EAC100AD
:103D3000C8F8000000F08AF8D8F8001046F6F862DB
:103D4000C1F30311C0F60002515C40F2000201F021
:103D50001F0120FA01F140F22C00C2F200000068BD
:103D6000C2F200021160FFF7D9FCBDE8F08758F8F5
:103D7000080C80035CBF0120BDE8F08706E058F81E
:103D8000080C400502D40120BDE8F08700F05EF881
:103D90004BF20041C0F2C44188427FF679AFD8F8B7
:103DA0000000082161F307104FF08009C8F80000F7
:103DB000D8F80000616820F003000843C8F800004C
:103DC000FEF74EFF064641F2883700BFD8F80000E4
:103DD000616800F00C00B0EB810F3FF42DAFFEF7EF
:103DE0003FFF801BB842F1D90320BDE8F0870000F7
:103DF00040F20000C2F200000068704780B5FFF793
:103E0000F7FF41F20801C4F20201096846F60872A0
:103E1000C1F30221C0F60002515C01F01F01C8404D
:103E200080BD000080B5FFF7E3FF41F20801C4F256
:103E30000201096846F60872C1F3C221C0F6000209
:103E4000515C01F01F01C84080BD000041F20C012F
:103E5000C4F2020151F8040C42F20042C0F2F40232
:103E600000F00C000428104608BF704751F8040CFD
:103E700000F00C00082843F20060C0F26E1021D060
:103E800051F8043C03F00C030C2B1CBF00207047BE
:103E9000D1F800C00B680CF0030CC3F3031301331B
:103EA000BCF1030F08BF02460868B2FBF3F20968D1
:103EB000C0F306205043C1F34161022202EB4101ED
:103EC000B0FBF1F0704700002DE9F04182B000280E
:103ED00000F001810446007841F20006C007C4F2F8
:103EE000020654D12078800772D42078000700F1B0
:103EF00095802078400700F1B3802078800600F19B
:103F00000081E569002D00F01882B06800F00C0017
:103F10000C2840F05981012D00F0DD80F068216A05
:103F200000F003028A4240F0D680626A6FF00F030D
:103F300000F0F00103EB0212914240F0CC80A16A44
:103F400000F4FE42B2EB012F40F0C580E16A00F0C0
:103F50007842B2EBC16F40F0BE80226B0023CFF6F7
:103F6000E07303EB025200F4C0016FF314029142BC
:103F700040F0B180616B4FF07E4202EB016100F0D6
:103F8000C06001F07E41884240F0A580D5E1B06874
:103F900000F00C01F068082959D0032281F00C01CF
:103FA00022EA00000844B0FA80F040094FD1656869
:103FB000B5F5A02F00F0D380B5F5803F00F0D38099
:103FC000306820F480303060306820F48020CDE00C
:103FD000B068F16800F00C00042866D001F003011D
:103FE00080F00C0081F002010844B0FA80F0400932
:103FF0005BD1E1683068002900F0D38040F4807024
:104000003060FEF72DFE05463068400500F1FE8069
:10401000FEF726FE401B0228F6D930E16169D6F88A
:104020009400002900F0898040F00100C6F8940057
:10403000FEF716FE054600BFD6F8940080073FF550
:1040400058AFFEF70DFE401B0228F5D917E1306886
:1040500080037FF547AF606800287FF443AF3AE004
:10406000B06D10F0805808D1B06D40F08050B06550
:10407000B06D00F080500190019847F20007C4F243
:1040800000073868C0052AD4386840F4807038606A
:10409000FEF7E6FD054600BF3868C0051FD4FEF7F1
:1040A000DFFD401B0228F7D9E9E03068400501D563
:1040B000E06880B17068216920F0FE4040EA01604C
:1040C000706040F22C00C2F200000068FFF726FB8F
:1040D00000283FF40AAF012002B0BDE8F081A568D6
:1040E000052D00F0B080012D00F0B380D6F89000CF
:1040F00020F00100C6F89000D6F8900020F00400EF
:10410000ABE0A169D6F89800002900F0878040F064
:104110000100C6F89800FEF7A3FD0546D6F8980002
:1041200080073FF5EEAEFEF79BFD401B02284FF0E7
:104130000300F3D902B0BDE8F08120F00100C6F819
:104140009400FEF78DFD0546D6F8940080077FF5B4
:10415000D0AEFEF785FD401B0228F5D98FE0306810
:1041600040F480203060306840F480303060FEF7EA
:1041700077FD002D054610D0306880033FF5B2AEC4
:10418000FEF76EFD401B6428F6D978E0FEF768FD67
:10419000401B64284FF00300CCD830688003F5D46E
:1041A000A0E620F480703060FEF75AFD054600BF9F
:1041B000306840057FF599AEFEF752FD401B02289E
:1041C0004FF00300F4D9B5E7306820F0807030601C
:1041D000FEF746FD022D05460CD100BF3068800178
:1041E00067D5FEF73DFD401B02284FF00300F5D9CF
:1041F000A0E700BF3068800140F19880FEF730FDF5
:10420000401B02284FF00300F4D993E7706821693E
:1042100020F0FE4040EA0160706066E620F0010098
:10422000C6F89800FEF71CFD054600BFD6F89800BA
:1042300080077FF566AEFEF713FD401B02284FF0A6
:104240000300F3D976E7D6F8900040F00400C6F8F2
:104250009000D6F8900040F00100C6F89000FEF7FC
:10426000FFFC002D054641F2883715D0D6F89000A6
:10427000800715D4FEF7F4FC401BB842F6D90320A2
:1042800002B0BDE8F08100BFFEF7EAFC401BB84277
:104290004FF003003FF64EAFD6F890008007F3D4FE
:1042A000B8F1000F7FF429AEB06D20F08050B065FA
:1042B00023E6F06848F20C01C0F29F1104F12007D8
:1042C00000EA010C8ECF6FF00F00D4E90C5400EB24
:1042D00002100022CFF6E07241EA0C0102EB055217
:1042E00008436FF314024FF07E4540EA032005EBCC
:1042F0000465104305F07E4540EAC7602843F0603E
:10430000306840F080703060F06840F08070F0609D
:10431000FEF7A6FC0446306880010ED4FEF7A0FC30
:10432000001B02284FF00300F5D903E7F0684FF6B1
:10433000FC71CFF6EE610840F060002002B0BDE8ED
:10434000F081000080B501F0D1FC80BD90F88410B0
:10435000012904BF022070472421C0F88810026898
:104360001168136823F00103136021F0005300214A
:10437000416613602022C0F8882080F88410084627
:10438000704700007047000070470000B0B5044659
:1043900090F88400012804BF0220B0BD012084F8F9
:1043A00084002420C4F8880020680568026822F090
:1043B00001020260826822F060621143816020463F
:1043C00001F0EEFC206805602020C4F88800002081
:1043D00084F88400B0BD0000B0B5044690F88400B5
:1043E000012804BF0220B0BD012084F884002420ED
:1043F000C4F8880020680568026822F001020260A3
:10440000826822F0604211438160204601F0C8FCBE
:10441000206805602020C4F88800002084F884000B
:10442000B0BD0000704700007047000070470000FA
:1044300070B503680446D96940F62F001E68D3F8AA
:1044400008E0084020280CD106F020000EF0805231
:10445000801806D0616F002900F0AE8020468847A2
:1044600070BD40F60F00084000F08E800120C1F2C0
:1044700000000EEA000C40F22010C0F20040304074
:1044800010EB0C0000F08080C80718BF16F4807095
:1044900007D001201862D4F8900040F00100C4F861
:1044A000900088070EF0010208D53AB10220186288
:1044B000D4F8900040F00400C4F89000480708D5F4
:1044C0003AB104201862D4F8900040F00200C4F819
:1044D000900008070CD506F0200050EA0C0007D029
:1044E00008201862D4F8900040F00800C4F890004A
:1044F00008050BD516F0806008D04FF400601862F4
:10450000D4F8900040F02000C4F89000D4F8900057
:10451000002851D011F020001EBF06F020000EF040
:10452000805110EB010040F0FE802068D4F890101C
:10453000806801F0280100F04000401800F0EC8095
:10454000204601F087FD20688068400640F1C98060
:10455000206850E8020F216820F0400041E8020284
:10456000002AF5D1D4F88000002800F0BA8045F682
:104570009D71C0F600018163FEF73AF9E0B1D4F80D
:104580008000816B884770BDE06E06EA0102D506A7
:104590003FD501283DD1102018629868400644D4C8
:1045A000B4F85C00B4F85E10B4F85E20002A1CBFBA
:1045B000401A5FEA004101D170BD00BF216851E897
:1045C000001F226821F4907142E80013002BF5D1FE
:1045D0004FF6FE71CEF6FF71226852E8022F236873
:1045E0000A4043E80226002EF6D12021C4F88C10A0
:1045F0000021E166616700BF216851E8001F226861
:1046000021F0100142E80013002BF5D102212167AF
:1046100055E0C80258D51EF4800055D04FF48010E4
:1046200018622046FFF700FF70BDD4F880000068D4
:1046300041688AB2002A58D0B4F85C309A4254D209
:10464000A4F85E100068800632D400BF206850E8ED
:10465000000F216820F4807041E80002002AF5D1A3
:10466000206850E8020F216820F0010041E80202B2
:10467000002AF5D1206850E8020F216820F04000A0
:1046800041E80202002AF5D12020C4F88C00002065
:10469000E06600BF206850E8000F216820F010009D
:1046A00041E80002002AF5D1D4F88000FEF768F84E
:1046B00002202067B4F85C00B4F85E10401A81B2A2
:1046C0002046FFF75FFE70BD08061AD506F0800091
:1046D0000EF40003C01814D0A16F00297FF4BEAE01
:1046E0006AE72046FFF7A2FE70BDB4F85C10914265
:1046F0007FF462AF006880067FF55EAF022020671E
:10470000DEE7500616D4080218D516F0804015D002
:104710002046FFF787FE70BD2046FFF787FE00208A
:10472000C4F8900070BD616F00293FF4FEAE2046D2
:104730008847FAE6204601F0BBFC70BDC8017FF552
:104740003BAFB6F1FF3FC8BF70BD2046FFF71CFE70
:1047500070BD000010B5D8B10446D0F8880028B963
:10476000002084F88400204600F026F82420C4F8B5
:1047700088002068A16A026822F00102026011B17B
:10478000204601F037FB204601F0BEFC012801D194
:10479000012010BD2068416821F49041416081688A
:1047A00021F02A018160016841F001010160204689
:1047B00001F094FB10BD000070B59CB004460025CC
:1047C00002A854211B95CDE91955CDE91755FBF7E2
:1047D000F1FE206843F60001C4F20101884239D09D
:1047E00044F60041C4F20001884240F0878008206E
:1047F0000290002402A80694FFF772F8002818BF60
:10480000FCF720FF41F24C00C4F20200C16841F401
:104810000021C160C16801F4002101910199016882
:1048200041F004010160006817A900F00400019044
:1048300001984FF4406017900220CDE9180405203C
:104840001B9040F60000C4F600001A94FEF72AF907
:104850001CB070BD0120CDE9020502A8FFF740F8A9
:10486000002818BFFCF7EEFE41F24C00C4F2020033
:104870004169002641F480414161416901F4804170
:1048800001910199016841F004010160006817A9D4
:1048900000F0040001900198302017900220189039
:1048A00007201B9040F60000C4F60000CDE9196611
:1048B000FEF7F8F840F214150820C2F20005C4F221
:1048C00002001921102285E847004FF44050802350
:1048D00028622846C5E90436C5E90666FEF71CF8D5
:1048E000002818BFFCF7AEFE252000210022E56756
:1048F000AC62FEF75FFF2520FEF758FF1CB070BDCD
:10490000B0B50446D0F8880020281CBF0220B0BDF6
:104910004FF00100E9B3002A134608BFB0BD0022E2
:1049200021202165A4F85430A4F85630C4F8902012
:10493000C4F88800E06FE8B145F6B175C0F600052F
:104940004563256846F2050C46F2490EC0F6000C98
:10495000C0F6000E826305F12802C0E90BCEFEF717
:1049600047F838B11020C4F890002020C4F888001F
:104970000120B0BD20684021016200BF206850E8DE
:10498000020F216840F0800041E80202002AF5D1C0
:104990000020B0BD704700007047000080B540F2B5
:1049A0007410C2F200000621FEF7BAFB80BD0000C1
:1049B000062988BF7047006804A252F82110D0F879
:1049C00084231143C0F88413704700BF0200000025
:1049D000040000000800000010000000200000009B
:1049E0004000000001000000B0B504460068D0F8A7
:1049F0008813D0F8902302EA0105E9071BD1A80724
:104A000021D4680728D428072FD4E80636D46806AE
:104A100006D520684021C0F88C132046FEF77EFBA7
:104A2000A80658BFB0BD20682021C0F88C132046CE
:104A3000FEF770FCB0BD0121C0F88C132046FEF7D4
:104A400063FBA807DDD520680221C0F88C1320463F
:104A5000FEF75CFB6807D6D520680421C0F88C13EC
:104A60002046FEF755FB2807CFD520680821C0F85F
:104A70008C132046FEF74EFBE806C8D520681021AF
:104A8000C0F88C132046FEF747FB6806C8D5C0E780
:104A900080B500680268D1E900ECD1E9023122F06A
:104AA0001F0223F018031A4311430160C0F814E0F9
:104AB000C0F818C080BD000070B5D0F800E0DEF886
:104AC0000020DEF8A0C34B6922F0E00223F0C00012
:104AD000202B40EA020306D08A69042A2BD0032A3D
:104AE0002CD0022A2DD143F020034FF2FF30C3F225
:104AF000FF1001F11C0603EA000278CE00F5006009
:104B00001840104324F06E42104325F068421043D1
:104B100026F06042CB6A104340EA83004A6B20F0E3
:104B20000050096B10432CF480321143CEF8000082
:104B3000CEF8A01370BD43F08003D6E743F04003E6
:104B4000D3E723F0E003D0E7F0B581B00446006876
:104B5000D0F88813D0F890234568C66802EA0107A8
:104B6000F9030CD54FF48031C0F88C13012084F880
:104B7000DD00002084F8DC002046FEF74DFAB80383
:104B800007D520684FF40031C0F88C132046FEF79B
:104B900033FA3540E8070DD1A80714D468071BD4B1
:104BA000280722D4E80629D4A80630D4680636D4CB
:104BB00001B0F0BD20680121816020460621FEF78A
:104BC00021FAA807EAD52068022181602046062143
:104BD000FEF71AFA6807E3D52068042181602046B1
:104BE0000621FEF713FA2807DCD52068082181602A
:104BF00020460621FEF70CFAE806D5D520681021DC
:104C0000816020460621FEF777FBA806CED52068F6
:104C1000202181602046FEF77BFB6806C8D520680E
:104C20004021816020460621FEF764FB01B0F0BD03
:104C30002DE9F04100687F2A00EBC114A04658F826
:104C4000E4EF4FF0000158F82CCC00F32E80013A2D
:104C50003F2A00F24280DFE802F020394020404045
:104C6000403940404040404040204040404040406B
:104C7000404040404040404040394040404040403B
:104C80004040404040404040404040404040404024
:104C900040404040404040404020D3E90112C4F829
:104CA000BC10C4F8C020002117E0B2F5007F07DB7C
:104CB0000CD0B2F5006F09D0B2F5806FEDD00CE0EA
:104CC000802A03D0B2F5807FE7D006E0D3E9011255
:104CD000C4F8C4101021C4F8C820FE221D6803F1D6
:104CE0000C078A40D1CF2EEA02028D402A43884029
:104CF000104304FA01F2104306FA01F2104307FAD6
:104D000001F21CF0022F42EA000208BF082C03D077
:104D1000C8F80020BDE8F081D86988400243C8F88F
:104D20000020BDE8F081000070B5044600680D4623
:104D300000EBC110D0F88410D0F88C2002EA0106F4
:104D4000F10735D1B0073CD4700746D4300750D4B2
:104D5000F0065AD4700664D430066ED4F00579D4C7
:104D6000B00500F18580700500F19080300500F1FC
:104D70009B80F00400F1A680B0040AD520684FF4AF
:104D8000005100EBC510C0F8881020462946FEF7F8
:104D900041F9700458BF70BD20684FF4804100EBAA
:104DA000C510C0F8881020462946FEF7ABF970BD43
:104DB0000121C0F8881020462946FEF723F9B007E4
:104DC000C2D52068022100EBC510C0F8881020462B
:104DD0002946FEF719F97007B8D52068042100EBC1
:104DE000C510C0F8881020462946FEF70FF9300795
:104DF000AED52068082100EBC510C0F88810204609
:104E00002946FEF705F9F006A4D52068102100EB2D
:104E1000C510C0F8881020462946FEF76DFA7006C6
:104E20009AD52068402100EBC510C0F888102046B4
:104E30002946FEF75FFA300690D52068802100EB06
:104E4000C510C0F8881020462946FEF7D7F8F005AF
:104E50007FF586AF20684FF4807100EBC510C0F875
:104E6000881020462946FEF7CBF8B0057FF57BAFCA
:104E700020684FF4007100EBC510C0F88810204680
:104E80002946FEF707FA70057FF570AF20684FF4EA
:104E9000806100EBC510C0F8881020462946FEF757
:104EA000F7F930057FF565AF20684FF4006100EB3E
:104EB000C510C0F8881020462946FEF7EFF9F00427
:104EC0007FF55AAF20684FF4805100EBC510C0F851
:104ED000881020462946FEF7DFF9B0047FF559AF68
:104EE0004CE7000080B5006800EBC110D0F88010DE
:104EF000D2E900ECD2E9023221F01F0123F01803BD
:104F000019431143C0F88010C0F894E0C0F898C06D
:104F100080BD00002DE9F04F8CB0046804EBC11097
:104F2000034653F8807F864627F070471F601F684E
:104F30005EF8E86F84460A965CF8E48F0B94D4F828
:104F4000A043566927F02007202E47EA0607099458
:104F500009D09669042E00F09280032E00F0938011
:104F6000022E40F0948027F4D0772037546A956D54
:104F70000194946A06950294D46AD2E9079A03943C
:104F8000546B0494D2E90EB40894146C0794D2E9DB
:104F9000114646F48055B5F5F05F156D059528F47A
:104FA000807544EA050802D1BBF1400F03D128F413
:104FB000F05444EA0608D56C546D052900940BD8CA
:104FC00034A656F82160126B099C0131264002FA82
:104FD00001F141EA060400E0099C4FF2FF31C0F202
:104FE000FF1107EA010201F5006101EA090111431D
:104FF0001FFA8AF211434FF6BF72019EC0F200629F
:1050000016403143029E02F1006232401143039A7E
:1050100011434FF6BF72CFF600621140049AB2F10D
:10502000005F4FF6FF72CFF6026208BF01F5003154
:105030000BEA02063143069E02F5802232401143FC
:10504000059A114319604FF6C0710A9AC7F6FF71AD
:105050001140089A02F03F021144079A1143CEF81A
:10506000001028F480412943CCF800100099C0F8C2
:10507000D4100B98C0F8A0430CB0BDE8F08F022606
:1050800066F3C81772E7012666F3C8176EE727F4C0
:10509000D0776BE7FFFFFDFFFFFFFBFFFFFFF7FF91
:1050A000FFFFEFFFFFFFDFFFFFFFBFFFB0B50068AF
:1050B0004FF6EF7300EBC11050F8EC1FCFF6EC7316
:1050C00001EA030CD2E9001E0133D2E9024503EAEA
:1050D000011141EA0C012EF44033194325F4003349
:1050E00095691943012D41EA040109D1D2E904323D
:1050F00021F0060123F002031943114341F001019D
:105100000160B0BDFEE7000081684FF6C072C7F6CF
:10511000FF721140023181607047000081684FF6D4
:10512000C072C5F6FF7211408160704781684FF60A
:10513000C072C7F6FF7211400131816070470000F4
:1051400081684FF6C072C6F6FF72114001F18051BE
:1051500081607047806800F0E0707047806800F000
:10516000E0707047806800F460407047806800F02D
:105170001F007047806800F01F00704700EB81003F
:10518000006E00F0F840704700EB8100006E00F008
:10519000F8407047C06800F0007070478068C0F346
:1051A000C00070478068C0F3C0007047C06C00F456
:1051B000C070B0FA80F040097047000081684FF677
:1051C000C072C7F6FF72114008318160704700005D
:1051D0008068C00F704700008068C0F3407070475F
:1051E0008068C0F340007047806800F0010070479D
:1051F000806800F0010070478068C0F3007070475D
:105200008068C0F3800070478068C0F380007047FA
:10521000C06800F44060B0FA80F0400970470000B8
:10522000C1F3012300EB8300D0F830C001F01F016F
:105230001F238B40C2F384622CEA030302FA01F1BC
:105240001943016370470000C1F3406300EB830022
:10525000D0F814C0C1F3045107238B402CEA030398
:1052600002FA01F11943416170470000C1F3406344
:1052700000EB8300D0F814C0C1F3045107238B4026
:105280002CEA030302FA01F119434161704700005F
:1052900080B54FF6FF7ECB43D0F8B0C0C0F2070E0A
:1052A00002F0180263EA0E032EFA02F203EA0C037C
:1052B00011401943C0F8B01080BD000080B54FF612
:1052C000FF7ECB43D0F8B0C0C0F2070E02F0180248
:1052D00063EA0E032EFA02F203EA0C0311401943AB
:1052E000C0F8B01080BD0000826822F47C12114327
:1052F00081607047826822F0E072114381607047DC
:10530000826822F0E07211438160704700EB8100F7
:10531000D0F860C04FF20001C0F2FF3102F0F84255
:1053200001EA0C011A43114341F000410166704744
:1053300000EB8100D0F860C04FF20001C0F2FF31F5
:1053400002F0F84201EA0C011A43114341F0004116
:105350000166704700EB8100016E21F0007111437E
:105360000166704700EB8100016E21F0007111436E
:105370000166704700EB8100016E21F080711143DE
:105380000166704700EB8100016E21F080711143CE
:105390000166704700EB8100016E21F0004101665B
:1053A0007047000000EB8100016E21F000410166B2
:1053B00070470000426922F000421143416170478A
:1053C000426922F0004211434161704782684FF602
:1053D000C073C3F6FF731A4001F08041114401F11C
:1053E0000041816070470000F0B59BB0002401A827
:1053F0003C211A94CDE91844CDE91644CDE9144472
:10540000CDE91244CDE91044FBF7D4F840F2A800EE
:10541000C2F200004FF0A041012304274FF44032B4
:1054200080E81600C0E90344C0E9053784830362BD
:1054300080F82440C0E90B4480F83840C46380F809
:105440004040FDF73DF8002818BFFCF7FBF840F29C
:10545000A800C2F2000018A91894FCF73BFC002831
:1054600018BFFCF7EFF806200225119040F2A800C3
:10547000C0F2304500247F260427C2F2000010A9A4
:10548000109512941396CDE91474FCF7D5FC0028FE
:1054900018BFFCF7D7F809200290022003A9C1C168
:1054A0000990CC200B9080200C9040F2A800C2F212
:1054B000000001A901950694ADF828408DF82A4016
:1054C0008DF83440FCF708F9002818BFFCF7BAF84B
:1054D0000420C0F66000019040F20F10029040F2EC
:1054E000A800C2F2000001A9FCF7F6F8002818BFD6
:1054F000FCF7A8F81BB0F0BD80B582B041F24800BF
:10550000C4F202000168002241F004010160016858
:1055100001F0040101910199016841F0010101606C
:105520000068002100F00100009000980B20FEF7B9
:1055300041F90B20FEF73AF902B080BDF0B587B013
:10554000002541F24C000695CDE90455CDE9025500
:10555000C4F20200016840F6000441F00401016059
:105560000168C4F6000401F0040101910199016889
:10557000012241F02001016001684FF4405601F022
:105580002001019101990168012741F001010160A9
:1055900000684FF4405100F001000190019820464E
:1055A000FDF758FB02A92046CDE90267CDE9045575
:1055B000FDF778FA07B0F0BD10B5BAB000241CA80A
:1055C0006021CDE93844CDE93644CDE93444FAF7D9
:1055D000F1FF09A82421CDE91A44CDE91844CDE909
:1055E0001644CDE91444CDE91244FAF7E3FF40F242
:1055F000741046F60001C2F20000C4F20101CDE9C8
:105600000744CDE90544CDE90344CDE90144C0E9AF
:1056100000148460FDF792FD002818BFFCF712F813
:1056200040F27410C2F200000C21FDF7F7FC0028D4
:1056300018BFFCF707F840F27410C2F200000A210C
:10564000FDF72EFE002818BFFBF7FCFF0020389066
:105650000120399040F27410C2F2000038AA0221F1
:10566000FDF7ACFB002818BFFBF7ECFF40F274100D
:10567000C2F20000022100220024FDF7F7FA002800
:1056800018BFFBF7DFFF46F64020CDE934040820C1
:10569000379040F27410C2F2000034AA062136940A
:1056A000FDF73AFE002818BFFBF7CCFF10201C9036
:1056B00000200121CDE920104FF00061CDE91D004F
:1056C0001F90CDE92200CDE92400CDE926102890D5
:1056D0004FF00051339040F274102991C2F2000053
:1056E0001CAA0621FDF790FF002818BFFBF7AAFFB0
:1056F0004FF42A70199040F27410C2F2000019ABF6
:1057000006210122FDF722FE002818BFFBF79AFFB1
:1057100040F27410C2F2000034AA00210024FDF708
:10572000FBFD002818BFFBF78DFF40F27410C2F29A
:10573000000012AA00211294CDE914441894FDF738
:10574000ADFF002818BFFBF77DFF00204FF48071EC
:10575000CDE92D101021CDE91C00CDE92A002C90B7
:105760003090CDE9311040F27410C2F200001CAA52
:105770000021FDF749FF002818BFFBF763FF40F247
:105780007410C2F200001CAA0121FDF73DFF0028A1
:1057900018BFFBF757FF43F22050199040F27410E6
:1057A000C2F2000019AB00210122FDF7CFFD002855
:1057B00018BFFBF747FF46F64020199040F27410DF
:1057C000C2F2000019AB002104220024FDF7BEFD47
:1057D000002818BFFBF736FF4FF4406009900A20FD
:1057E000CDE90A04CDE90E0440F27410C2F20000C3
:1057F00009AA0021CDE90C44CDE91044FDF738FC9D
:10580000002818BFFBF71EFF40F27410C2F2000020
:1058100009AA0121FDF72CFC002818BFFBF712FF95
:1058200020210020029108210190CDE90310CDE94B
:105830000500CDE9070040F27410C2F2000001AB90
:1058400000210122FDF796FE002818BFFBF7FAFEA3
:1058500040F27410C2F2000001AB01210422FDF7F6
:1058600089FE002818BFFBF7EDFE0020CDE90200FD
:1058700040F27410C2F2000001AB00210222FDF7D9
:1058800079FE002818BFFBF7DDFE40F27410C2F26B
:10589000000001AB01210822FDF76CFE002818BFB3
:1058A000FBF7D0FE40F27410C2F2000034AA0121CE
:1058B000FDF732FD002818BFFBF7C4FE40F274105C
:1058C000C2F2000012AA0121FDF7E8FE002818BF6D
:1058D000FBF7B8FE43F22050199040F27410C2F268
:1058E000000019AB01210122FDF730FD002818BF8F
:1058F000FBF7A8FE46F64020199040F27410C2F261
:10590000000019AB01210422FDF720FD002818BF7B
:10591000FBF798FE40F27410C2F20000FDF788FC1D
:105920003AB010BD80B540F2043044F60041C2F2F6
:105930000000C4F2000100234FF00C0C4FF4E132E0
:1059400080E80E00C0E90333C0E905C3C0E90733AE
:10595000C0E90933FEF7FEFE002818BFFBF772FE10
:1059600040F20430C2F200000021FEF735FD0028AD
:1059700018BFFBF767FE40F20430C2F200000021BE
:10598000FEF704FD002818BFFBF75CFE40F2043070
:10599000C2F20000FEF7DAFC002818BFFBF752FE47
:1059A00080BD000080B540F2702043F60001C2F2D5
:1059B0000000C4F2010100234FF00C0C4FF46122EF
:1059C00080E80E00C0E90333C0E905C3C0E907332E
:1059D000C0E90933FEF7BEFE002818BFFBF732FE10
:1059E00040F27020C2F200000021FEF7F5FC002812
:1059F00018BFFBF727FE40F27020C2F20000002122
:105A0000FEF7C4FC002818BFFBF71CFE40F2702014
:105A1000C2F20000FEF79AFC002818BFFBF712FE46
:105A200080BD0000FEE70000FEE7000000F0070078
:105A300080F00703042B28BF04234FF0FF3C0338FA
:105A40000CFA03F338BF0020994381400CFA00F0B0
:105A500022EA00000843704790ED032A90ED041AF3
:105A600032EE002AB4EE412AF1EE10FA80ED032A5C
:105A700002DD80ED031A08E0B1EE411AB4EE412ACE
:105A8000F1EE10FAB8BF80ED031A90ED012A90ED07
:105A9000034A90ED001A22EE042A90ED054A90ED9B
:105AA000023A21EE001A31EE021A30EE442A23EEB9
:105AB000022A31EE022A90ED071A80ED050AB4EEB3
:105AC000412AF1EE10FA80ED062A04DD80ED061A77
:105AD00090ED060A7047B1EE411AB4EE412AF1EE9C
