:020000040800F2
:100000004809002079020008393F000845360008F9
:10001000353F0008CD070008154800080000000023
:100020000000000000000000000000006541000822
:10003000D107000800000000D93F000899410008DE
:10004000930200089302000893020008930200083C
:10005000930200089302000893020008930200082C
:10006000930200089302000893020008930200081C
:10007000930200089302000893020008930200080C
:10008000930200089302000871040008930200081C
:1000900093020008930200089302000893020008EC
:1000A00093020008930200089302000893020008DC
:1000B00093020008930200089302000893020008CC
:1000C00093020008930200089302000893020008BC
:1000D00093020008930200089302000893020008AC
:1000E000930200089302000893020008930200089C
:1000F000930200089302000893020008930200088C
:10010000930200089302000893020008930200087B
:10011000930200089302000893020008930200086B
:10012000930200089302000893020008930200085B
:10013000930200089302000893020008930200084B
:10014000930200089302000893020008930200083B
:10015000930200089302000893020008930200082B
:10016000930200089302000893020008930200081B
:10017000930200089302000893020008930200080B
:1001800093020008930200089302000893020008FB
:100190009302000800000000930200089302000888
:1001A00093020008930200089302000893020008DB
:1001B00093020008930200089302000893020008CB
:1001C00093020008930200089302000893020008BB
:1001D000930200089302000800F002F800F03CF8D7
:1001E0000AA090E8000C82448344AAF10107DA4592
:1001F00001D100F031F8AFF2090EBAE80F0013F0A8
:10020000010F18BFFB1A43F0010318470047000015
:1002100020470000103A24BF78C878C1FAD85207A6
:1002200024BF30C830C144BF04680C607047000070
:100230000023002400250026103A28BF78C1FBD8EF
:10024000520728BF30C148BF0B6070471FB504F08C
:1002500030FB1FBD10B510BD00F0D0F81146FFF700
:10026000F5FF04F013FB00F0EEF803B4FFF7F2FF24
:1002700003BC00F0F5F80000094880470948004732
:10028000FEE7FEE7FEE7FEE7FEE7FEE7FEE7FEE746
:10029000FEE7FEE704480549054A064B70470000A3
:1002A00009420008D901000848030020480900203D
:1002B000480500204805002053EA020C00F0698040
:1002C0002DE9F04B4FF00006002B1FBFB3FA83F56A
:1002D00003FA05F424FA05F65E4012BF1643B2FA9B
:1002E00082F502FA05F4C5F120051EBF22FA05FCCD
:1002F00044EA0C04203556EA044C4FEA144418BF73
:10030000641C4FF000084FF00009904271EB030CA1
:1003100039D3002919BFB1FA81F701FA07F6B0FA0B
:1003200080F700FA07F6C7F120071EBF20FA07FC86
:1003300046EA0C062037B6FBF4FCA7EB0507103F96
:1003400007F01F0BCBF120062CFA06F60CFA0BFB7C
:1003500044BFB3460026202FA4BF5E464FF0000BDB
:100360005BEA060C08BF4FF0010B19EB0B0948EBD9
:100370000608ABFB027C06FB02CC0BFB03CCC01BCC
:1003800071EB0C01C1E70B46024641464846BDE809
:10039000F08B13B5084318BF4FF0FF300146AFF3A1
:1003A0000080BDE81C4070474FF0000200B51346C6
:1003B00094469646203922BFA0E80C50A0E80C5085
:1003C000B1F12001BFF4F7AF090728BFA0E80C5036
:1003D00048BF0CC05DF804EB890028BF40F8042B2F
:1003E00008BF704748BF20F8022B11F0804F18BF9C
:1003F00000F8012B7047704770477047754600F052
:100400002BF8AE4605006946534620F007008546A6
:1004100018B020B5FFF73EFFBDE820404FF00006C2
:100420004FF000074FF000084FF0000BAC46ACE86F
:10043000C009ACE8C009ACE8C009ACE8C00921F0CB
:1004400007018D46704710B50446AFF30080204683
:10045000BDE81040FFF709BF00487047300000209A
:1004600001491820ABBEFEE72600020070470000DD
:1004700080B540F2B000C2F2000000F07BFF80BD0A
:10048000B0B50446006803F04BF9216805460846FC
:1004900003F04AF901464FF000007DBB002908BF78
:1004A000B0BD2068816801F00D0101291BD103F066
:1004B000CBF820680321016001F0FEFA2168896809
:1004C000C90704BF0020B0BD054603E0206880686E
:1004D000C00712D001F0F0FA401B0328F6D32068C1
:1004E0008068C007F2D0E06D40F01000E065206E3B
:1004F00040F0010020660120B0BD0020B0BD00002A
:10050000B0B582B0002501950446006803F00CF9EF
:10051000002869D120683F228168C8F20002114298
:1005200009D0E06D012540F01000E065206E40F03C
:100530000100206658E003F099F840F20012C5F27D
:100540000002216802F500731846914218BF02F5B7
:10055000C060B1F1A04F08BF184603F09BF800023D
:1005600026D401F0A9FA21680A68D20739D10546D4
:1005700004E000BF21680868C00734D1084603F0D2
:10058000D3F810B9206803F071F801F095FA401B18
:100590000328EFD320680068C007EBD1E06D012588
:1005A00040F01000E065206E40F0010020661BE086
:1005B00040F20000C2F20000006842F66351800978
:1005C000C0F23E51A0FB0101880900EB40000C2164
:1005D00001EB8000019001980028C2D001980138F9
:1005E000F8E7002500E00025284602B0B0BD000075
:1005F00080B500F023F880BD80B540F21C00C2F247
:10060000000090ED000AB7EE001A81EE000A40F2F9
:100610002000C2F20000DFED070A80ED000A9FED26
:10062000040A03F0B1FC03F09FFC03F06DFD80BDF4
:10063000CDCC4C3D3333733F7047000070B540F272
:100640001400C2F2000040F2A4050178C2F20005D5
:1006500095ED000A40F2AC04C2F20004A1B1B2EE82
:10066000001AB4EE410AF1EE10FA1DDD002101700E
:100670000120207040F2180046F26661C2F20000CC
:10068000C3F62671016011E0B1EE0C1AB4EE410A16
:10069000F1EE10FA10DA9FED4B0ADFED4B0A012163
:1006A000017003F071FC70BD002020709FED450AC1
:1006B000DFED450A03F068FC2078002843D040F2C3
:1006C0002000C2F2000090ED000A40F21806B3EEDE
:1006D0000E1AC2F2000620EE010A96ED001A95ED00
:1006E000002A31EE000A80EE021A40F208004CF6B1
:1006F000CD41DFED350AC2F20000C3F64C5186ED64
:10070000000A016040F20400C2F2000021EE200A5B
:10071000B4EE600AF1EE10FAC8BFB0EE600A80EDE8
:10072000000A03F031FC40F22400C2F2000096ED12
:10073000000A90ED001AB4EE410AF1EE10FA40DB27
:100740000020207070BD40F24030C2F200000078FE
:10075000002818BF70BD40F22400C2F2000090EDE6
:10076000000A95ED001A40F2080080EE011A9FED94
:10077000160A4CF6CD41C2F20000C3F64C5101609E
:1007800040F20400C2F2000021EE002A9FED0D1A93
:1007900080ED002AB4EE412AF1EE10FA02DA80ED83
:1007A000001A08E0B4EE402AF1EE10FAB0EE401A5A
:1007B000C8BF80ED001A90ED000ADFED030A03F0D8
:1007C000E3FB70BDCDCC4C3D3333733FFEE70000FF
:1007D00070470000EFF3108072B600BFFEE7000024
:1007E00070B582B004460020019094F858000128AA
:1007F00001D1022533E0012084F8580020460E463E
:10080000FFF73EFE0546E06D15B140F0100022E016
:1008100041F2021188430230E0652068314603F05E
:1008200075F84DF60266C0F2040600BF206802F0BB
:100830006FFF60B10198013001900198B042F5D38B
:10084000E06D012540F0100020F0020003E0E06DB3
:10085000012161F30100E065002084F8580028467A
:1008600002B070BD704700002DE9F04381B004462E
:100870000020009094F85800012802D14FF002089F
:1008800039E260690D46012184F8581010B1296AD7
:10089000012919D16868092840D12868A96A4FF44C
:1008A000785202EA504021B1EA6A01F07C0111431A
:1008B0000843216844F20003CA6CC0F210431A4096
:1008C0000243CA64606629E0A06E00284FF0000071
:1008D0000AD1AA6A6066A1F10100A16622B102F004
:1008E0007C01EA6A08431043D5E9002101F01F01A9
:1008F000C2F3846202FA01F10843D4E919210139F3
:1009000040EA0200C4E9190108D1216844F2000359
:10091000CA6CC0F210431A401043C864206802F049
:10092000E1FE98B92068C16895F8252095F8263031
:1009300021F44011002A4FEA435201D0114304E050
:1009400095F82430114341EA0351C160206802F058
:10095000FBFE21680646084602F0C4FE304302D082
:100960004FF00008E8E0A86A60B1E86A50B195F875
:10097000250001280FD1E06D4FF0010840F0200064
:10098000E0650FE0206895F82520C168012A04D1B0
:1009900041F0007103E02068C16821F000714FF060
:1009A0000008C160206895F830200169012A08D14B
:1009B000D5E90D2321F4FF711143194341F00201E0
:1009C00001E021F002010161AB68296803F10040F8
:1009D000B0FA80F047092068B3F1004218BF1A4608
:1009E000FE0702F0E3FE2068314602F089FF20682E
:1009F00029696B69C268042940F088804FF6FF7747
:100A00000021C0F2070702F05FFE21680646084693
:100A1000002102F059FE720390FAA0F12A68B1FA9F
:100A200081F108BFC0F3846192FAA2F0B0FA80F0BD
:100A3000530308BFC2F38460814203D120680021C0
:100A400002F050FF2068012102F03EFE21680646B8
:100A50000846012102F038FE90FAA0F12A68B1FAA6
:100A600081F13E4208BFC0F3846192FAA2F0B0FA6D
:100A700080F03A4208BFC2F38460814203D120680B
:100A8000012102F02FFF2068022102F01DFE2168E3
:100A900006460846022102F017FE90FAA0F12A68E5
:100AA000B1FA81F13E4208BFC0F3846192FAA2F02C
:100AB000B0FA80F03A4208BFC2F38460814203D1A9
:100AC0002068022102F00EFF2068032102F0FCFDE5
:100AD000216806460846032102F0F6FD90FAA0F1CF
:100AE0002A68B1FA81F13E4208BFC0F3846192FAEC
:100AF000A2F0B0FA80F03A4208BFC2F384608142AB
:100B00001AD12068032102F0EDFE15E0062707EA5E
:100B100092072A68BB4002F0ABFE20682969AA69E7
:100B200002F0D0FE2A7F2068013AB2FA82F22969E7
:100B30005209520602F0B6FE206802F0F9FD0028C4
:100B40004DD120682968EA6802F058FEE868002163
:100B5000C4F27F01884242D1D5F800E04FF08061B5
:100B60009EFAAEF27346B2FA82F76FF3DF433A466B
:100B70002068002B08BF4FEA9E62561C01EB826181
:100B800006F01E0C01F0F84206F01F010126BCF130
:100B9000090F06FA01F60DD842EA0601002B08BF3C
:100BA0004FEA9E677A1C02F01F0202EB420241EA02
:100BB000025111E0002B08BF4FEA9E67791C01F03B
:100BC0001F01002301EB4101CFF6206303EB01512C
:100BD0003243114341F00071AA6802F0E7FD6888D2
:100BE00048F20801084200F0838040F20037C5F265
:100BF0000007216807F58066A7F50079304649456A
:100C000004BF40F20030C5F20000B1F1A04F04BFB4
:100C100040F20030C5F2000002F040FD29680022D9
:100C2000CCF22132914204D01022C9F2C00291428A
:100C300030D102022ED4216840F20062C5F20002D7
:100C4000914202D0B1F1A04F52D1494508BF3E4672
:100C5000B1F1A04F08BF3E4640F40001304602F01B
:100C6000EFFD40F20000C2F20000006842F663515E
:100C70008009C0F23E51A0FB0101880900EB400051
:100C8000182101EB800000BF0090009880B300980D
:100C90000138F9E70022CCF25272914208BF10F0FD
:100CA000807218D00022CCF68432914208BF10F432
:100CB00080011DD12168B1F1A04F08D040F200128F
:100CC000C5F20002914213D0494518BF374640F49F
:100CD000800138460AE02168494508BF3E46B1F127
:100CE000A04F08BF3E4640F08071304602F0A8FD9C
:100CF000002084F85800404601B0BDE8F0830000B1
:100D000080B503F08FF9FFF773FC80BD40F20F123E
:100D100091420CD040F2152291420CD040F21B328D
:100D20000068914214BF80308C30006870470068C2
:100D300084300068704700688830006870470000A1
:100D400070470000F0B581B040F20047C5F20007DF
:100D500001680446A7F54070A7F5807281421046ED
:100D600018BF07F54070B1F1A04F08BF104602F060
:100D7000A1FC21680646084602F0B4FC08B1022531
:100D80006CE02068C168C06C002908D410F4C07001
:100D900005D1E06D012540F02000E0655EE094F8AB
:100DA0005800012801D1022558E0012084F858009C
:100DB0002046FFF7A5FB054618B1002084F858002F
:100DC0004CE0E06D43F20101C00546BF206E20F00B
:100DD000080000202066E06D40F20012884300F514
:100DE0008050E0652068C5F2000240F20051904258
:100DF000C5F2000104D00346884208BF3B4601E02B
:100E00004FF0A043002E18BF834203D1E36D23F4BB
:100E10008013E365602303600023904284F8583018
:100E200006D08842014608BF3946814204D10AE013
:100E30004FF0A041814206D0072E0BD80121B140CE
:100E400011F0C10F06D002F045FC38B9206802F05D
:100E500055FC03E0E06D40F48010E065284601B0E9
:100E6000F0BD000070470000704700002DE9F0431E
:100E700083B0044690F85800012803D1022003B043
:100E8000BDE8F0830E460120002184F8580002914D
:100E90000191206840F20015B0F1A04FC5F20005A5
:100EA0000AD040F20041C5F20001884207D105F5A1
:100EB0008060002131B10EE0284619B10BE000201E
:100EC000012141B902F040FC21680746084602F0C2
:100ED0003BFC38430AD0E06D40F02000E065012083
:100EE000002184F8581003B0BDE8F08320684FF467
:100EF000C1673168A84208BF4FF40277B0F1A04F34
:100F000008BF4FF40277EA59002922F4604118D053
:100F1000726894F83830114340F4807041EA4331EC
:100F2000A842E9511CD14FF0A04002F001FC8146DB
:100F3000284602F0FDFB804658EA090023D0002035
:100F4000CEE740F48070A842E95125D14FF0A0408F
:100F500002F0EEFB0646284602F0EAFB80462BE054
:100F600005F5407002F0E4FB804605F5806002F074
:100F7000DFFB48EA000805F5A06002F0D9FB8146D6
:100F800058EA0900DBD1E85940F61F7188433168FF
:100F9000B2680843104318E005F5407002F0C8FB42
:100FA000064605F5806002F0C3FB40EA060805F539
:100FB000A06002F0BDFB064658EA060001D0002002
:100FC0008EE7E85940F61F718843E851002087E713
:100FD0002DE9F04182B004460020019094F85800B9
:100FE000012801D10221BCE120680D46012184F8CD
:100FF000581002F0A5FB28B1E06D012140F020005F
:10100000E065ABE12068D5E9002102F0A9FB20688A
:1010100002F096FB21680646084602F05FFB30436B
:1010200040F0B880AB68296803F10040B0FA80F066
:1010300047092068B3F1004218BF1A46FE0702F0C4
:10104000A3FB2068314602F055FC206829696B69D2
:10105000C268042940F088804FF6FF770021C0F273
:10106000070702F02BFB216806460846002102F024
:1010700025FB720390FAA0F12A68B1FA81F108BF4A
:10108000C0F3846192FAA2F0B0FA80F0530308BF73
:10109000C2F38460814203D12068002102F01AFC6F
:1010A0002068012102F00AFB21680646084601215A
:1010B00002F004FB90FAA0F12A68B1FA81F13E42F5
:1010C00008BFC0F3846192FAA2F0B0FA80F03A420D
:1010D00008BFC2F38460814203D12068012102F07D
:1010E000F9FB2068022102F0E9FA21680646084669
:1010F000022102F0E3FA90FAA0F12A68B1FA81F134
:101100003E4208BFC0F3846192FAA2F0B0FA80F0C8
:101110003A4208BFC2F38460814203D120680221B1
:1011200002F0D8FB2068032102F0C8FA21680646C5
:101130000846032102F0C2FA90FAA0F12A68B1FA37
:1011400081F13E4208BFC0F3846192FAA2F0B0FA86
:1011500080F03A4208BFC2F3846081421AD120680D
:10116000032102F0B7FB15E0062707EA92072A6879
:10117000BB4002F06BFB20682969AA6902F09AFB68
:101180002A7F2068013AB2FA82F22969520952068E
:1011900002F080FB206802F0C7FA00284DD12068D9
:1011A0002968EA6802F014FBE8680021C4F27F01B4
:1011B000884242D1D5F800E04FF080619EFAAEF24D
:1011C0007346B2FA82F76FF3DF433A462068002B8A
:1011D00008BF4FEA9E62561C01EB826106F01E0CAE
:1011E00001F0F84206F01F010126BCF1090F06FAD2
:1011F00001F60DD842EA0601002B08BF4FEA9E67B0
:101200007A1C02F01F0202EB420241EA025111E095
:10121000002B08BF4FEA9E67791C01F01F010023D5
:1012200001EB4101CFF6206303EB0151324311433F
:1012300041F00071AA6802F0A7FA688848F2080134
:10124000084274D040F20036C5F20006216806F567
:101250008067A6F500783846414504BF40F200306B
:10126000C5F20000B1F1A04F04BF40F20030C5F25A
:10127000000002F00FFA29680022CCF221329142DC
:1012800004D01022C9F2C002914234D1020232D4F9
:10129000216840F20062C5F20002914202D0B1F131
:1012A000A04F44D1414508BF3746B1F1A04F08BF18
:1012B000374640F40001384602F0BCFA40F2000024
:1012C000C2F20000006842F663518009C0F23E514C
:1012D000A0FB0101880900EB40000C2101EB80001C
:1012E0000190019818B300BF01980138019001984E
:1012F0000028F9D11BE00022CCF25272914208BFC3
:1013000010F0807215D00022CCF6843291424FF05A
:10131000000108BF10F4800220D12168B1F1A04F74
:1013200016D040F20012C5F2000291420DD1002108
:1013300014E02168414508BF3746B1F1A04F08BF0E
:10134000374640F08071384605E0414518BF3E46BB
:1013500040F48001304602F06DFA0021002084F84C
:101360005800084602B0BDE8F08100007047000058
:10137000704700002DE9F04F81B040F2004B01684A
:10138000C5F2000B0446ABF540700BF540790E68D2
:101390004F68009081424846ABF5807508BF2846EB
:1013A000B1F1A04F08BF284602F080F93E40B107D6
:1013B00080460CD5E06DC00603D4E06D40F40060BB
:1013C000E0652046FFF74EFA20680221016040F2F6
:1013D000001A7007C5F2000A58BF5FEA06705BD5B5
:1013E000E06DC00603D4E06D40F40070E065206855
:1013F00002F0AEF9002849D02068504508D040F2EC
:101400000051C5F200018842014608BF594601E07B
:101410004FF0A041814201460AD0B8F1090F19D816
:10142000012101FA08F140F221221142014611D0B6
:10143000C96889042AD40168090727D502F080F910
:10144000A0B1E06D40F01000E065206E40F00100BA
:1014500020661BE0504500F0FB8040F20051C5F2D1
:1014600000018842014608BF5946E1E7206841680B
:1014700021F00C014160E06D20F48070E065E06DCA
:10148000C00403D4E06D40F00100E0652046FFF7A2
:101490006DFF20680C210160B00658BF5FEA46600E
:1014A00066D5E06DC00603D4E06D40F40050E06501
:1014B000206802F01BF921680746084602F048F947
:1014C0002168514508D040F20052C5F20002914215
:1014D0000A4608BF5A4601E04FF0A0428A420A4637
:1014E00009D0B8F1070F21D8012202FA08F212F050
:1014F000C10F0A461AD0D268A7B3930103D588B3A7
:1015000012F400502ED1086892022BD410F0400043
:1015100028D0084602F0E2F8A0B1E06D40F01000DB
:10152000E065206E40F0010020661BE0514500F0B0
:101530008C8040F20052C5F2000291420A4608BF78
:101540005A46D8E72068416821F060014160E06DAB
:1015500020F48050E065E06DC00503D4E06D40F0FC
:101560000100E0652046FFF7CBFB206860210160A9
:1015700030060AD4F00514D4B0051FD4F0062AD4DE
:1015800070054AD401B0BDE8F08FE06D40F48030C2
:10159000E065204600F072F9206880210160F005C6
:1015A000EAD5E06D40F40030E0652046FFF75AFCD4
:1015B00020684FF480710160B005DFD5E06D40F424
:1015C0008020E0652046FFF74FFC20684FF4007153
:1015D0000160F006D4D5E06B78B12068B8F1000F57
:1015E0002DD00099884208BFA946B0F1A04F08BF8E
:1015F000A946484602F056F850B1E06D40F48060CC
:10160000E065206E40F0020020662046FFF7B0FE45
:101610002068102101607005B4D52068E16D41F4A7
:101620008041E165216E41F0080121664FF480613F
:1016300001602046FFF784FB01B0BDE8F08FC06871
:1016400000F001000028D8D1E2E74FF0A04252E7B5
:101650004FF0A041ECE600002DE9F04182B00446D5
:1016600000200190CCB1E06D30B9204600F008F9BF
:101670000020206684F85800206802F04DF810B170
:10168000206801F0EBFF206802F056F838B12068BE
:1016900002F052F8E8B1002524E00125D5E02068E9
:1016A00001F0EEFF40F20000C2F20000006842F6D6
:1016B00063518009C0F23E51A0FB0101880902215B
:1016C00001EB4000019001980028E0D0019801381A
:1016D000F8E7E06D012540F01000E065206E40F075
:1016E00001002066206802F02BF8E16D01F0100186
:1016F0000843E06D03D040F010000125A4E020F481
:1017000081700230E065206802F00EF820BB20688E
:1017100040F20018C5F2000840F48070404540F0E7
:1017200098804FF0A04001F0FFFF0646404601F0D0
:10173000FBFF074657EA06000ED108F50072D4E910
:1017400000311046434518BF08F5C060B3F1A04F03
:1017500008BF104602F068F8607FE16B41EA403054
:10176000D4E90221084394F824101043012940EAE7
:10177000014106D1A06A0022CFF6FE7202EB404082
:101780000143E06A28B100F47870226B084340EA14
:1017900002012068626BC36844F20707CFF6F07756
:1017A0003B401943C160016921F04061114301616F
:1017B00001F094FFC8BB94F83800217F400040EA54
:1017C000813220682169C36844F20207BB431A438F
:1017D000C260026949B142F480320261D0F8C0208F
:1017E00043F6FF739A43114307E022F4803101610D
:1017F000D0F8C01043F6FF729143C0F8C01094F8BF
:1018000040200169012A0DD140F2FD7204F1440724
:1018100091438CCF266D114319433943314341F035
:10182000010101E021F00101016120686169026BA1
:10183000012922F00F0102D1226A013A114301630A
:10184000E06D012161F30100E065284602B0BDE8CA
:10185000F08108F5407001F067FF064608F58060EA
:1018600001F062FF40EA060708F5A06001F05CFFA6
:10187000064657EA06007FF46FAF5EE77047000048
:1018800010B59CB0044600201B90CDE91900CDE9AD
:10189000170002A85421FEF787FD2068B0F1A04F81
:1018A00001D01CB010BD4FF4004002904FF000502A
:1018B000139002A800F080FE002818BFFEF78AFFF0
:1018C00041F24C00C4F20200016841F40051016091
:1018D000016801F4005101910199016841F0010191
:1018E0000160006817A900F00100019001980F2025
:1018F000179003201890002019904FF0904000F0AE
:101900000BF812200121002200F0C0FD122000F08F
:10191000B9FD1CB010BD00002DE9F04F83B00D687B
:10192000002D00F0C58000F138424FEAB22241F2AA
:1019300000470192C4F600070622002600244FF05B
:10194000010AB84208BF0522009209E00D6804347C
:1019500035FA0AF20AF1010A06F1020600F0A8803F
:10196000AAF1010C012202FA0CFB15EA0B09EDD0D9
:10197000D1F8048008F00305A5F1010EBEF1010FB6
:1019800011D887680322CB68B24027EA0202B3402D
:101990001A4382604268C8F3001322EA0B0203FA7A
:1019A0000CF31A434260032D1CD0C26803238F68D6
:1019B000B3409A4307FA06F31A43022DC26011D1CD
:1019C0006FF0030202EA5C02024404F01C070F23DA
:1019D000D2F820E003FA07F50B692EEA0505BB40B3
:1019E0002B431362026803234F68B3409A4307F006
:1019F0000303B3401A4317F4403F0260A6D041F2FC
:101A00006003C4F202031A6840F2004E42F0010281
:101A10001A601A68C4F2010E02F001020292029AE0
:101A20002CF003024FF608487244CFF6FF7852F8C4
:101A3000083004F00C070F25BD4023EA050C019B7C
:101A4000009D052B38BF1D4605FA07F747EA0C0332
:101A500042F80830DEF808204B6842EA090740F2F5
:101A60000C4CDD0258BF22EA0907CEF80870C4F218
:101A7000010CDCF800209D0242EA090758BF22EA67
:101A80000907CCF80070DEF804209D0342EA09073C
:101A900058BF22EA0907CEF80470DEF80020DB0305
:101AA00042EA090758BF22EA0907CEF800704DE75D
:101AB00003B0BDE8F08F000040F24430C2F20000F5
:101AC0000068704790F8DD30022B04BF0220704799
:101AD00090F8DC304FF0020C012B00F098800123CD
:101AE0007F2980F8DC3080F8DDC000F32E800139DA
:101AF0003F2900F27A80DFE801F0203878407878DA
:101B000078487878787878787850787878787878AD
:101B10007878787878787878785878787878787865
:101B20007878787878787878787878787878787835
:101B3000787878787878787878600168D1F80034A7
:101B400062F30403C1F8003455E080293DD0B1F5BB
:101B5000807F42D0B1F5007F47D10168D1F80434CD
:101B600062F31C63C1F8043445E00168D1F8003425
:101B700062F38A13C1F800343DE00168D1F8003403
:101B800062F31033C1F8003435E00168D1F8003455
:101B900062F39643C1F800342DE00168D1F80034B7
:101BA00062F31C63C1F8003425E00168D1F8043405
:101BB00062F30403C1F804341DE00168D1F8043471
:101BC00062F38A13C1F8043415E00168D1F80434D3
:101BD00062F31033C1F804340DE00168D1F8043425
:101BE00062F39643C1F8043405E0072180F8DD1064
:101BF000002180F8DC1090F8DD104FF0010C07296F
:101C00001EBF80F8DDC04FF0000C80F8DCC06046DD
:101C100070470000B0B590F8DD30022B04BF022001
:101C2000B0BD90F8DC30012B4FF0020300F00D81C5
:101C3000012480F8DC4080F8DD3003687F29D3F888
:101C400080C3D3F8FCE300F34D804C1E3F2C00F220
:101C5000E480DFE814F040006600E2006F00E2007C
:101C6000E200E2007800E200E200E200E200E200CE
:101C7000E200E2008100E200E200E200E200E200B5
:101C8000E200E200E200E200E200E200E200E20044
:101C9000E200E2009600E200E200E200E200E20080
:101CA000E200E200E200E200E200E200E200E20024
:101CB000E200E200E200E200E200E200E200E20014
:101CC000E200E200E200E200E200E200E200E20004
:101CD000E200E200A9005488526864F3124CC3F891
:101CE000BC23A0E0802972D0B1F5807F00F0828013
:101CF000B1F5007F40F09180D2E90042D3F8F8536B
:101D0000C4F30B4464F3165E25F0F844C3F8F843BB
:101D1000D3F8F84302F01F0244EA8262C3F8F823C2
:101D200081E0D2E90042C4F30C4464F3D54CC3F81B
:101D3000C02378E0D2E90042C4F3094464F3985C1C
:101D4000C3F8C4236FE0D2E90042C4F3064464F34D
:101D50005B6CC3F8C82366E04FEADE05B2F802E028
:101D6000D3F8F84365F3DF0E24F01F04C3F8F843FB
:101D70005268D3F8F84302F01F022243C3F8F82355
:101D800051E05488D3F8F85364F3061E25F47874B0
:101D9000C3F8F8435268D3F8F84302F01F0244EA4C
:101DA0004212C3F8F8233EE05488D3F8F85364F3A2
:101DB0000A2E25F4F844C3F8F8435268D3F8F843E0
:101DC00002F01F0244EA8222C3F8F8232BE0548871
:101DD000D3F8F85364F30E3E25F4F814C3F8F8432F
:101DE0005268D3F8F84302F01F0244EA0242C3F8F3
:101DF000F82318E05488D3F8F85364F3124E25F012
:101E00007874C3F8F8435268D3F8F84302F01F021D
:101E100044EA4252C3F8F82305E0072280F8DD20A7
:101E2000002280F8DC2090F8DD20072A04BF012082
:101E3000B0BD0F298CBFC3F8FCE3C3F880C30121F8
:101E4000002380F8DD1080F8DC301846B0BD0000BB
:101E500090F8DC20012A4FF0020221D0012380F803
:101E6000DC3080F8DD2002684B1CD2F8CCC309D0EE
:101E70004CF00203C2F8CC33D2F8CC3323F00C037D
:101E8000194301E02CF00201C2F8CC13D2F8CC13B4
:101E900041F00101C2F8CC130121002280F8DD10CD
:101EA0001046704770B590F8DD30022B04BF022059
:101EB00070BD90F8DC30012B4FF002033AD080F86F
:101EC000DD30D2E900C3D2E902E60CF4E0546FF34E
:101ED0005F23156923440EF40074234405F4804500
:101EE0002B4406F40046334456690025C0F2FF1522
:101EF00005EA06469569334405F00076156A3344D1
:101F000005F08046D2693343066802F0004206EBD2
:101F1000C1111A43D1F8B83042F20006C3F60046A8
:101F200033401A43C1F8B8200121002380F8DD10A6
:101F300080F8DC30184670BD002804BF01207047CF
:101F400010B582B00446022084F8DD00207AC00774
:101F50004FF00000C4E93800C4E93A00C4E93C008D
:101F6000C4F8F8001FD0206846F60001C4F2010151
:101F700088420CD141F26001C4F202010A6842F0C9
:101F800080620A60096801F080610191019901682D
:101F9000D4E9042321F4704102F44042114403F4D3
:101FA000405211440160204600F01EF8207A80075C
:101FB00006D52068E1680268090A61F30922026017
:101FC000012084F8DD0000206FF01B0184F8DC00A4
:101FD00062181C31A829D064C2E90D00C2E90F00C3
:101FE0005064F5D102B010BD81B0006846F6000122
:101FF000C4F20101884201D001B0704741F2600093
:10200000C4F20200016841F080610160006800F0E4
:1020100080600090009801B07047000080B586B0E5
:10202000006846F60002C4F2010200219042CDE9A8
:102030000411CDE90211019101D006B080BD41F239
:102040004C00C4F20200026842F001020260006823
:1020500000F00100009000984FF4706001900220A1
:10206000CDE90201032004900D20059001A94FF055
:102070009040FFF751FC06B080BD0000F0B581B084
:102080000D460446FFF718FD2168D1F88813C903EF
:1020900015D406466F1C04E02068D0F88803C003FE
:1020A0000DD4002FF8D0FFF707FD15B1801BA84213
:1020B000F2D9072084F8DD00032001B0F0BD012033
:1020C00084F8DD00002084F8DC0001B0F0BD0000E1
:1020D00010B5044690F8DD0002284FF0020008BF5A
:1020E00010BD062984F8DD00204603D1114601F019
:1020F000C1F801E001F096F9012084F8DD0000202C
:1021000010BD000080B590F8DDC0BCF1020F04BF27
:10211000022080BD90F8DCC0BCF1010F4FF0020C32
:1021200000F094804FF0010E062980F8DCE080F882
:10213000DDC00ED1511E072923D80FF20602DFE8B9
:1021400001F0041C20272020202B19680268D1618F
:1021500025E0A2F1010CBCF1070F3BD80FF20402FD
:10216000DFE80CF00424383F3838384602681B6832
:1021700002EBC111C1F89C305BE019680268516242
:102180000DE0072180F8DD10002180F8DC1006E06A
:1021900019680268916202E019680268D16290F8D9
:1021A000DD10072904BF012080BD48E0026802EB72
:1021B000C11CD3E9001ECCF8A410614651F8802F51
:1021C000BEF1000F22F440520A6032D00A6842EA9F
:1021D0000E0220E0072180F8DD10002180F8DC10DD
:1021E00027E002681B6802EBC111C1F8A83020E0AB
:1021F000026802EBC11CD3E9001ECCF8AC106146AA
:1022000051F8802FBEF1000F22F440420A6010D036
:102210000A6842EA8E02BEF5405F0A6006D0BEF54B
:10222000005F06D19968CCF89C1002E09968CCF860
:10223000A81090F8DD10072904BF012080BD0121FE
:102240004FF0000C80F8DD1080F8DCC0604680BDE7
:1022500090F8DC20012A4FF002020BD080F8DD203C
:1022600002681368194311600121002280F8DD1013
:1022700080F8DC2010467047B0B5044690F8DD00C9
:10228000022804BF0220B0BD94F8DC0001284FF002
:10229000020008BFB0BD012584F8DC5084F8DD00E1
:1022A000204601F043F8002084F8DD5084F8DC007B
:1022B000B0BD000090F8DC20012A4FF002020DD0E2
:1022C00080F8DD200268D2F894331943C2F89413E1
:1022D0000121002280F8DD1080F8DC2010467047D4
:1022E00070B5044690F8DD00022804BF022070BDDE
:1022F00094F8DC0001284FF0020008BF70BD0E46C4
:102300000121154684F8DC10062E84F8DD002046F5
:1023100003D1294600F0C2FF03E031462A4601F00E
:1023200099F8C6EBC60004EB800095E80E1000F1AA
:10233000200E8EE80E002969C0E90BC12046314607
:1023400000F07CFF062E0DD0E86A58B9206800EB3B
:10235000C610D0F88010EA6D21F4007141EA4221E4
:10236000C0F88010012084F8DD00002084F8DC0033
:1023700070BD000070B5044690F8DD00022804BF6F
:10238000022070BD94F8DC0001284FF0020008BF65
:1023900070BD012684F8DC6084F8DD0020460D461F
:1023A00001F024F92046294600F048FF002084F877
:1023B000DD6084F8DC0070BD40F2280040F244315A
:1023C000C2F20000C2F2000100680A68104408600E
:1023D0007047000080B5032000F068F80F2000F07F
:1023E00009F800281CBF012080BD00F02FF8002054
:1023F00080BD0000B0B540F22801C2F200010968BA
:1024000001B3044640F20000C2F200004FF47A72B9
:102410000068B2FBF1F1B0FBF1F000F0FFFD0F2C12
:102420004FF001050CD858B94FF0FF30214600227B
:10243000002500F02BF840F22C00C2F200000460EE
:102440002846B0BD01252846B0BD000080B582B049
:1024500041F25800C4F20200816841F0010181603C
:10246000816801F0010101910199016841F08051F9
:102470000160006800F080500090009800F092F831
:1024800002B080BD80B502F0C7F980BD70B51446BA
:102490000D46064602F0D0F92946224601F04EFDCF
:1024A0000146304602F0D0F970BD000080B502F060
:1024B000DDF980BDB0F5007F35D0002866D147F248
:1024C0000000C4F200000168D0F8802001F4C0616F
:1024D00022F48072B1F5806FC0F8802021D10168AC
:1024E000012262F34A21016040F20001C2F20001C0
:1024F0000968322359434DF68363C4F21B33A1FBB1
:10250000031302EB934100BF43694A1E8A4203D280
:1025100013F480611146F7D14069400544BF0320A0
:1025200070470020704747F20000C4F200000168C5
:10253000D0F8802001F4C06142F48072B1F5806F60
:10254000C0F88020EDD10168012262F34A210160C8
:1025500040F20001C2F200010968322359434DF6EE
:102560008363C4F21B33A1FB031302EB934100BF4F
:1025700043694A1E8A4203D213F480611146F7D19F
:102580004069400544BF03207047CAE747F2000096
:10259000C4F200000168022262F34A2101600020B7
:1025A0007047000047F20800C4F20000016841F4DF
:1025B00080410160704700002DE9F04381B0814601
:1025C000807841F288070007C4F2020701D4002591
:1025D00065E057F8300C10F080580BD157F8300CEC
:1025E00040F0805047F8300C57F8300C00F0805025
:1025F0000090009847F20004C4F20004206840F400
:1026000080702060FFF758FA054600BF206810F47C
:10261000807607D1FFF750FA401B0328F6D3032535
:1026200016B933E000258EB3B86810F4407012D0AC
:10263000D9F8501088420BD0B868B96820F44070BF
:1026400041F48031B960B96821F48031B960B86073
:10265000C00703D111E00020C0070ED0FFF72CFA0D
:10266000064641F2893400BFB868800705D4FFF7F9
:1026700023FA801BA042F7D303253DB9B868D9F8E7
:10268000501020F4407008430025B860B8F1000FE6
:1026900005D157F8300C20F0805047F8300CD9F8AD
:1026A0000000C10716D181071DD4410724D40107BA
:1026B0002BD4C10632D4810639D4410640D4010658
:1026C00047D4C1054ED4810355D481055CD441055E
:1026D00063D472E03968D9F8042021F00301114372
:1026E00039608107E1D53968D9F8082021F00C015B
:1026F000114339604107DAD53968D9F80C2021F047
:102700003001114339600107D3D53968D9F8102059
:1027100021F0C00111433960C106CCD53968D9F820
:10272000142021F44071114339608106C5D5396800
:10273000D9F8182021F44061114339604106BED513
:102740003968D9F81C2021F4405111433960010641
:10275000B7D53968D9F8202021F4404111433960B8
:10276000C105B0D53968D9F8242021F4403111438E
:1027700039608103A9D57969D9F8282021F00301AE
:10278000114379618105A2D53968D9F82C2021F44B
:1027900040211143396041050FD53968D9F83020FF
:1027A00021F440111143B2F5801F396005D157F86B
:1027B0007C1C41F4801147F87C1C01050FD5396859
:1027C000D9F8342021F440011143B2F5800F39606B
:1027D00005D157F87C1C41F4801147F87C1CC104DA
:1027E0000FD53968D9F8382021F040711143B2F182
:1027F000807F396005D157F87C1C41F4801147F87F
:102800007C1C81040FD53968D9F83C2021F0406147
:102810001143B2F1006F396005D157F87C1C41F4C7
:10282000801147F87C1C41040FD53968D9F8402045
:1028300021F040611143B2F1006F396005D157F8C2
:102840007C1C41F4801147F87C1C01040FD53968C9
:10285000D9F8442021F040511143B2F1805F396032
:1028600005D157F87C1C41F4803147F87C1CC1032A
:102870000FD53968D9F8482021F040411143B2F111
:10288000804F396005D157F87C1C41F4803147F8FE
:102890007C1C40030FD57869D9F84C1020F4401007
:1028A0000843B1F5001F786105D157F87C0C40F45E
:1028B000801047F87C0C284601B0BDE8F08300008A
:1028C0002DE9F047002800F0CA8042F2000AC4F265
:1028D000020A0446DAF800000D4600F00F008842B4
:1028E0000DD2DAF8000020F00F002843CAF80000EB
:1028F000DAF8000000F00F00A84240F0B080207825
:1029000041F20808C007C4F202080CD14FF00009D8
:10291000206881072BD4B9F1800F41D1D8F800008D
:1029200020F0F0003AE06068022800F08C80032874
:1029300040F0918058F8080C800140F1908001F03F
:102940004DFB4BF20041C0F2C44188420CD9D8F88B
:10295000000010F0F00F00F08E802078800703D583
:10296000A068002800F087804FF000098CE0410744
:1029700005D5D8F8001041F4E061C8F80010000750
:1029800006D5D8F80000072161F30D20C8F8000033
:10299000D8F80000A16820F0F0000843C8F8000053
:1029A000DAF8000000F00F00A84219D9DAF80000A8
:1029B00020F00F002843CAF80000FFF77DF8064614
:1029C00041F28837DAF8000000F00F00A84207D083
:1029D000FFF772F8801BB842F4D90320BDE8F087F6
:1029E0002068410707D5D8F80010E26821F4E061BB
:1029F0001143C8F80010000708D5D8F80000216975
:102A000020F4605040EAC100C8F8000000F08AF8E5
:102A1000D8F8001044F6CC02C1F30311C0F600024E
:102A2000515C40F2000201F01F0120FA01F140F276
:102A30002C00C2F200000068C2F200021160FFF731
:102A4000D9FCBDE8F08758F8080C80035CBF012072
:102A5000BDE8F08706E058F8080C400502D40120D4
:102A6000BDE8F08700F05EF84BF20041C0F2C441CF
:102A700088427FF679AFD8F80000082161F307108B
:102A80004FF08009C8F80000D8F80000616820F015
:102A900003000843C8F80000FFF70EF8064641F2AD
:102AA000883700BFD8F80000616800F00C00B0EB78
:102AB000810F3FF42DAFFEF7FFFF801BB842F1D925
:102AC0000320BDE8F087000040F20000C2F20000E1
:102AD0000068704780B5FFF7F7FF41F20801C4F2C4
:102AE0000201096844F6DC02C1F30221C0F60002CB
:102AF000515C01F01F01C84080BD000080B5FFF7A8
:102B0000E3FF41F20801C4F20201096844F6DC0265
:102B1000C1F3C221C0F60002515C01F01F01C840A0
:102B200080BD000041F20C01C4F2020151F8040C16
:102B300042F20042C0F2F40200F00C0004281046F9
:102B400008BF704751F8040C00F00C00082843F24D
:102B50000060C0F26E1021D051F8043C03F00C0369
:102B60000C2B1CBF00207047D1F800C00B680CF084
:102B7000030CC3F303130133BCF1030F08BF024678
:102B80000868B2FBF3F20968C0F306205043C1F3B2
:102B90004161022202EB4101B0FBF1F070470000FD
:102BA0002DE9F04182B0002800F001810446007850
:102BB00041F20006C007C4F2020654D12078800713
:102BC00072D42078000700F195802078400700F14A
:102BD000B3802078800600F10081E569002D00F0C7
:102BE0001882B06800F00C000C2840F05981012DCB
:102BF00000F0DD80F068216A00F003028A4240F0B4
:102C0000D680626A6FF00F0300F0F00103EB02124E
:102C1000914240F0CC80A16A00F4FE42B2EB012F59
:102C200040F0C580E16A00F07842B2EBC16F40F03D
:102C3000BE80226B0023CFF6E07303EB025200F458
:102C4000C0016FF31402914240F0B180616B4FF00C
:102C50007E4202EB016100F0C06001F07E418842DB
:102C600040F0A580D5E1B06800F00C01F0680829BB
:102C700059D0032281F00C0122EA00000844B0FA86
:102C800080F040094FD16568B5F5A02F00F0D380E2
:102C9000B5F5803F00F0D380306820F4803030609C
:102CA000306820F48020CDE0B068F16800F00C00BE
:102CB000042866D001F0030180F00C0081F00201CD
:102CC0000844B0FA80F040095BD1E168306800291F
:102CD00000F0D38040F480703060FEF7EDFE0546D2
:102CE0003068400500F1FE80FEF7E6FE401B02283A
:102CF000F6D930E16169D6F89400002900F08980A6
:102D000040F00100C6F89400FEF7D6FE054600BF6D
:102D1000D6F8940080073FF558AFFEF7CDFE401B74
:102D20000228F5D917E1306880037FF547AF606866
:102D300000287FF443AF3AE0B06D10F0805808D11E
:102D4000B06D40F08050B065B06D00F080500190E3
:102D5000019847F20007C4F200073868C0052AD47A
:102D6000386840F480703860FEF7A6FE054600BF64
:102D70003868C0051FD4FEF79FFE401B0228F7D914
:102D8000E9E03068400501D5E06880B170682169EC
:102D900020F0FE4040EA0160706040F22C00C2F278
:102DA00000000068FFF726FB00283FF40AAF01206F
:102DB00002B0BDE8F081A568052D00F0B080012DBE
:102DC00000F0B380D6F8900020F00100C6F8900023
:102DD000D6F8900020F00400ABE0A169D6F8980086
:102DE000002900F0878040F00100C6F89800FEF747
:102DF00063FE0546D6F8980080073FF5EEAEFEF775
:102E00005BFE401B02284FF00300F3D902B0BDE87F
:102E1000F08120F00100C6F89400FEF74DFE054653
:102E2000D6F8940080077FF5D0AEFEF745FE401B34
:102E30000228F5D98FE0306840F480203060306897
:102E400040F480303060FEF737FE002D054610D08C
:102E5000306880033FF5B2AEFEF72EFE401B6428BB
:102E6000F6D978E0FEF728FE401B64284FF00300F7
:102E7000CCD830688003F5D4A0E620F480703060B0
:102E8000FEF71AFE054600BF306840057FF599AE93
:102E9000FEF712FE401B02284FF00300F4D9B5E7FD
:102EA000306820F080703060FEF706FE022D054687
:102EB0000CD100BF3068800167D5FEF7FDFD401BD7
:102EC00002284FF00300F5D9A0E700BF3068800169
:102ED00040F19880FEF7F0FD401B02284FF0030000
:102EE000F4D993E77068216920F0FE4040EA016060
:102EF000706066E620F00100C6F89800FEF7DCFD81
:102F0000054600BFD6F8980080077FF566AEFEF74D
:102F1000D3FD401B02284FF00300F3D976E7D6F823
:102F2000900040F00400C6F89000D6F8900040F001
:102F30000100C6F89000FEF7BFFD002D054641F2E6
:102F4000883715D0D6F89000800715D4FEF7B4FD69
:102F5000401BB842F6D9032002B0BDE8F08100BFA3
:102F6000FEF7AAFD401BB8424FF003003FF64EAFFC
:102F7000D6F890008007F3D4B8F1000F7FF429AEA3
:102F8000B06D20F08050B06523E6F06848F20C0187
:102F9000C0F29F1104F1200700EA010C8ECF6FF000
:102FA0000F00D4E90C5400EB02100022CFF6E072BF
:102FB00041EA0C0102EB055208436FF314024FF093
:102FC0007E4540EA032005EB0465104305F07E458D
:102FD00040EAC7602843F060306840F0807030609D
:102FE000F06840F08070F060FEF766FD04463068DF
:102FF00080010ED4FEF760FD001B02284FF0030095
:10300000F5D903E7F0684FF6FC71CFF6EE610840A2
:10301000F060002002B0BDE8F081000080B501F052
:10302000A3F880BD90F88410012904BF02207047E6
:103030002421C0F8881002681168136823F0010386
:10304000136021F000530021416613602022C0F874
:10305000882080F88410084670470000B0B5044608
:1030600090F88400012804BF0220B0BD012084F83C
:1030700084002420C4F8880020680568026822F0D3
:1030800001020260826822F0606211438160204682
:1030900001F0C4F8206805602020C4F888000020F2
:1030A00084F88400B0BD0000B0B5044690F88400F8
:1030B000012804BF0220B0BD012084F88400242030
:1030C000C4F8880020680568026822F001020260E6
:1030D000826822F0604211438160204601F09EF830
:1030E000206805602020C4F88800002084F884004F
:1030F000B0BD000010B5D8B10446D0F8880028B99A
:10310000002084F88400204600F026F82420C4F82B
:1031100088002068A16A026822F00102026011B1F1
:10312000204601F0A5F8204601F0A4F9012801D1BC
:10313000012010BD2068416821F490414160816800
:1031400021F02A018160016841F0010101602046FF
:1031500001F002F910BD0000B0B59CB00446002596
:1031600002A854211B95CDE91955CDE91755FDF756
:103170001BF9206843F60001C4F2010188422BD0FC
:1031800044F60041C4F20001884255D10820029063
:103190000020069002A8FFF70FFA002818BFFDF7DD
:1031A00019FB41F24C00C4F20200C16841F4002155
:1031B000C160C16801F4002101910199016841F0E9
:1031C00004010160006800F00400019001984FF4D0
:1031D00040601790052022E00120CDE9020502A8F9
:1031E000FFF7EAF9002818BFFDF7F4FA41F24C00A6
:1031F000C4F20200416941F480414161416901F436
:10320000804101910199016841F004010160006869
:1032100000F004000190019830201790072002214F
:10322000189100211B9040F60000CDE91911C4F659
:10323000000017A9FEF770FB1CB0B0BD062988BFBF
:103240007047006804A252F82110D0F8842311437B
:10325000C0F88413704700BF0200000004000000A3
:1032600008000000100000002000000040000000E6
:103270000100000080B500680268D1E900ECD1E9E6
:10328000023122F01F0223F018031A431143016098
:10329000C0F814E0C0F818C080BD000070B5D0F8C8
:1032A00000E0DEF80020DEF8A0C34B6922F0E00267
:1032B00023F0C000202B40EA020306D08A69042ACA
:1032C0002BD0032A2CD0022A2DD143F020034FF219
:1032D000FF30C3F2FF1001F11C0603EA000278CEB2
:1032E00000F500601840104324F06E42104325F0B2
:1032F0006842104326F06042CB6A104340EA8300E4
:103300004A6B20F00050096B10432CF480321143BB
:10331000CEF80000CEF8A01370BD43F08003D6E7CE
:1033200043F04003D3E723F0E003D0E72DE9F04179
:1033300000687F2A00EBC114A04658F8E4EF4FF074
:10334000000158F82CCC00F32E80013A3F2A00F2FD
:103350004280DFE802F020394020404040394040C0
:10336000404040404020404040404040404040407D
:103370004040404040394040404040404040404054
:10338000404040404040404040404040404040403D
:10339000404040404020D3E90112C4F8BC10C4F8BA
:1033A000C020002117E0B2F5007F07DB0CD0B2F59A
:1033B000006F09D0B2F5806FEDD00CE0802A03D009
:1033C000B2F5807FE7D006E0D3E90112C4F8C4105B
:1033D0001021C4F8C820FE221D6803F10C078A40A2
:1033E000D1CF2EEA02028D402A438840104304FACE
:1033F00001F2104306FA01F2104307FA01F21CF041
:10340000022F42EA000208BF082C03D0C8F80020AF
:10341000BDE8F081D86988400243C8F80020BDE8C3
:10342000F081000080B5006800EBC110D0F880107A
:10343000D2E900ECD2E9023221F01F0123F0180397
:1034400019431143C0F88010C0F894E0C0F898C048
:1034500080BD00002DE9F04F8CB0046804EBC11072
:10346000034653F8807F864627F070471F601F6829
:103470005EF8E86F84460A965CF8E48F0B94D4F803
:10348000A043566927F02007202E47EA0607099433
:1034900009D09669042E00F09280032E00F09380EC
:1034A000022E40F0948027F4D0772037546A956D2F
:1034B0000194946A06950294D46AD2E9079A039417
:1034C000546B0494D2E90EB40894146C0794D2E9B6
:1034D000114646F48055B5F5F05F156D059528F455
:1034E000807544EA050802D1BBF1400F03D128F4EE
:1034F000F05444EA0608D56C546D052900940BD8A5
:1035000034A656F82160126B099C0131264002FA5C
:1035100001F141EA060400E0099C4FF2FF31C0F2DC
:10352000FF1107EA010201F5006101EA09011143F7
:103530001FFA8AF211434FF6BF72019EC0F2006279
:1035400016403143029E02F1006232401143039A59
:1035500011434FF6BF72CFF600621140049AB2F1E8
:10356000005F4FF6FF72CFF6026208BF01F500312F
:103570000BEA02063143069E02F5802232401143D7
:10358000059A114319604FF6C0710A9AC7F6FF7188
:103590001140089A02F03F021144079A1143CEF8F5
:1035A000001028F480412943CCF800100099C0F89D
:1035B000D4100B98C0F8A0430CB0BDE8F08F0226E1
:1035C00066F3C81772E7012666F3C8176EE727F49B
:1035D000D0776BE7FFFFFDFFFFFFFBFFFFFFF7FF6C
:1035E000FFFFEFFFFFFFDFFFFFFFBFFFB0B500688A
:1035F0004FF6EF7300EBC11050F8EC1FCFF6EC73F1
:1036000001EA030CD2E9001E0133D2E9024503EAC4
:10361000011141EA0C012EF44033194325F4003323
:1036200095691943012D41EA040109D1D2E9043217
:1036300021F0060123F002031943114341F0010177
:103640000160B0BDFEE7000081684FF6C072C7F6AA
:10365000FF721140023181607047000081684FF6AF
:10366000C072C5F6FF7211408160704781684FF6E5
:10367000C072C7F6FF7211400131816070470000CF
:1036800081684FF6C072C6F6FF72114001F1805199
:1036900081607047806800F0E0707047806800F0DB
:1036A000E0707047806800F460407047806800F008
:1036B0001F007047806800F01F00704700EB81001A
:1036C000006E00F0F840704700EB8100006E00F0E3
:1036D000F8407047C06800F0007070478068C0F321
:1036E000C00070478068C0F3C0007047C06C00F431
:1036F000C070B0FA80F040097047000081684FF652
:10370000C072C7F6FF721140083181607047000037
:103710008068C00F704700008068C0F34070704739
:103720008068C0F340007047806800F00100704777
:10373000806800F0010070478068C0F30070704737
:103740008068C0F3800070478068C0F380007047D5
:10375000C06800F44060B0FA80F040097047000093
:10376000C1F3012300EB8300D0F830C001F01F014A
:103770001F238B40C2F384622CEA030302FA01F197
:103780001943016370470000C1F3406300EB8300FD
:10379000D0F814C0C1F3045107238B402CEA030373
:1037A00002FA01F11943416170470000C1F340631F
:1037B00000EB8300D0F814C0C1F3045107238B4001
:1037C0002CEA030302FA01F119434161704700003A
:1037D00080B54FF6FF7ECB43D0F8B0C0C0F2070EE5
:1037E00002F0180263EA0E032EFA02F203EA0C0357
:1037F00011401943C0F8B01080BD000080B54FF6ED
:10380000FF7ECB43D0F8B0C0C0F2070E02F0180222
:1038100063EA0E032EFA02F203EA0C031140194385
:10382000C0F8B01080BD0000826822F47C12114301
:1038300081607047826822F0E072114381607047B6
:10384000826822F0E07211438160704700EB8100D2
:10385000D0F860C04FF20001C0F2FF3102F0F84230
:1038600001EA0C011A43114341F00041016670471F
:1038700000EB8100D0F860C04FF20001C0F2FF31D0
:1038800002F0F84201EA0C011A43114341F00041F1
:103890000166704700EB8100016E21F00071114359
:1038A0000166704700EB8100016E21F00071114349
:1038B0000166704700EB8100016E21F080711143B9
:1038C0000166704700EB8100016E21F080711143A9
:1038D0000166704700EB8100016E21F00041016636
:1038E0007047000000EB8100016E21F0004101668D
:1038F00070470000426922F0004211434161704765
:10390000426922F0004211434161704782684FF6DC
:10391000C073C3F6FF731A4001F08041114401F1F6
:103920000041816070470000F0B59BB0002401A801
:103930003C211A94CDE91844CDE91644CDE914444C
:10394000CDE91244CDE91044FCF72EFD40F2B00061
:10395000C2F200004FF0A041012304274FF440328F
:1039600080E81600C0E90344C0E905378483036298
:1039700080F82440C0E90B4480F83840C46380F8E4
:103980004040FDF769FE002818BFFCF723FF40F216
:10399000B000C2F2000018A91894FDF767FA0028D9
:1039A00018BFFCF717FF06200225119040F2B00067
:1039B000C0F2304500247F270426C2F2000010A97F
:1039C000109512941397CDE91464FDF701FB0028BC
:1039D00018BFFCF7FFFE092002900220CDE9030783
:1039E000CC200B9080200C9040F2B000C2F200007E
:1039F00001A90195CDE905640996ADF828408DF837
:103A00002A408DF83440FCF72FFF002818BFFCF740
:103A1000E1FE0420C0F66000019040F20F10029019
:103A200040F2B000C2F2000001A9FCF71DFF00281F
:103A300018BFFCF7CFFE0820C0F69040019040F27E
:103A40001520029040F2B000C2F2000001A9FCF77C
:103A50000BFF002818BFFCF7BDFE1020C1F2C0000C
:103A6000019040F21B30029040F2B000C2F2000020
:103A700001A9FCF7F9FE002818BFFCF7ABFE1BB04C
:103A8000F0BD000083B041F24C00C4F202000168B6
:103A900041F020010160016801F0200102910299CA
:103AA000016841F001010160016801F0010101912B
:103AB0000199016841F004010160006800F0040010
:103AC0000090009803B0704710B5BAB000241CA84D
:103AD0006021CDE93844CDE93644CDE93444FCF7E2
:103AE00063FC09A82421CDE91A44CDE91844CDE9A5
:103AF0001644CDE91444CDE91244FCF755FC40F2DC
:103B00001C1046F60001C2F20000C4F20101CDE92A
:103B10000744CDE90544CDE90344CDE90144C0E9BA
:103B200000148460FEF708FA002818BFFCF752FE64
:103B300040F21C10C2F200000C21FEF789F90028A7
:103B400018BFFCF747FE40F21C10C2F200000A2129
:103B5000FEF794FA002818BFFCF73CFE00203890CE
:103B60000120399040F21C10C2F2000038AA022154
:103B7000FEF750F8002818BFFCF72CFE40F21C108E
:103B8000C2F20000022100220024FDF79BFF002862
:103B900018BFFCF71FFE46F64020CDE9340408208C
:103BA000379040F21C10C2F2000034AA062136946D
:103BB000FEF78EFA002818BFFCF70CFE002001214A
:103BC000CDE920104FF00061CDE91E00CDE91C00C9
:103BD000CDE92200CDE92400CDE9261028904FF050
:103BE0000051339040F21C102991C2F200001CAA2F
:103BF0000621FEF775FB002818BFFCF7EBFD4FF41C
:103C00002A70199040F21C10C2F2000019AB062174
:103C10000122FEF777FA002818BFFCF7DBFD40F21F
:103C20001C10C2F2000034AA00210024FEF750FA52
:103C3000002818BFFCF7CEFD40F21C10C2F20000B5
:103C400012AA00211294CDE914441894FEF792FBB5
:103C5000002818BFFCF7BEFD00204FF48071CDE9AD
:103C60002D101021CDE91C00CDE92A002C903090B8
:103C7000CDE9311040F21C10C2F200001CAA002154
:103C8000FEF72EFB002818BFFCF7A4FD40F21C1025
:103C9000C2F200001CAA0121FEF722FB002818BF77
:103CA000FCF798FD43F22050199040F21C10C2F22C
:103CB000000019AB00210122FEF724FA002818BFEA
:103CC000FCF788FD46F64020199040F21C10C2F225
:103CD000000019AB002104220024FEF713FA00288B
:103CE00018BFFCF777FD4FF4406009900320CDE941
:103CF0000A04CDE90E0440F21C10C2F2000009AA29
:103D00000021CDE90C44CDE91044FEF7CBF80028A2
:103D100018BFFCF75FFD40F21C10C2F2000009AAB8
:103D20000121FEF7BFF8002818BFFCF753FD202142
:103D30000020029108210190CDE90310CDE9050092
:103D4000CDE9070040F21C10C2F2000001AB0021D7
:103D50000122FEF791FA002818BFFCF73BFD40F264
:103D60001C10C2F2000001AB01210422FEF784FA0C
:103D7000002818BFFCF72EFD0020CDE9020040F21C
:103D80001C10C2F2000001AB00210222FEF774FAFF
:103D9000002818BFFCF71EFD40F21C10C2F2000004
:103DA00001AB01210822FEF767FA002818BFFCF7D3
:103DB00011FD40F21C10C2F2000034AA0121FEF7EE
:103DC00087F9002818BFFCF705FD40F21C10C2F26D
:103DD000000012AA0121FEF7CDFA002818BFFCF757
:103DE000F9FC43F22050199040F21C10C2F200007E
:103DF00019AB01210122FEF785F9002818BFFCF755
:103E0000E9FC46F64020199040F21C10C2F2000076
:103E100019AB01210422FEF775F9002818BFFCF741
:103E2000D9FC40F21C10C2F20000FEF7F7F83AB0DD
:103E300010BD000080B540F2AC2044F60041C2F253
:103E40000000C4F2000100234FF00C0C4FF4E132EB
:103E500080E80E00C0E90333C0E905C3C0E90733B9
:103E6000C0E90933FFF746F9002818BFFCF7B2FC98
:103E700040F2AC20C2F200000021FFF715F9002843
:103E800018BFFCF7A7FC40F2AC20C2F200000021F2
:103E9000FFF7E4F8002818BFFCF79CFC40F2AC20C8
:103EA000C2F20000FFF7BEF8002818BFFCF792FC32
:103EB00080BD000080B540F2182043F60001C2F238
:103EC0000000C4F2010100234FF00C0C4FF4E1326A
:103ED00080E80E00C0E90333C0E905C3C0E9073339
:103EE000C0E90933FFF706F9002818BFFCF772FC98
:103EF00040F21820C2F200000021FFF7D5F8002898
:103F000018BFFCF767FC40F21820C2F20000002145
:103F1000FFF7A4F8002818BFFCF75CFC40F218205B
:103F2000C2F20000FFF77EF8002818BFFCF752FC31
:103F300080BD0000FEE70000FEE7000000F0070083
:103F400080F00703042B28BF04234FF0FF3C033805
:103F50000CFA03F338BF0020994381400CFA00F0BB
:103F600022EA00000843704710B540F21C14C2F268
:103F7000000420460F21FEF79DF920464FF4E02172
:103F8000FEF766F910BD000040F20C0040F2160189
:103F9000C2F20000C2F2000180ED000A40F21000FF
:103FA0000988C2F20000C0ED000A01EE101A40F2CA
:103FB0001C10B8EE411AC2F2000021EE202A00685F
:103FC00021EE000ABCEEC22ABCEEC00A80ED272A10
:103FD00080ED470A704700007047000041F20C0076
:103FE000C4F202000168026842F2004301F00301DA
:103FF000C2F30312C0F2F4030132032904BF43F2F7
:104000000063C0F26E130168B3FBF2F20068C1F303
:1040100006215143C0F34160022202EB4000B1FB94
:10402000F0F0704770B52DED028B40F2B004C2F293
:10403000000420460921FCF769FE40F2A005C2F207
:10404000000500EE100A95ED001AB8EE400A40F2A5
:10405000A40021EE000AC2F2000080ED000A204612
:1040600040F20F11FCF752FE00EE100A95ED001A17
:10407000B8EE400A40F2A80021EE000AC2F20000A9
:1040800080ED000A204640F21521FCF73FFE40F289
:104090009005C2F2000500EE100A95ED001A40F2FC
:1040A0009406B8EE400A9FED178AC2F2000621EE90
:1040B000000A96ED001A30EE080A40F2980021EE50
:1040C000000AC2F2000080ED000A204640F21B31D7
:1040D000FCF71CFE00EE100A95ED001AB8EE400A3F
:1040E00021EE000A96ED001A30EE080A40F29C001C
:1040F00021EE000AC2F2000080ED000ABDEC028B46
:1041000070BD00BF3333D3BF10B540F2A00040F6FE
:104110004101C2F20000C3F60441016040F2900088
:1041200044F26701C2F20000C3F65321016040F27D
:1041300094004FF6FF7140F2B004C2F20000C4F2E6
:104140009F01C2F20004016020467F21FCF748FB7A
:104150002068416841F0200141602046FCF7F2FDF3
:1041600010BD000070470000B0B501380024B4EB6A
:10417000106F1CBF0120B0BD4EF21005CEF200053D
:1041800068604FF0FF300F2100F05EFB0720AC604D
:1041900028602046B0BD000080B5FEF70DF980BD57
:1041A00070B594B006AC20463821FCF7FDF8002528
:1041B00000200595CDE90355CDE90155FEF77AF9C3
:1041C000012006904FF480300621079002200F91C5
:1041D00055210D900326CDE91010CDE9120020469F
:1041E0000E96FEF7DDFC68B90F20CDE9010601A8A7
:1041F0000421CDE903550595FEF762FB002804BFB5
:1042000014B070BDFCF7E6FA4EF68850CEF200000E
:10421000016841F4700101607047000080B5416E93
:1042200001B3016844F6FC0C8A688968C0F6000C8A
:10423000490F44F6041E1CF80130C0F6000E1EF8AB
:104240000110C2F34262DB00B3FBF1F31CF8021071
:104250001EF80220C900B1FBF2F1A0F86A30A0F804
:10426000681080BD0121A0F86A10A0F8681080BD18
:1042700080B5816A0A070CD4CA0715D18A071ED4F3
:104280004A0727D4CA0630D48A0639D44A0657D5F5
:1042900041E00268D0F838C0536823F4004343EA91
:1042A0000C035360CA07E9D00268D0F82CC05368E9
:1042B00023F4003343EA0C0353608A07E0D5026815
:1042C000D0F830C0536823F4803343EA0C035360C2
:1042D0004A07D7D50268D0F834C0536823F4802346
:1042E00043EA0C035360CA06CED50268D0F83CC03E
:1042F000936823F4805343EA0C0393608A06C5D580
:104300000268D0F840C0936823F4005343EA0C03DA
:1043100093604A0614D50268D0F844C05368BCF5CF
:10432000801F23F4801343EA0C03536008D1D2F8B2
:1043300004C0D0F848E02CF4C00343EA0E035360F5
:10434000090658BF80BD0168C06C4A6822F400228B
:104350001043486080BD0000B0B582B00446002024
:10436000C4F89000FDF7A8FB216805460968090715
:104370001BD56FF07E4C20464FF4001100222B46D7
:10438000CDF800C000F0E4F978B100BF206850E833
:10439000000F216820F0800041E80002002AF5D1DA
:1043A0002020C4F88800032031E02068006840071E
:1043B00025D56FF07E4C20464FF4800100222B461D
:1043C000CDF800C000F0C4F9C8B100BF206850E8C3
:1043D000000F216820F4907041E80002002AF5D116
:1043E000206850E8020F216820F0010041E8020235
:1043F000002AF5D12020C4F88C00032007E02020FB
:10440000C4F88800C4F88C000020E0662067002112
:1044100084F8841002B0B0BD016851E8001F026842
:1044200021F4907142E80013002BF5D14FF6FE7C89
:10443000CEF6FF7C026852E8022F036802EA0C0203
:1044400043E802210029F5D1C16E01290AD100BF3C
:10445000016851E8001F026821F0100142E80013D2
:10446000002BF5D12021C0F88C100021C1664167D6
:1044700070470000F0B581B004462269D4E9021308
:10448000006867690A43E1693A43076846F6F3162C
:10449000CCF6FF760A4337403A43026042684FF257
:1044A000FF4622F440521A43426048F20002A369D8
:1044B000C4F2000290421CBF276A3B438768C1F2E6
:1044C000FF1637403B438360C36A676A23F00F03DC
:1044D0003B43C36244F6FF73C4F2000398424FF0BB
:1044E000100318DC44F20047C4F20007B84227D09A
:1044F00044F60007C4F20007B84228D044F600474B
:10450000C4F20007B8423BD141F28803C4F202036F
:104510001B689B092FE045F20007C4F20007B84270
:104520001CD0904221D043F60007C4F20107B842E4
:1045300026D141F28803C4F202031B6880A71BE066
:1045400041F28803C4F202031B689B0813E041F2A6
:104550008803C4F202031B681B090CE041F28803C4
:10456000C4F202031B681B0A05E041F28803C4F28F
:1045700002031B689B0A6EA703F0030357F823305E
:10458000904242F20040C0F2F40011D0B1F5004F69
:104590001DD1082B00F26F800025DFE803F00568CD
:1045A000766C6F6C6C6C73000025FEF793FA6CE010
:1045B000082B1BD80027DFE803F0051920191D1967
:1045C000191951000027FEF785FAB8B94BE0082BFE
:1045D00000F281800025DFE803F0057A887E817E85
:1045E0007E7E85000025FEF775FA7EE0002001271B
:1045F00020B938E00027FEF795FAA0B3616A44F6C7
:10460000E402C0F6000232F811206668B0FBF2F155
:1046100006EB460399424FF00105C0F0808033035A
:1046200099427CD800210023FBF746FE090241EAAB
:104630001061000210EB560041F1000132460023E8
:10464000FBF73AFE4FF6FF42A0F54071C0F20F02B1
:1046500091420AD821683D46C86060E04FF40040AE
:1046600000270028CAD13D4659E0012557E0002522
:10467000FEF744FA09E00020012506E00025FEF7D8
:1046800051FA02E04FF400400025002847D0616A4B
:1046900044F6E402C0F6000232F811106268B0FB82
:1046A000F1F0510801EB4000B0FBF2F04FF6EF7271
:1046B000A0F11001914208D84FF6F0710140C0F30B
:1046C000420022680844D06029E0012527E0002547
:1046D000FEF714FA09E00020012506E00025FEF7A8
:1046E00021FA02E04FF400400025C0B1616A44F6AF
:1046F000E402C0F6000232F811106268B0FBF1F07B
:1047000000EB5200B0FBF2F04FF6EF72A0F1100197
:10471000914203D8216880B2C86000E001254FF0C3
:1047200001100021A06661672846A16701B0F0BDB5
:10473000000000000400000002000000080000006B
:10474000010000000400000002000000080000005A
:104750002DE9F04381B004460068C0690840401A62
:10476000B0FA80F0400990423DD1DDF82080154636
:104770000E46994608F1010709E000BF2068C069AC
:104780003040801BB0FA80F04009A8422FD1002FA2
:10479000F4D0FDF791F90146B8F1000F4FF0030096
:1047A00026D0A1EB0901414522D8206801684907BC
:1047B000E4D5402EE2D0802EE0D0C16909071AD49A
:1047C000C1690905DAD54FF4006101622046FFF79F
:1047D00023FE2020C4F89000002084F884000320E9
:1047E00001B0BDE8F083002001B0BDE8F0830020F7
:1047F00001B0BDE8F083082505622046FFF70CFEF6
:104800000020C4F8905084F88400012001B0BDE875
:10481000F0830000FEE70000002848BF704700F06A
:104820001F01012202FA01F14EF200124009CEF2FC
:10483000000242F8201070474EF60C50CEF20000F5
:104840000068C0F3022070474EF6145300F00F02C8
:10485000CEF2000309011A4400F16043B0F1FF3FBA
:10486000C8BF03F564421170704700004EF60C514A
:10487000CEF200010A684FF6FF031A4060F30A22E5
:1048800042F0806040F0FD7008607047FDF7A2FDC7
:10489000FFF786FCFFF7F6F8FFF716F9FFF70AFBBC
:1048A000FFF742F8FFF7C6FAFBF7A6FEFBF7C4FED8
:1048B000FCE7F1EE100A4FF6FF71C0F2C03120EABA
:1048C000010040F04070E1EE100A70470000000067
:1048D00000000000010203040607080900000000B0
:1048E00001020304010002000400060008000A009F
:1048F0000C001000200040008000000101010103B5
:104900000701000008040204080101013049000801
:104910000000002030000000140200086049000878
:1049200030000020180900003002000800000000DC
:104930000024F4000000003F0000003F0000003FA2
:104940000000003F0100406A6666263F0050434871
:10495000ACC5A7360000C0400100000010000000F8
:04000005080001D915
:00000001FF
