:020000040800F2
:10000000388900202D02000887270008AB2200084D
:100010008527000827060008752F0008000000004B
:10002000000000000000000000000000412E000859
:100030005F0600080000000089270008452E000820
:10004000470200084702000847020008470200086C
:10005000470200084702000847020008470200085C
:10006000470200084702000847020008470200084C
:100070004702000829060008470200084702000856
:10008000470200084702000847020008470200082C
:10009000470200084702000847020008470200081C
:1000A000470200084702000847020008470200080C
:1000B000470200080000000000000000470200089E
:1000C00047020008470200084702000835290008D7
:1000D00047020008470200084702000847020008DC
:1000E000470200084702000800000000000000006E
:1000F0000000000000000000000000000000000000
:10010000000000004702000800000000470200084D
:100110000000000000000000F92E0008470200085F
:10012000470200084702000847020008470200088B
:10013000470200080000000000000000000000006E
:1001400047020008470200084702000800000000BC
:10015000470200084702000847020008470200085B
:10016000470200084702000847020008000000009C
:1001700047020008470200080000000000000000DD
:1001800047020008470200084702000800F002F892
:1001900000F03CF80AA090E8000C82448344AAF1E5
:1001A0000107DA4501D100F031F8AFF2090EBAE8E3
:1001B0000F0013F0010F18BFFB1A43F0010318479B
:1001C000B8BD0200F8BD0200103A24BF78C878C15B
:1001D000FAD8520724BF30C830C144BF04680C604D
:1001E000704700000023002400250026103A28BF95
:1001F00078C1FBD8520728BF30C148BF0B60704799
:100200001FB527F0A1FB1FBD10B510BD00F0D1F93F
:100210001146FFF7F5FF22F0D5FC00F0EFF903B42B
:10022000FFF7F2FF03BC00F0F7F900000948804730
:1002300009480047FEE7FEE7FEE7FEE7FEE7FEE7C8
:10024000FEE7FEE7FEE7FEE704480549054A064BE0
:1002500070470000E92E00088D01000848070010D3
:1002600038890020480900103879002053EA020C30
:1002700000F069802DE9F04B4FF00006002B1FBF06
:10028000B3FA83F503FA05F424FA05F65E4012BFCB
:100290001643B2FA82F502FA05F4C5F120051EBF35
:1002A00022FA05FC44EA0C04203556EA044C4FEAD5
:1002B000144418BF641C4FF000084FF0000990422E
:1002C00071EB030C39D3002919BFB1FA81F701FA98
:1002D00007F6B0FA80F700FA07F6C7F120071EBF4D
:1002E00020FA07FC46EA0C062037B6FBF4FCA7EB25
:1002F0000507103F07F01F0BCBF120062CFA06F67E
:100300000CFA0BFB44BFB3460026202FA4BF5E4669
:100310004FF0000B5BEA060C08BF4FF0010B19EB26
:100320000B0948EB0608ABFB027C06FB02CC0BFB7F
:1003300003CCC01B71EB0C01C1E70B4602464146E2
:100340004846BDE8F08B13B5084318BF4FF0FF30A7
:100350000146AFF30080BDE81C40704740EA01034E
:10036000024630B59B0710D14FF0013400E008C2BF
:1003700008C91D1B9D4315EAC41FF8D013F0FF01E7
:1003800002F8011B0DD01B0AF8E711F8013B002B06
:1003900002F8013B05D011F8013B002B02F8013BAC
:1003A000F3D130BD10B5431C02E010F8011B71B150
:1003B0008107FAD14FF0013202C88C1A8C4314EA3B
:1003C000C211F9D0C01A0A0603D0C01E10BDC01A4F
:1003D00010BD0A0401D0801E10BD0902FCD0401ED1
:1003E00010BD032A40F2308010F0030C00F015809D
:1003F00011F8013BBCF1020F624498BF11F801CB28
:1004000000F8013B38BF11F8013BA2F1040298BF8C
:1004100000F801CB38BF00F8013B11F0030300F0F6
:100420002580083AC0F0088051F8043B083A51F89A
:1004300004CBA0E80810F5E7121D5CBF51F8043B9F
:1004400040F8043BAFF30080D20724BF11F8013B12
:1004500011F801CB48BF11F8012B24BF00F8013B74
:1004600000F801CB48BF00F8012B704710B5203AC7
:10047000C0F00B80B1E81850A0E81850B1E818504F
:10048000A0E81850203ABFF4F5AF5FEA027C24BF21
:10049000B1E81850A0E8185044BF18C918C0BDE80A
:1004A00010405FEA827C24BF51F8043B40F8043BD3
:1004B00008BF7047D20728BF31F8023B48BF11F888
:1004C000012B28BF20F8023B48BF00F8012B7047E2
:1004D00002F0FF0343EA032242EA024200F002B8BC
:1004E0004FF0000200B5134694469646203922BFCD
:1004F000A0E80C50A0E80C50B1F12001BFF4F7AF18
:10050000090728BFA0E80C5048BF0CC05DF804EBF9
:10051000890028BF40F8042B08BF704748BF20F867
:10052000022B11F0804F18BF00F8012B704700001C
:1005300030B44FF0013C50F8042B51F8043BCCFA96
:1005400052F4D51A20D1FCB950F8042B51F8043BD1
:10055000CCFA52F4D51A17D1B4B950F8042B51F88B
:10056000043BCCFA52F4D51A0ED16CB950F8042BD6
:1005700051F8043BCCFA52F4D51A05D1002CDAD04C
:1005800030BC4FF00000704729BAB1FA81F111F088
:100590001801D1F120008440F2D1CA40CB4012F0C2
:1005A000FF0213F0FF0330BCD01A7047704770474A
:1005B0007047754600F02CF8AE4605006946534674
:1005C00020F00700854618B020B5FFF73DFEBDE8D6
:1005D00020404FF000064FF000074FF000084FF0AA
:1005E000000BAC46ACE8C009ACE8C009ACE8C009F7
:1005F000ACE8C00921F007018D46704710B50446EC
:10060000AFF300802046BDE81040FFF708BE0000B1
:10061000004870479000001001491820ABBEFEE76B
:10062000260002007047FEE7014800F046B800BF10
:1006300060050010F0B585680468D0E910600127F6
:1006400000F01C00102D07FA00F07060084663608F
:1006500008BF1046A06008BF0A46E260F0BD7047C0
:10066000EFF3108072B6FEE715F070B8B0B590F8F1
:10067000251002291CD10168826BD0E910340D6865
:1006800025F00E050D600D6825F001050D6004F0E4
:100690001C014FF0010404FA01F159604FF0000110
:1006A00080F8241080F825402AB19047002102E00C
:1006B0000421C16301210846B0BDF0B5D0E9101393
:1006C00002680C68156803F01C036E070ED504263B
:1006D0009E4016EA040709D013689B0603D41368EA
:1006E00023F0040313604E60016B2BE0AE0714D5BA
:1006F00002269E4016EA04070FD013689B0606D414
:10070000136823F00A031360012280F825200022D9
:1007100080F824204E60C16A14E02D0716D5082504
:100720009D402C4012D0146824F00E041460012265
:1007300002FA03F34B600021C26380F8241080F8B2
:100740002520416B11B1BDE8F0400847F0BD000025
:10075000002854D0F0B5022100F108072A4D1422D8
:1007600080F8251027490368D0CF01F1080C8E4688
:10077000634538BFA1F5806138BF05F580651D442C
:10078000B4F5804FB5FBF2F24FEA820547F6F072FE
:10079000C0E91015196821EA0201426941EA040121
:1007A00041EA060141EA070141EA0201826941EAA0
:1007B0000201C26941EA0201026A41EA02011960CA
:1007C00013D00EF1A801634505F01C034FF00F0490
:1007D00038BFAEF556710A689C40A2430A600A68A9
:1007E000446804FA03F31A430A6000210122C1633A
:1007F00080F8241080F82520BDE8F04000E00121B9
:100800000846704700040240F8FBFDBFB0B504463F
:1008100090F8240001281DD0012084F8240094F8C9
:100820002500012813D1022084F825000020E06370
:100830002068056825F0010505602046FFF7FAFEEF
:100840002068226B01683AB141F00E010AE00020F5
:1008500084F824000220B0BD21F004010160016889
:1008600041F00A010160016841F0010101600020CE
:10087000B0BD0000B0B5044600F0EEF805460548EE
:10088000611C007818BF044400F0E6F8401BA04249
:10089000FAD3B0BD000000102DE9FC4F604A0724D8
:1008A000604F4FF0000B4FF001094FF000089042ED
:1008B00000F1384208BF04244FEAB223042B38BFAA
:1008C0004FEAB224002200940C6834FA02F308BF05
:1008D00000F0B0B809FA02F314EA030A00F09A80B3
:1008E0004E6806F00304651E012D1ED80325D0F8BE
:1008F00008C0D1F80CE005FA08F90EFA08F52CEA60
:10090000090C4FEA420E45EA0C058560C6F3001556
:1009100005FA02FC456825EA030343EA0C036FEA83
:10092000090C4FF0010943600AE00323032CC6467B
:1009300003FA08F36FEA030C02D1C64603241EE053
:10094000C3688D68022C03EA0C0305FA0EF543EA2E
:100950000503C36013D16FF003050BF01C030F24D4
:1009600005EA52059C4005442E6A26EA04040E69F5
:1009700006FA03F323432B624E6806F0030404FADD
:100980000EF3046816F4403F04EA0C0443EA04033F
:1009900003603FD0254C22F003053D44236843F01B
:1009A0000103236023680F2403F0010301930BF07C
:1009B0000C03019E9C401E4EB446AE5926EA040428
:1009C000009E06FA03F3234345F80C30BB684D68DC
:1009D00043EA0A04EE0258BF23EA0A04124BBC6041
:1009E000AE029C461B6843EA0A0458BF23EA0A0485
:1009F000CCF80040AE037B6843EA0A0458BF23EA00
:100A00000A047C60ED033B6843EA0A0458BF23EA0A
:100A10000A043C600BF1040B08F10208013253E7B1
:100A200000100048000401400C0401406010024026
:100A300008FCFFFF1CBCBDE8E08F426902EA01032D
:100A4000914341EA0341816170471823002A08BF9E
:100A50002823C1507047000001480068704700BF5C
:100A60004007001090F84120202A03D190F8402040
:100A7000012A01D1022118E0242280F841200268D5
:100A8000136823F001031360136823F48053136089
:100A9000136819431160116841F0010111600021D0
:100AA000202280F8401080F841200846704790F8D6
:100AB0004120202A03D190F84020012A01D10221AF
:100AC00017E0242280F841200268136823F0010314
:100AD0001360136823F4706343EA01211160116805
:100AE00041F0010111600021202280F8401080F8BF
:100AF000412008467047000028B3B0B5044690F87E
:100B0000410028B9002084F84000204600F096F902
:100B1000242084F84100D4E90003D4E902120568D6
:100B200023F07063012A25F00105056003618368E5
:100B300023F40043836008D141F400418160014601
:100B400051F8043F0CE00120704741F40441022AAF
:100B50008160014651F8043F02D143F4006201E094
:100B600023F400620A600F4A04F110054168114342
:100B70004160C16821F40041C1602ECD114341EABA
:100B80000321C160216A29430160016841F001012C
:100B9000016000202021606484F84110206384F803
:100BA0004200B0BD008000022DE9F843044690F8F1
:100BB0004100202803D194F84000012803D10227E6
:100BC0003846BDE8F88301271E461546884684F856
:100BD0004070FFF741FF8146009020464FF40041EE
:100BE0000122192301F000FC0028E9D1222084F819
:100BF0004100102084F84200002060646685606334
:100C000065623648618DB1F5807F06D3FF21FF22F2
:100C10004FF080732185009005E0618D4FF00073E7
:100C200021850090CAB22046414601F0C7FB089FCB
:100C30000025FF26608DC8B3204639464A4601F09C
:100C40000BFCC8BB2068616A406A0870608D01387F
:100C50006085606A01306062208D411E2185090433
:100C6000608DE7D10028E5D02046802100223B4658
:100C7000CDF8009001F0B8FBF0B9608DB0F5807F41
:100C800021BF268500952046414627BFFF224FF011
:100C90008073608D20853FBF0095C2B220464146DB
:100CA00038BF4FF0007301F089FBC3E72046394697
:100CB0004A4601F019FC08B1012781E7206820218C
:100CC0005D4B0027C16142681A40426084F84110C0
:100CD00084F8407084F8427072E700BF00240080FE
:100CE0002DE9F843044690F84100202803D194F8F8
:100CF0004000012803D102252846BDE8F8830125DC
:100D00001E461746884684F84050FFF7A5FE8146E8
:100D1000009020464FF400410122192301F064FBAA
:100D20000028E9D1212084F84100102084F84200F5
:100D300000206064668567626063608DB0F5807FC7
:100D400004D3FF204FF08073208505E0608D0028DC
:100D5000208558D04FF0007317F8011B226891626C
:100D6000411E6762C2B220462185618D01396185CD
:100D700030490091414601F021FB089F0025FF26E4
:100D8000608DC0B3204639464A4601F0D5FBC0BB52
:100D9000616A206811F8012B8262608D01386085DC
:100DA0006162208D411E21850904608DE8D10028F3
:100DB000E6D02046802100223B46CDF8009001F08D
:100DC00013FBF0B9608DB0F5807F21BF26850095BB
:100DD0002046414627BFFF224FF08073608D20855B
:100DE0003FBF0095C2B22046414638BF4FF0007366
:100DF00001F0E4FAC4E7204639464A4601F074FBA4
:100E000048B1012578E70B48414600224FF00073B6
:100E100000902046AFE720682021074B0025C161E4
:100E200042681A40426084F8411084F8405084F8C7
:100E3000425061E70020008000E800FEB0B59EB09F
:100E4000044619A81421FFF74BFB02A85C21FFF709
:100E500047FB20681749884229D14020002402908E
:100E600002A80E9400F0F2F808B1FFF7F9FB124D5A
:100E700019A9286840F002002860286800F00200E4
:100E8000019004201D900320CDE91B4012201A90F0
:100E9000C020199001980948FFF7FEFCE86840F46B
:100EA0000010E860E86800F40010019001981EB09E
:100EB000B0BD00BF005400404C1002400004004888
:100EC0001B48034900780A6810440860704700BF57
:100ED0004007001080B5032000F06EF80F2000F0EE
:100EE00007F808B1012080BD00F024F8002080BD83
:100EF00070B50F4E04463078B0B14FF47A71B1FB43
:100F0000F0F04D490968B1FBF0F001F051F801250E
:100F10000F2C0AD848B94FF0FF3021460022002597
:100F200000F02EF8746000E00125284670BD00BF77
:100F30000000001082B00A48816841F00101816020
:100F4000816801F0010101910199016841F080512E
:100F50000160006800F080500090009802B0704777
:100F600058100240002808D400F01F010122400957
:100F700002FA01F1014A42F82010704700E100E056
:100F800070B5134B4FF0FF351B68C3F30223DC1E13
:100F900083F0070338BF0024042B28BF042305FA7D
:100FA00004F605FA03F3B2439943A1401143BDE8A7
:100FB000704001F0E1BF00BF05494FF6FF030A682A
:100FC0001A4060F30A22034810430860704700BFCC
:100FD0000CED00E00000FA05B649B0F5007F0A68A4
:100FE00002F4C0621DD1B2F5007F22D00868012250
:100FF00062F34A20322208600F48006850430F4ACB
:10100000B0FBF2F00130421E4B69824203D213F46E
:1010100080601046F7D14869400544BF03207047FF
:1010200007E0B2F5806F04D00868022262F34A201C
:1010300008600020704700BF5C00001040420F00B5
:101040009C48006800F4C060704700BF2DE9F84379
:1010500004464078964F00071BD5606C68B1B0F528
:10106000400F11D0B0F5000F40F00D81386840F40A
:10107000803038604FF4000006E0201D002101F0B0
:1010800085FB814638B9606CF96F21F44001084353
:10109000F8674FF00009A078800754D5F86CC000BD
:1010A0000BD4F86C4FF0010840F08050F864F86CF5
:1010B00000F080500090009801E04FF000087D4D56
:1010C000286840F480702860FFF7C6FC0646286850
:1010D000C00507D4FFF7C0FC801B0228F7D94FF0EA
:1010E000030929E0B9F1000F26D1D7F8840010F4E4
:1010F000407017D0A16D884211D0D7F88400D7F87E
:10110000841041F4803120F44070C7F88410D7F87F
:10111000841021F48031C7F88410C7F88400C00718
:1011200040F0B480A06DD7F884104FF0000921F48E
:1011300040710843C7F88400B8F1000F03D0F86C81
:1011400020F08050F8642068C10705D0216AFA6F4A
:1011500022F003021143F967810705D5616AFA6F2E
:1011600022F00C021143F967410705D5A16AFA6F15
:1011700022F030021143F967810605D5E16AFA6F62
:1011800022F440621143F967810505D5E16BFA6FDE
:1011900022F440221143F967410505D5216CFA6F0D
:1011A00022F440121143F967410605D5216BFA6F0D
:1011B00022F440521143F967010605D5616BFA6FBD
:1011C00022F440421143F967C10505D5A16BFA6FBE
:1011D00022F440321143F967010319D5A16CFA6F6B
:1011E00022F04062B1F1806F42EA0102FA6707D053
:1011F000B1F1006F0CD1396841F48011396007E01A
:10120000201D012101F0C2FA002818BF8146206884
:10121000410319D5E16CFA6F22F04062B1F1806FA1
:1012200042EA0102FA6707D0B1F1006F0CD13968C8
:1012300041F48011396007E0201D012101F0A6FA78
:10124000002818BF81462068410411D5216DFA6F2E
:1012500022F04052B1F1805F42EA0102FA6707D101
:10126000201D022101F092FA002818BF8146206853
:10127000000405D5606DF96F21F080410843F867DF
:101280004846BDE8F8834FF0010904E7FFF7E4FBA7
:10129000064641F288354FF00309D7F884008007ED
:1012A0003FF540AFFFF7D8FB801BA842F5D943E7D5
:1012B0000C100240007000402DE9F843002800F0B7
:1012C0009D80504D04468846286800F007008842FB
:1012D0000BD2286820F0070040EA08002860286840
:1012E00000F00700404540F089802068464E10F02D
:1012F00002010AD0A268336803F0F0039A4204D9CD
:10130000336823F0F0031A433260C20737D06068B5
:10131000022806D0032809D156F8081C89010DD4EB
:101320006CE056F8081C890308D467E056F8081CDE
:1013300010B1490502D461E089075FD53168A9463B
:10134000354621F0030108433060FFF785FB064670
:1013500041F2883729466068296801F00C01B1EB39
:10136000800F07D0FFF778FB801BB842F2D903202B
:10137000BDE8F88320682E464D4600F0020151B1C9
:10138000A168326802F0F002914204D2326822F081
:10139000F00211433160296801F0070141450AD983
:1013A000296821F0070141EA08012960296801F054
:1013B0000701414522D1410705D5E168326822F491
:1013C000E06211433160000706D52069316821F4DD
:1013D000605141EAC000306000F01EF831680B4AED
:1013E000C1F30311515C01F01F01C84008490860B6
:1013F00008480068BDE8F843FFF77ABD0120BDE862
:10140000F88300BF002002400810024070790208F3
:101410005C0000100400001010B523498A68C868F9
:1014200012F00C0205D00C2A1FD100F00300012895
:101430001BD108681F4B000747BF08680009D1F897
:101440009400000A002A00F00F0053F820301846DC
:1014500018BF00200C2A21D1C86800F00300022820
:1014600009D0032808BF124B06E0042A17D0082A27
:1014700017D10F4810BD0D4BC868CA68C96802244F
:10148000C1F34161C2F30622C0F302105A43013096
:1014900004EB4101B2FBF0F0B0FBF1F010BD0348EA
:1014A00010BD00200023D5E7001002400024F40006
:1014B00000127A00807902082DE9F843002800F034
:1014C0003682E54E0446B06800F00C08F06800F083
:1014D00003092078C00629D42078C00777D0B8F156
:1014E000080F6DD0B8F10C0F08BFB9F1030F67D02A
:1014F0006768B7F5803F07D03068B7F5A02F40F098
:10150000508240F480203060306840F48030306099
:10151000FFF7A2FA05463068800358D4FFF79CFA1B
:10152000411B03206429F6D9BDE8F883B8F1000F08
:101530001BD0B8F10C0F08BFB9F1010F15D03068FE
:10154000A169002900F08C8140F001003060FFF7B4
:1015500083FA05463068800700F19381FFF77CFA33
:10156000411B03200229F5D9DEE73068800703D547
:10157000A069002800F0DB81206A316809075ABFA2
:10158000D6F894100909316801F0F001884240F260
:10159000EC8001F08DF9002840F0C981306840F0FE
:1015A00008003060D4E90701326822F0F0021143EC
:1015B0003160716821F47F4141EA00207060E9E008
:1015C0003068800303D56068002800F0B08120787F
:1015D00080072BD5B8F1040F1AD0B8F10C0F08BF53
:1015E000B9F1020F14D03068E168002900F0A2813F
:1015F00040F480703060FFF72FFA054630684005F0
:101600000DD4FFF729FA411B03200229F6D98BE7F5
:101610003068400503D5E068002800F08881206923
:10162000716821F0F85141EA00607060207800078D
:101630005CD42078400770D4207880067CD4A06ADF
:10164000002800F0CB81022840F02D81E16AF0688B
:1016500000F003028A4240F03B81216B6FF00F02E1
:1016600002EB011100F070028A4240F03181616B9F
:1016700000F4FE42B2EB012F40F02A81A16B00F092
:101680007842B2EBC16F40F02381E16B734A02EA0A
:10169000015100F4C002A1F500118A4240F0188106
:1016A000216C4FF07E4200F0C06002EA016101F15E
:1016B0007E41884240F00C813068800100F18E81CB
:1016C000306840F080703060F06840F08070F0600A
:1016D000FFF7C2F904463068800100F17F81FFF70F
:1016E000BBF9011B03200229F5D91DE7D6F89400A8
:1016F0006169002900F09D8040F00100C6F8940067
:10170000FFF7AAF90546D6F89400800791D4FFF7B1
:10171000A3F9401B0228F6D988E0B06DC0004DD473
:10172000B06D4FF0010940F08050B065B06D00F031
:1017300080500090009843E0D6F89800616A002934
:1017400000F0DD8040F00100C6F89800FFF784F952
:101750000546D6F8980080073FF571AFFFF77CF992
:10176000411B03200229F4D9DEE63168B8F1000FED
:1017700041F008013160316821F0F00141EA0001D7
:101780003160E169726822F47F4242EA01217160AE
:1017900000F0C880FFF740FEB168AC4AC1F3031106
:1017A000515C01F01F01C840A9490860A9480068C0
:1017B000FFF79EFB00287FF4B7AE8DE64FF00009DF
:1017C000A54F3868C00510D4386840F48070386080
:1017D000FFF742F905463868C00506D4FFF73CF923
:1017E000411B03200229F6D99EE6A768012F08D0E5
:1017F000D6F89000052F40F0AE8040F00400C6F807
:101800009000D6F8900040F00100C6F89000FFF775
:1018100023F9054641F28837D6F89000800700F199
:10182000B780FFF719F9401BB842F5D90320BDE88E
:10183000F88320F00100C6F89400FFF70DF9054683
:10184000D6F8940080077FF5F4AEFFF705F9411B49
:1018500003200229F4D967E6001002400000E0FFEF
:1018600020F001003060FFF7F7F805463068800788
:101870007FF532AEFFF7F0F8411B03200229F5D9BE
:1018800052E6306840F008003060D4E90701326861
:1018900022F0F00211433160716821F47F4141EA86
:1018A0000020706018E6B8F10C0F40D0306820F0CE
:1018B00080703060FFF7D0F804463068800140F156
:1018C0008980FFF7C9F8011B03200229F5D92BE60F
:1018D000B8F10C0F2BD03068400128D4306820F0CC
:1018E00080703060FFF7B8F805463068800178D521
:1018F000FFF7B2F8411B03200229F6D914E620F0C5
:101900000100C6F89800FFF7A7F80546D6F898003A
:1019100080077FF594AEFFF79FF8411B0320022953
:10192000F4D901E600F0C4FF00283FF433AF0120F2
:10193000BDE8F88320F480703060FFF78DF805462D
:10194000306840057FF572AEFFF786F8411B032033
:101950000229F5D9E8E520F00100C6F89000D6F894
:10196000900020F00400C6F89000FFF775F80546D7
:10197000002F7FF44FAF41F28837D6F890008007F0
:1019800006D5FFF769F8411B0320B942F5D9CBE52D
:10199000B9F1000F3FF450AEB06D20F08050B0654B
:1019A0004AE620F480303060306820F480203060D7
:1019B000FFF752F80546002F7FF4ADAD06E0FFF7C4
:1019C0004BF8411B032064293FF6AEAD306880031D
:1019D000F5D4FCE5F06823490840F0600020BDE83C
:1019E000F88304F12C036FF00F051D4F0FCB05EBAF
:1019F0000111F5683D4028430843E16B40EA0220AD
:101A0000164A02EA01514FF07E42A1F50011084347
:101A1000216C40EAC36002EA016101F17E410843A2
:101A2000F060306840F080703060F06840F08070A6
:101A3000F060FFF711F8044630688001CED4FFF75C
:101A40000BF8011B03200229F6D96DE57079020815
:101A50005C00001004000010007000400000E0FF77
:101A60008C809D01FCFFEEFE704700001CB5044613
:101A70000068416882684B0605D502F04103012BDE
:101A800001D1E16C05E00B0607D512F0020304D08A
:101A9000216D2046BDE81C4008478B0610D512F486
:101AA000B0730DD012F0400316D094F85D30032BC4
:101AB00007D100210191C1680191806801900198CE
:101AC0001CBD236E43F00403236600230193C36807
:101AD000019383680193019B02F4807312F020024A
:101AE0000CD0226E42F0010222660022019282682E
:101AF0000192026822F040020260019A43B1226E14
:101B000042F0080222660022019282680192019A44
:101B1000226E002AD4D04268890722F0E002426097
:101B20004FF0010284F85D201CD0416821F00301D0
:101B30004160A06D40B10E498163FEF797FD18B179
:101B4000206E40F040002066606D0028B8D0084943
:101B50008163FEF78BFD0028B2D0206E40F040007C
:101B600020661CBD2046BDE81C40FFF77DBF00BFBE
:101B70004129000840B1F8B50446406A30B1002060
:101B8000206104F1140007E0012070476068B0F59F
:101B9000827F03D004F11C00002101600025A562B2
:101BA00094F85D0020B9204684F85C5000F04CF8B1
:101BB000022084F85D002068E1680268B1F5E06FFA
:101BC00041F4006301F4706122F04002026098BFAA
:101BD0000125B3F5706F1CBF0023A3622A03D4E96B
:101BE0000135D4E90467114303F4827305F4044515
:101BF0002B4406F002052B4407F001052B44A56990
:101C000005F400763344E66906F038063344266A64
:101C100006F080063344A66A06F400563343036098
:101C20000423626A03EA1543194302F010021143C8
:101C3000626B02F00802114341600020012120661E
:101C400084F85D10F8BD000070B586B0044601A8A8
:101C50001421FEF745FC2068D24988423ED1204835
:101C60000026416941F480514161416901F480518C
:101C700000910099016841F00201016001A900682A
:101C800000F00200009005200396059003200490C8
:101C9000022002902820019000981248FEF7FCFDD7
:101CA000114D124B012280201021C5E90032C5E9F7
:101CB0000216C5E904062846C5E906662E62FEF747
:101CC00047FD08B1FEF7CCFC232000210022AC62C6
:101CD0006565FFF755F92320FFF744F906B070BD9D
:101CE0004C10024000040048600500103000024023
:101CF0002DE9FC41044690F85C00012804BF022055
:101D0000BDE8FC8101201D4616460F4684F85C00A4
:101D1000FEF7A2FE804694F85D00012858D101200C
:101D2000002F56D0002E54D0032084F85D000020F0
:101D30002066E687A687A763A4F844002064C4E968
:101D40001300A4F84600A1682068B1F5004F07D140
:101D5000016821F040010160016841F480410160A7
:101D60000168490603D4016841F0400101606168DF
:101D7000721EE368B2FA82F2B1FA81F15209B3F548
:101D8000E06F4FEA511142EA010227D932B137F828
:101D9000021BC160A763E08F0138E0876E1CE08FF3
:101DA000002855D020688168890708D4FEF754FEC2
:101DB000002EF4D0A0EB0800A842F0D362E0A16BA3
:101DC00031F8022BC260A163E08F0138E087E6E7BB
:101DD0000220002184F85C10BDE8FC814FF6FE7102
:101DE0008AB1E28F022A05D337F8022BC2604FF680
:101DF000FE7004E03A780273481CA26B571CA7637C
:101E0000E28F1044E0876E1C4F1CE08F00B3216806
:101E10008868800708D4FEF71FFE002EF5D0A0EBDF
:101E20000800A842F1D32DE0A06BE28F022A05D36F
:101E300030F8022BCA604FF6FE7104E00078087398
:101E40003946A06B0130A063E08F0844E087DCE7EF
:101E500020462946424600F0C3FD08B120202066F6
:101E6000A06838B9002001902068C168019180689D
:101E700001900198216E01200029AAD184F85D000B
:101E80000020A6E7012084F85D000320A1E7000000
:101E9000F8B5044690F85C00012804BF0220F8BDA4
:101EA000012084F85C0094F85D0001283FD10120F6
:101EB000002962D0002A60D00320002384F85D004E
:101EC0002366E287A287A1632364C4E91333A4F8DD
:101ED0004430A4F84630A0682268B0F5004F07D11E
:101EE000106820F040001060106840F480401060DE
:101EF000606DDFF890C0244F244EE568C0E90B6C9C
:101F0000C0E90D73B5F5E06F536823F48043536067
:101F100017D88369B3F5806F13D1E58F5368ED0748
:101F200007D123F480435360E38F5B0808E002206D
:101F300023E043F4804301255360E38F05EB530313
:101F4000E387E38F0C32FEF761FC28B1206E40F08E
:101F500010002066012010E020680168490603D4C3
:101F6000016841F040010160416841F02001416099
:101F7000416841F0020141600020002184F85C10BA
:101F8000F8BD00BF6D2900084F290008732900081B
:101F900000680449884200D070470348002101705E
:101FA000704700BF0030014026000020704700004D
:101FB000411E0020B0EB116F1CBF01207047044A86
:101FC000F023516003490B70072190601160704746
:101FD00010E000E023ED00E070477047704700001C
:101FE00070B590F83C300222012B27D080F83D20BC
:101FF00001224E4C80F83C20026855689368A2424A
:1020000003D14E6825F4700535430E6825F0700540
:10201000B2F1804F45EA0605556004D0424DAA4210
:1020200001D0A24204D1896823F080031943916052
:102030000022012180F83C2080F83D10104670BD40
:1020400060B310B5044690F83D0028B9002084F82C
:102050003C00204600F024F80220211D84F83D00B9
:10206000206800F04FFF012084F8480084F83E000B
:1020700084F83F0084F8400084F8410084F842006E
:1020800084F8430084F8440084F8450084F846004E
:1020900084F8470084F83D00002010BD01207047FF
:1020A000E0B500687D49884218BF8CBD0948002210
:1020B000016841F0100101600121006800F010008A
:1020C000019001983620FEF75BFF3620BDE88C407A
:1020D000FEF748BF5810024090F83D1001291CBF80
:1020E00001207047022180F83D100168C868B1F1F5
:1020F000804F40F00100C86005D00B48814202D0FB
:102100000A48814209D18868094A02400020062A0B
:1021100002D0B2F5803F00D17047086840F001005E
:1021200008600020704700BF00400140002C0140C3
:10213000070001007047F8B504460068C7680669E3
:1021400006EA0705A90713D56FF002010161012115
:1021500021778069800703D02046FFF7EBFF05E079
:10216000204600F080F8204600F07EF8002020771E
:10217000680715D520686FF00401016102212177FD
:10218000806910F4407F03D02046FFF7D3FF05E0BD
:10219000204600F068F8204600F066F8002020771E
:1021A000280714D520686FF0080101610421217708
:1021B000C069800703D02046FFF7BCFF05E020463A
:1021C00000F051F8204600F04FF800202077E80694
:1021D00015D520686FF01001016108212177C069D1
:1021E00010F4407F03D02046FFF7A4FF05E020460F
:1021F00000F039F8204600F037F800202077E80793
:1022000006D020686FF001010161204600F02EF831
:1022100007F08007280606D520686FF0800101616D
:102220002046FFF7DAFE4FB116F4807006D0206822
:102230006FF4807101612046FFF7CEFE680606D577
:1022400020686FF040010161204600F02DF8A806DB
:1022500058BFF8BD20686FF0200101612046BDE83D
:10226000F840FFF7BBBE70477047000010B500682C
:102270000A49884200D010BD01201FF0EBFF084C36
:102280002088411CB0F5FA7F2180F4D305484FF433
:102290000051FEF7D2FB0020208010BD001000404E
:1022A00024000020000800487047FEE700688169AC
:1022B000890744BF002181628169C90703D181690F
:1022C00041F00101816170472DE9F0410446006849
:1022D0000D468169C90602D4002500213CE0102189
:1022E00016464FF000086F1CC1610021826902F0A0
:1022F00020020A432AD12FB1FEF7AEFB2DB1801B7D
:10230000A84202D800212068F0E72068426894F8CB
:1023100042308169202B0CD012F4804209D111F493
:10232000004106D0416841F480414160FEF794FBD2
:102330000646206880698006E4D4FEF78DFB801B8A
:102340001A28F6D348F020080121DCE709B920213A
:10235000C16148F0040501218269D30505D54FF418
:10236000807145F00105C1610121530505D54FF488
:10237000806145F00805C1610121920503D439B996
:102380000020BDE8F0814FF4007145F00205C16105
:102390002046FFF78BFF2068524A41681140416098
:1023A000606C28436064202084F84100002084F899
:1023B000400084F842000120BDE8F08170B500685B
:1023C0006FF39F21049D074E1943446841EA02417F
:1023D000294324EA555421F000413440214341600F
:1023E00070BD00BF009C00FC2DE9F843DDF82080A3
:1023F000994616460F4604465D1C206880693840A1
:10240000C01BB0FA80F04009B04222D1002DF4D0B8
:10241000FEF722FBB9F1000F03D0A0EB08004845FE
:10242000EBD9206880693840C01BB0FA80F04009C1
:10243000B042E2D1606C40F020006064202084F85B
:102440004100002084F8400084F842000120BDE8EB
:10245000F8830020BDE8F88370B515460E460446A3
:1024600020688069400723D4204631462A46FFF77A
:102470002BFFA0BB20688169890614D4FEF7ECFA13
:1024800016B1401BB042EBD9206880694007E7D401
:10249000606C40F020006064002084F84000202040
:1024A00084F841001BE08169490703D5218D09B1FA
:1024B000002070BD816900220A4DC90642BF10226A
:1024C000C2610422626420220021C26143682B4061
:1024D000436084F8412084F8401084F842100120C1
:1024E00070BD00BF00E800FE70B515460E460446FC
:1024F0002068806980061DD4204631462A46FFF7B1
:10250000E3FEA8B9FEF7A8FA16B1401BB042EFD916
:10251000206880698006EBD4606C40F02000606425
:10252000202084F84100002084F8400084F8420014
:10253000012070BD002070BDF8B515460E4604465A
:102540004F1C2068806980071FD4204631462A46E8
:10255000FFF7BAFEB8B9002FF3D0FEF77DFA16B137
:10256000401BB042EDD9206880698007E9D4606CD7
:1025700040F020006064202084F84100002084F8AE
:10258000400084F842000120F8BD0020F8BD0000A2
:10259000E0B50A480022016841F001010160002114
:1025A000006800F00100019001980D20FEF7E8FCA2
:1025B0000D20BDE88C40FEF7D5BC00BF481002409E
:1025C0002DE9F04786B04FF000083048304C00222B
:1025D000CDF81480016841F004010160016801F048
:1025E000040100910099016841F0800101600168D7
:1025F00001F0800100910099016841F00201016041
:10260000016801F0020100910099016841F00101A7
:1026100001604FF40351006800F001000090009841
:102620002046FEF712FAA4F580664FF4004100221E
:10263000A2464FF400493046FEF707FA01AD4FF4C9
:102640000050144CCDE903880127019050462946DB
:102650000297A04730462946CDE90378CDE9019796
:10266000A0474020CDF81080CDE90277294601909F
:102670005046A0470320294604908020CDE90277E8
:1026800001905046A04706B0BDE8F0874C100240CC
:10269000000800489908000810B5124C124A134B64
:1026A00001200021C4E90032C4E9021004F1100045
:1026B0001421FDF715FF2046FEF71EFA08B1FDF7BD
:1026C000CFFF08480021FEF7CDF908B1FDF7C8FF9C
:1026D00004480021FEF7EBF918B1BDE81040FDF702
:1026E000BFBF10BDA8050010912970000054004024
:1026F000F8B59248104F4FF4827600214FF40072E3
:10270000012302244FF4E065C0E90076C0E9021518
:10271000C0E90443C0E906210722C0E90811C0E965
:102720000A12C0E90C11FFF725FA18B1BDE8F8400C
:10273000FDF796BFF8BD00BF003001401FB50F4840
:1027400080210F4B00244F220394CDE90144816185
:1027500040F2E731C0E90032C0E90241FFF770FC06
:1027600008B1FDF77DFF054801A903940194FFF727
:1027700037FC08B1FDF774FF1FBD00BF60060010F5
:1027800000100040FEE7FEE770470000F8B5444F38
:1027900004460D46F868800710D02168F86800F0FC
:1027A000030201208A4279D1002977D06068F96854
:1027B000C1F30211013181420AD11DE020680328D2
:1027C00008D002283AD0012802D13968890708D4F4
:1027D0000120F8BD396889035CBF39685FEA41317F
:1027E000F6D561686FF00F0202EB0111FA6822F072
:1027F000730210430843F860386820F08060386046
:10280000FEF72AF906463868000105D5FEF724F9D7
:10281000801B0228F7D93AE0A5B138692149012D7A
:1028200019D101F1B46122690840A16840EA012090
:102830001D4901EA0251A1F5001117E03968490567
:10284000C6D5CEE7386919490840D4E9021240EAF2
:102850000120D1060AE00840A168626940EA01202F
:102860004FF07E4101EA026101F17E410843386187
:10287000386840F080603860FEF7EEF8054638684A
:10288000000106D4FEF7E8F8401B0228F7D9032020
:10289000F8BDA0693969084338610020F8BD00BF60
:1028A00000100240FF80FFF90000E0FFFF80FF07FB
:1028B000BCB51E4D04462868C0000FD4286840F0FF
:1028C00080502860286800F0805001900198FEF741
:1028D000B7FB296821F08051296001E0FEF7B0FBC9
:1028E000B0F5007F06D1812C08D30120A02C88BF31
:1028F00002200EE0802C03D903200AE0002008E02B
:10290000A4F17000802CB0FA80F04FEA501008BF9C
:10291000022007490A6822F0070202440A60096897
:1029200001F00701081A18BF0120BCBD5810024071
:1029300000200240AC48FFF799B800BFFC0500102A
:10294000806A0021A0F84610C187FFF78DB8806A21
:1029500001684A6822F003024A60016E41F01001EA
:102960000166012180F85D10FFF77EB8806AFFF7ED
:102970001DBBBCB5846A0546FEF76EF802462868A2
:102980000068800627D42068416821F0200141605A
:10299000416821F0020141602046642100F020F8E6
:1029A00018B1206E40F020002066A06838B90020E1
:1029B00001902068C1680191806801900198002011
:1029C000E087012084F85D00206E20B12046BDE83C
:1029D000BC40FFF749B82046BDE8BC40FFF7D8BA75
:1029E00070B515460E464FF4C051044632462B468C
:1029F00000F018F868B9204631462A4600F07EF803
:102A000038B920464FF4C06132462B4600F00AF830
:102A100028B1206E40F020002066032070BD002009
:102A200070BD00002DE9FE43804600201E4617467B
:102A30000D468DF80700FEF70FF8301AC419FEF79F
:102A40000BF881462A482321013700684843000DCE
:102A500060430290D8F8006030468168294219D05E
:102A6000B5F5C06F04D1317B8DF807109DF80710C4
:102A7000002FF2D0FDF7F0FFA0EB0900A0420CD22E
:102A80000298029901390028029108BF0446D8F83B
:102A90000000E2E7002000F02DB8D8E9000142680C
:102AA000B1F5827F22F0E00242600BD1D8F8081025
:102AB000B1F5004F02D0B1F5806F03D1016821F06C
:102AC00040010160D8F82810B1F5005F07D1016816
:102AD00021F400510160016841F4005101600020BF
:102AE00088F85C00012088F85D00032000F002B83F
:102AF0005C00001006BCBDE8F8830000F8B5154680
:102B00000E460446FDF7A8FF281A8719FDF7A4FF13
:102B10000546224801360068C0F3CB307843009068
:102B20002068816809060ED5002EFAD0FDF794FFC3
:102B3000401BB84209D20098009901390028009141
:102B400008BF0746ECE70020F8BDD4E90001426861
:102B5000B1F5827F22F0E00242600AD1A168B1F5AE
:102B6000004F02D0B1F5806F03D1016821F0400120
:102B70000160A16AB1F5005F07D1016821F400513D
:102B80000160016841F400510160002084F85C009C
:102B9000012084F85D000320F8BD00BF5C00001038
:102BA000B0B51C460B4415460244013A013B92B2B3
:102BB0009BB200F0A9F8A04880210122FDF745FF53
:102BC000049904FB05F002460B4632B11C88013A19
:102BD00024BA240C23F8024BF7E7400082B297484E
:102BE000BDE8B040FFF754B9FC0500107FB5384D83
:102BF0001920A847374C4FF4004100222046FDF72A
:102C000024FF1920A84720464FF400410122FDF778
:102C10001CFF6420A847304C3A20A0472F4E552077
:102C2000B047B220A04733202E4D05218DF8040077
:102C30002B4800906846A847012000F0A7F8B7206D
:102C4000A0473520B047BB20A0471920B047C0207F
:102C5000A0472C20B047C220A0470120B047C32086
:102C6000A0471220B047C420A0472020B047C6206C
:102C7000A0470F20B047D020A047A420B047A120F4
:102C8000B047E020A0471848009017A0D0E90112F3
:102C90008089CDE90112ADF80C0068460E21A847E5
:102CA000E120A0471448009013A0D0E901128089C8
:102CB000CDE90112ADF80C0068460E21A84721208D
:102CC000A0471120A0471320A0472920A0477FBD7F
:102CD0007508000800040048B52D0008152E0008EE
:102CE0000C0C0033D92D0008D0040D11132B3F54C8
:102CF0004C180D0B1F230000D0040C11132C3F4463
:102D0000512F1F1F202300002DE9FC411E4C0746B8
:102D1000984616460D462088B84202D16088B042D7
:102D200012D0300A8DF807608DF805708DF8060016
:102D3000380A8DF804002A2000F03CF801A804218C
:102D400000F04AF866802780A088A84202D1E08877
:102D5000404514D04FEA18208DF803808DF80150BB
:102D60008DF80200280A8DF800002B2000F022F8D0
:102D70006846042100F030F8A4F80680A5802C20D5
:102D800000F018F8BDE8FC810400002010B50446EE
:102D9000362000F00FF8032C88BF10BD0449E00076
:102DA00021FA00F0C0B2BDE8104000F033B800BF17
:102DB000C0A00060E0B58DF807001F488021002208
:102DC000FDF743FE1D480DF1070101224FF0FF33CF
:102DD000FEF78EFF8CBD00BF2DE9F0410546164879
:102DE0000C4680210122FDF730FE144E4FF6FF788D
:102DF00074B14FF6FF774445304629464FF0FF3314
:102E000038BF2746BAB2FEF773FFE41B3D44EFE735
:102E1000BDE8F081E0B58DF8070007488021012268
:102E2000FDF713FE05480DF1070101224FF0FF33B6
:102E3000FEF75EFF8CBD00BF00080048FC050010D7
:102E40007047000080B5FEF73BF8064801884A1C31
:102E50000529028004D3044901220A70002101805F
:102E600080BD00BF340000202C03001010B596B0C8
:102E700005A84421FDF734FB684614211424FDF70E
:102E80002FFB4FF40070FEF7A7F818B1EFF3108096
:102E900072B6FEE702200721CDE91400CDE9124108
:102EA000012103241191CDE90F044FF48030CDE9C5
:102EB000051005A8FEF700FB18B1EFF3108072B6FD
:102EC000FEE700200421CDE90300CDE901400F20F9
:102ED00000906846FEF7F0F918B1EFF3108072B673
:102EE000FEE716B010BD00000248016841F4700111
:102EF0000160704788ED00E00148FFF71CB900BF92
:102F00006006001070B5184A0368904202D0B0F114
:102F1000804F03D14C6823F070032343B0F1804FFE
:102F200007D0904205D0114CA04202D0104CA042D4
:102F300003D1CC6823F4407323434E6923F080030C
:102F40000C688D68904243EA06030360C5628462A0
:102F500005D0064A904202D0054A904201D1096943
:102F600001630121416170BD002C0140004401401A
:102F700000400140FEE7000010B5074C00F00F03D1
:102F8000044AB0F1FF3F2344C8BF831808011870FA
:102F900010BD00BF00E400E014ED00E00268002175
:102FA0001378303B092B84BF08467047531C01EB54
:102FB00081010360127802EB41011A463039EFE7D4
:102FC000B0B50848442101F040FB07481E2100220B
:102FD00000241FF09BF9054D686002F08BFB2C70FC
:102FE000B0BD00BFDC0200101957000880020010BD
:102FF0002DE9F84381460E4608461146154600F075
:10300000EAF8F0B1304629460022002700F097F890
:10301000002865D170886B88F188B6F800C0B6F8D2
:1030200004E01F1A091A3FB2012F0CDBA9F8063081
:10303000A9F804E0A9F80200A9F800C001277088E7
:1030400002E0FF274CE00027B5F90630CA1A024417
:1030500012B2012A12DBB6F9062093420EDA328848
:10306000B6F80480084429F8372009EBC702013775
:10307000D080A2F804805380EB887088B5F90220D4
:1030800001B2AEEB0C0C8A42C8BF1046B6F906205E
:1030900019B29142B8BF1A4633882988CC1A24B293
:1030A000012C0CDB141A24B2012C08DB29F8373070
:1030B00009EBC7030137DA80998058803388A988E3
:1030C000ACEB01041C4424B2012C09DB29F83710B5
:1030D00009EBC7010137CA8003EB0C0248808A80E4
:1030E00078B2BDE8F883F0B5B1F90030B2F900600C
:1030F000B1F90240B2F90270B1F90450B1F906C059
:10310000B2F90410B2F90620B342C8BF1E460680C9
:10311000BC42C8BF274647808D42B8BF2946818040
:103120009445B8BF6246C280002097424FF000022B
:10313000D8BF01228E42D8BF01201040F0BD2DE93A
:10314000F8430D46B0F90070B1F900108F423CDB36
:10315000B0F90260B5F902108E4236DBB0F9049086
:10316000B5F90410894530DCB0F90680B5F90600E0
:1031700080452ADC14465AB3694628462246ADF8F3
:103180000260ADF8007000F090F8F0B16946284692
:103190002246ADF80260ADF8009000F086F8A0B1CC
:1031A000694628462246ADF80280ADF8007000F06E
:1031B0007CF850B1694628462246ADF80280ADF849
:1031C000009000F072F8BDE8F8830020BDE8F883B5
:1031D0000120BDE8F883B1F90420B0F90030934232
:1031E00013DCB1F90020B0F9043093420DDBB1F9E2
:1031F0000620B0F90230934207DCB1F90210B0F9B1
:1032000006008842A4BF01207047002070472DE9C6
:10321000F8430D46B0F90460B1F900108E4211DB9D
:10322000B0F90670B5F902108F420BDBB0F90080DF
:10323000B5F90410884505DCB0F90290B5F906002F
:10324000814502DD0120BDE8F8831446EAB16946F4
:1032500028462246ADF80290ADF8008000F025F82F
:1032600098B9694628462246ADF80290ADF800604C
:1032700000F01BF848B9694628462246ADF80270AE
:10328000ADF8008000F011F810B10020BDE8F8831F
:10329000694628462246ADF80270ADF8006000F09D
:1032A00004F880F00100BDE8F8832DE9FC470C46E6
:1032B000B0F90010B4F900308B420DDBB0F90470A6
:1032C000BB4209DCB0F90260B4F90230B34203DB5F
:1032D000B0F90650AB4202DD002000F071B8012ABF
:1032E0006BDBA81B7B1A4FF0020CADF80260ADF847
:1032F0000010013001331BB200B290FBFCF993FBCC
:10330000FCF30FFA89FE18B27045B8BF99460FFA60
:1033100089F09042A8BF914609EB010A09EB060823
:10332000684621460022ADF804A0ADF80680FFF7FC
:10333000BCFF20B108EB0900ADF806000FE0ADF8C6
:103340000650A5EB0905684621460022ADF802505B
:10335000FFF7ABFF40B1A5EB0900ADF802000AEBA7
:103360000900ADF8040022E0ADF80470A7EB0907EE
:10337000684621460022ADF80070FFF796FF20B1A5
:10338000A5EB0900ADF802000DE0684621460022D9
:10339000ADF80680ADF80260FFF787FF68B108EB73
:1033A0000900ADF80600A7EB0900ADF8000068467B
:1033B00021461BF012FD00F003B8012000F000B818
:1033C0000CBCBDE8F087F0B5B1F90030B2F900608F
:1033D000B1F90240B2F90270B1F90450B1F906C076
:1033E000B2F90410B2F90620B342B8BF1E460680F7
:1033F000BC42B8BF274647808D42C8BF294681805E
:103400009445C8BF6246C280F0BD00002DE9F04F70
:1034100093B004461EF016FF00210A9104900CB1EF
:10342000E06801E00BF018FBDFF8D086C8F8000078
:1034300000691BF0F9FBD8F80010486918B11BF0BF
:10344000F3FBD8F80010C8691BF0EEFBD8F80000B9
:10345000006A1BF0E9FBD8F800000169002900F0C0
:10346000C080DFF8D4A600260DF12C0B4FF0010927
:10347000B0F850118E4245D2811991F8301109B13E
:103480000136F5E70027B0F850118F42F8D2B74265
:1034900034D0C11991F8301181BB00F1300101EB3A
:1034A000C60001EBC701FFF796FE38B3D8F800005D
:1034B000303000EBC60100EBC7025846FFF783FF30
:1034C0005846D0470446D8F8000000EBC60030301C
:1034D000D0470546D8F8000000EBC7003030D04791
:1034E000284484420AD2D8F80000DDE90B2300EB1F
:1034F000C60138440A634B6380F83091D8F8000065
:103500000137C0E701680A7CD20700F09180C968E2
:103510004968002900F08C8000F5AC7001F0E7F8F4
:10352000002840F08580D8F800000168C9688A68E2
:103530000B6809929A4208BF4B6808930BF0A0FAF7
:103540000DF12C0A079020215046FCF7C9FF4FF0DF
:103550000009D8F80000B0F85011894545D200EBB9
:10356000090191F8301111B109F10109F1E700F5F4
:10357000AC7001F04CF80746002FF5D0D8F80000E9
:1035800039463E4600F5AC7001F053F80746D8F8CE
:103590000000314600EBC90000F130025046FFF751
:1035A00027FD05460130E7D00024D346D8F80000B7
:1035B0003146AC4200F5AC700BDA01F064F8DBF890
:1035C0000010DBF804200BF1080B013442600160AD
:1035D000ECE701F095F8304615F0B6FF0DF12C0B35
:1035E000CAE70021A0F8501184E200F5AC7001F0A8
:1035F0000EF80DF11C09044699E8C002D8F8000045
:1036000094B10068494632462346C06B856BCDE9CC
:1036100000760294A847D8F80000214600F5AC7067
:1036200001F007F80446E9E700F5AC7000F0DAFFB6
:103630000020C8F80400D8F80000B0F850110029A4
:1036400000F07381012907DB4D1E014491F82F1111
:1036500000292946F6D100E0002501684A6B22B115
:1036600008469047D8F800000168C96800270A7E1C
:1036700002F0FE020A760168C9680A7E02F0FD02C5
:103680000A76059590F8281041F0040180F828107A
:10369000B0F850118F4280F00381C11991F83011B8
:1036A000002940F0FB80AF4205D10168C9680A7E5D
:1036B00042F001020A760168C9680A7E02F0FD0242
:1036C0000A760168CA68CE6B9268326000EBC70266
:1036D000097C02F1300989071FD00BF0D1F90446AB
:1036E000D8F800000BF014FA01380021002200B2D3
:1036F0000090601E03B2584607F037FBD8F8000070
:10370000C6F804B00168D1E90301027E89071DD41F
:10371000017E62F341014A461BE032F8321F0897EE
:10372000CDF81C901546069235F9044F611A01F147
:10373000010B32F8021F0992B9F80020891A4F1CB8
:103740000BF0E6F984420ADA2D880DE042F002011E
:103750005A4601763046B2601FF0DEFD91E0D8F89F
:1037600000000BF0D5F9451ED8F8000039B200680A
:10377000C3688269DB68B3FBF1FA0FFA8BF18A4503
:10378000C8BF8A463AB3002157460DF12C09ADF85F
:1037900030100B917C1E4946ADF832409047BDF881
:1037A0002E10BDF93200411A013109B28A4507DAFB
:1037B00027B2002F0DDDD8F8000000688269E9E724
:1037C000079C39B20129ACBF00F1010A4FF0000A91
:1037D00002E04FF0000A079C06980FFA85FB0021D3
:1037E00000880AFA80F77A1E5A452ADC0BA90FFADC
:1037F00082F9C6E90111CB45D8F800100968C968FB
:103800008B683360ADF82E002088ADF82C00099845
:103810000088ADF83220AAB2ADF83000BCBFADF8D8
:103820003250A9461FFA89F0824203D1087E40F047
:103830000200087630461FF06FFD0FFA89F1384616
:10384000CFE759450DF12C0B19D0C6E901BBD8F8CB
:1038500000100968C9688A683260099A238812884A
:103860000C7E44F002040C76ADF82E003046ADF824
:103870003250ADF82C30ADF830201FF04DFD059DD5
:10388000089FD8F8000000EBC700303007F039FA85
:103890000146D8E900021144C8F804100137F7E6E0
:1038A00090F8282002F0FB0280F82820E9B3026893
:1038B000137CDB071BD0D2685268C2B100243025CC
:1038C0008C4214D2021992F830216AB900F5AC701A
:1038D00000F0F7FE0146D8F80000431942595B6832
:1038E0000A604B60B0F8501108350134E8E7303019
:1038F0004FF4807115F05CFFD8F80000202100F52E
:10390000987015F055FFD8F800000021A0F850116C
:1039100004981EF091FC0A90D8F800000068436AF1
:103920001BB1D8F804200A99984715F091FD00F0D2
:103930002DF900F007F9D8F82440C4BB15F081FB3D
:1039400014F070FB7F21002204461BF09DF82046F6
:10395000002100221BF08EF820464FF6FF71002256
:103960001BF0E0F82046032100221BF0D1F820468E
:10397000032100221BF0BDF82046032100221BF08A
:10398000BDF82046032100221BF0BDF8204603218C
:1039900000221BF0C2F85A49204615F0D1FA204601
:1039A00006210022002316F057FEC8F82440D8F85C
:1039B00010001EF041FC80084A280DD8D8F80400F9
:1039C00041F2893188423CD3D8E905010A9A104472
:1039D0000131C8E9050134E01EF034FCC8F81000DC
:1039E000D8F80000406828B100684FF47A71B1FB44
:1039F000F0F000E02120D8F8141011B90121C8F826
:103A00001410D8F81820054622B14FF47A735A439F
:103A1000B2FBF1F500218542C8E9051188BF0546D2
:103A2000D8E9070129440130C8F82010C8F81C0063
:103A30001EF096FCC0F1640332A120462A4615F020
:103A4000B9FAD8F80C409CBB15F0FBFA14F0EAFA6E
:103A50007F21002204461BF017F820460021002297
:103A60001BF008F820464FF6FF7100221BF05AF8B1
:103A70002046032100221BF04BF8204603210022A0
:103A80001BF037F82046032100221BF037F82046B0
:103A9000032100221BF037F81949204615F050FA8F
:103AA000204604210022002316F0D6FDC8F80C4061
:103AB000D8F808001EF0C0FBB0F5967F1AD91EF0AA
:103AC000C1FBC8F808000BA815F05CFD0B980D9918
:103AD0009DF844209DF84530401A40F2FE31CDE972
:103AE000002366220140B1FBF2F3820A09A12046BD
:103AF00015F060FA13B000F021B800BF9401001077
:103B000038BB02082575204650530A257525252007
:103B10004350550025752E2575206B422075736521
:103B20006420282564202525290A2564252520666A
:103B30007261672E0000000003AD000830BCBDE8D4
:103B4000C08F0000B0B5074D0024702C08BFB0BD79
:103B5000285908B115F0F8FC28191C2115F028FE89
:103B60001C34F2E7300300100749096859B14A686C
:103B7000824202D00A68824203D10A7E42F00102E8
:103B80000A761431F1E770475C05001070470000B9
:103B90000148042100F059BDD00200100148202145
:103BA00000F053BDE80200102DE9FF470C9E1D46B2
:103BB000824643B9B6F5807F05D10020551ECAF86C
:103BC0000000481E66E0DDF8348000206F46DFF814
:103BD000D090ADF80E20ADF80A20ADF80C10ADF87D
:103BE000041029463246CDF8060000903846434678
:103BF000C847381D294632464346C84707F10800E2
:103C0000294632464346C84707F10C00294632464A
:103C10004346C847BDF90C00BDF908C007468445B6
:103C2000B8BF6746BDF90440BDF900E0BDF90630F4
:103C3000BDF902602246A6451D46B8BF7246BA428B
:103C4000A8BF3A46BDF90E70023AAAF80020BDF9A5
:103C50000A203946BA42B8BF11469E42B8BF35461F
:103C60008D42A8BF0D46A91EBA42AAF80210C8BFCD
:103C700017469E42C8BF3346BB42D8BF3B469D1C39
:103C80008445C8BF6046A645C8BF74468442D8BFB5
:103C90000446A01CAAF80650AAF8040000F002B8D6
:103CA000B1EC01080FBCBDE8F0870000F8B516467E
:103CB0000D4607461EF0C6FAAAB2104D0446394614
:103CC0003346284612F080FE68B10020A862E869F9
:103CD00090B920461EF0B0FA0849002808BF01201C
:103CE000C8610846F8BD054C2C21204615F060FD42
:103CF0004FF000400025A0622846F8BD20040010C7
:103D000010B50848142100F0A0FC12F025FE40B1C7
:103D10000549064A064B074CC0E90043C0E90221A9
:103D200010BDFEE7F402001071630108F965010897
:103D300045640108A1630108B0B505460C46084674
:103D4000102115F035FD28680178042908D00229D2
:103D500008D0012908D1A98A2180E98A618003E07D
:103D60000A2100E0E968616042681AB12146BDE8B5
:103D7000B0401047B0BD2DE9F04F8BB08146804672
:103D800039F8140F20B9B8F81600002800F0A68200
:103D9000D8F82C70002F4BD000244FF480763D468D
:103DA0009DB1284618F096FE204404B2284618F02B
:103DB000B6FEC10D50FA81F000B2000A704306B29F
:103DC000284617F084FD0546EAE7B6F5807F08BF70
:103DD000002C0DD04FF480300AAB90FBF6F002B20D
:103DE00000200A90A0EB0440011448461AF060FF3E
:103DF0000020ADF82800ADF82400B8F8400000F02D
:103E00000F00032840F03381384617F067FE05465F
:103E1000384617F0F5FD0246B9F9001003202B468D
:103E20000090384603F071FC0546ADF8280032E1F9
:103E3000CDF8049013F080FAB8F81410B8F81820F0
:103E40000068D8F824704FF0000B4FF0000A1144BE
:103E5000027EB8F81600A8F81810B8F81A100692E2
:103E60000844A8F81A005042059000200290002053
:103E7000CDE90308002F00F05F8100244FF4807625
:103E80003D460A946DB1284618F024FE04442846A5
:103E900018F045FE70430612284617F018FD054637
:103EA000F0E7D8F81800B6F5807F099008BF5FEA00
:103EB00004410ED04FF480300AAB90FBF6F2604222
:103EC00001B209A81AF0F4FEBDF82610BDF82400CE
:103ED00000E0010C09B2002900D5494200B20028D7
:103EE00000D5404288424FF000004FF01001C8BF9B
:103EF00001204AEA000A4FF00000D8BF01204BEA37
:103F0000000B384618F0FBFE002800F0978038467A
:103F100017F045FD00F00801CDF820B00BEAD109FB
:103F200000F004010BEA910800F0020B00EA0A001D
:103F30000790384617F046FE0646384617F0D4FC80
:103F40000446384617F05CFD0546384617F0C6FDB6
:103F50002346002E03DC012B01DAC64614E0C646D8
:103F6000B8F1000F04D0BDF92610069A914207DA85
:103F7000B9F1000F08D0BDF92610059A914203DC73
:103F80000C21039702913946079A0AEA5B01002D3A
:103F900002F0010204DC012802DADDF820B017E0AB
:103FA000DDF820B032B19846BDF92430069CA3421A
:103FB000434607DA61B19846BDF92430059CA34217
:103FC000434605DC1C460323039702933B462346E6
:103FD00000284FF000044FF0000082F00102C8BF3B
:103FE0000124002BC8BF01200023002EC8BF0123DD
:103FF000012D4FF00005B8BF01252A4305D1BDF9B9
:104000002420069DAA4280F28580214004D0BDF97B
:104010002410059A91427DDDDDF8108013EA0E012F
:1040200004D0BDF92610069A914278DA10EA090008
:1040300004D0BDF926000599884270DD38464FF45A
:10404000807118F05CFE18B98AF00100C00773D0C7
:1040500038464FF4007118F052FE18B98BF0010089
:10406000C00769D0384617F032FC074602E73846E9
:1040700017F0A8FD0546384617F036FC0346B8F998
:1040800016100C202A460090384603F03EFBBDF87F
:104090002850ADF82400384617F081FC29B20129D8
:1040A00002DB10F0010204D0820705D4B1F1FF3F1A
:1040B00002DC0021ADF828104107BDF9241001D41D
:1040C000012904DA000705D4B1F1FF3F02DC00202A
:1040D000ADF824000AA909AA404620F0E5F9BDF987
:1040E0002420BDF92810384600F047FB98F801005D
:1040F000800700F1F380B8F81800BDF828100844D4
:10410000BDF82410A8F81800B8F81A000844A8F858
:104110001A00E3E0DDF8108008F1400004E008F147
:1041200040005FEACA7101D0032100E00C2102883F
:1041300022F00F0211440180039FDDF80490002F4C
:1041400000F0CC8000200299C8F82C70C8F8180044
:10415000B8F8400061F303008021A8F84000384619
:1041600018F0CDFD4EF20105C0B1384617F022FD22
:1041700003281FD0022833D0012843D1F88A41F602
:10418000FF720023013001B2384603F0CDFCA8F8DD
:10419000360029B2F88A013802B22EE041F6FF70EB
:1041A00029B241F6FF73009008F134000A4606F088
:1041B000DCFD71E0F88A798B02220023091A0131B3
:1041C00009B291FBF2F141F6FF720C18601C01B2CA
:1041D000384603F0A9FCA8F83600601E02B20BE0D6
:1041E000B7F91A10384641F6FF72002303F09CFC21
:1041F000A8F83600B7F91A2029B23846002303F090
:1042000093FC03E041F6FF70A8F83650A8F83A0096
:10421000384617F0C7FC032810D0022824D0012804
:1042200034D1B7F91410384641F6FF72002303F079
:10423000F1FBA8F83400B7F9142021E0B88A398BD3
:1042400002220023091A013109B291FBF2F141F671
:10425000FF720C18601C01B2384603F0DBFBA8F8B3
:104260003400601E02B20BE0B7F91810384641F670
:10427000FF72002303F0CEFBA8F83400B7F9182032
:1042800029B23846002303F0C5FB03E041F6FF7076
:10429000A8F83450A8F83800B8F8340008B9A8F8DD
:1042A0003450B8F8380018B941F6FF70A8F8380053
:1042B000B8F8360008B9A8F83650B8F83A0018B976
:1042C00041F6FF70A8F83A0038460921002211F0A3
:1042D0000DFA98F8010080077FF55EAD0BB000F095
:1042E00000B830BCBDE8C08F2DE9FE43C56A002D83
:1042F00000F0BF800446B0F84000000700F0B9802D
:1043000013F01AF8814600684021467E284618F0CE
:10431000F6FC08B90020E061284617F043FC80460F
:10432000284617F047FC0746B4F8400000F00F009D
:10433000032817D00C2840F09A800020002FA0837B
:1043400057D0E68B12F0F8FF00686422407EC0F17F
:104350006401002033041BD011FB06F3304493FBAF
:10436000F2F6F7E70020B8F1000FE0835FD0A68BEC
:1043700012F0E2FF00686422407EC0F16401002078
:1043800033041DD011FB06F3304493FBF2F6F7E73C
:104390000021ADF80A000DF10A022046E183002158
:1043A00020F082F8BDF90A305B49284641F6FF72D9
:1043B00003F0BAFBBDF80A100844002102B215E070
:1043C0000021ADF8080020460022A18302A920F0B8
:1043D0006BF8BDF908305049284641F6FF7203F0EA
:1043E00019FBBDF808100022084401B22846012339
:1043F0003BE0B4F91E00C6F164014843642190FB20
:10440000F1F0E083284617F06FFA0646284617F0C9
:10441000D9FB0246B4F91E100C2033460090284602
:1044200003F073F90246E083284600211CE0B4F94A
:104430001C00C6F164014843642190FBF1F0A083A5
:10444000284617F0DDFA0646284617F047FB0346D4
:10445000B4F91C10032032460090284603F055F9A9
:104460000146A08328460022002319F0F7FEA08B06
:1044700008B100F053B8E08B0028FAD1DFB9284624
:1044800017F0A0FB0746284617F02EFA002F01DC94
:10449000012810DBB7F1FF3F07DDB0F1FF3F0ADC79
:1044A0004042002102B2284602E0284600213A4656
:1044B000012319F0D3FEB8F1000F1AD1284617F0E6
:1044C0009FFA0746284617F009FB002F01DC012858
:1044D0000FDBB7F1FF3F06DDB0F1FF3F09DC4042E3
:1044E00001B2284601E0284639460022012319F08E
:1044F000B5FE28460A214A4611F0F8F86078800790
:10450000B7D40020E062B4F8400020F00F00A4F817
:10451000400000F003B800BF01E0FFFF06BCBDE8AB
:10452000F883F0B585B00D46044620B90AF094FA38
:104530000446002854D020460AF000FB00284FD043
:1045400094F8280040074BD4002075B30290204611
:104550000AF096FA0138ADF80C0020460AF0D8FAB5
:10456000013802AA2946ADF80E006846FEF7BBFDE9
:10457000B0B32068017C890727D482690AB16946F3
:10458000904704F130014FF0FF366D46B4F850010A
:10459000013686420CD22846002201F10807FEF7B8
:1045A000CEFD00283946F1D01AE0A4F8500117E0FA
:1045B0001F2807D8DDE9002304EBC00101300A639E
:1045C0004B6307E00020A4F8500102980399206390
:1045D00001206163A4F85001606808B11DF07BFF01
:1045E00005B0F0BD70B5044608B165680CE0002563
:1045F0000AE02068294628444668204600F080F8F2
:10460000284614F0A1FF3546002DF2D170BD08B147
:10461000406870470020704708B1426800E00022FF
:10462000002122B1036801311A445268F9E70846B3
:104630007047006808444068704700680858704731
:1046400008B180687047002070470331002221F0D4
:104650000301C0E900128260704710B5044600688B
:10466000083014F0DFFE58B1216800224250421891
:1046700063685360626802B15050A168606001B124
:1046800010BDA06010BDB0B505460020B5B10C4608
:10469000A1B16868A0420DD02868083014F0C2FEAD
:1046A00068B1296863580A1D03B19850435060509F
:1046B000845003E02846FFF7D0FF00B1B0BD0020D2
:1046C000B0BD10B504460068083014F0ABFE58B118
:1046D00022680023111D4350A3688350A26802B1D1
:1046E00050506168A06001B110BD606010BD28B17C
:1046F000416809B9806808B10020704701207047FF
:1047000010B568B142688A420BD0026884688B5841
:104710008C4211D0141D085903B1185100B18350B7
:1047200010BD0268114449684160002907BF00219B
:1047300081600020885010BD836003B1D018002133
:10474000416010BD10B504460068826812B1214670
:1047500090472068006808B12060F6E710BD8068C7
:1047600008B1C08A00E0002000B27047806810B134
:10477000807E800970470020704770B5044652EA79
:1047800001001BD0204615460E4616F02BF9A068F6
:104790002A460123018A31440182418A2944418207
:1047A0002046314618F01FFE20460B21002210F053
:1047B0009DFF012803D1204618F088FD012070BD1F
:1047C0002DE9F04106464FF6FF70144622EA000834
:1047D000AEB1304662220D4618F03EF878B1074679
:1047E000006860B130462946632218F035F80106AA
:1047F00005D03B68C2B2A1B2384698470446A0B281
:1048000040EA0800BDE8F0812DE9F04F91B005467F
:10481000408CDDF868B016461F468A462A8440F070
:10482000080068842846BBF8082018F015F82F8483
:10483000044628465146BBF8082018F00DF881467A
:10484000688C4C4520F00800688400D16ED02E841E
:1048500028465146BBF8082017F0FEFF8046284640
:1048600051462F8404F007FA0068BBF8081042464E
:104870001BF012FFBBF808000B2826D147F6FF7685
:10488000B14518BFB04520D1284618F0F9F90227E4
:1048900090FBF7F4284616F0DEFF90FBF7F0B045EA
:1048A00007D1611C421C09B20FFA82F84145B8BF1A
:1048B000884647F6FF71894507D1611C013009B26E
:1048C0000FFA80F94945B8BF89461A48FFF7C5FE77
:1048D00078B30560C0E902A8C0F8109006466C469F
:1048E000BBF80800B080204605F0A4FCFF200A9029
:1048F0000020CDE9080010480390104802901048AD
:10490000CDE90060BBF800000B90DBE90301CDE9C5
:104910000610BBF8020040420C909DF8420000F0E7
:10492000FE008DF84200204605F0F8FC11B000F0C2
:1049300009B8FEE700030010216C0208C16C0208F0
:10494000E16A020830BCBDE8C08F000001481421B4
:10495000FFF77BBE000300102DE9FC4704466FEA19
:1049600002086FEA0109002701AD4FF0000A608CD0
:10497000C0F30510874280F0FD80E06800EBC701BE
:1049800049688A0100F1EC8089B201EA080201EA73
:104990000901B2FA82F2B1FA81F152094909914250
:1049A00000F0DE8050F8376010212A4630461BF0B8
:1049B0006FFC002840F0DC80304611212A461BF0B5
:1049C00067FC002840F0D480304612212A461BF0B4
:1049D0005FFC002840F0CC80304613212A461BF0B3
:1049E00057FC002840F0C480304615212A461BF0B1
:1049F0004FFC002840F0BC80304614212A461BF0B2
:104A000047FC002840F0B48030460A212A461BF0BB
:104A10003FFC002840F0AC8030466B212A461BF05A
:104A200037FC002840F0A48030466C212A461BF059
:104A30002FFC002840F09C80304601212A461BF0C4
:104A400027FC002840F09480304604212A461BF0C1
:104A50001FFC002840F08C80304602212A461BF0C3
:104A600017FC002840F08480304603212A461BF0C2
:104A70000FFC00287CD1304605212A461BF008FC9B
:104A8000002875D1304606212A461BF001FC00287B
:104A90006ED1304632212A461BF0FAFB002867D13E
:104AA00030466E212A461BF0F3FB002860D13046C9
:104AB0006D212A461BF0ECFB002859D130466921B4
:104AC0002A461BF0E5FB002848D130466A212A46D9
:104AD0001BF0DEFB002841D130466E212A461BF038
:104AE000D7FBD8BB30466D212A461BF0D1FBA8BBB3
:104AF000304637212A461BF0CBFB78BB30463821A5
:104B00002A461BF0C5FB48BB304635212A461BF020
:104B1000BFFB18BB304640212A461BF0B9FBE8B961
:104B2000304645212A461BF0B3FBB8B93046412137
:104B30002A461BF0ADFB88B9304642212A461BF0BD
:104B4000A7FB58B9304643212A461BF0A1FB28B9E0
:104B5000304649212A461BF09BFB18B14FF0020A50
:104B6000013704E7BAF1000F08BF4FF0010AF7E779
:104B70004FF0030A5FFA8AF000F000B80CBCBDE801
:104B8000F087000007480068704700BF10B5054C6B
:104B9000182104F11000FBF7A3FC0020C4E9020077
:104BA00010BD00BF94010010C0F30410072828BFF7
:104BB000072070474FF6FF71884204BF1F207047DF
:104BC00008B900207047702801D8094909E0064952
:104BD00009680029F5D0054A713880B2126882420E
:104BE000EFD9085C704700BFA80200104C04001009
:104BF000C67A020880B504481821FFF726FD03484D
:104C00000121417080BD00BFAC02001018030010EC
:104C10002DE9F041D0B116460D460446FBF7C2FB24
:104C2000DFF8C482074620462946D8F8002090477E
:104C3000D8F8002005462044314690472118381AFC
:104C4000854203D84A5D62550135F9E7BDE8F08138
:104C50002DE9F041DFF82C8214460F4619461D4617
:104C60000646D8F804209047386030B12868D8F854
:104C7000042000213044904700E000202060BDE87F
:104C8000F08100BF2DE9F04F91B01A9E1C460346FB
:104C90000A920EB1002030800020002B00F0EE8040
:104CA000002900F0EB8003911978002900F0E680DC
:104CB0001B9810F0060F17D05A1C0020012342F257
:104CC00001440D2903D803FA01F5254202D1115CF4
:104CD0000130F6E7002918BF0130002E00F0CE8029
:104CE0004FF6FF713180C9E000F00100002200257D
:104CF00001930C9000208DF83B200D9222B2012AE6
:104D0000C0F2AC80002900F0A980099000200021A9
:104D100003EB050A02950B905A48109110A94268BE
:104D2000504690478046109807944FF0FF37002672
:104D30004FF0000900250F90A0B20024089004A8AD
:104D400080E850011AF80600002856D04D480FA9F7
:104D500042685046904781460C9804F1010B58B1C7
:104D60000DF13B00414600F0C1F848B1DDE90F0606
:104D7000C8465C461090E5E70DF1100898E8500130
:104D8000039841464A4610F062FE054400B20A9973
:104D90000028C8BF0D440FFA85FC0898ACEB010150
:104DA00081423146D8BF4FF0FF317A1C08BF0F4611
:104DB000B8F10A0F18BFB8F10D0F19D0A8F59C4132
:104DC00045F2A610814230A012D30021072904D059
:104DD000425C01319045F9D10AE0DDE90F160B98EC
:104DE000C8465C461091791C08BF60460B90A6E748
:104DF0001EB9791C01D100260EE0781C0AD0029859
:104E000000284FF0000018BF0746DDF82CC018BF7F
:104E100084460BE0DDF82CC03CB1B8F10D0F08BFA3
:104E2000B9F10A0F01D0374600E0109F09981A9E89
:104E3000019B0D9D60448FB119783D440D950A2961
:104E400018BF0D290AD0595D079C0D2904D0A4EB89
:104E50000C040A297FF452AF01350D950DB15EB9EE
:104E60000BE008480DA94268184690472EB101464C
:104E70000398002210F0EBFD30800D9811B000F087
:104E800007B800BF54000010202C2E3B3A2D5F00C5
:104E900030BCBDE8C08F00002DE9F041D0B1144610
:104EA000C2B1054620468846FBF77CFA90B106461B
:104EB0002846FBF777FA07460B4841460268284622
:104EC00090478119AA19F3198B4205D3EB5DD3558D
:104ED000013FF8E7BDE8F081284421463246BDE8AD
:104EE000F04114F036BC00BF0C00002003780246ED
:104EF000232907D10020022B0BD0012B0CD053B952
:104F000001200AE0012B1CBF00207047202901D19D
:104F100002201070012070470020107070472DE9AA
:104F2000FC4104460B46CDE90011002000214FF062
:104F3000000822461DF0FEFD451C0746284614F0D9
:104F400071FA50B100F80780294622460646019BB7
:104F50001DF0F0FD3046BDE8FC81FEE72DE9F84F7D
:104F6000DDF82890984615460E4683464FF0010A14
:104F70008DB16F08584607FB08642146C8470128D1
:104F800003DA00283D46F3D406E02AEA050004EBE4
:104F900008063D1AECE70024204600F000B818BCD3
:104FA000BDE8E08F2DE9FE4FDDF848E09A46029219
:104FB000DDE91039DDF838C0DDE90CB20D460646F2
:104FC0001EF0020429D1B9F1000F0BD05FEACE71B7
:104FD0000AD01EF00C0118BF012141EA0C01A9EB17
:104FE000010901E04FF0000930219A4238BF202A20
:104FF00003D20BF802100132F7E720460EF001074A
:105000003021144647B14C4505D21F2C03D80BF86C
:1050100004100134F6E7224604465FEACE6134D537
:105020000F9F5FEA4E510DD462B19A4218BF4A45B4
:1050300008D1511E884618BFA2F10208102F18BFD0
:10504000884600E09046102F07D11EF020010BD1BA
:10505000B8F11F0F08D878210BE0022F0DD1B8F15D
:105060001F0F0AD8622104E039B1B8F11F0F04D82C
:1050700058210BF8081008F10108B8F11F0F1AD8D1
:10508000302108F101020BF808101F2A0AD8BCF1E0
:10509000000F01D02D210AE05FEA4E7104D45FEACF
:1050A0000E7103D4904606E02B2100E0202102F18E
:1050B00001080BF802100EF00100029F019420433A
:1050C0000BD1029F44464C4507D2202029463A4640
:1050D0005346B04701340137F5E7ABF10104B8F1AD
:1050E000000F09D014F8080029463A465346B04745
:1050F0000137A8F10108F2E7019858B1029844423B
:10510000E019484506D2202029463A465346B04782
:105110000137F5E7384600F000B81EBCBDE8E08F67
:105120002DE9F04F93B0DDF870C00F461D461646CE
:10513000DDF88490DDE91F23DDE91D1BBCF1000FC4
:1051400008BF29F010090A95CDE90876BCF1000FD7
:1051500004D119F4806401D000271DE009F0200477
:105160000DF12C0A84F0610404F1F6080024BCFB64
:10517000FBF6454606FB1BC707F0FE0EBEF10A0F05
:1051800038BF30253D44671CDC450AF8045003D382
:105190001F2C3C46B446EAD30BACCDE90047CDE921
:1051A000021B04A981E80C0208AB0ECBFFF7FAFE44
:1051B00013B000F000B830BCBDE8C08F2DE9F04F4F
:1051C00093B0DDE91C65DDF89080209C56EA050768
:1051D00008BF28F01008002F07AF0FC704D118F43C
:1051E000806701D0002227E008F02000219F4FF0C7
:1051F000000A0DF12C0B80F0610000F1F609304639
:10520000294622463B46FBF731F800FB146202F0C8
:10521000FE030A2B4B4638BF30231A44331B0BF8CE
:105220000A200AF1010275EB070305D3BAF11F0F3B
:10523000924606460D46E2D30BA807ABCDE9000225
:105240001E98CDE90204229804902398CDE9050820
:105250000FCBFFF7A7FE13B000F000B830BCBDE8DD
:10526000C08F9A4238BF8854704770472DE9F04F7D
:1052700091B0DDF8689092468B46DFF844640DF1FA
:10528000400800271093002918BF06461878002808
:1052900000F00982252840F09580591C00251091C6
:1052A000087820280CD023280FD02B2812D02D28A6
:1052B00015D0302818D1013145F001051091EFE7E4
:1052C000013145F008051091EAE7013145F010057C
:1052D0001091E5E7013145F004051091E0E7013157
:1052E00045F002051091DBE7A0F13002092A05D84C
:1052F0004046FDF753FE109904460CE02A2809D1D8
:1053000059F8044B01311091002C44BF45F00205BF
:10531000644200E0002408782E280DD1481C45F492
:10532000806510904A78A2F13003092B06D84046D8
:10533000FDF734FE10990AE0002008E02A2A40F028
:105340006C8059F8040B0231109120EAE0700C9047
:10535000087868384FEA7000092820D8DFE800F0A4
:105360000912161F1F1F051F1F05013145F4807507
:1053700014E04A1C10924878682852D1023145F056
:10538000C0050BE0013145F4007507E04A1C10929E
:1053900048786C2848D1023145F44075109108785E
:1053A000A0F162030E94132B19D80822DFE803F052
:1053B00040BE130A0A0A0A130A0A0A0A0A42210A02
:1053C0000AC40A1359463A465346B0471098013763
:1053D000431C10935AE725F010050A2212E02528F5
:1053E00000F0CA80102278280CD058280AD0502803
:1053F000E8D111F8012F45F48875562A01D1109192
:105400000878102240F00801582908BF45F020050F
:10541000642811D069280FD00CE000210C910146BE
:1054200096E745F0800501E045F480751146B7E741
:105430000222622025F00C05690548BF25F0010510
:10544000562812D0692801D0642838D1A8051CD468
:105450000E9B0C9CE80541D4680600F18F8028065D
:10546000D9F8000048BF00B28AE059F8040BAAEB53
:105470000702416809680F91036800910BEB07016F
:105480003046FFF7F3FE074409E109F1070020F079
:1054900007008146406859F8081B049200220592D3
:1054A0000C9A11EBE07106920E9A40EBE07381EAE0
:1054B000E071CDE90725C20F83EAE0702CE0A80572
:1054C0001AD40E990C9BE80567D4680600F1D680C3
:1054D0002806D9F8000048BF80B2D1E059F8040B83
:1054E0000DF1040CC10F0028ACE81600CDE904351D
:1054F00000D54042009058E009F107000C9B20F0D5
:1055000007008146406859F8081B06930E9B0492D9
:1055100000220592CDE90735CDE900100292304610
:1055200059463A465346FFF749FE44E0444615F0D3
:10553000020842D0012560E00C9C00202146002C8E
:1055400008BF4FF0FF3159F8048B814204D018F89E
:1055500000200AB10130F8E7A042214638BF0146D9
:1055600015F480620A9208BF014615F002000D9101
:105570000B902FD03D465AE0252023E799F80000F4
:1055800000284FEAD0710DF1040CACE81600CDE90B
:10559000043500D54042009078E059F8040B01AC86
:1055A000009000200DC4CDE90415304659463A4616
:1055B0005346FFF7B5FD074671E001203918451C39
:1055C0004A1E0E99884217D2202059465346B047AA
:1055D0002846F3E74C464FF000090D980E9907EB6B
:1055E0000905484488421ED2202059462A4653467F
:1055F000B04709F10109F0E7174619F8040B5946BD
:105600003A465346B0470137B8F1000F30D0A046B4
:105610000E9CA54243D2202059463A465346B047F5
:1056200001370135F5E7A1460C9C01300D900A9F2A
:1056300098F8000050B10FB144B1013C59462A46D8
:105640005346B047013508F10108F1E70B9888B1DE
:1056500000240DF140080D980E992F19204488421E
:105660001DD2202059463A465346B0470134F2E74E
:10567000A04614E02F460DF1400810E099F8000014
:105680000090002001AC0DC4CDE904153046594608
:105690003A465346FFF744FD074609F104091098BE
:1056A000431C1093F2E53A460020594653465745AD
:1056B00028BFAAF10102B047384611B000F002B885
:1056C0006B52000830BCBDE8C08F80B14A1E114249
:1056D0000CD1084449420138014008460C2998BFC2
:1056E0000C20B1F5004F28BF00207047FEE70020D6
:1056F0007047000010B55D4C012020705C48FEF73B
:1057000086FF014660680029BDE8104018BF1CF004
:10571000E2BE1CF0D2BE00BF2DE9F047534FB8687F
:105720001CF08AFD04467878DFF844A180F001007F
:1057300078705046FEF76BFF06464FF000084FF6B4
:10574000FF79002E00F08D8096F84200797887F876
:105750000080C0F380028A4275D000F0FB0242EA6A
:105760008101020786F84210316B1AD4002918DC37
:105770000A1916D4C00709D1716939B13046884772
:10578000316AB26A014410443162B062B16809B151
:105790003046884796F84200316B40F0080086F8A2
:1057A0004200081930634ED4F16A8842C8BF3163A1
:1057B0003046F16988470146706A814204D07268B8
:1057C00071620AB130689047D6E90B0181423ADB39
:1057D00096F84210B6F8405011F0020205D125B1FA
:1057E0004D451CBF013DA6F84050B36B2D0405D0BC
:1057F000F56BC5F1000535632BB924E093B18AB987
:10580000F56B6D42356312B9726B52423263B0630D
:1058100081F00200B16AF36286F84200306A3162B8
:10582000B06210E050463146FEF76AFFFFF762FFB4
:10583000F16809B130468847316909B13046884777
:10584000304613F081FE3878012804D15046FEF727
:10585000DEFE064675E750463146FEF7EAFE06468E
:105860006FE71CF0EFFCB860BDE8F0878002001025
:10587000DC020010B0B5054640680C4610B1214668
:10588000FFF7F8FF2A6822B128462146BDE8B0405C
:105890001047B0BD89B205F0A0B989B205F0D6B9FC
:1058A000B0B592B00446808FB0B101AD284604F087
:1058B000C1FC0C48029001200B900020CDE90900AA
:1058C00009480194089009480490A08F0C9028463C
:1058D00004F024FD12B0B0BD204612B0BDE8B040C7
:1058E0001DF0DCBC11330208F3A2000813330208D8
:1058F00010B50446406803280AD94968043121F0EC
:10590000030108446060204600F038F8204610BDCE
:10591000FEE7F0B54B6823F003027F2A02D89A080D
:10592000002308E0B2FA82F3C3F11A04C3F11903A9
:10593000E24082F0200200EBC31404EB820454F82E
:10594000385F5DB10E46C860E96046F8085F01F156
:105950000B0525F00305AE4201D0FEE7FEE7012569
:105960000769216005FA03F605FA02F13E43066174
:1059700000EB8300426911434161F0BD10B504465C
:1059800000F087F8046010BDB0B5C9B380290A469D
:105990000BD3B1FA81F24FF0FF33C2F11A0203FACE
:1059A00002F2D2430A447F2A2DD89308002200EB4A
:1059B00082054FF0FF346D6904FA03F32B400FD0DA
:1059C00093FAA3F300EBC214B3FA83F304EB83045A
:1059D000A46BACB1656825F003058D4221D2FEE7CA
:1059E0000132036904FA02F21A4009D092FAA2F2D3
:1059F000B2FA82F200EB82035B69002BE0D1FEE792
:105A000000242046B0BD0024B4EBD23FF9D1B2FA55
:105A100082F4C4F11A03DA4082F02003C4F11902BF
:105A2000C5E721461EF062FBEBE710B50446FFF721
:105A3000A5FF416841F002014160606840F001004B
:105A4000606010BD10B5044600F023F8416821F0F5
:105A500002014160606820F00100606010BD70B517
:105A6000064608460C4600F014F880B10546007959
:105A7000C0070AD0606803280AD93046294600F0DA
:105A80003AF820462946FFF733FF204670BDFEE76F
:105A9000FEE74168032905D9043921F003010844D0
:105AA00008307047FEE770B539B12AB1054648683D
:105AB0000C46C10703D1FEE7FEE7002070BD02F1EE
:105AC000100120F0030088420FD32046114600F059
:105AD00028F806462046FFF751FF7068314640F02F
