:020000040800F2
:10000000B03D0020CD02000803430008213D000858
:1000100001430008CF0800085D64000800000000EC
:100020000000000000000000000000006B49000814
:10003000030A000800000000054300086D4900089D
:10004000E7020008E7020008E7020008E7020008EC
:10005000E7020008E7020008E7020008E7020008DC
:10006000E7020008E7020008E70200084509000867
:1000700051090008E7020008E7020008E70200084B
:10008000E7020008E7020008E7020008E7020008AC
:10009000FD630008E7020008E7020008E702000825
:1000A000E7020008E7020008E7020008E70200088C
:1000B000E7020008E7020008E7020008E70200087C
:1000C000E7020008E7020008E70200080943000809
:1000D000E7020008E7020008E7020008E70200085C
:1000E000E7020008E7020008E7020008E70200084C
:1000F000E7020008E7020008E7020008E70200083C
:10010000E7020008E7020008E7020008E70200082B
:10011000E7020008E7020008E7020008E70200081B
:10012000E7020008E7020008E7020008E70200080B
:10013000E7020008E7020008E7020008E7020008FB
:10014000E7020008E7020008E7020008E7020008EB
:10015000E7020008E7020008E7020008E7020008DB
:10016000E7020008E7020008E7020008E7020008CB
:10017000E7020008E7020008E7020008E7020008BB
:10018000E7020008E7020008E7020008E7020008AB
:10019000E702000800000000E7020008E70200088C
:1001A000E7020008E7020008E7020008E70200088B
:1001B000E7020008E7020008E7020008E70200087B
:1001C000E7020008E7020008E7020008E70200086B
:1001D000E7020008E702000800F002F800F067F804
:1001E0000AA090E8000C82448344AAF10107DA4592
:1001F00001D100F05CF8AFF2090EBAE80F0013F07D
:10020000010F18BFFB1A43F00103184720790000C3
:10021000407900000A444FF0000C10F8013B13F045
:10022000070408BF10F8014B1D1108BF10F8015B4F
:10023000641E05D010F8016B641E01F8016BF9D142
:1002400013F0080F1EBF10F8014BAD1C0C1B09D199
:100250006D1E58BF01F801CBFAD505E014F8016B0B
:1002600001F8016B6D1EF9D59142D6D3704700009D
:100270000023002400250026103A28BF78C1FBD8AF
:10028000520728BF30C148BF0B607047642900F097
:100290002781782900F06081732900F0A88200206E
:1002A00070471FB506F094F91FBD10B510BD00F0E2
:1002B000D4FA1146FFF7F5FF06F024F900F0F2FA40
:1002C00003B4FFF7F2FF03BC00F0FAFA09488047D5
:1002D00009480047FEE7FEE7FEE7FEE7FEE7FEE728
:1002E000FEE7FEE7FEE7FEE704480549054A064B40
:1002F00070470000E5490008D9010008B02B002034
:10030000B03D0020B02D0020B02D002053EA020C9B
:1003100000F069802DE9F04B4FF00006002B1FBF65
:10032000B3FA83F503FA05F424FA05F65E4012BF2A
:100330001643B2FA82F502FA05F4C5F120051EBF94
:1003400022FA05FC44EA0C04203556EA044C4FEA34
:10035000144418BF641C4FF000084FF0000990428D
:1003600071EB030C39D3002919BFB1FA81F701FAF7
:1003700007F6B0FA80F700FA07F6C7F120071EBFAC
:1003800020FA07FC46EA0C062037B6FBF4FCA7EB84
:100390000507103F07F01F0BCBF120062CFA06F6DD
:1003A0000CFA0BFB44BFB3460026202FA4BF5E46C9
:1003B0004FF0000B5BEA060C08BF4FF0010B19EB86
:1003C0000B0948EB0608ABFB027C06FB02CC0BFBDF
:1003D00003CCC01B71EB0C01C1E70B460246414642
:1003E0004846BDE8F08B13B5084318BF4FF0FF3007
:1003F0000146AFF30080BDE81C4070470FB41CB548
:10040000074B06AA7B4469460090059800F0C5F9A1
:100410000020694600F0D4F91CBC5DF814FB000014
:10042000B90300002DE9F0410E4604460020206289
:100430002046E168884730B3252805D0D4E901215A
:100440009047206A401CF2E7E16820460027884771
:10045000050018D0A5F14100192802D820354FF425
:1004600000673246294620462760FFF70FFF40B15C
:10047000012804D0F61D26F007060836D8E7361DF9
:10048000D6E72846DAE7206ABDE8F08170B50C4669
:100490000546012A05D02878800600D5EA690023A0
:1004A00002E0012305E05B1C934202D2E05C0028DD
:1004B000F9D1A869E618C01AA861286A1844286208
:1004C0002846AFF3008004E0D5E9012114F8010BC0
:1004D0009047B442F8D32846AFF3008070BD0000C7
:1004E0002DE9F0410646002410687529314616A50D
:1004F00010D0AFF30080002802DA404213A507E0D5
:1005000031688A0701D512A502E0490704D511A573
:10051000012401E0AFF3008000210A2206F1240744
:1005200009E0B0FBF2FCB0FBF2F302FB1C00303040
:1005300078541846491C0028F3D123462A463046F1
:10054000BDE8F04100F0CAB8000000002D00000036
:100550002B0000002000000070B504460D46214627
:100560001068AFF300802188090502D50F4A7A444C
:1005700002E00E4A7A440E32002104F1240305E021
:1005800000F00F060009965D5E54491C0028F7D163
:1005900020780023000704D5702D02D009B1022372
:1005A00011322046BDE8704000F098B87860000035
:1005B00010B5431C02E010F8011B71B18107FAD19C
:1005C0004FF0013202C88C1A8C4314EAC211F9D0E0
:1005D000C01A0A0603D0C01E10BDC01A10BD0A04FE
:1005E00001D0801E10BD0902FCD0401E10BD032AA0
:1005F00040F2308010F0030C00F0158011F8013B40
:10060000BCF1020F624498BF11F801CB00F8013B26
:1006100038BF11F8013BA2F1040298BF00F801CBEA
:1006200038BF00F8013B11F0030300F0E480083A02
:10063000C0F0088051F8043B083A51F804CBA0E818
:100640000810F5E7121D5CBF51F8043B40F8043B6D
:10065000AFF30080D20724BF11F8013B11F801CBA2
:1006600048BF11F8012B24BF00F8013B00F801CB73
:1006700048BF00F8012B704702F0FF0343EA032252
:1006800042EA024200F002B84FF0000200B5134601
:1006900094469646203922BFA0E80C50A0E80C50A2
:1006A000B1F12001BFF4F7AF090728BFA0E80C5053
:1006B00048BF0CC05DF804EB890028BF40F8042B4C
:1006C00008BF704748BF20F8022B11F0804F18BFB9
:1006D00000F8012B70477047704770472DE9F047CD
:1006E0000D4699469246044600F1240801688806A2
:1006F00004D5E06921F01001216000E00120A8424A
:1007000001DD471B00E00027A1697A1902EB09000F
:10071000081AA0612078C00602D42046AFF30080FA
:10072000002608E0D4E901211AF806009047206A63
:10073000401C761C20624E45F4DB2078C0060AD5AA
:100740002046AFF3008006E0D4E901213020904735
:10075000206A401C2062381EA7F10107F4DC07E084
:10076000D4E9012118F805009047206A401C206256
:10077000281EA5F10105F3DC2046AFF300802078A8
:10078000000602D50220BDE8F0870120FBE700004B
:1007900001694A1C02610878704700B58FB0CDE945
:1007A00001310021059105497944CDE90310114635
:1007B0006846FFF737FE0FB000BD0000E5FFFFFF02
:1007C0000A6802F8010B0A60704710B5436913B15B
:1007D000AFF3008001E0FFF759FE012010BD127851
:1007E00000F124010A7000224A700122EDE711682D
:1007F0004FF0FF32E9E710B5203AC0F00B80B1E8C6
:100800001850A0E81850B1E81850A0E81850203A45
:10081000BFF4F5AF5FEA027C24BFB1E81850A0E84E
:10082000185044BF18C918C0BDE810405FEA827C68
:1008300024BF51F8043B40F8043B08BF7047D2077F
:1008400028BF31F8023B48BF11F8012B28BF20F820
:10085000023B48BF00F8012B7047754600F02CF8AA
:10086000AE4605006946534620F00700854618B09D
:1008700020B5FFF739FDBDE820404FF000064FF0EE
:1008800000074FF000084FF0000BAC46ACE8C00981
:10089000ACE8C009ACE8C009ACE8C00921F0070128
:1008A0008D46704710B50446AFF300802046BDE882
:1008B0001040FFF705BD0000004870479801002078
:1008C00001491820ABBEFEE7260002007047FEE794
:1008D000002070470020704710B5194C05490022D0
:1008E000204604F05CFC0449204604F04FFC002044
:1008F00010BD00BF840E00208406002010B5104CEF
:100900000146204604F042FC204604F00BFC002087
:1009100010BD00BF0020704710B50A4601460848C8
:10092000D0F8BC02D0F8140208B1012010BD044C6C
:10093000204604F034FC2046BDE8104004F097BC8B
:1009400024230020014800F096BD00BFC0260020EF
:10095000014800F090BD00BF6026002010B510498E
:100960000368446C01F18002C264A1F57E722031FB
:1009700093423CBF40F60001C4F2020124F003029E
:100980001144142281646FF0070151FA83F1B1FB25
:10099000F2F1012201F01F0102FA01F1016510BD1F
:1009A0000008024010B50379064901245430013B88
:1009B00001F1400201EB830103F01F0304FA03F38A
:1009C0000EC010BD00090240F0B500F14C0670CE1B
:1009D000656016B1D0E91645656085680468D0E9A0
:1009E0001060012700F01F00102D07FA00F0706062
:1009F0000846636008BF1046A06008BF0A46E26070
:100A0000F0BD7047EFF3108072B6FEE72DE9FF41AD
:100A100000F0E4F8DFF86C8098F8000080282ED110
:100A20001C4C08F1040700261BA598F8010086421B
:100A300014D279883B8837F8022CCDE90010204683
:100A400029460296FFF7DAFC2046FFF7B1FD81B296
:100A50002046FFF761FF06370136E6E70A49012223
:100A60000A700A49087000200949A8F80000B8F87F
:100A700004000880B8F80200C0F1F0004880BDE82A
:100A8000FF8100BF84160020F8010020F90100203A
:100A9000FA010020482B0020583A256409593A25CC
:100AA0006409533A25644E756D3A2564496E646550
:100AB000783A25640A0000002DE9F04188B0344CF2
:100AC000344E4021002240254FF000082046B04718
:100AD000204680210022B0472F4F6420B84720468F
:100AE00040210122B0470A20B84720468021012238
:100AF000B0470A20B8470320CDE9035803A9CDE940
:100B00000580204600F0B2FD6420B84702AD48F2EF
:100B100040100422294600F053F8204C20A12A4618
:100B20002046FFF76BFC2046FFF742FD81B22046CE
:100B3000FFF7F2FE6420B8470DF1070148F24700C5
:100B4000012200F03DF89DF8072018A12046FFF78C
:100B500055FC2046FFF72CFD81B22046FFF7DCFE56
:100B600002200DF1060401228DF8060048F2400033
:100B7000214600F0C3F86420B84748F240002146FF
:100B800001228DF8068000F0B9F808B0BDE8F081C8
:100B9000000800481918000849160008482B0020D2
:100BA0004754505F49443A25730A0000436F6E660C
:100BB0002056657273696F6E3A307825580A0000C6
:100BC000F8B50346FF20CDE90012292102905248D2
:100BD0001A46022300F0CEFE8FBD00BF2DE9F84F6C
:100BE0000DF1030148F24E100122FFF7E9FF9DF9D4
:100BF0000310DFF8E88001F00F0001F08002B1F18E
:100C0000FF3F88F8010088F8002001DDBDE8F88F7B
:100C10003749344D08F1040600270DF103048946D5
:100C200034498A4634498B46C0B2874249D22C485F
:100C30002146012200EBC70080B2A8479DF80300BF
:100C40002146012226F8020C274800EBC70080B29B
:100C5000A84736F8020C9DF80310012240EA012053
:100C6000214626F8020C214800EBC70080B2A847B5
:100C70009DF8030021460122308009EBC70080B2B5
:100C8000A84730889DF80310012240EA0120214640
:100C900030800AEBC70080B2A8479DF803002146C8
:100CA000012270800BEBC70080B2A84770889DF8C6
:100CB0000310013740EA0120708098F801000636E1
:100CC000B2E700200DF1030101228DF8030048F284
:100CD0004E1000F013F8BDE8F88F00BF8416002016
:100CE0005081FFFFC10B00085181FFFF5281FFFFC0
:100CF0005381FFFF5481FFFF5581FFFFF8B5034685
:100D0000FF20CDE900122821029003481A46022351
:100D100000F010FF8FBD00BF20270020FCB590F829
:100D20005820012A01D102216EE00122374B80F8C0
:100D3000582000220192009203F1F8020468B4F1F5
:100D4000A04F05D0324DAC4228D103F59F6500E09D
:100D50001546AD68A66835436D071FD403F53E758B
:100D600094422A4618BF03F5DF62B4F1A04F08BFD2
:100D70002A46956825F460460D68ADB14F6844F485
:100D800080743E4390F8387046EA47369660FA4ED3
:100D9000B44213D11C68D3F8006116E0C16D41F074
:100DA0002001C16501212CE044F48071F24C966071
:100DB000A14216D11968D3F8004119E0D3F80044D4
:100DC000D3F800652643D3F8004646EA0403DB0760
:100DD00016D19368896840F61F74A34329431943C9
:100DE0000DE0D3F80014D3F800450C43D3F80016F7
:100DF0002143C90704D1916840F61F73994391605C
:100E00000021002280F858200846FCBD0800005050
:100E100000040050F8B504460020009094F85800F3
:100E2000012804BF0220F8BD01200D4684F85800B7
:100E300020688168490726D4D5E900121F2602F0F0
:100E40001F03C2F3012200EB82029E40176BC1F325
:100E50008461994027EA06063143116381688268FC
:100E6000D20842EA9101C90740F0AC80AA6829681B
:100E7000B2F1004F0DD1002203F09DF820684169C6
:100E800041F000410BE0E06D40F02000E065012002
:100E900064E103F090F82068416921F0004141616C
:100EA000D5E90412C368042923D1016E066E2B68AC
:100EB000AD4A1946C3F3846E93FAA3F3B3FA83F3EE
:100EC0006FF3DF411F46002908BF7746C6F38466EB
:100ED000BE423AD1016E944621F0004101662B6872
:100EE00003EA0201C3F3846E93FAA3F3B3FA83F324
:100EF0002CE000F16007D5F800C09A4E57F821E0C9
:100F00000EEA060E062606EA93039A400CF0F84312
:100F10001A4342EA0E0242F0004247F821202969B2
:100F2000AA6957F8213023F080731A4347F821202B
:100F3000296957F821202B7F22F00072012B08BF6E
:100F400002F1007247F821203CE094461E46002939
:100F500008BF7646476E476EC7F38467B7420DD128
:100F6000416E21F00041416661462B6803EA0C01A5
:100F7000C3F3846E93FAA3F3B3FA83F31E460029F6
:100F800008BF7646876E876EC7F38467B7420CD179
:100F9000816E21F0004181662B6803EA0C01C3F3E6
:100FA000846E93FAA3F3B3FA83F3002908BF734660
:100FB000C16EC16EC1F38461994203D1C16E21F04B
:100FC0000041C1668168C90767D1D0F8B020D5F863
:100FD00000C0EE686449634606F018076FF3DF430C
:100FE000F9409A4319401143C0F8B0105F498E424E
:100FF00053D19CFAACF1002B4FEA9C66B1FA81F216
:10100000114608BF4FEA9C61013101F01E01092918
:101010000DD8D3B1511C4FF0806606EB826201F00F
:101020001F030121994002F0F842114319E0EBB18E
:10103000511C4FF0806606EB826201F01F03012114
:10104000994002F0F84211431CE00CF0F842711C88
:1010500002F1806201F01F030121994002F0F84281
:10106000114303EB430241EA025113E00CF0F84252
:10107000711C02F1806201F01F030121994002F00E
:10108000F842114303EB4302394B03EB0252114385
:1010900041F00071AA6802F08EFF2F6835480742C0
:1010A0005BD0B4482268354E00F500738242864614
:1010B0001D4618BF00F5C0652846B2F1A04F08BF15
:1010C00018468168B74201F0E07C02D02C4EB7424E
:1010D0001FD1090241D42B498A4202D0B2F1A04F5C
:1010E0003BD1816821F0E07141EA0C0141F400013B
:1010F00081609D489D490068B0FBF1F00C2100EB38
:10110000400001EB80000090009830B30098013857
:10111000F9E71D4EB74208BF11F0807615D01B4E7F
:101120000020B74208BF11F4800117D1B2F1A04FDF
:1011300002D0724511D02B46986820F0E07040EA4A
:101140000C0040F48000986007E0816821F0E071B5
:1011500041EA0C0141F0807181600020002184F897
:101160005810F8BD00F0FF03FFFF070000007F40AC
:10117000000020FE0000088000010050000021C394
:101180001000C09000060050000052C7000084CB41
:10119000F8B5044600200090B4B3E06D30B92046A5
:1011A00000F0EEF8002084F8580020662168886876
:1011B000800003D588686B4A104088608868C0004A
:1011C00015D468488A6800F180501040674A00F1E1
:1011D0008050886064480068B0FBF2F0022202EBA5
:1011E00040000090009810B100980138F9E7886835
:1011F000C0000BD4E06D40F01000E065206E40F0C0
:1012000001002066012002E00120F8BD00208A686C
:10121000C2F38002E36D03F01003D218E26D03D035
:1012200042F0100101209BE022F481720232E2655B
:101230008A68D20726D14F4D41F480734C4AAB42A5
:1012400003D11368D2F8005106E0D2F80034D2F886
:1012500000551D43D2F800362B43DB0712D102F1B3
:10126000F80302F53E7599422B4618BF02F5DF637D
:10127000B1F1A04F08BF2B469A68656822F47C1232
:101280002A439A60627FE36B43EA4232D4E9023533
:101290002A431A4394F8243042EA0342012B04D132
:1012A000A36A354D05EB43431A43E36A23B103F4C4
:1012B00078731A43236B1A43CB68304D2B401A4383
:1012C000CA60626B0B6923F040631A430A618A6843
:1012D000120737D4CA6894F8385044F202039A438C
:1012E000237F6D0045EA83331A43CA6022690B6984
:1012F0004AB143F4803343F6FF750B61D1F8C03037
:10130000AB431A4307E023F4803243F6FF730A61CC
:10131000D1F8C0209A43C1F8C0200A6994F840303F
:10132000012B0CD140F2FD7304F144079A43E8CF3E
:101330001A432A4332433A4342F0010201E022F0C9
:1013400001020A610A6B636922F00F02012B02D1CC
:10135000236A013B1A430A630122E16D62F3010132
:10136000E165F8BDC0FFFF5F3C000020400D0300B9
:1013700008000050000100500000FEFF0740F0FF91
:1013800010B59CB0044617A81421FFF77DF902A8F8
:101390005421FFF779F92068B0F1A04F29D14FF01F
:1013A000005013904FF40040029002A801F056FC48
:1013B00008B1FFF727FB1048016841F400510160B4
:1013C000016801F4005101910199016841F00201A5
:1013D000016017A9006800F0020001900020199038
:1013E000032018904FF4006017900198034800F014
:1013F0003DF91CB010BD00BF4C1002400004004875
:10140000B0B590F8251002292BD10168D0E910322F
:10141000846C0D6825F00E050D600D6825F0010542
:101420000D60216821F48071216002F01F0101220A
:1014300002FA01F15960D0E913134B60416D31B1EB
:101440000B6823F480730B60D0E916134B60002106
:1014500080F8241080F82520826B52B1904700213B
:1014600007E00421C163002180F82410012180F8E5
:1014700025100846B0BDF0B5D0E9101302680C681D
:10148000156803F01F036E070ED504269E4016EA6A
:10149000040709D013689B0603D4136823F00403E0
:1014A00013604E60016B2BE0AE0714D502269E4000
:1014B00016EA04070FD013689B0606D4136823F0BE
:1014C0000A031360012280F82520002280F82420DE
:1014D0004E60C16A14E02D0716D508259D402C40AA
:1014E00012D0146824F00E041460012202FA03F3EF
:1014F0004B600021C26380F8241080F82520416BE6
:1015000011B1BDE8F0400847F0BD0000002847D009
:10151000F8B504460220142784F82500274804F172
:101520000806226868CE00F108018A42244938BFC3
:10153000A0F5806038BF01F580611144B1FBF7F17F
:101540008900C4E9100147F6F071106888436169A9
:101550001843284330430843A1690843E16908431D
:10156000216A084310602046FFF7F8F9A06804F1EB
:101570004803B0F5804F06BF002060606068C5B2C8
:101580000ECB013803280D6053600BD82046FFF7BF
:1015900009FA04F15402002307CA03604A6005E017
:1015A000012070470020C4E91500E06500200121FA
:1015B000E06384F8240084F82510F8BD000402409C
:1015C000F8FBFDBFB0B5044690F8240001281DD0FB
:1015D000012084F8240094F82500012813D102206A
:1015E00084F825000020E0632068056825F00105E7
:1015F00005602046FFF7E8F92068226B01683AB1E0
:1016000041F00E010AE0002084F824000220B0BD61
:1016100021F004010160016841F00A010160A16C40
:101620000A68D20303D50A6842F480720A60616DC9
:1016300019B10A6842F480720A60016841F0010140
:1016400001600020B0BD0000B0B5044600F0EAF82B
:1016500005460548611C406818BF044400F0E2F8E4
:10166000401BA042FAD3B0BD000000202DE9FC4F82
:10167000604A0624604F4FF0000B4FF001094FF015
:101680000008904200F1384208BF05244FEAB22317
:10169000052B38BF4FEAB224002200940C6834FABC
:1016A00002F308BFBDE8FC8F09FA02F314EA030A4B
:1016B00000F09A804E6806F00304651E012D1ED8C6
:1016C0000325D0F808C0D1F80CE005FA08F90EFAA5
:1016D00008F52CEA090C4FEA420E45EA0C05856034
:1016E000C6F3001505FA02FC456825EA030343EA40
:1016F0000C036FEA090C4FF0010943600AE0032371
:10170000032CC64603FA08F36FEA030C02D1C6465F
:1017100003241EE0C3688D68022C03EA0C0305FA5B
:101720000EF543EA0503C36013D16FF003050BF018
:101730001C030F2405EA52059C4005442E6A26EA44
:1017400004040E6906FA03F323432B624E6806F085
:10175000030404FA0EF3046816F4403F04EA0C0490
:1017600043EA040303603FD0254C22F003053D44C7
:10177000236843F00103236023680F2403F001036F
:1017800001930BF00C03019E9C401E4EB446AE59D3
:1017900026EA0404009E06FA03F3234345F80C30BE
:1017A000BB684D6843EA0A04EE0258BF23EA0A0404
:1017B000124BBC60AE029C461B6843EA0A0458BF49
:1017C00023EA0A04CCF80040AE037B6843EA0A042B
:1017D00058BF23EA0A047C60ED033B6843EA0A042D
:1017E00058BF23EA0A043C600BF1040B08F102081D
:1017F000013253E700140048000401400C0401408A
:101800006010024008FCFFFF426902EA01039143B5
:1018100041EA0341816170471823002A08BF282349
:10182000C150704701480068704700BFAC2B0020D2
:1018300090F84120202A03D190F84020012A01D1BC
:10184000022118E0242280F841200268136823F066
:1018500001031360136823F4805313601368194362
:101860001160116841F0010111600021202280F80F
:10187000401080F841200846704790F84120202A07
:1018800003D190F84020012A01D1022117E024223F
:1018900080F841200268136823F001031360136885
:1018A00023F4706343EA01211160116841F00101E2
:1018B00011600021202280F8401080F84120084665
:1018C0007047000028B3B0B5044690F8410028B92D
:1018D000002084F84000204600F006FA242084F816
:1018E0004100D4E90003D4E90212056823F07063D3
:1018F000012A25F0010505600361836823F4004394
:10190000836008D141F400418160014651F8043FF1
:101910000CE00120704741F40441022A8160014635
:1019200051F8043F02D143F4006201E023F4006265
:101930000A600F4A04F11005416811434160C16813
:1019400021F40041C1602ECD114341EA0321C16061
:10195000216A29430160016841F001010160002012
:101960002021606484F84110206384F84200B0BDF7
:10197000008000022DE9F84F044690F8410020282D
:101980000DD1DDF828B0BBF1000F0AD0DDF82C80B6
:10199000B8F1000F05D094F84000012806D10225C7
:1019A00016E04FF400706064012511E001251E4629
:1019B00017468A4684F84050FFF734FF814600906E
:1019C00020464FF400410122192302F04BFA10B1D6
:1019D0002846BDE8F88F22200C990025F2B200239A
:1019E00084F84100402084F8420051486564C4F8FE
:1019F00024B06563A4F82A80884651468346A0F542
:101A000080600090204602F017FA204641464A4680
:101A100002F08EFAB0B9012E08D02068390A4A4681
:101A200081622046414602F083FA58B92068F9B233
:101A300000224346816220464021CDF8009002F00A
:101A400011FA10B184F84050AEE7608DB0F5807F98
:101A500009D3FF205146FF224FF080732085CDF837
:101A600000B0204608E0608D51464FF0007320859D
:101A7000C2B22046CDF800B002F0DEF90025FF2604
:101A80002046042100224346CDF8009002F0EAF9F6
:101A900000287FF489AF2068616A406A0870608D11
:101AA00001386085606A01306062208D411E2185A9
:101AB0000904608D21D100B32046802100224346D5
:101AC000CDF8009002F0CEF900287FF46DAF608D64
:101AD000B0F5807F07D32685009520465146FF222A
:101AE0004FF0807307E0608D51464FF00073208502
:101AF000C2B22046009502F09FF9608D0028BFD148
:101B0000204641464A4602F0EBF900287FF44CAFEC
:101B100020682021734B0025C16142681A40426051
:101B200084F8411084F8405084F8425050E700BFD8
:101B3000002400802DE9F84F044690F84100202849
:101B40000DD1DDF828B0BBF1000F0AD0DDF82C80F4
:101B5000B8F1000F05D094F84000012806D1022505
:101B600016E04FF400706064012511E001251E4667
:101B700017468A4684F84050FFF754FE814600908D
:101B800020464FF400410122192302F06BF910B1F5
:101B90002846BDE8F88F21200C990025F2B24FF0BD
:101BA000807384F84100402084F842004C4865640A
:101BB000C4F824B06563A4F82A8088465146009092
:101BC000204602F039F9204641464A4602F0B0F973
:101BD000B0B9012E08D02068390A4A4681622046F1
:101BE000414602F0A5F958B92068F9B200224346EF
:101BF000816220468021CDF8009002F033F910B1C7
:101C000084F84050B0E7608DB0F5807F09D3FF20A5
:101C10005146FF224FF0807320850020009020461F
:101C200008E0608D00214FF0007320850091C2B262
:101C30002046514602F000F90025FF262046414685
:101C40004A4602F075F900288ED1616A206811F8C1
:101C5000012B8262608D013860856162208D411E9A
:101C600021850904608D21D100B320468021002206
:101C70004346CDF8009002F0F5F800287FF474AFE9
:101C8000608DB0F5807F07D32685009520465146AC
:101C9000FF224FF0807307E0608D51464FF00073D4
:101CA0002085C2B22046009502F0C6F8608D00285B
:101CB000C4D1204641464A4602F012F900287FF47A
:101CC00053AF20682021074B0025C16142681A40AC
:101CD000426084F8411084F8405084F8425057E73D
:101CE0000020008000E800FEB0B59CB0044617A8B4
:101CF0001421FEF7C9FC02A85421FEF7C5FC206898
:101D0000184988422BD14FF480700024029002A819
:101D10000B9400F0A3FF08B1FEF774FE124D17A953
:101D2000286840F004002860286800F00400019052
:101D300008201B900320CDE91940122018904FF481
:101D40004070179001980948FFF790FCE86840F050
:101D50008040E860E86800F08040019001981CB085
:101D6000B0BD00BF007800404C10024000080048A1
:101D70001B48034940680A6810440860704700BF68
:101D8000AC2B002080B5032000F072F80F2000F08B
:101D900007F808B1012080BD00F026F8002080BDC2
:101DA00070B50F4E04467068B0B14FF47A71B1FB54
:101DB000F0F00C490968B1FBF0F001F0A9FE012533
:101DC0000F2C0AD848B94FF0FF30214600220025D9
:101DD00000F032F8346000E00125284670BD00BFF5
:101DE000000000203C00002082B00B48816841F0D8
:101DF00001018160816801F001010191019901688F
:101E000041F080510160006800F08050009000981F
:101E100002B000F01BBF00BF58100240002808D4D9
:101E200000F01F010122400902FA01F1014A42F8C3
:101E30002010704700E100E070B5134B4FF0FF3504
:101E40001B68C3F30223DC1E83F0070338BF0024A2
:101E5000042B28BF042305FA04F605FA03F3B24362
:101E60009943A1401143BDE8704004F0F9BA00BFA6
:101E700005494FF6FF030A681A4060F30A22034837
:101E800010430860704700BF0CED00E00000FA0549
:101E90000168B1F8542042F00102A1F85420012257
:101EA000C0F8D022002280F8C822B1F8540040F0D7
:101EB0000200A1F8540000207047000010B504464D
:101EC00001290FD0C9B9607A30B102F051FD0B4839
:101ED000016821F006010160D4F8D802BDE8104085
:101EE00003F098BBD4F8D80203F0FBFB607A20B172
:101EF0000248016841F00601016010BD10ED00E0EC
:101F0000B0B501F0070501EB8104090605EB850575
:101F100000EBC40400EBC50000F1100058BF04F54D
:101F2000A8702AB1012103810173190C418102E0DB
:101F30000021C38001730020B0BD01EB810200EBE2
:101F4000C202D0F8D802526A03F049BA01EB81020A
:101F500000EBC202D0F8D802D2F8642103F091BAA3
:101F600010B5044601F00700090600EB800104EB00
:101F7000C1015DBF002281F8512101F5A871012244
:101F800044BF4A741031087094F89002012804BFCD
:101F9000022010BD012084F89002206803F016FF93
:101FA000002084F8900210BDB0B50446007901F01D
:101FB0000F02824201D9012522E001F00700090643
:101FC0004FF0000500EB800104EBC1015DBF002272
:101FD00081F8512101F5A871012244BF4A741031E2
:101FE00008708D7094F89002012801D1022507E055
:101FF000012084F89002206803F077FF84F8905263
:102000002846B0BD01F0070101EB810100EBC100E2
:10201000D0F86C017047B0B5044601F0070009061E
:1020200000EB800104EBC1015DBF002581F8515137
:1020300001F5A871012544BF4D7410310A61CB70C0
:102040000870022B04BF0020087194F89002012848
:1020500004BF0220B0BD012084F89002206803F084
:10206000A1FD002084F89002B0BDB0B501F00701D9
:10207000002501EB810400EBC40404F5B2772CC702
:1020800084F8501104F5A87184F85151006803F0E8
:102090007DFF0020B0BD10B5044601F00700227995
:1020A000904284BF012010BD0A0609D401EB8101D2
:1020B000002204EBC10181F8512101F5A87106E06D
:1020C00000EB8001012204EBC1014A74103194F845
:1020D0009022087001208870012A04BF022010BDE0
:1020E00084F89002206803F039FF002084F8900201
:1020F00010BDB0B501F00704002504EB840100EB2E
:10210000C10101F8104F012401F1140781F82440A6
:102110002CC70B624C70006803F038FF0020B0BD84
:102120002DE9F84F0446006804F06EF901041DD44F
:10213000410500F1C383410400F1D083810400F123
:10214000D383C10400F1D683010500F1F7830106B2
:1021500000F10884810500F11484C00540F1EC838E
:102160002068B0F8441021F48071E3E304F5267090
:10217000009040F60F752068B0F94410B1F1FF3FB0
:1021800000F3DA83B0F8442012F00F084DD030F895
:1021900028904FEA480A5FEA094140F14C8130F843
:1021A0001A102940803120F81A1008EB880104EB3E
:1021B000C10B9BF85C110BF5A876002900F0AD80EF
:1021C0009BF85311022940F0B780B0F850105FEA35
:1021D000494301EB0002317802EBC10200F1E280D9
:1021E000B2F80674DBF868316FF39F27DA1B4FF003
:1021F000000338BF1A46CBF8682109D830F82120EF
:1022000043F60F731A404AF280035A4020F8212007
:102210005FEA496200F1A68030F8212048F2C0034D
:102220002A401A4320F821209CE00188D20625D4B8
:10223000294001F500410180B0F850100844217C8C
:1022400000EBC100616AB0F802046FF39F20E06206
:102250000844002160622046FFF76FFE207B0028C3
:1022600089D0A06A002886D12068217B41F08001B6
:10227000C9B2A0F84C10002020737CE70A0576D480
:1022800009047FF578AF0188294080310180B0F8DA
:10229000501094F85021014401EBC201B1F806340A
:1022A0006FF39F23C4F86C3193B1D4F8641179B102
:1022B000B4F8562104F0ABF8D4F86401D4F86C11EA
:1022C00008440021C4F864012046FFF73FFE20685F
:1022D00001880A053FF54FAF01F44051B1F5405F69
:1022E0003FF449AFB0F8501000F20642535A6FF372
:1022F0009F235352D4F860313F2BC0F0C681DD06D6
:102300004FF0FF364FEA531508BF06EB53158B5AB3
:1023100043EA852340F60F754FE2B0F8501032784B
:10232000014401EBC201B1F806746FF39F27002F3F
:1023300069D0BBF8562160E0317848F2C00330F82C
:1023400021202A401A4320F8212030F82120B0F81B
:10235000503000EBC1011944520447D4B1F806745F
:102360006FF39F27002F4ED0BBF85A2145E0B0F8FD
:10237000501094F85021014401EBC201B4F85621E9
:10238000B1F8063400996FF39F23C4F86C3104F060
:102390003EF820680188294080310180204600F005
:1023A000CEFBE8E6B2F80274DBF868316FF39F27E2
:1023B000DA1B4FF0000338BF1A46CBF8682109D862
:1023C00030F8212043F60F731A404AF280035A4036
:1023D00020F821205FEA49620CD530F8212048F22C
:1023E000C0032A401A4320F8212003E0B1F8027408
:1023F0006FF39F273FB1BBF85821DBF864113B46D0
:1024000004F005F800E000270BF5B27207CA3A4461
:102410003844CBF86C21CBF8640119B1DBF86001CA
:10242000B84204D931782046FFF790FD03E02068D8
:10243000314603F0ABFD5FEA09607FF59CAE206892
:1024400030F81A10294001F5004120F81A1008EB65
:10245000880104EBC102D17C02F11006012916D1DA
:1024600000219162117F002900F00A81517C5FEA0E
:1024700049625BD4012900F0F280002940F000811C
:10248000B0F8501008443178C90006315AE05FEACC
:10249000C95140F1F481B0F8501040F60F7C5FEA6A
:1024A000496501EB0003317803EBC1034FEAC10E2C
:1024B00054D4B3F80674956A6FF39F27EB1B4FF063
:1024C000000538BF2B46936240F285805FEA49439E
:1024D0000AD430F821304AF2800505F5005503EAA8
:1024E0000C032B4320F82130924640F60F751AF862
:1024F000341F012940F0B581134653F8308F53E95A
:1025000004C153F8049C394409EB0705E04543F83E
:102510000C1C43F8045C80F00281B8F1000F00F05D
:1025200070810025C4468AF80050FAE0012900F0C5
:102530009D80002940F0A480B0F850100844317804
:10254000C90002310844B0F800146FF39F21A0F8CD
:102550000014B0F8001441F400418FE0B3F80274A5
:10256000956A6FF39F27EB1B4FF0000538BF2B4692
:10257000936252D95FEA49430AD530F821304AF2D2
:10258000800505F5005503EA0C032B4320F82130A4
:10259000924640F60F751AF8341F012940F0618108
:1025A000154655F830CF55E9049155F8048C394457
:1025B00008EB0703CC4545F80C1C45F8043C80F0BB
:1025C000D4804FF00008BCF1000F8AF8008040F082
:1025D000CF80BC46CEE0527C012A63D0002A70D165
:1025E00000F580624EF00203B0F8505013445F5B78
:1025F0006FF39F275F535F5B47F400475F534EF0D5
:102600000603B0F850001A44135A6FF39F23135275
:10261000135A43F40043135253E0527C012A59D019
:10262000002A66D100F580624EF00203B0F85050E7
:1026300013445F5B6FF39F275F535F5B47F4004773
:102640005F534EF00603B0F850001A44135A6FF36C
:102650009F231352135A43F40043135249E0B0F836
:10266000501008443178C900063105E0B0F8501028
:1026700008443178C900023108440021A0F8001450
:1026800031782046FFF759FC75E5002B00F0948067
:1026900003F001068D5A06EB530345EA832340F607
:1026A0000F758CE000F580624EF00203B0F85050D8
:1026B000002713445F534EF00603B0F850001A444D
:1026C00017522046FFF739FC5FEA494040F60F7584
:1026D00018D5C6E000F580624EF00203B0F8505005
:1026E000002713445F534EF00603B0F850001A441D
:1026F00017522046FFF721FC5FEA494040F60F756C
:1027000040F1AF80307821684AF2800303F500532E
:1027100031F820202A401A4321F82020A1E0A8EB1C
:102720000C051D60537C40F60F75012B53D0002B18
:1027300040F08A804EF00603B0F85070BCF13F0FB5
:10274000034403F58063DD5B6FF39F25DD535DD3A9
:102750005FEACC654FEA5C1E4FF0FF3508BF05EB22
:102760005C1EFD5A45EA8E2569E0ACEB0908CC46B3
:10277000C5F80080537C40F60F75012B36D0002B36
:102780006AD14EF00203B0F85070BCF13F0F034421
:1027900003F58063DD5B6FF39F25DD5342D35FEA72
:1027A000CC654FEA5C1E4FF0FF3508BF05EB5C1EA1
:1027B000FD5A45EA8E254AE08B5A864E33438B52AA
:1027C00043F60F72018811404AF2800202F58052EE
:1027D00051400180CFE44EF00603B0F8505003445E
:1027E0002B4440F60F75A3F800C42DE04EF0020311
:1027F000B0F8505003442B4440F60F75A3F800C4C2
:102800002AE00023BC468AF800308BE7BCF1000FB9
:1028100014D00CF0010537F803E005EB5C054EEA37
:1028200085250EE0BCF1000F10D00CF0010537F843
:1028300003E005EB5C054EEA85250AE0FD5A45F408
:102840000045FD5240F60F75528B06E0FD5A45F4E7
:102850000045FD5240F60F75128B1FFA8CF303F002
:10286000F0FD3078216840F63F7331F820201A409F
:1028700048F2C003103B5A4021F820207BE4956ABF
:10288000B0F8501000274318317803EBC103B3F8B8
:1028900002346FF39F23ED1A38BF3D46956209D984
:1028A000516AD56A19445162E918D162314603F080
:1028B0006DFB5EE42046FFF740FB5AE42068B0F869
:1028C000441021F48061A0F84410204600F0FCF888
:1028D00020460021BDE8F84F00F01EB92068B0F88E
:1028E000441021F4804125E02068B0F8441021F420
:1028F00000511FE02068B0F8401021F00401A0F85A
:102900004010B0F8401021F00801A0F8401094F8F1
:10291000C802012806D10020002184F8C802204600
:10292000FFF7CCFA204600F0E1F82068B0F8441038
:1029300021F48051A0F84410BDE8F88F2068B0F869
:10294000401041F00801A0F84010B0F8441021F404
:102950000061A0F84410B0F8401041F00401A0F864
:10296000401009E02068B0F8441021F08001A0F880
:10297000441094F8C81281B12046BDE8F84F00F029
:10298000FBB82068B0F8441021F40071A0F844109E
:102990002046BDE8F84F00F0BBB8B0F8401041F059
:1029A0000401A0F84010B0F8401041F00801A0F870
:1029B0004010012184F8C8123C21B0F8540001EA0B
:1029C00090000121C4F8CC022046BDE8F84FFFF783
:1029D00075BA00BF0080FFFFF8B5002843D0044659
:1029E00090F8910228B9002084F89002204600F067
:1029F0003DF8032084F89102206803F06DFA2079F5
:102A0000002201230025002600EB8001C900A94215
:102A100009D067192835C7E908223E74BA62FA74EA
:102A20007B740136F3E704F5A87100220023984275
:102A300008D0C1E904220B708A61CA704A7028313B
:102A40000133F4E794E8070003F03AFA002001218B
:102A5000207384F89112A17A012903D12046FFF74F
:102A600017FA0020F8BD0120F8BD000010B596B09F
:102A7000044601A85421FDF707FE2068104988424A
:102A80001CD1002010904FF40050019001A800F0DC
:102A9000E5F808B1FDF7B6FF0A480022016841F4E5
:102AA000000101600021006800F40000009000981F
:102AB0001420FFF7C1F91420FFF7B0F916B010BDCC
:102AC000005C00405810024010B5044640790228CE
:102AD00018BFFDF797FFD4F8D802012102F0B3FD2B
:102AE000D4F8D802BDE8104002F065BD10B5044628
:102AF000407A30B12748016821F00601016001F0F9
:102B000037FFD4F8D802BDE8104002F083BD00BF03
:102B1000D0F8D80202F088BD10B5044690F89002B3
:102B2000012804BF022010BD2173012084F8900207
:102B3000206803F080FC002084F8900210BDD0F8DB
:102B4000D82200F52671104602F089BD10B5044662
:102B500090F89002012804BF022010BD012084F8E3
:102B60009002206803F040FC206803F0A1F90020E7
:102B700084F8900210BD000010B50446D0F8D802C9
:102B800002F0AFFD607A20B10248016841F0060111
:102B9000016010BD10ED00E030B3D549B0F5007F05
:102BA0000A6849D1D1F8800040F48070C1F88000F3
:102BB00002F4C060B0F5806F42D10868012262F370
:102BC0004A20322208601F48006850431E4AB0FB6A
:102BD000F2F00130421E4B69824203D213F480604E
:102BE0001046F7D1486922E0C1480168D0F880203A
:102BF00001F4C06122F48072B1F5806FC0F88020CA
:102C00001ED10168012262F34A21322201600D497E
:102C1000096851430C4AB1FBF2F101314A1E436984
:102C20008A4203D213F480611146F7D1406940050E
:102C300044BF0320704703E0022060F34A220A6089
:102C4000002070473C00002040420F00024801680D
:102C500041F4804101607047087000402DE9FC415B
:102C600004468078A14E000701D400204FE0F06CAC
:102C7000C0000BD4F06C4FF0010840F08050F064BD
:102C8000F06C00F080500190019801E04FF00008D6
:102C9000974F386840F480703860FEF7C3FD0546F2
:102CA0003868C00506D4FEF7BDFD401B0228F7D9E1
:102CB000032025E0D6F8840010F4407017D0216D71
:102CC000884211D0D6F88400D6F8841041F48031BF
:102CD00020F44070C6F88410D6F8841021F48031B6
:102CE000C6F88410C6F88400C00740F0EF80206D5D
:102CF000D6F8841021F440710843C6F884000020FF
:102D0000B8F1000F03D0F16C21F08051F16421681B
:102D1000CA0705D06268F36F23F003031A43F26712
:102D20008A0705D5A268F36F23F00C031A43F267F4
:102D30004A0705D5E268F36F23F030031A43F267C0
:102D40000A0705D52269F36F23F0C0031A43F2671F
:102D5000CA0605D56269F36F23F440731A43F2671C
:102D60008A0605D5A269F36F23F440631A43F2671C
:102D70004A0605D5E269F36F23F440531A43F2671C
:102D80000A0605D5226AF36F23F440431A43F2671B
:102D9000CA0505D5626AF36F23F440331A43F2671C
:102DA0008A0307D5A26AD6F8903023F003031A43AA
:102DB000C6F890208A0505D5E26AF36F23F4402314
:102DC0001A43F2674A050DD5226BF36F23F44013C3
:102DD000B2F5801F43EA0203F36703D1326842F47D
:102DE000801232600A050DD5626BF36F23F4400345
:102DF000B2F5800F43EA0203F36703D1326842F46D
:102E000080123260CA040DD5A26BF36F23F04073B9
:102E1000B2F1807F43EA0203F36703D1326842F4E0
:102E2000801232608A040DD5E26BF36F23F04063A9
:102E3000B2F1006F43EA0203F36703D1326842F450
:102E4000801232604A040DD5226CF36F23F0406388
:102E5000B2F1006F43EA0203F36703D1326842F430
:102E6000801232600A040DD5626CF36F23F0405378
:102E7000B2F1805F43EA0203F36703D1326842F4A0
:102E800080323260CA030DD5A26CF36F23F0404349
:102E9000B2F1804F43EA0203F36703D1326842F490
:102EA0008032326049030FD5E16CD6F8902022F4CD
:102EB0004012B1F5001F42EA0102C6F8902003D18A
:102EC000316841F480113160BDE8FC81FEF7AAFC55
:102ED000054641F28837D6F8840080073FF507AFF2
:102EE000FEF7A0FC401BB842F5D9E1E60C10024009
:102EF000007000402DE9F047002854D0724B044682
:102F00000D46186800F00F00884209D2186820F0BA
:102F10000F0028431860186800F00F00A84242D143
:102F20002068924E9A46C107B14602D14FF0000880
:102F30006BE06168032930D156F8081C890132D54D
:102F4000716872687368B44676680227C6F3416692
:102F500001F0030107EB4606854F032904BF43F246
:102F60000067C0F26E17C2F30311C3F306220131EA
:102F7000B7FBF1F15143554AB1FBF6F1914224D927
:102F8000DCF80010664611F0F00F16D0800701D56E
:102F9000A06890B14FF000081AE056F8080C02291A
:102FA00004D1800304D40120BDE8F0874005FAD5A0
:102FB00000F0AEF845498842ECD9306808214FF05E
:102FC000800861F30710306002E04FF000086646A9
:102FD0006068316821F0030108433060FEF722FC8D
:102FE000064641F2883749466068D9F8001001F07A
:102FF0000C01B1EB800F05D0FEF714FC801BB8422A
:10300000F1D939E020684E465346810706D4B8F11D
:10301000800F16D1316821F0F00111E0410703D58E
:10302000316841F4E0613160010704D5316807225D
:1030300062F30D213160A168326822F0F002114381
:103040003160196801F00F01A9421AD9186820F0FF
:103050000F0028431860FEF7E5FB064641F288376B
:103060005046DAF8000000F00F00A84207D0FEF743
:10307000D9FB801BB842F3D90320BDE8F087206854
:103080004E46410705D5E168326822F4E0621143FB
:103090003160000706D52069316821F4605141EAAA
:1030A000C000306000F034F83168094AC1F3031100
:1030B000515C01F01F01C8401349086005480068D1
:1030C000BDE8F047FEF76CBE0020024000B4C40427
:1030D00012660008000000200B4824490B4A0068D3
:1030E0000968C1F30221515C01F01F01C84070471B
:1030F00005481E49054A00680968C1F3C221515CB0
:1031000001F01F01C84070473C0000202266000803
:103110001649174A086800F00C000428104624D00D
:10312000086800F00C031348082B1ED00B6803F04E
:103130000C030C2B1CBF002070474B6803F00303EB
:10314000032B08BF02464868C0F303100130B2FBEE
:10315000F0F04A68C2F30622496850430222C1F3E4
:10316000416102EB4101B0FBF1F0704708100240F1
:103170000024F40000366E012DE9FC41002800F027
:10318000ED8004460078DB4EC00752D120788007DE
:103190007BD42078000700F19E802078400700F162
:1031A000BB802078800600F1DC80E769002F00F00A
:1031B0000482B06800F00C000C2840F04981012F17
:1031C00000F0CC80216AF06800F003028A4240F0EF
:1031D000C580616A6FF00F0202EB011100F0F0028E
:1031E0008A4240F0BB80A16A00F4FE42B2EB012F9C
:1031F00040F0B480E16A00F07842B2EBC16F40F079
:10320000AD80216BBC4A02EA015100F4C002A1F575
:1032100000118A4240F0A280616B4FF07E4200F0C4
:10322000C06002EA016101F17E41884240F096806F
:10323000C3E1B168F06801F00C01082963D00322F2
:1032400081F00C0122EA00000844B0FA80F0400945
:1032500059D16768B7F5803F07D03068B7F5A02F20
:1032600040F01C8140F480203060306840F48030B1
:103270003060FEF7D7FA05463068800386D4FEF743
:10328000D1FA401B6428F7D9CEE0B068F16800F0AD
:103290000C0004284FD001F0030180F00C0081F0F5
:1032A00002010844B0FA80F0400944D13068E16876
:1032B000002900F0BC8040F480703060FEF7B2FA64
:1032C00005463068400500F1E180FEF7ABFA401B8F
:1032D0000228F6D9A8E0D6F894006169002900F028
:1032E000928040F00100C6F89400FEF79BFA054674
:1032F000D6F8940080073FF550AFFEF793FA401BD5
:103300000228F5D990E0306880037FF53FAF606810
:1033100000287FF43BAF21E0B06DC0003BD4B06D1E
:103320004FF0010840F08050B065B06D00F0805063
:103330000190019831E03068400501D5E06868B13E
:103340002069716821F0FE4141EA006070609C488C
:103350000068FEF725FD00283FF41BAF0120BDE803
:10336000FC81D6F89800A169002900F0B08040F0F7
:103370000100C6F89800FEF755FA0546D6F8980001
:1033800080073FF512AFFEF74DFA411B03200229DB
:10339000F4D9BDE8FC814FF000088A4F3868C005B9
:1033A0000FD4386840F480703860FEF73BFA054669
:1033B0003868C00505D4FEF735FA401B0228F7D956
:1033C00032E0A768012F08D0D6F89000052F40F012
:1033D000958040F00400C6F89000D6F8900040F0C8
:1033E0000100C6F89000FEF71DFA054641F2883745
:1033F000D6F89000800700F19E80FEF713FA401B7C
:10340000B842F5D910E020F00100C6F89400FEF7AC
:1034100009FA0546D6F8940080077FF5BEAEFEF7A0
:1034200001FA401B0228F5D90320BDE8FC8120F4F5
:1034300080703060FEF7F6F90546306840057FF58C
:10344000A8AEFEF7EFF9411B03200229F5D9A0E74A
:10345000306820F080703060FEF7E4F90546022FF6
:1034600009D1306880016FD5FEF7DCF9411B0320DC
:103470000229F6D98DE73068800140F19A80FEF785
:10348000D1F9411B03200229F5D982E7206971682F
:1034900021F0FE4141EA006070607AE620F480305D
:1034A0003060306820F480203060FEF7BBF90546BC
:1034B000002F7FF4E1AE06E0FEF7B4F9411B0320D4
:1034C00064293FF666AF30688003F5D45EE620F0ED
:1034D0000100C6F89800FEF7A5F90546D6F8980051
:1034E00080077FF562AEFEF79DF9411B032002299C
:1034F000F4D94EE7001002400000E0FF20F0010088
:10350000C6F89000D6F8900020F00400C6F89000AD
:10351000FEF788F90546002F7FF468AF41F288373F
:10352000D6F89000800706D5FEF77CF9411B0320F2
:10353000B942F5D92DE7B8F1000F3FF432AEB06DC6
:1035400020F08050B0652CE604F120036FF00F05E9
:103550001E4F0FCB05EB0111F5683D402843084392
:10356000216B40EA02201A4A02EA01514FF07E42E2
:10357000A1F500110843616B40EAC36002EA0161F2
:1035800001F17E410843F060306840F080703060A7
:10359000F06840F08070F060FEF744F9044630684F
:1035A00080010AD4FEF73EF9011B03200229F6D957
:1035B000EFE6F06804490840F0600020BDE8FC81B7
:1035C0000000002000700040FCFFEEFE0C809F0118
:1035D0000000E0FF704700001CB504460068416829
:1035E00082684B0605D502F04103012B01D1E16C45
:1035F00005E00B0607D512F0020304D0216D20462A
:10360000BDE81C4008478B0610D512F4B0730DD0EE
:1036100012F0400316D094F85D30032B07D100213F
:103620000191C16801918068019001981CBD236ED1
:1036300043F00403236600230193C3680193836866
:103640000193019B02F4807312F020020CD0226ED1
:1036500042F0010222660022019282680192026811
:1036600022F040020260019A43B1226E42F0080249
:1036700022660022019282680192019A226E002A3B
:10368000D4D04268890722F0E00242604FF0010284
:1036900084F85D201CD0416821F003014160A06DD9
:1036A00040B10E498163FDF7ABFE18B1206E40F0CA
:1036B00040002066606D0028B8D008498163FDF79E
:1036C0009FFE0028B2D0206E40F0400020661CBD56
:1036D0002046BDE81C40FFF77DBF00BF1543000832
:1036E00040B1F8B50446406A30B10020206104F1D1
:1036F000140007E0012070476068B0F5827F03D0B6
:1037000004F11C00002101600025A56294F85D0011
:1037100020B9204684F85C5000F050F8022084F86C
:103720005D002068E1680268B1F5E06F41F4006374
:1037300001F4706122F04002026098BF0125B3F5E8
:10374000706F1CBF0023A3622A03D4E90135D4E9BA
:103750000467114303F4827305F404452B4406F017
:1037600002052B4407F001052B44A56905F40076FA
:103770003344E66906F038063344266A06F08006CC
:103780003344A66A06F40056334303600423626A96
:1037900003EA1543194302F010021143626B02F071
:1037A000080211434160C16921F40061C161002038
:1037B0000121206684F85D10F8BD000070B586B068
:1037C000044601A81421FCF75FFF206823498842C2
:1037D00041D12348416941F480514161416901F47B
:1037E000805100910099016841F00101016001A937
:1037F000006800F00100009005200590032004906F
:103800000220CDE90200A020019000984FF09040E6
:10381000FDF72CFF134D4FF40050134E8021102262
:103820000B2328620020C5E90063C5E90220C5E931
:103830000410C5E906002846FDF768FE08B1FDF74B
:10384000E1F8232001210022AC626565FEF7F4FA5D
:103850002320FEF7E3FA06B070BD00BF0030014040
:103860004C100240C0260020080002402DE9FC4117
:10387000044690F85C00012804BF0220BDE8FC81EA
:1038800001201D4616460F4684F85C00FDF7CAFF6E
:10389000804694F85D00012858D10120002F56D0B1
:1038A000002E54D0032084F85D0000202066E687B7
:1038B000A687A763A4F844002064C4E91300A4F811
:1038C0004600A1682068B1F5004F07D1016821F0DA
:1038D00040010160016841F48041016001684906CE
:1038E00003D4016841F0400101606168721EE36821
:1038F000B2FA82F2B1FA81F15209B3F5E06F4FEA00
:10390000511142EA010227D932B137F8021BC160D6
:10391000A763E08F0138E0876E1CE08F002855D048
:1039200020688168890708D4FDF77CFF002EF4D059
:10393000A0EB0800A842F0D362E0A16B31F8022BA3
:10394000C260A163E08F0138E087E6E70220002132
:1039500084F85C10BDE8FC814FF6FE718AB1E28FFD
:10396000022A05D337F8022BC2604FF6FE7004E03E
:103970003A780273481CA26B571CA763E28F10446D
:10398000E0876E1C4F1CE08F00B3216888688007B9
:1039900008D4FDF747FF002EF5D0A0EB0800A842A1
:1039A000F1D32DE0A06BE28F022A05D330F8022B71
:1039B000CA604FF6FE7104E0007808733946A06BC8
:1039C0000130A063E08F0844E087DCE72046294609
:1039D000424600F0EFFC08B120202066A06838B90C
:1039E000002001902068C1680191806801900198D1
:1039F000216E01200029AAD184F85D000020A6E7ED
:103A0000012084F85D000320A1E70000F8B504461A
:103A100090F85C00012804BF0220F8BD012084F862
:103A20005C0094F85D0001283FD10120002962D09C
:103A3000002A60D00320002384F85D002366E2871B
:103A4000A287A1632364C4E91333A4F84430A4F823
:103A50004630A0682268B0F5004F07D1106820F00A
:103A600040001060106840F480401060606DDFF826
:103A700090C0244F244EE568C0E90B6CC0E90D737B
:103A8000B5F5E06F536823F48043536017D883691A
:103A9000B3F5806F13D1E58F5368ED0707D123F499
:103AA00080435360E38F5B0808E0022023E043F487
:103AB000804301255360E38F05EB5303E387E38FD6
:103AC0000C32FDF77FFD28B1206E40F0100020661B
:103AD000012010E020680168490603D4016841F024
:103AE00040010160416841F020014160416841F0BE
:103AF000020141600020002184F85C10F8BD00BF85
:103B000041430008234300084743000870477047BB
:103B1000411E0020B0EB116F1CBF01207047044A0A
:103B2000F023516003490B700721906011607047CA
:103B300010E000E023ED00E090F88410012901D1AD
:103B4000022112E02421C0F8881001680A680B687D
:103B500023F0010322F000520B600A6000212022B2
:103B6000416680F88410C0F8882008467047B0B5D8
:103B7000044690F88400012804BF0220B0BD242030
:103B8000C4F8880020680568026822F0010202601B
:103B9000012284F88420826822F0606211438160EF
:103BA000204600F027FF206820210560002084F8CF
:103BB0008400C4F88810B0BDB0B5044690F8840005
:103BC000012804BF0220B0BD2420C4F8880020686A
:103BD0000568026822F001020260012284F8842054
:103BE000826822F0604211438160204600F002FFAB
:103BF000206820210560002084F88400C4F8881023
:103C0000B0BD10B5D8B10446D0F8880028B900205E
:103C100084F88400204600F027F82420C4F88800A7
:103C20002068A16A026822F00102026011B12046F8
:103C300000F002FF204600F0D9FF012801D1012049
:103C400010BD2068416821F490414160816821F0F5
:103C50002A018160016841F0010101602046BDE850
:103C6000104000F03EBF000070B59CB0044617A89D
:103C70001421FCF709FD02A85421FCF705FD20687A
:103C80002249884240D120200026029002A80896AE
:103C9000FEF7E4FF08B1FCF7B5FE1D48016941F0ED
:103CA00001010161016901F00101019101990168BE
:103CB00041F00401016017A9006800F004000190C0
:103CC00008201B900220CDE9196618900320179058
:103CD00001981048FDF7CAFC0F4D4FF440500F4BB0
:103CE0001021232228628020C5E90032C5E902168E
:103CF000C5E904062846C5E90666FDF707FC08B1D4
:103D0000FCF780FEAC62E5671CB070BD008000402F
:103D10004C10024000080048602600201C000240B1
:103D2000FEE700688169890744BF002181628169DB
:103D3000C90703D1816941F0010181617047000029
:103D40002DE9F041044600680D468169C90602D498
:103D5000002500213CE0102116464FF000086F1CA2
:103D6000C1610021826902F020020A432AD12FB1E9
:103D7000FDF758FD2DB1801BA84202D80021206814
:103D8000F0E72068426894F842308169202B0CD01B
:103D900012F4804209D111F4004106D0416841F487
:103DA00080414160FDF73EFD06462068806980063F
:103DB000E4D4FDF737FD801B1A28F6D348F020081D
:103DC0000121DCE709B92021C16148F00405012186
:103DD0008269D30505D54FF4807145F00105C161B5
:103DE0000121530505D54FF4806145F00805C161F7
:103DF0000121920503D439B90020BDE8F0814FF4C8
:103E0000007145F00205C1612046FFF78AFF206876
:103E1000084A416811404160606C2843606420207A
:103E200084F84100002084F8400084F8420001201A
:103E3000BDE8F08100E800FE70B500686FF39F21D7
:103E4000049D074E1943446841EA0241294324EA8C
:103E5000555421F0004134402143416070BD00BF02
:103E6000009C00FC2DE9F843DDF820801D46164635
:103E70000F46044603F10109206880693840C01BE1
:103E8000B0FA80F04009B04227D120462946424688
:103E9000FFF756FFF0B9B9F1000FEDD0FDF7C2FC06
:103EA0001DB1A0EB0800A842E6D92068806938401F
:103EB000C01BB0FA80F04009B042DDD1606C40F028
:103EC00020006064202084F84100002084F8400035
:103ED00084F842000120BDE8F8830020BDE8F883A3
:103EE00070B515460E4604462068806980061DD4CC
:103EF000204631462A46FFF723FFA8B9FDF792FC7A
:103F000016B1401BB042EFD9206880698006EBD41F
:103F1000606C40F020006064202084F841000020A4
:103F200084F8400084F84200012070BD002070BD7C
:103F3000F8B515460E4604464F1C20688069800778
:103F40001FD4204631462A46FFF7FAFEB8B9002FA3
:103F5000F3D0FDF767FC16B1401BB042EDD92068E5
:103F600080698007E9D4606C40F020006064202004
:103F700084F84100002084F8400084F842000120C9
:103F8000F8BD0020F8BDF0B552000023372400250D
:103F9000AA4208BFF0BD04EB1076070FB0F1204F26
:103FA0004FEA001038BF07F130064E5545F00106C4
:103FB00002358B55ECE710B5C1F30453C1F34061F2
:103FC000072400EB81009C409A404169A1431143C2
:103FD000416110BD10B58CB0002401A820210B94C4
:103FE000CDE90944FCF750FB1C4801234FF4403154
:103FF0004FF0A04280F84040C46380F83840C0E9E8
:104000000B440362042380F824408483C0E9002128
:10401000C0E90244C0E904448361FDF7B9F808B17E
:10402000FCF7F0FC0D4809A90994FCF777FE08B1EC
:10403000FCF7E8FC0421002005917F210690CDE9E2
:104040000301062001A90290054801900348FCF7EE
:10405000E1FE08B1FCF7D6FC0CB010BDF425002041
:104060000040C03AE0B512480022016841F0040166
:104070000160016801F0040101910199016841F0BA
:10408000010101600221006800F001000090009829
:104090000B20FDF7D1FE0B20FDF7C0FE0C20042104
:1040A0000022FDF7C9FE0C20BDE88C40FDF7B6BE2E
:1040B000481002402DE9F04F87B04FF00009364814
:1040C000374D0022CDF81890016841F004010160DD
:1040D000016801F0040101910199016841F020019A
:1040E0000160016801F0200101910199016841F02E
:1040F00001010160016801F001010191019901686C
:1041000041F00201016042F2D001006800F00200BB
:104110000190019821488346A8474FF09040102114
:1041200000224FF0100AA8474FF090404021012292
:104130004FF040080127A84702AD4FF40050194E38
:10414000CDF81490CDE90379029058462946B0473E
:104150000320294605905020CDE9037702904FF0C7
:104160009040B04758462946CDE90479CDE902A7E9
:10417000B047022458462946CDE90494CDE9028788
:10418000B04780200594CDE9037729460290584630
:10419000B04707B0BDE8F08F4C100240000800485F
:1041A000191800086D16000810B5124C124A134B6E
:1041B00001200021C4E90032C4E9021004F110001A
:1041C0001421FCF761FA2046FDF77CFB08B1FCF7EF
:1041D00019FC08480021FDF72BFB08B1FCF712FC85
:1041E00004480021FDF749FB18B1BDE81040FCF779
:1041F00009BC10BD20270020FBA7A030007800409C
:1042000010B51648164C00210C224FF4E133C0E9DA
:1042100008118162C0E90043C0E90211C0E904123B
:104220008161FFF7EEFC08B1FCF7ECFB0B480021C5
:10423000FFF7C2FC08B1FCF7E5FB08480021FFF7D7
:1042400096FC08B1FCF7DEFB0448FFF775FC18B1DB
:10425000BDE81040FCF7D6BB10BD00BF742700209E
:1042600000800040F8B52A48002207230F4F08219C
:1042700002244FF4E0654FF48276C0E90822C0E9D9
:104280000A234FF40073C0E90C21C0E90076C0E9AD
:104290000225C0E90442C0E90631FFF721FA18B14E
:1042A000BDE8F840FCF7AEBBF8BD00BF00300140F0
:1042B00080B50F480F49002201F06CF808B1FCF7F7
:1042C000A1FB0B480C4901F029FA08B1FCF79AFB55
:1042D00007480A4900F039FF08B1FCF793FB04488E
:1042E00001F036FA18B1BDE88040FCF78BBB80BD09
:1042F000242300200800002040000020640100204A
:10430000FEE7FEE7704700000148FFF765B900BF10
:10431000E42A0020806A0021A0F84610C187FFF738
:1043200059B9806A01684A6822F003024A60016E46
:1043300041F010010166012180F85D10FFF74AB9D4
:10434000806AFFF7E4BBBCB5846A0546FDF76AFAEC
:10435000024628680068800627D42068416821F05A
:1043600020014160416821F0020141602046642142
:1043700000F020F818B1206E40F020002066A06800
:1043800038B9002001902068C168019180680190CF
:1043900001980020E087012084F85D00206E20B1A4
:1043A0002046BDE8BC40FFF715B92046BDE8BC403B
:1043B000FFF7ACBB70B515460E464FF4C05104462E
:1043C00032462B4600F018F868B9204631462A4696
:1043D00000F078F838B920464FF4C06132462B46D9
:1043E00000F00AF828B1206E40F02000206603207B
:1043F00070BD002070BD00002DE9FE438046002006
:104400001E4617460D468DF80700FDF70BFA301AC9
:10441000C419FDF707FA8146524823210137006885
:104420004843000D60430290D8F800603046816830
:10443000294219D0B5F5C06F04D1317B8DF8071032
:104440009DF80710002FF2D0FDF7ECF9A0EB090062
:10445000A0420CD20298029901390028029108BFAB
:104460000446D8F80000E2E70020BDE8FE83D8E962
:1044700000014268B1F5827F22F0E00242600BD178
:10448000D8F80810B1F5004F02D0B1F5806F03D114
:10449000016821F040010160D8F82810B1F5005FF3
:1044A00007D1016821F400510160016841F4005115
:1044B0000160002088F85C00012088F85D0003207E
:1044C000BDE8FE83F8B515460E460446FDF7AAF989
:1044D000281A8719FDF7A6F9054622480136006813
:1044E000C0F3CB30784300902068816809060ED570
:1044F000002EFAD0FDF796F9401BB84209D2009879
:10450000009901390028009108BF0746ECE7002018
:10451000F8BDD4E900014268B1F5827F22F0E002E3
:1045200042600AD1A168B1F5004F02D0B1F5806FA9
:1045300003D1016821F040010160A16AB1F5005F7B
:1045400007D1016821F400510160016841F4005174
:104550000160002084F85C00012084F85D000320E5
:10456000F8BD00BF3C0000201CB50346013880B2F6
:104570008409042C0BD84C1EA4B2EF2C07D800924F
:104580005A1C01318BB292B2214600F001F81CBDD9
:104590002DE9F84F80469009042823D89946EF2B3F
:1045A00020D8DDF828B040464B4615468A4600F034
:1045B000D1F84FEA1B260DF102071FFA8AF0484591
:1045C00010D84446A0B2A84209D8384602218DF836
:1045D00003B08DF8026000F05BF90134F2E70AF1F4
:1045E000010AEAE7BDE8F88F70B504460020002113
:1045F00040F23F12EF23002600F0ACF8474DE4B242
:104600002F2E88BF70BD28464FF448612246FCF724
:1046100033F828464FF4486100F03AF90136EFE7E5
:10462000F0B585B03D484FF44861FCF72DF83C4C9F
:104630000A20A0474FF0904010210022FDF7ECF82F
:104640000A20A0474FF0904010210122FDF7E4F826
:104650001420A047334D3A20A847334F5520B84780
:10466000B220A8473320324E05218DF808002F488C
:10467000019001A8B047032000F09AF8B720A8479E
:104680003520B847BB20A8471920B847C020A84705
:104690002C20B847C220A8470120B847C320A8470C
:1046A0001220B847C420A8472020B847C620A847F2
:1046B0000F20B847D020A847A420B847A120B8476A
:1046C000E020A8471B4801901AA0D0E90112808978
:1046D000CDE90212ADF8100001A80E21B047E1208B
:1046E000A8471848019017A0D0E901128089CDE9A8
:1046F0000212ADF8100001A80E21B0472020A847F3
:104700001120A8471320A8472920A8473220A047F6
:104710000020FFF769FF05B0F0BD00BFA416002020
:10472000491600086D480008F54800080C0C0033D5
:1047300091480008D0040D11132B3F544C180D0B59
:104740001F230000D0040C11132C3F44512F1F1FB6
:10475000202300002DE9FC41DFF8508007462A2085
:104760001D4616460C46C047300A04218DF80760E6
:104770008DF805708DF80600380A8DF8040001A840
:1047800000F086F82B20C047280A04218DF803503A
:104790008DF801408DF80200200A8DF8000068466F
:1047A00000F076F82C20C047BDE8FC816D48000879
:1047B00010B50446362000F059F8032C88BF10BD10
:1047C0000449E00021FA00F0C0B2BDE8104000F05A
:1047D00091B800BFC0A000602DE9F04F85B014462D
:1047E00050FA83F21D4651FA93F3013A013B92B21B
:1047F0009BB2FFF7AFFFC5F30721A4F120000F9F85
:104800005FFA85F80DF1100B0DF112054843029186
:104810000021019010983C0A060A0298814222D099
:10482000019803914FF0000A08440E9931F8109056
:10483000D04515D009FA0AF0000405D58DF813709B
:104840008DF81240284605E010988DF810608DF81C
:1048500011005846022100F01BF80AF1010AE7E7AF
:1048600003990131D9E705B0BDE8F08FE0B58DF8C7
:1048700007004FF0904040210022FCF7CDFF264872
:104880000DF1070101224FF0FF33FEF7EFFF8CBD62
:104890002DE9F8430C4605464FF090404021012297
:1048A000FCF7BAFFDFF848901B4E4FF6FF78E4B1F3
:1048B0004FF6FF77444538BF2746B9F80000BAB233
:1048C000844206D2304629464FF0FF33FEF7CEFF32
:1048D00008E030462946FFF799F8706D90F82510EA
:1048E0000129FBD1E41B3D44E1E7BDE8F88300BFAB
:1048F00028000020E0B58DF807004FF090404021DF
:104900000122FCF789FF04480DF1070101224FF055
:10491000FF33FEF7ABFF8CBDE42A00202DE9FE4FEC
:10492000DDE90DAB984615460E460746DCB2C3F3EB
:1049300007292A78BAB114FA87F0B0F5A07F07D317
:104940004E4419FA86F0EF280DD80027202A08D007
:104950000C98B1B243468DE8010CB8B2FFF73CFFAA
:1049600027440135E5E7BDE8FE8F7047FDF700BA43
:10497000B0B594B0002401A81421CDE90A44CDE9D2
:104980000844FBF781FE0020FEF706F902205521BE
:1049900003251390CDE91100109106210F91CDE967
:1049A0000D0501200C904FF48030079021200690D7
:1049B00006A8FEF7E1FB18B1EFF3108072B6FEE730
:1049C0000F20CDE90444CDE902540421019001A84F
:1049D000FEF790FA18B1EFF3108072B6FEE714B04C
:1049E000B0BD00000248016841F4700101607047E9
:1049F00088ED00E0B0B5416E91B102680C4B0D4DF1
:104A00009168C1F3426192685C5C695C520F9B5C87
:104A1000AA5CC900B1FBF4F1D200B2FBF3F201E0F1
:104A200001220121A0F86810A0F86A20B0BD00BFE3
:104A3000247B00081C7B000810B5816A0A0706D594
:104A40000268836B546824F4004423435360CA070C
:104A500006D00268C36A546824F4003423435360C8
:104A60008A0706D50268036B546824F48034234314
:104A700053604A0706D50268436B546824F48024C7
:104A800023435360CA0606D50268C36B946824F4B6
:104A90008054234393608A0606D50268036C9468A9
:104AA00024F40054234393604A0610D50268436CF3
:104AB0005468B3F5801F24F4801444EA030454605E
:104AC00005D1836C546824F4C00423435360090661
:104AD00006D50168C06C4A6822F400221043486081
:104AE00010BDBCB504460020C4F89000FCF79AFE47
:104AF000054620680168090719D56FF07E404FF41C
:104B0000001100222B460090204600F083F968B186
:104B1000206850E8000F216820F0800041E8000282
:104B2000002AF5D12020C4F8880025E0206800681C
:104B3000400723D56FF07E404FF4800100222B46C2
:104B40000090204600F066F9C0B1206850E8000FE0
:104B5000216820F4907041E80002002AF5D1206815
:104B600050E8020F216820F0010041E80202002A0B
:104B7000F5D12020C4F88C00032007E02020C4F8E1
:104B80008800C4F88C000020E0662067002184F8CB
:104B90008410BCBD10B5016851E8001F026821F403
:104BA000907142E80013002BF5D10F49026852E8DA
:104BB000022F03680A4043E80224002CF6D1C16E9C
:104BC000012909D1016851E8001F026821F0100194
:104BD00042E80013002BF5D12021C0F88C100021F1
:104BE0004167C16610BD00BFFEFFFFEF70B50168F1
:104BF00004468068764ED4E903230D681843E369C0
:104C0000354066693043744E18432843714D08603F
:104C10004868A94220F4405040EA02004860A06978
:104C20001CBF226A10438A68324010438860626A5F
:104C3000C86A20F00F001043C8626848814211D052
:104C40006748814212D06748814213D0664881424A
:104C500014D0A94216D0654881424AD1644866A65C
:104C6000006813E06248006880080EE06048006851
:104C700000090AE05E480068800906E05C480068B8
:104C8000000A02E05A480068800A5A4E00F0030009
:104C900056F820605C48A94210D00121B3F5004FBE
:104CA0001AD1082E00F28B80DFE806F00548528901
:104CB0004B8989895000FEF70FFA44E00121082E44
:104CC00000F27D80DFE806F0057B1F7B177B7B7B96
:104CD0001D00FEF701FA10E0082E00F27080DFE8F8
:104CE00006F0054F596E526E6E6E5700FEF7F4F9DE
:104CF0004BE01026CEE7FEF70BFA00285CD0626A84
:104D000001E04FF40040414931F812106268B0FBF5
:104D1000F1F002EB42030121984250D31303984271
:104D20004DD8010E0002002310EB520041F10001AA
:104D3000FBF7ECFA364AA0F5407139E0FEF7D8F9F6
:104D400001E0FEF7E5F9B8B3626A01E04FF4004014
:104D50002E4931F81210B0FBF1F061684A0802EBFD
:104D600040004FF6EF72B0FBF1F0A0F1100191425C
:104D700024D84FF6F0710140C0F34200084419E016
:104D8000FEF7B6F901E0FEF7C3F9A8B1626A01E0E7
:104D90004FF400401D4931F812104FF6EF72B0FB8E
:104DA000F1F0616800EB5100B0FBF1F0A0F11001EF
:104DB000914203D82168C860002100E00121002051
:104DC000C4E91D004FF00110A066084670BD00BF89
:104DD000F369FFCF00800040FFF4FF110044004062
:104DE00000480040004C00400050004000380140A6
:104DF000881002400C7B0008010000000400000045
:104E000002000000080000000024F400F27A00080C
:104E1000FFFC0F002DE9F843DDF820900446006800
:104E2000984616460F4609F10105C1693940C91B6C
:104E3000B1FA81F14909B14229D1002DF5D0FCF731
:104E4000F1FC01460320B9F1000F1ED0A1EB0801CF
:104E500049451AD8206801684907E6D5402F18BF90
:104E6000802FE2D0C169090714D4C1690905DCD5D6
:104E70004FF4006101622046FFF78CFE002084F8A9
:104E800084002020C4F890000320BDE8F8830020AF
:104E9000BDE8F883082505622046FFF77BFE002069
:104EA00084F884000120C4F89050BDE8F883000025
:104EB00010B59B4C0A4603A0214600F042FA20465A
:104EC00010BD00BF43444320436F6E666967000016
:104ED00070B50A46D0F8BC1201B302EB820300EBB6
:104EE000830353F8184F5CB1D0F8C45202EB82062A
:104EF00005EBC6052D6AB4FBF5F606FB15447CB13F
:104F00000024C1F81442D0F8C00203697BB1D1F883
:104F1000080201F504719847002408E0032406E024
:104F20000024114600221C60002300F0E3FB204611
:104F300070BDB0B5D0F8BC5275B1044600F0D3FADC
:104F4000D4F8C012C5F80C02D5F80402CA6805F5F9
:104F5000037190470020B0BD0320B0BD70B50F4E67
:104F600081210446B0470025204601212587B0470E
:104F700020468221A4F87851B047D4F8BC02E564F9
:104F800048B1D4F8C00240688047D4F8BC0200F0B1
:104F900004FEC4F8BC52002070BD00BFCD53000811
:104FA00012200880004870470001002010B5D0F89A
:104FB000BC4284B1D0F8C01259B194F80002FF2865
:104FC00007D08B6894F8012221469847FF2084F887
:104FD0000002002010BD032010BD00000A21018046
:104FE00000487047140100204321018000487047A9
:104FF000780000204321018000487047BC00002059
:105000004321018000487047200100202DE9F04134
:1050100004464FF4077000F0C1FDD0B30546C4F854
:10502000BC02207C4026DFF8788081210222002803
:1050300008BF4FF4007620463346C047012720467C
:105040000121022233462787C047102082210322F4
:105050000823A4F87871A4F84E002046C047D4F87D
:10506000C002A4F84C700068804700200121C5F8F8
:105070001402C5F81802207CD5F804220028204626
:1050800014BF40234FF4007300F08CFA0020BDE8F9
:10509000F0810020C4F8BC020220BDE8F08100BF0E
:1050A0008D55000810B51E4C0A4603A0214600F09D
:1050B00048F9204610BD00BF43444320496E746543
:1050C0007266616365000000042008800048704734
:1050D0007801002010B5124C0A4603A0214600F0CA
:1050E00030F9204610BD00BF5669727475616C437B
:1050F0004F4D000010B50A4C0A4603A0214600F0AF
:1051000020F9204610BD00BF53544D33322056695C
:10511000727475616C20436F6D506F727400000083
:105120006402002080B5D0F8BC1261B1027C40233B
:10513000002A08BF4FF40073D1F80422012100F0C7
:1051400031FA002080BD032080BD19B1C0F8C01223
:105150000020704703207047B0B51A200880094925
:1051600008688A6880180BD0074D4C680822A91C73
:10517000FEF709FF05F1120120460422FEF703FFA6
:105180000148B0BD9075FF1F7C010020D0F8BC0223
:1051900018B1C0F804120020704703207047D0F8FF
:1051A000BC0228B1C0F81022C0F8081200207047D5
:1051B000032070477CB5D0F8BC62044600208DF80F
:1051C0000700ADF80400002E4ED008780D4610F010
:1051D00060010FD0202943D1EA88DAB1000622D439
:1051E0006878314686F8012286F80002204600F0F1
:1051F00078F82FE068780B282ED001282AD00A28CA
:105200001ED068BB94F89C02032829D101A920462E
:1052100002221DE0D4F8C0126878002200248B68B6
:105220002946984721E0D4F8C01268788B68314647
:105230009847EA8820463146072A28BF072207E018
:1052400094F89C0203280BD10DF10701204601229E
:1052500000F05FF8002408E094F89C020328F9D0DD
:105260002046294600F032F8032420467CBD80B554
:10527000D0F8BC327BB1D3F81422012162B9C3F853
:1052800014128121D3F80822D3F81032C36200F03F
:1052900031FA002100E00321084680BD80B5D0F836
:1052A000B8220AB152689047002080BD80B51346ED
:1052B0000A46002100F076F9002080BD80B5134633
:1052C0000A46002100F016FA002080BD10B58021AA
:1052D000044600F0F4F920460021BDE8104000F03B
:1052E000EEB980B513460A460321C0E95633C0F82B
:1052F0009412002100F056F9002080BD80B50521F0
:1053000000220023C0F89412002100F04BF9002085
:1053100080BD80B513460A460221C0E90633C0F8B5
:105320009412002100F0E6F9002080BD80B5042130
:1053300000220023C0F89412002100F0DBF90020C5
:1053400080BDB0B5C8B100230446257815B101343D
:105350000133FAE7DCB2022303EB44041480032296
:105360000C704A70002204783CB1DDB20233013087
:105370004C5545F001040A55F5E7B0BD032884BF3C
:10538000032070470249C00021FA00F0C0B2704704
:105390000003010378B10023C0F8CC32C0F8C0325A
:1053A000C0F8B83209B1C0F8B4120121027080F817
:1053B0009C1200F09DB80320704780B5D0F8C4025D
:1053C000FCF7F2FDBDE88040FFF7D8BF80B5D0F80C
:1053D000C402FCF7C5FDBDE88040FFF7CFBFB0B504
:1053E000044669B194F89C02032848D1D4F8B80265
:1053F0004269002A43D02046904700283FD0B0BDE4
:10540000D4F89402022833D1D4E9070188420DD997
:10541000431A114620461A46E361FFF74FFF204624
:1054200000210022002300F0BDF821E00FD1A16986
:1054300081420CD3D4F89802814208D22046002140
:1054400000220025FFF73AFFC4F89852E7E794F8E6
:105450009C02032805D1D4F8B802C16809B12046DE
:1054600088472046802100F02AF92046FFF746FFB2
:1054700094F8A002012804BF002084F8A0020020B4
:10548000B0BD10B5044659B194F89C02032828D148
:10549000D4F8B802826922B32046904708B310BD01
:1054A000D4F8940203281CD1D4E9570398420BD9AD
:1054B000C01A1146C4F85C01984238BF0346204622
:1054C0001A46FFF7F3FE0CE094F89C02032805D17E
:1054D000D4F8B802016909B1204688472046FFF791
:1054E00025FF002010BDD0F8C402FCF78BBD0000E2
:1054F000B0B504461A48002181600221C4F8C402F4
:10550000C0F8D842C1714FF4027181801549016021
:10551000FDF762FA08B1FBF775FAD4F8C402124D30
:10552000002100221823A847D4F8C40280210022B9
:105530005823A847D4F8C40281210022C023A847D9
:10554000D4F8C402012100224FF48873A847D4F88C
:10555000C402822100224FF48073A8470020B0BD0E
:1055600008280020005C0040011F000801F07F02B5
:10557000D0F8C402090602EB820200EBC20000F17F
:10558000120258BF00F5A9721078704710B5144682
:10559000D0F8C4021A462346FCF73DFDBDE8104092
:1055A000FFF7ECBE80B5D0F8C402FCF75EFDBDE8A5
:1055B0008040FFF7E3BEF8B50446012084F89C0262
:1055C0000020C4F8A4026060C4F89402D4F8B802C1
:1055D000E8B1D4F8BC1221B1426812B120460021D2
:1055E0009047204600210022402300254026FFF757
:1055F000CDFF01272046802100224023C4F86061AE
:10560000A4F86471FFF7C2FFA784266200E00325B7
:105610002846F8BD90F89C12042904BF90F89D120A
:1056200080F89C120020704780B5D0F8B81241B1C4
:1056300090F89C22032A02D1C96901B18847002051
:1056400080BD032080BD01740020704780B5D0F874
:10565000C402FDF761FABDE88040FFF78FBEB0B528
:1056600000F2AA250446284600F04DF80120C4F8AF
:105670009402B4F8B002C4F8980294F8AA0200F0B8
:105680001F01022908D001290CD089B920462946DA
:10569000BDE8B04000F05EB820462946BDE8B04005
:1056A00000F0BEB920462946BDE8B04000F04FBA30
:1056B00000F080012046BDE8B040AFF3008080B527
:1056C000D0F8C402FCF7E7FCBDE88040FFF756BE07
:1056D00080B5D0F8C402FDF739FABDE88040FFF785
:1056E0004DBE90F89C1280F89D12042180F89C1207
:1056F0000020704780B5D0F8C402FCF7FAFCBDE882
:105700008040FFF73BBE0A7802704A7842704A88B0
:1057100042808A888280C988C18070471CB504464F
:105720000020ADF8060051B1C4F8B812C96A21B121
:105730000DF106008847C4F8CC0200201CBD0320F0
:105740001CBDD0F8B8220AB1126810470320704778
:10575000FFF7BEBFBCB5044608780D4610F06000E8
:105760000DD0402802D0202840F02681D4F8B8027D
:1057700029468268204602B0BDE8B04010476878EC
:10578000092800F21981DFE810F00A002000170153
:10579000310017013900590017017300850094F892
:1057A0009C020138022800F20781E888022840F0B4
:1057B0000381D4F8A40203222146002808BF012255
:1057C00041F80C2F20460222F3E094F89C020138A5
:1057D000022800F2F18068880025012840F0F0805E
:1057E000C4F8A4522046FFF7A1FDE9E0688801282B
:1057F00040F0E5800120C4F8A402E3E0A888002876
:1058000040F0DA80E888002840F0D68068887F2859
:1058100000F2D28094F89C12032900F0CD80C5B22A
:1058200084F89E0220462946FFF710FF2046FFF726
:105830007DFD002D00F0ED800220EBE000204FF018
:10584000FF31ADF80600688801EB10210E2900F247
:10585000B380DFE801F008464DB1B15963B1B1B191
:10586000B1B1B1B16F00D4F8B412207C0A6866E01F
:10587000E888012840F0A08094F89C02411E02298B
:1058800029D2002521462046012241F8085FFFF772
:1058900040FD95E06888614D10F0FE0F287004D03F
:1058A0002046FFF713FD03258AE0C1B294F89C025D
:1058B000032849D0022862D1002900F083802046C5
:1058C0006160FFF73EFF002800F08A800546204611
:1058D000FFF7FCFC74E003286ED1211D2046012255
:1058E00067E0217CD4F8B802002950D0C16A4FE0AB
:1058F000C0B2052860D8DFE800F003787C80848897
:10590000D4F8B402426818E0207C002854D1D4F8BE
:10591000B802416B0DF10600884713E0207C002897
:105920004AD1D4F8B802016B0DF106008847014650
:10593000072032E0D4F8B402C269EAB3207C0DF14A
:1059400006019047014629E000293FD0606888425F
:1059500038D0C1B22046FFF7A1FC2978204661600B
:10596000FFF7EFFE70B305462046FFF7AFFC217945
:105970002046FFF793FC022084F89C0220E020469A
:10598000FFF7A4FC29782046FFF788FC8BE7816AA3
:105990000DF106008847014602204870EA888AB166
:1059A000BDF8060040B1904238BF0246ADF806206F
:1059B0002046FFF7AEFC02E02046FFF787FC0025FB
:1059C0002846BCBD2046FFF7B1FCF8E70220616025
:1059D0000021002584F89C022046FFF75FFC01E7C8
:1059E0002046FFF7A3FC032014E0D4F8B402826839
:1059F000A3E7D4F8B402C2689FE7D4F8B4020269FE
:105A00009BE7D4F8B402426997E7D4F8B4028269FC
:105A100093E7012084F89C02D1E700BF62020020D6
:105A2000B0B5044608780D4610F060000BD0402851
:105A300001D020286DD1D4F8B802294682682046CA
:105A4000BDE8B040104768782979B0B101282FD05F
:105A500003285ED194F89C0203282DD1688840B9B0
:105A600041F08000802804D0E88810B92046FFF774
:105A700026FE2046FFF75AFC4EE094F89C020328CD
:105A800028D0022845D141F08000802841D101F082
:105A90007F00090600EB800004EB800000F1140297
:105AA00058BF00F5AA7200201146106020464AE057
:105AB00094F89C02032831D002282AD141F08000BA
:105AC000802826D02046FFF7FAFD20468021FFF7E8
:105AD000F6FD21E001F00F0211F0800002EB8202DE
