:020000040800F2
:1000000010300010A10100088D310008352B0008C8
:1000100089310008410700080D3C0008000000007D
:10002000000000000000000000000000BD3B0008D0
:10003000510700080000000091310008C13B000892
:10004000BB010008BB010008BB010008BB010008A0
:10005000BB010008BB010008BB010008BB01000890
:10006000BB010008BB010008BB010008BB01000880
:10007000BB01000845070008BB010008BB010008E0
:10008000BB010008BB010008BB010008BB01000860
:10009000BB010008BB010008BB010008BB01000850
:1000A000BB010008BB010008BB010008BB01000840
:1000B000BB0100080000000000000000BB010008B8
:1000C000BB010008BB010008BB010008C5320008E5
:1000D000BB010008BB010008BB010008BB01000810
:1000E000BB010008BB010008000000000000000088
:1000F0000000000000000000000000000000000000
:1001000000000000BB01000800000000BB01000867
:100110000000000000000000013C0008BB010008D6
:10012000BB010008BB010008BB010008BB010008BF
:10013000BB010008000000000000000000000000FB
:10014000BB010008BB010008BB0100080000000063
:10015000BB010008BB010008BB010008BB0100088F
:10016000BB010008BB010008BB0100080000000043
:10017000BB010008BB0100080000000000000000F7
:10018000BB010008BB010008BB010008DFF80CD070
:1001900000F0C4FA0048004721DF020810300010C8
:1001A0000648804706480047FEE7FEE7FEE7FEE711
:1001B000FEE7FEE7FEE7FEE7FEE7FEE7ED3B0008B1
:1001C0008D0100082DE9F05F0546002092469B4610
:1001D00088460646814640241BE02846414647465D
:1001E000224600F01BFA53465A46C01A914110D3DA
:1001F00011461846224600F002FA2D1A67EB010854
:100200004F4622460120002100F0F9F917EB0009C2
:100210004E41201EA4F10104DFDC484631462A4647
:10022000434600F000B830BCBDE8C09FD2B201E048
:1002300000F8012B491EFBD270470022F6E710B5EB
:1002400013460A4604461946FFF7F0FF204610BD44
:10025000421C10F8011B0029FBD1801A704710B511
:10026000002200E0521C835C8C5CA34201D1002B75
:10027000F8D1D8B2E1B2401A10BD034611F8012BF3
:1002800000F8012B002AF9D1184670472DE9FE4FDE
:10029000804681EA0300C00F0C46009021F0004127
:1002A00023F00045B8EB0200A94105D240462146A3
:1002B00090461C460B46024623F00040104347D0B0
:1002C000270DC7F30A00C3F30A510290401A0190A8
:1002D00040286BDAC3F3130040F4801B0098924669
:1002E00020B10023D2EB030A63EB0B0B01985946B4
:1002F000C0F14002504600F082F906460D465046D5
:100300005946019A00F09AF910EB08006141002467
:1003100087EA115284EAE7731A4340D0009A62B325
:10032000019A012A4FEA075215DC001B61EB02011A
:100330004FF0004202EA0752CDE90042001C41F5AD
:10034000801132462B4600F09AF903B000F045B810
:1003500040462146F9E7001B61EB0201001C41F514
:10036000801300185B412018A2F5001747EB03012A
:1003700040EAD570B6196D4111E06D084FEA3606B6
:1003800045EAC0754FEA0752001B61EB0201001CF1
:1003900041F5801149084FEA3000001951413246B9
:1003A0002B4603B000F01CB800F05AB900980122A7
:1003B00040000023D0EB020263EBE073009821467B
:1003C0004FEAE074B8EB000061EB0401E9E783F069
:1003D00000435BE781F0004158E730BCBDE8C08FC7
:1003E00030BCBDE8C04FFFF7DFBF2DE9FE4F81EA0B
:1003F000030404F0004421F0004100944FF0000B8E
:1004000023F0004350EA01045ED052EA03045BD0BB
:10041000C3F30A54C1F30A552C44A4F2F3340194F3
:10042000A0FB0254C1F3130141F48011C3F3130381
:1004300043F4801301FB024400FB034E840A970A35
:1004400044EA815447EA8357A4FB076802958D0A62
:1004500005FB07854FEA932C04FB0C542705029DEE
:100460004FEA065847EA1637B5EB08056EEB070C5E
:10047000870E920E47EA811742EA8312A7FB020118
:10048000B6EB0B0164EB00042B0D43EA0C335E1852
:1004900044EB1C50DA465146E7FB0201C5F3130456
:1004A0004FEA0B3343EA14534FEA0432019C43EA08
:1004B0000603A4F10C040294009CCDE900B400F002
:1004C000DEF803B000F003B800200146F9E730BCC5
:1004D000BDE8C08F2DE9F04D81EA030404F0004B24
:1004E00021F0004514464FF0000A23F0004150EA85
:1004F000050220D054EA01021DD0C5F30A57024676
:10050000C5F31303C1F31300C1F30A5640F4801579
:1005100043F48013A7EB0608101BD64608F2FD38FB
:1005200073EB050002D308F1010801E092185B416A
:10053000B8F1000F03DA00200146BDE8F08D00207D
:100540004FF48011064684460EE0171B73EB050737
:1005500005D3121B63EB050306434CEA010C490863
:100560004FEA300092185B4150EA0107EDD152EAA0
:10057000030012D082EA040083EA0501084305D093
:10058000101BAB4106D20122002306E000224FF0EF
:10059000004302E06FF0010253101AEB06004CEB2F
:1005A000085110EB0A0041EB0B01BDE8F04D00F0E3
:1005B00057B80EB540F2334102910021CDE9001148
:1005C0000A460B4600F05BF803B000BDC1F30A52C7
:1005D00010B5C1F3130140F2FF3341F480119A4288
:1005E00001DA002010BD40F233439A42A2F23342B6
:1005F00003DC524200F012F810BD904010BD202ADA
:1006000004DB203A00FA02F1002070479140C2F169
:10061000200320FA03F3194390407047202A04DB9B
:10062000203A21FA02F00021704721FA02F3D0406B
:10063000C2F120029140084319467047202A06DB88
:10064000CB17203A41FA02F043EAE07306E041FAA0
:1006500002F3D040C2F1200291400843194670478E
:1006600010B5141E73F1000408DA401C41F10001BA
:1006700092185B411A4301D120F0010010BD2DE911
:10068000F04D92469B4611B1B1FA81F202E0B0FA08
:1006900080F220329046FFF7B2FF04460F4640EA50
:1006A0000A0041EA0B0153465A46084313D011464B
:1006B00053EA010019D0C8F140025046FFF7AEFFDF
:1006C00005460E46504659464246FFF798FF0843F6
:1006D00005D0012004E020463946BDE8F08D002019
:1006E000054346EAE0762C4337430A986305E40A5B
:1006F000A0EB08000022FD0A44EA47540A3002D564
:1007000000200146E9E7010510196941DDE90845C6
:1007100000196941BDE8F04DA2E70000064C074D05
:1007200006E0E06840F0010394E8070098471034C1
:10073000AC42F6D3FFF72EFD209A0308509A030827
:10074000FEE7000040F22850C1F2000000F084B83B
:1007500070470000EFF3108072B600BFFEE70000A4
:10076000B0B582B011F062FE11F0B8FE0DF014FECB
:100770000A210A22044627F019FF2046F0213222DE
:1007800027F088FF47F20571C0F6000120460722D6
:10079000002322F021FE20461FF0BEF9092100228D
:1007A0000023054622F094FF0FA1284620F0A2FB6B
:1007B00011F03CFE11F092FE1FF0AEF90CA10546BF
:1007C00020F098FB284609210022002322F080FF18
:1007D0006FF0130C204629460B220023CDF800C0F1
:1007E00022F0A2FF02B0B0BD427574746F6E0000BB
:1007F00048656C6C6F20776F726C6421000000009C
:1008000080B590F82510022921D10168D0F838E090
:10081000D0E910C30A68BEF1000F22F00E020A6090
:100820000A6822F001020A6003F01C014FF0010285
:1008300002FA01F1CCF804104FF0000180F82520F5
:1008400080F8241001D0F0470021084680BD042123
:10085000C1630121084680BDB0B50268D0E910C46B
:10086000DCF80050136804F01C0E590713D504215E
:1008700001FA0EF414EA05010DD01168890603D4BB
:10088000116821F004011160CCF80440016BD1B370
:10089000BDE8B0400847990719D5022101FA0EF4C6
:1008A00014EA050113D01168890606D4116821F0F5
:1008B0000A011160012180F82510CCF80440C16ABA
:1008C000002280F82420F1B1BDE8B04008471907A4
:1008D00019D5082101FA0EF1294008BFB0BD1168F1
:1008E00021F00E011160012101FA0EF2CCF8042072
:1008F000C16380F82510416B002280F8242011B1DB
:10090000BDE8B0400847B0BD002804BF01207047D3
:100910002DE9F04740F2000CC4F2020C02684FF6D9
:10092000F8310CF5816ECBF6FD71724538BF01F5DB
:1009300080614CF6CD431144CCF6CC43A1FB0313AC
:100940006FF003010CF5806701EA930A4FF0020390
:10095000D0E90249D0F810803CBF0027C4F202075A
:10096000C0E9107A80F82530136847F6F077BB436A
:100970002343D0E9057643EA090343EA0803D0E9B3
:1009800007513B4333432B431943B4F5804F116068
:1009900015D04FF495640AF01C010F23724538BF3F
:1009A000A8245CF804208B409A434CF80420426849
:1009B0005CF8043002FA01F119434CF804100021EC
:1009C0000122C16380F8252080F82410BDE8F0479B
:1009D00008467047F0B590F824C0BCF1010F35D03F
:1009E0004FF0010E80F824E090F825C0BCF1010F13
:1009F00029D14FF0020C80F825C04FF0000CC0F850
:100A00003CC0D0F800C08468056B066CDCF8007050
:100A1000102C27F00107CCF80070406C00F01C008F
:100A20000EFA00F070600846CCF8043004BF10469F
:100A30000A46CCF80800CCF80C20DCF800003DB1E8
:100A400040F00E000CE0002180F824100220F0BDE0
:100A500020F00400CCF80000DCF8000040F00A00B0
:100A6000CCF80000DCF8000040F00100CCF80000F9
:100A70000020F0BDB0B5044600F00EF9054640F286
:100A80000000C1F200000078611C18BF044400BFE0
:100A900000F002F9401BA042FAD3B0BD2DE9F04F9F
:100AA00084B00C680190002C00F0E280019841F2C3
:100AB000000600F13842C4F600068E464FEAB2271F
:100AC0000721B04208BF0421042F4FF000054FF06A
:100AD00001074FF000064FF0000838BF4FEAB2217F
:100AE0000091CDF808E00DE0DEF8004008F10108C3
:100AF00034FA07F106F1020607F1010705F10405D2
:100B000000F0B680A7F1010A012000FA0AF214EA07
:100B10000209E9D0DEF804C00CF0030BABF10104CC
:100B2000012C17D80198744681680323E468B34008
:100B30009943B4402143816041684FEA480E914394
:100B4000CCF3001202FA0AF20446D8431143616062
:100B50000CE000BF0321B140019CC843BBF1030F6F
:100B6000B64603D1B6464FF0030B23E0E168029B83
:100B700001409A68BBF1020F02FA0EF241EA02014B
:100B8000E16017D16FF0030101EA5A01214405F039
:100B90001C040F22D1F820C002FA04FB1A692CEAC7
:100BA0000B0CA24042EA0C02019C0A62D3F804C07A
:100BB0000CF0030B21680BFA0EF201401143216087
:100BC000DDF808E01CF4403F8ED041F26000C4F232
:100BD0000200016840F2004C41F00101016001682F
:100BE000C4F2010C01F00101039103992AF0030101
:100BF0004FF6084A6144CFF6FF7A05F00C030F2048
:100C000051F80A2000FA03F40098A24300FA03F313
:100C10001A4341F80A20DCF80810DEF8042041EA03
:100C2000090340F20C40D40258BF21EA0903CCF872
:100C30000830C4F201000168940241EA090358BF78
:100C400021EA09030360DCF80410940341EA090374
:100C500058BF21EA0903CCF80430DCF80010D203B5
:100C600041EA090358BF21EA0903CCF800303BE709
:100C700004B000F000B830BCBDE8C08F426902EAA1
:100C80000103914341EA0341816170471823002A1F
:100C900008BF2823C150704742F20800C1F200008B
:100CA0000068704790F84120202A03D190F8402036
:100CB000012A01D102207047242280F841200268D5
:100CC000136823F001031360136823F48053136047
:100CD000136819431160116841F00101116020216E
:100CE00080F84110002180F840100846704700004D
:100CF00090F84120202A03D190F84020012A01D108
:100D000002207047242280F841200268136823F0F3
:100D100001031360136823F4706343EA0121116037
:100D2000116841F001011160202180F8411000217B
:100D300080F8401008467047002804BF0120704723
:100D400010B5044690F8410028B9002084F840000E
:100D5000204600F0FFF9242084F8410094E80910AF
:100D6000E2680168012A21F00101016023F070614D
:100D70000161816821F40041816006D14CF4004199
:100D80008160014651F8043F0AE04CF4044181605F
:100D9000014651F8043F022A02D143F4006201E007
:100DA00023F400620A60416804F1100C41F0007104
:100DB00041F400414160C16821F40041C1609CE8F8
:100DC0000E10114341EA0321C160216A41EA0C017E
:100DD0000160016841F00101016000202021606490
:100DE00084F84110206384F8420010BD2DE9F047DB
:100DF00082B0044690F84100202803D194F84000C6
:100E0000012803D1022002B0BDE8F08701201F466F
:100E10001546884684F84000FFF73EFF21680646E5
:100E20008A69120425D4222084F84100102084F815
:100E3000420000206064656267856063628D49F6E8
:100E4000000040F2000ACFF60040B2F5807FC0F209
:100E5000FF1A24D351F8043F42466FF39F22034008
:100E600013430AF51057FF2226E000BF88690004EB
:100E7000D9D5FFF711FF801B21681A28F6D388699E
:100E80000004F3D5606C40F020006064202084F8FA
:100E90004100002084F8420084F840005FE0628D49
:100EA000434651F8047F6FF39F23D5B2074043EACE
:100EB00005433B430AF592373B430B602285618D26
:100EC0000A9F002945D06FF39F284FF0FF0900F5D6
:100ED00080650FE0618D2068218550F8042FC9B22C
:100EE0002A4048EA014111434FF00072114301606A
:100EF000608D70B320463946324601F043FF70BB27
:100F00002068616A406A0870606A218D0130013989
:100F100060622185608D0904A0F101006085608D0B
:100F2000E6D10028E4D02046802100223B460096EE
:100F300001F0B6FE98B9608DB0F5807FCAD3206805
:100F4000A4F8289050F8041F5246294041EA0801AD
:100F5000CCE720463946324601F07CFF18B101202B
:100F600002B0BDE8F08720682021C16142684EF6DA
:100F70000003CFF600631A404260002084F841105D
:100F800084F8420084F8400002B0BDE8F087000019
:100F90002DE9F04782B0044690F84100202803D1A3
:100FA00094F84000012803D1022002B0BDE8F08788
:100FB00001201D461746884684F84000FFF76CFE66
:100FC000216806468A69120421D4212084F8410050
:100FD000102084F8420000206064676265856063C9
:100FE000608D49F6000E42F2000CCFF6004EB0F5CF
:100FF000807FC0F2002C20D3FF2342F20000238523
:10100000C0F200101DE000BF88690004DDD5FFF7C5
:1010100043FE801B21681A28F6D388690004F3D5A3
:10102000606C40F020006064202084F841000020C3
:1010300084F8420084F8400073E0638D2385ABB1EF
:10104000604617F8015BDAB28D626762678D013F17
:1010500067855F1E278547466FF39F2751F8045F1A
:10106000384305EA0E0340EA024008E051F8042F35
:1010700040466FF39F2002EA0E0210436346184376
:101080000860608D0A9F002845D06FF39F284FF0BD
:10109000FF090EF58065ACF5903A0FE0618D206890
:1010A000218550F8042FC9B22A4048EA0141114372
:1010B0004FF0007211430160608D60B320463946E5
:1010C000324601F005FF60BB606A216810F8012B11
:1010D0008A626062608D01386085208D411E2185A5
:1010E000608D0904E8D10028E6D020468021002246
:1010F0003B46009601F0D4FD98B9608DB0F5807F35
:10110000CCD32068A4F8289050F8041F52462940F8
:1011100041EA0801CEE720463946324601F09AFE00
:1011200018B1012002B0BDE8F08720682021C1611C
:1011300042684EF60003CFF600631A40426000207A
:1011400084F8411084F8420084F8400002B0BDE801
:10115000F0870000B0B59EB00446002502A85C21CF
:101160001D95CDE91B55CDE91955FFF766F82068A7
:1011700045F20041C4F20001884201D01EB0B0BD6A
:101180004020029002A80E9500F02EF9002818BF0A
:10119000FFF7E0FA41F24C04C4F20204206819A9F6
:1011A00040F002002060206800F0020001900198E9
:1011B000C020199012201A9000201B9003201C9030
:1011C00004201D9040F20040C4F60000FFF766FCCA
:1011D000E06840F40010E060E06800F40010019066
:1011E00001981EB0B0BD000040F2000042F20801BC
:1011F000C1F20000C1F2000100780A6810440860E2
:101200007047000080B5032000F08AF80F2000F03E
:1012100009F800281CBF012080BD00F02BF8002039
:1012200080BD000070B540F20006C1F200063178C2
:10123000E1B1044640F26400C1F200004FF47A725A
:101240000068B2FBF1F1B0FBF1F001F061FA0F2C94
:101250004FF0010508D838B94FF0FF302146002281
:10126000002500F031F87460284670BD012528463D
:1012700070BD000082B041F25800C4F202008168E3
:1012800041F001018160816801F001010191019942
:10129000016841F080510160006800F080500090CA
:1012A000009802B070470000002848BF704700F067
:1012B0001F01012202FA01F14EF200124009CEF2A2
:1012C000000242F82010704710B54EF60C5CCEF2CA
:1012D000000CDCF80030C3F3022E8EF00704042C5F
:1012E00028BF0424BEF103034FF0FF3E0EFA04F4BE
:1012F00038BF0023A14399400EFA03F39A4300F04C
:101300000F03043B1143634409010C3300F16042B5
:10131000B0F1FF3FC8BF02F56443197010BD000073
:101320004EF60C51CEF200010A684FF6FF031A4048
:1013300060F30A2242F0806040F0FD700860704760
:1013400047F20001C4F200010A68B0F5007F02F420
:10135000C06036D1B0F5007F31D00868012262F359
:101360004A20086040F26400C1F2000000683222A6
:1013700050434DF68362C4F21B32A0FB0202900C74
:101380004A69431C18BF12F4806213D04A690028CE
:1013900018BF12F480620DD04A69012818BF12F4F8
:1013A000806207D04A69022804D012F48062A0F15A
:1013B0000400E5D14869400544BF03207047002080
:1013C0007047B0F5806FFAD00868022262F34A20B5
:1013D000086000207047000047F20000C4F20000DF
:1013E000006800F4C06070472DE9F04381B0044606
:1013F000407841F288070007C4F2020720D5606CEC
:1014000078B1B0F5400F14D0B0F5000F40F02A814C
:1014100057F87C0C40F4803047F87C0C4FF4000007
:1014200009E0201D002101F0B5FE814650B9606C35
:1014300001E04FF44000396821F44001084338606E
:101440004FF00009A078800755D557F8300CC00040
:101450000ED457F8300C4FF0010840F0805047F898
:10146000300C57F8300C00F080500090009801E0EC
:101470004FF0000847F20005C4F20005286840F468
:1014800080702860FFF708FC064600BF2868C0058A
:1014900007D4FFF701FC801B0228F7D94FF003099E
:1014A00020E0B9F1000F1DD1B86810F4407011D0E0
:1014B000A16D88420BD0B868B96820F4407041F43F
:1014C0008031B960B96821F48031B960B860C00773
:1014D00040F0CF80B868A16D20F4407008434FF011
:1014E0000009B860B8F1000F05D057F8300C20F0B3
:1014F000805047F8300C2168C80712D1880718D4EB
:1015000048071ED4880624D488052AD4480530D438
:10151000480636D408063CD4C80542D4080348D44B
:1015200059E03868226A20F00300104338608807C9
:10153000E6D53868626A20F00C001043386048072E
:10154000E0D53868A26A20F0300010433860880681
:10155000DAD53868E26A20F44060104338608805C4
:10156000D4D53868E26B20F4402010433860480539
:10157000CED53868226C20F44010104338604806FD
:10158000C8D53868226B20F44050104338600806F4
:10159000C2D53868626B20F4404010433860C805FB
:1015A000BCD53868A26B20F4403010433860080383
:1015B00011D53A68A06C22F040620243B0F1806F0E
:1015C0003A601DD0B0F1006F05D157F87C0C40F4A3
:1015D000801047F87C0C480325D53A68E06C22F06F
:1015E00040620243B0F1806F3A6014D0B0F1006FF6
:1015F00019D157F87C0C40F4801047F87C0C12E0AD
:10160000201D012101F0C6FD2168002818BF814678
:101610004803E2D407E0201D012101F0BBFD216851
:10162000002818BF8146480410D53868226D20F084
:1016300040501043B2F1805F386007D1201D022175
:1016400001F0A8FD2168002818BF8146080405D5CF
:101650003868616D20F0804008433860484601B02A
:10166000BDE8F0834FF00109A07880073FF5EDAEAB
:1016700041E7FFF711FB064641F288354FF00309B9
:10168000B86880073FF526AFFFF706FB801BA8422E
:10169000F6D927E72DE9F04381B0002867D042F260
:1016A0000008C4F202080446D8F800000D4600F015
:1016B000070088420CD2D8F8000020F00700284329
:1016C000C8F80000D8F8000000F00700A8424ED18A
:1016D000206841F2080910F00201C4F202090DD09D
:1016E000A268D9F8003003F0F0039A4206D9D9F87D
:1016F000003023F0F0031A43C9F80020C2072DD1AF
:1017000069B1A168D9F8002002F0F002914206D236
:10171000D9F8002022F0F0021143C9F80010D8F8DF
:10172000001001F00701A9420CD9D8F8001021F0EF
:1017300007012943C8F80010D8F8001001F007018C
:10174000A94214D1410716D400071ED4D9F80000CD
:10175000D9F8041010F00C0027D12CE060680228A2
:1017600031D0032851D159F8081C89012FD4012008
:1017700001B0BDE8F083D9F80010E26821F4E0611F
:101780001143C9F800100007E0D5D9F8000021691D
:1017900020F4605040EAC100C9F80000D9F8000008
:1017A000D9F8041010F00C0005D00C2851D101F02C
:1017B000030101294DD159F8081C09072BD4D9F888
:1017C0008C10090A2AE059F8081C8903CFD5D9F8EA
:1017D000001021F003010843C9F80000FFF75CFA8C
:1017E000064641F2883700BFD9F80000616800F072
:1017F0000C00B0EB810F35D0FFF74EFA801BB842DA
:10180000F2D9032001B0BDE8F08359F8081C80B379
:101810004905ACD5DBE759F8081C090945F228420F
:1018200001F00F01C0F6030252F8211000280A4609
:1018300018BF00220C2843D1D9F8040000F003009F
:1018400002281AD0032804BF41F20021C0F27A0115
:1018500017E004282BD008282ED141F20022C0F234
:101860007A022DE0206800F0020100297FF449AFE0
:1018700055E789077FF57BAFA9E742F20041C0F247
:10188000F401D9F80400C0F30210D9F804200130A3
:10189000C2F306225143D9F80420B1FBF0F0C2F3A1
:1018A0004161022202EB4101B0FBF1F208E042F299
:1018B0000042C0F2F40203E0002200210C28BBD059
:1018C000D9F8000045F21841C0F30310C0F6030137
:1018D000085C00F01F0022FA00F140F20400C1F29F
:1018E000000040F264020068C1F20002116001B021
:1018F000BDE8F043FFF796BC2DE9F04383B0002824
:1019000000F02C8341F200060446C4F20206B068DF
:10191000F168227800F00C09D00601F003082ED4FB
:101920002078C00700F09080B9F1080F00F08580A2
:10193000B9F10C0F08BFB8F1030F7ED06568B5F59B
:10194000803F07D03068B5F5A02F40F0A88240F462
:1019500080203060306840F480303060FFF79CF9C0
:10196000054600BF306880036ED4FFF795F9401B31
:1019700064284FF00300F5D903B0BDE8F083B9F156
:10198000000F1DD0B9F10C0F08BFB8F1010F17D02F
:10199000A1693068002900F0A48140F001003060A6
:1019A000FFF77AF9054600BF3068800700F1AC8187
:1019B000FFF772F9401B02284FF00300F4D9DBE770
:1019C0003068800703D5A069002800F0C782256A27
:1019D0003068000700F10D81D6F89400000900F08E
:1019E000F000854200F20B813068B9F1000F40F041
:1019F00008003060306820F0F00040EA05003060F8
:101A00007068E16920F47F4040EA0120706040F096
:101A10009382B06DC00000F15C82B06D40F08050E8
:101A2000B065B06D00F0805002900298FFF7D4FCD2
:101A3000B16D21F08051B1654DE23068800303D56E
:101A40006068002800F08A82207880072DD5B9F1DF
:101A5000040F1CD0B9F10C0F08BFB8F1020F16D05B
:101A6000E1683068002900F0B68140F48070306091
:101A7000FFF712F9054600BF306840050ED4FFF7A6
:101A80000BF9401B02284FF00300F5D974E73068CA
:101A9000400503D5E068002800F060827068216985
:101AA00020F0F85040EA016070602078000760D4B0
:101AB0002078400774D42078800600F18080A06AE6
:101AC000002800F0ED82022840F03081F068E16AE1
:101AD00000F003028A4240F04181226B6FF00F0355
:101AE00000F0700103EB0212914240F03781616B0C
:101AF00000F4FE42B2EB012F40F03081A16B00F008
:101B00007842B2EBC16F40F02981E26B0023CFF63F
:101B1000E07303EA025200F4C001A2F50012914200
:101B200040F01C81216C4FF07E4202EA016100F01E
:101B3000C06001F17E41884240F010813068800130
:101B400000F1AE82306840F080703060F06840F0A4
:101B50008070F060FFF7A0F804463068800100F163
:101B60009F82FFF799F8001B02284FF00300F4D979
:101B700002E76169D6F89400002900F09D8040F0EA
:101B80000100C6F89400FFF787F80546D6F89400E0
:101B900080078DD4FFF780F8401B0228F6D987E034
:101BA000B06DC00047D4B06D4FF0010840F08050D8
:101BB000B065B06D00F08050009000983DE0616A23
:101BC000D6F89800002900F0F18040F00100C6F836
:101BD0009800FFF761F80546D6F8980080073FF5B2
:101BE0006EAFFFF759F8401B02284FF00300F3D9FE
:101BF000C2E6306800F0F00085427FF6F5AEB06DC9
:101C0000C00000F1C680B06D40F08050B065B06D8E
:101C100000F0805001900198FFF7DEFBB16D21F0DC
:101C20008051B165B0F5007F00F0B980802D40F2A1
:101C30000C81032013E14FF0000847F20007C4F2C3
:101C400000073868C00512D4386840F480703860E6
:101C5000FFF722F8054600BF3868C00507D4FFF734
:101C60001BF8401B02284FF00300F5D984E6A56855
:101C7000012D08D0D6F89000052D40F0BF8040F02F
:101C80000400C6F89000D6F8900040F00100C6F8B5
:101C90009000FFF701F8054641F28837D6F890002A
:101CA000800700F1C980FEF7F7FF401BB842F5D965
:101CB000032003B0BDE8F08320F00100C6F89400D3
:101CC000FEF7EAFF054600BFD6F8940080077FF5CF
:101CD000EFAEFEF7E1FF401B02284FF00300F3D9FF
:101CE0004AE620F001003060FEF7D6FF054600BF4F
:101CF000306880077FF514AEFEF7CEFF401B022848
:101D00004FF00300F4D937E6306840F00800306047
:101D10003068D4E9072120F0F00008433060706893
:101D200020F47F4040EA02207060F9E5B9F10C0F21
:101D300000F01481306820F080703060FEF7ACFF56
:101D4000044600BF3068800140F1D380FEF7A4FF55
:101D5000001B02284FF00300F4D90DE6B9F10C0F77
:101D600000F0FC803068400100F1F880306820F01D
:101D700080703060FEF790FF05463068800140F1CA
:101D80005281FEF789FF401B02284FF00300F4D96F
:101D9000F2E5FFF721FBB0F5007F7FF447AF812D1F
:101DA0005CD30120A02D88BF022058E020F0010064
:101DB000C6F89800FEF770FF054600BFD6F89800F9
:101DC00080077FF57CAEFEF767FF401B02284FF0CF
:101DD0000300F3D9D0E520F480703060FEF75CFF9B
:101DE000054600BF306840057FF55FAEFEF754FF43
:101DF000401B02284FF00300F4D9BDE520F001009C
:101E0000C6F89000D6F8900020F00400C6F89000C4
:101E1000FEF742FF002D05467FF43EAF41F28837C2
:101E2000D6F89000800707D5FEF736FF401BB84272
:101E30004FF00300F4D99FE5B8F1000F3FF43BAE3B
:101E4000B06D20F08050B06535E6A5F17000B0FAB5
:101E500080F04009802D08BF022000E0002042F2FF
:101E60000001C4F202010A6822F0070202440A607B
:101E7000096801F00701814270D1306840F0080024
:101E800030603068D4E9072120F0F000084330606A
:101E9000706820F47F4040EA022070604CE020F43B
:101EA00080303060306820F480203060FEF7F4FE2F
:101EB000002D05467FF456AD07E0FEF7EDFE401B12
:101EC00064284FF003003FF657AD30688003F4D428
:101ED000BAE5FFF781FAB0F5007F06D1812D13D363
:101EE0000120A02D88BF022018E0802D0ED90320EC
:101EF00014E0F0684FF6FC71CFF6EE610840F06038
:101F0000002003B0BDE8F083002007E0A5F17000D9
:101F1000B0FA80F04009802D08BF022042F2000193
:101F2000C4F202010A6822F0070202440A6009684A
:101F300001F00701814211D1B068F16810F00C0086
:101F400005D00C282AD101F00301012926D13168DE
:101F5000090707D4D6F89410090A05E0012003B058
:101F6000BDE8F0833168090945F2284201F00F010C
:101F7000C0F6030252F8211000280A4618BF0022BA
:101F80000C2834D1F06800F0030002280FD0032899
:101F900004BF41F20021C0F27A010CE004281DD0F8
:101FA000082820D141F20022C0F27A021FE042F25A
:101FB0000041C0F2F401F068C0F30210F268013091
:101FC000C2F306225143F268B1FBF0F0C2F3416163
:101FD000022202EB4101B0FBF1F208E042F20042C2
:101FE000C0F2F40203E0002200210C28CAD0B0683D
:101FF00045F21841C0F30310C0F60301085C00F07D
:102000001F0022FA00F140F20400C1F2000040F289
:1020100064020068C1F200021160FFF703F90028B2
:102020007FF4AAAC7CE4F06848F28C01C0F29D1108
:1020300004F12C0700EA010C8ECF6FF00F00D4E9F9
:102040000F5400EB02100022CFF6E07241EA0C01BF
:1020500002EA05520843A2F500124FF07E4540EA1D
:10206000032005EA0465104305F17E4540EAC76098
:102070002843F060306840F080703060F06840F0D5
:102080008070F060FEF708FE04463068800107D4D7
:10209000FEF702FE001B02284FF00300F5D96BE4A7
:1020A000002003B0BDE8F08370470000B0B582B0F7
:1020B00004460068416882684B0609D502F0410376
:1020C000012B05D1E16C204602B0BDE8B0400847C5
:1020D0000B0608D512F0020305D0216D204602B090
:1020E000BDE8B04008478B0610D512F4B0730DD090
:1020F00012F0400317D094F85D30032B08D1002173
:102100000191C168019180680190019802B0B0BD51
:10211000236E43F00403236600230193C3680193F5
:1021200083680193019B12F0200302F4807203D1B3
:102130008AB9226EDAB9E9E7236E43F00103236618
:102140000023019383680193036823F04003036035
:10215000019B002AEDD0226E42F008022266002286
:10216000019282680192019A226E002ACED04268C2
:10217000890722F0E00242604FF0010284F85D20FE
:102180001FD0416843F2D12521F003014160A06DC9
:10219000C0F6000538B18563FEF732FB18B1206E3A
:1021A00040F040002066606D0028AFD08563FEF7E8
:1021B00027FB0028AAD0206E40F04000206602B025
:1021C000B0BD204602B0BDE8B040FFF76DBF0000D3
:1021D000002804BF01207047B0B50446406A20B112
:1021E0000020206104F1140005E06068B0F5827FF2
:1021F00003D004F11C00002101600025A56294F8C1
:102200005D0020B9204684F85C5000F04FF80220B1
:1022100084F85D002068D4F80CE00268BEF5E06F39
:1022200022F0400202604EF4006298BF0125B2F530
:10223000706F1CBF0023A3624FEA053CD4E901354F
:10224000D4E9042103F4827305F404452B4402F01D
:1022500002021A44A36901F00101E569114403F483
:102260000072114405F03802256A114405F080021D
:10227000A56A114405F40052114301600421626A09
:102280000EF4706501EA1341636B45EA0C0502F038
:102290001002294303F00803114319434160002051
:1022A0000121206684F85D10B0BD000070B586B0D5
:1022B0000026CDE90466CDE902660446006843F2D3
:1022C0000001C4F201018842019601D006B070BD40
:1022D00041F24C00C4F20200416941F48051416175
:1022E000416901F4805100910099016841F00201B7
:1022F0000160006801A900F0020000900098282009
:1023000001900220CDE902060320049005200590EB
:1023100040F20040C4F60000FEF7C0FB40F2285532
:102320003020C1F20005C4F20200012110228023F6
:1023300085E847002846C5E90436C5E906662E62E9
:10234000FEF7E2FA002818BFFEF704FA2320002166
:1023500000226565AC62FEF7B7FF2320FEF7A4FFFD
:1023600006B070BD2DE9F04182B0044690F85C00E3
:10237000012803D1022002B0BDE8F08101201D46F2
:1023800016460F4684F85C00FEF786FC94F85D1054
:1023900001290CD18046002F4FF0010018BF002EFC
:1023A0000CD1002184F85C1002B0BDE8F08102205D
:1023B000002184F85C1002B0BDE8F0810320002108
:1023C00084F85D002166A763A687E6872164A4F8E8
:1023D0004410A4F84610A068E164B0F5004F2068EE
:1023E000216507D1016821F040010160016841F4D5
:1023F000804101600168490603D4016841F0400151
:1024000001606168731EE268B1FA81F1B3FA83F387
:1024100049095B09B2F5E06F41EA03013BD931B1EB
:1024200037F8021BC160A763E18F0139E187E18FB3
:10243000002900F09180691C1BD000BF81688907CA
:1024400006D4FEF729FCA0EB0800A84208D3B7E0A9
:10245000A16B31F8022BC260A163E08F0138E087E5
:10246000E08F002878D0206881688907E9D5EFE7F8
:1024700020688168890702D4FEF70EFC07E0A16B93
:1024800031F8022BC260A163E08F0138E087E08F52
:102490000028EDD160E089B1E18F02294FF6FE718D
:1024A00003D337F8022BC26004E03A78013102739B
:1024B000A06B471CA763E08F0844E087E08F0028EB
:1024C0004AD0681C2AD04FF6FE70461C07E0FEF783
:1024D000E3FBA0EB0800A84272D2E08FE0B32168D2
:1024E00088688007F3D5E28FA06B012A05D930F800
:1024F000022BCA604FF6FE7104E000780873A06BEF
:1025000031460130A063E08F0844E087E08F002867
:10251000E5D121E0FEF7C0FBE08FE8B120688168DB
:102520008907F7D5E28FA16B022A0AD331F8022B73
:10253000C260A163E08F0238E087E08F0028EDD110
:102540000AE009780173A06B0130A063E08F0138C5
:10255000E087E08F0028E1D120464FF4C0512A46A1
:10256000434600F021FF68B920462946424600F064
:10257000BDFF38B920464FF4C0612A46434600F0FB
:1025800013FF28B1206E40F0200020662020206636
:10259000A06838B9002001902068C1680191806866
:1025A00001900198206E00284FF0010004BF84F8CC
:1025B0005D000020002184F85C1002B0BDE8F081CD
:1025C000012084F85D000320002184F85C1002B033
:1025D000BDE8F08170B5044690F85C00012804BFA6
:1025E000022070BD012084F85C0094F85D00012891
:1025F00009D100294FF0010018BF002A08D100219D
:1026000084F85C1070BD0220002184F85C1070BD5D
:102610000320002384F85D002366A163A287E2877C
:102620002364C4E91333A4F84430A4F84630A06806
:102630002268B0F5004F07D1106820F0400010600C
:10264000106840F480401060606D43F2013E43F238
:10265000093543F2E126C0F6000EC0F60005C0F6CB
:102660000006D4F80CC0C0E90B5EC0E90D635368E6
:10267000BCF5E06F23F48043536015D88369B3F54C
:10268000806F11D1E68F5368F60705D123F480439C
:102690005360E38F5B0806E043F480435360E38FAD
:1026A000012606EB5303E387E38F0C32FEF792F922
:1026B00040B1206E40F0100020660120002184F817
:1026C0005C1070BD20680168490603D4016841F0C0
:1026D00040010160416841F020014160416841F0E2
:1026E000020141600020002184F85C1070BD0000F0
:1026F000006843F20001C4F20101884218BF70472C
:1027000040F2C400C1F200000FF08ABE7047000022
:10271000411E0020B0EB116F1CBF012070474EF22C
:102720001002CEF2000251604EF62351CEF20001AB
:10273000F0230B7007219060116070477047000014
:10274000704700007047000010B590F83C20012A47
:102750004FF002022DD0012380F83C3080F83D205C
:10276000026842F6004C5368D2F808E0C4F2010C4B
:10277000624503D14C6823F4700323430C6823F0B3
:1027800070032343B2F1804F536007D044F200033B
:10279000C4F201039A4201D0624504D189682EF047
:1027A0008003194391600121002280F83D1080F8D8
:1027B0003C20104610BD0000002804BF01207047D7
:1027C000B0B5044690F83D0028B9002084F83C00DC
:1027D000204600F061F8022084F83D00206842F6AF
:1027E000004E0268C4F2010E704502D0B0F1804F75
:1027F00003D1A36822F070021A4343F6FF73C4F2B8
:10280000010344F2004C9842C4F2010C05DCB0F123
:10281000804F0AD0704508D00BE0604505D044F2E7
:102820000003C4F20103984203D1236922F44072E9
:102830001A43A16922F080026368E568114370457C
:102840000160C562836218BF60451DD16169016383
:1028500001214161002084F8481084F83E1084F87A
:102860003F1084F8401084F8411084F8421084F836
:10287000431084F8441084F8451084F8461084F816
:10288000471084F83D10B0BD44F20001C4F20101CC
:102890008842DDD1DAE7000080B582B0006841F2FD
:1028A0000001C4F2000188421CBF02B080BD41F2A9
:1028B0005800C4F202000168002241F010010160DA
:1028C0000068012100F01000019001983620FEF709
:1028D000FBFC362002B0BDE88040FEF7E5BC0000FE
:1028E00090F83D1001291CBF01207047022180F89B
:1028F0003D100168C868B1F1804F40F00100C86028
:102900000BD044F20000C4F20100814205D042F62F
:102910000040C4F20100814212D188680722C0F24F
:1029200001020240062A4FF000000ED0B2F5803FAF
:1029300008BF7047086840F0010008600020704739
:10294000086840F0010008600020704770470000F0
:10295000F0B581B004460068C768066906EA070555
:10296000A9072AD4680742D428075CD4E80676D49D
:10297000E80740F09280280607F0800700F1998070
:10298000002F18BF16F4807040F0A080680606D5AE
:1029900020686FF040010161204600F0C9F8A806E8
:1029A0005CBF01B0F0BD21686FF0200220460A61D3
:1029B00001B0BDE8F040FFF7C5BE6FF00201016154
:1029C000012121778069800707D02046FFF7BEFFED
:1029D000002020776807C7D509E0204600F082F87C
:1029E000204600F081F8002020776807BCD52068D9
:1029F0006FF00401016102212177806910F4407FAA
:102A000007D02046FFF7A2FF002020772807ADD58A
:102A100009E0204600F066F8204600F065F8002046
:102A200020772807A2D520686FF0080101610421F2
:102A30002177C069800707D02046FFF787FF002075
:102A40002077E80694D50AE0204600F04BF82046AF
:102A500000F04AF800202077E8067FF589AF20686B
:102A60006FF01001016108212177C06910F4407FE7
:102A700008D02046FFF76AFF00202077E8073FF4E0
:102A80007AAF0AE0204600F02DF8204600F02CF83E
:102A900000202077E8073FF46EAF20686FF0010157
:102AA0000161204600F022F8280607F080077FF534
:102AB00067AF20686FF0800101612046FFF740FE9C
:102AC000002F18BF16F480703FF460AF20686FF4D9
:102AD000807101612046FFF731FE68067FF55FAF28
:102AE00056E70000704700007047000010B500680E
:102AF00041F20001C4F20001884200D010BD012063
:102B00002AF018FB40F2EA24C1F200042088411C9C
:102B1000B0F5FA7F218038BF10BD40F60000C4F642
:102B200000004FF40051FEF7A9F80020208010BDEE
:102B300070470000FEE7000070B5044600681546C7
:102B40008369DA0602D4002100226AE00E461021D1
:102B5000C1618169890660D4711C54D046BBFEF7FF
:102B60009BF82068426894F842308169202B0DD090
:102B700012F480420AD111F4004107D0416841F4B7
:102B800080414160FEF788F8054600BF20688169F2
:102B9000890605D4FEF780F8401B1A28F6D32AE0F0
:102BA00081698906DBD538E020688169890634D4DB
:102BB000FEF772F8401BB042F6D92068426894F8DC
:102BC00042308169202B0DD012F480420AD111F4D9
:102BD000004107D0416841F480414160FEF75CF854
:102BE000054600BF206880698006DDD4FEF754F8F2
:102BF000401B1A28F6D3206801228169242110E0A5
:102C00008169890609D48169890606D481698906A2
:102C10005CBF81695FEA8161F2D52021C161012237
:102C200004218369DE0506D45E050CD49B0512D40D
:102C3000B2B9002070BD4FF4807241F00101C26151
:102C400001225E05F2D54FF4806241F00801C261B5
:102C500001229B05ECD541F002014FF40072C261E4
:102C60008269920744BF002282628269D20703D13F
:102C7000826942F00102826142684EF60003CFF69B
:102C800000631A404260606C08436064202084F84E
:102C90004100002084F8420084F84000012070BD0B
:102CA0002DE9F04106460068144682690D46114040
:102CB000491BB1FA81F14909A14237D11F46591C7C
:102CC0002CD0B7BBFDF7E8FF306881692940491B6C
:102CD000B1FA81F14909A14245D080692840401BE1
:102CE000B0FA80F04009A042ECD01FE08169294091
:102CF000491BB1FA81F14909A14217D181692940E3
:102D0000491BB1FA81F14909A1420FD181692940DA
:102D1000491BB1FA81F14909A14207D181692940D2
:102D2000491BB1FA81F14909A142DFD00020BDE879
:102D3000F081DDF8188007E080692840401BB0FA78
:102D400080F04009A042F1D1FDF7A6FFA0EB0801F9
:102D50003068B942F0D981692940491BB1FA81F143
:102D60004909A142E8D1706C40F020007064202035
:102D700086F84100002086F8420086F840000120D5
:102D8000BDE8F08170B504460068806940073BD417
:102D900015460E4619B92EE08069400734D4204606
:102DA00031462A46FFF7C8FE60BB20688169890664
:102DB0002CD4FDF771FF411B2068B142ECD9816929
:102DC0004907E9D4606C40F020006064202084F85A
:102DD0004100002084F84000012070BD2068816916
:102DE000890613D4FDF758FF206881694907E9D5A2
:102DF0008069400708D4204600212A46FFF79CFE40
:102E00000028EBD0012070BD002070BD816949070A
:102E100004D5218D00291CBF002070BD82694EF6AB
:102E20000006D2064FF0000242BF1022C261042207
:102E300062642022C2614368CFF6006633400021FD
:102E40004360012084F8412084F8421084F8401047
:102E500070BD000070B5044600688069800635D4F6
:102E600015460E4619B928E0806980062ED4204602
:102E700031462A46FFF760FE30BBFDF70DFF411BD0
:102E80002068B142F0D981698906EDD4606C40F0C8
:102E900020006064202084F84100002084F8420073
:102EA00084F84000012070BDFDF7F6FE20688169BE
:102EB0008906EBD58069800608D4204600212A4681
:102EC000FFF73AFE0028EFD0012070BD002070BD52
:102ED00070B5044600688069800720D415460E4608
:102EE000481C11D00EBB00BF204600212A46FFF728
:102EF00023FEA8BBFDF7D0FE20688169890723D592
:102F000080698007F0D50AE020464FF0FF312A465D
:102F1000FFF712FE20BB206880698007F4D50020EF
:102F200070BD00BF80698007F9D4204631462A462B
:102F3000FFF702FEA0B9FDF7AFFE411B2068B142CA
:102F4000F0D981698907EDD4606C40F0200060649D
:102F5000202084F84100002084F8420084F84000DA
:102F6000012070BD80B582B041F24800C4F2020079
:102F70000168002241F0010101600068002100F0B9
:102F80000100019001980D20FEF79EF90D2002B07E
:102F9000BDE88040FEF788B92DE9F04387B04FF0D7
:102FA000000841F24C00CDF81880C4F2020001681C
:102FB00040F6000441F0040101600168C4F6000419
:102FC00001F00401019101990168002241F08001A2
:102FD0000160016801F0800101910199016841F0EF
:102FE00002010160016801F002010191019901688B
:102FF00041F00101016000684FF4035100F001004D
:10300000019001982046FDF741FEA4F58066304608
:103010004FF4004100224FF40049FDF737FE4FF412
:10302000005002AD0290012720462946CDE90378E1
:10303000CDF81480FDF732FD30462946CDE90297E0
:10304000CDE90478FDF72AFD4020CDE902072046AE
:103050002946CDE90478FDF721FD8020CDE902075E
:1030600003200590204629460497FDF717FD07B079
:10307000BDE8F08380B540F2705045F20041C1F2E6
:103080000000C4F2000142F691120023C0F2700267
:103090004FF0010C80E80E10C0E90433C0E906339C
:1030A0000362FDF749FE002818BFFDF753FB40F20D
:1030B0007050C1F200000021FDF7F4FD002818BF98
:1030C000FDF748FB40F27050C1F200000021FDF70F
:1030D0000FFE002808BF80BDBDE88040FDF73ABB69
:1030E000B0B540F2C45043F20001C1F20000C4F296
:1030F00001014FF4827200234FF4E06C4FF0020E96
:1031000001244FF4007580E80E500721C0E9054501
:10311000C361C0E90833C0E90A31C0E90C33FFF7E5
:1031200057F8002808BFB0BDBDE8B040FDF712BB9E
:1031300010B584B040F2286041F20001C1F20000F5
:10314000C4F2000100244F2240F2E73380E8160069
:1031500080210394CDE90144C3608161FFF72CFB1A
:10316000002818BFFDF7F6FA40F22860C1F200000F
:1031700001A901940394FFF7E7FA002818BFFDF7AF
:10318000E9FA04B010BD0000FEE70000FEE7000011
:1031900070470000F0B581B041F20007C4F20207A9
:1031A000FA680D469107044613D0F868216800F0CC
:1031B000030088424FF0010040F08280002900F0B7
:1031C0007F80F868C0F302106168013088420AD13C
:1031D0001EE02068032809D002283FD0012802D130
:1031E0003968890709D4012001B0F0BD3968890325
:1031F0005CBF39685FEA4131F5D5F968626821F052
:1032000073016FF00F0303EB021208431043F860E1
:10321000386820F080603860FDF73EFD064600BF4C
:103220003868000105D5FDF737FD801B0228F7D966
:103230003EE0BDB1386948F2FF01CFF6FF11012D24
:103240001AD101F1B461014020690023CFF6E07387
:10325000A26803EA0050A0F5001016E0396849059D
:10326000C1D5CAE7386948F2FF01C0F2FF710140D9
:10327000D4E90220C00608E0014060694FF07E43B7
:10328000A26803EA006000F17E4041EA022108439F
:103290003861386840F080603860FDF7FDFC054615
:1032A0003868000107D4FDF7F7FC401B0228F7D966
:1032B000032001B0F0BDA0693969084338610020DE
:1032C00001B0F0BD40F2C450C1F20000FEF7EEBE06
:1032D000806A0021A0F84610C187FEF7E5BE000015
:1032E000806A01684A6822F003024A60016E41F078
:1032F00010010166012180F85D10FEF7D5BE0000C7
:10330000806AFFF703BA0000B0B582B0846A054650
:10331000FDF7C2FC2968096889063ED40546206885
:10332000642241682B4621F020014160416821F070
:103330000201416020464FF4C05100F035F868B9F1
:10334000204664212A4600F0D1F838B920464FF4CF
:10335000C06164222B4600F027F838B1206E40F09F
:1033600020002066206E40F020002066A06838B95A
:10337000002001902068C168019180680190019847
:103380000020E087012084F85D00206E28B12046EF
:1033900002B0BDE8B040FEF787BE204602B0BDE8EF
:1033A000B040FFF7A5B900002DE9F04782B0002733
:1033B0001D4690460E4681468DF80370FDF76CFC65
:1033C000281A00EB0804FDF767FC40F26401C1F223
:1033D0000001096823225143090DD9F800506143C7
:1033E0000191A968314277D08246B6F5C06F1FD1EE
:1033F00008F10106284603E0816811F4C06F6FD020
:10340000297B002E8DF803109DF80310F4D0FDF7F2
:1034100043FCA0EB0A00A04223D2019901980029A5
:10342000A0F101000190D9F8000008BF0C46E3E7C5
:1034300018F1010042D000BFFDF72EFCA0EB0A00FE
:10344000A0420ED2019801990028A1F10101019139
:10345000D9F80010896808BF04463142ECD1002732
:103460003AE0D9E900014268B1F5827F22F0E0023A
:1034700042600BD1D9F80810B1F5004F02D0B1F578
:10348000806F03D1016821F040010160D9F8281054
:10349000B1F5005F07D1016821F4005101600168B6
:1034A00041F400510160012089F85D00002089F895
:1034B0005C000327384602B0BDE8F087002700BF54
:1034C000A86830420CD0A868304209D0A8683042C1
:1034D00006D0A8683042F3D1384602B0BDE8F08784
:1034E0000027384602B0BDE8F0870000F0B581B093
:1034F00015460E460446FDF7CFFB281A8719FDF73F
:10350000CBFB40F26401C1F200010968C1F3CB3189
:103510007943009121688A68120622D50546701CFD
:1035200015D000BFFDF7B8FB401BB8421CD2009875
:1035300000990028A1F1010100912168896808BF64
:1035400007460806EED40CE08868000609D58868AE
:10355000000606D58868000644BF88685FEA0060F8
:10356000F2D4002001B0F0BDD4E900014268B1F509
:10357000827F22F0E00242600AD1A168B1F5004FDB
:1035800002D0B1F5806F03D1016821F040010160E4
:10359000A16AB1F5005F07D1016821F40051016013
:1035A000016841F400510160012084F85D000020B1
:1035B00084F85C00032001B0F0BD000070B51D462A
:1035C000164602440B44013A013B049C92B29BB262
:1035D00000F066FA40F60000C4F6000080210122E7
:1035E0007543FDF753FBD5B3681E032805F0030CA4
:1035F00001D2002118E0A5EB0C02A4F10803002180
:1036000033F8086F043136BA5888360C1E8000BA79
:103610009E88000C588030BADE88000C988030BA42
:10362000000C8A42D880EBD1BCF1000F17D034F8DF
:103630001100BCF1010F00BA4FEA104024F811004C
:103640000DD004EB41014888BCF1020F00BA4FEAEB
:103650001040488003D0888800BA000C8880680039
:1036600082B240F2C450C1F200002146BDE8704071
:10367000FEF7B0BFF0B585B019201927FDF7FAF9AC
:1036800040F60004C4F60004A4F5806528464FF413
:1036900000410022FDF7FAFA1920FDF7EBF9284660
:1036A0004FF4004101220126FDF7F0FA6420FDF7F6
:1036B000E1F93A208DF80000204680210022FDF734
:1036C000E5FA40F2C455C1F20005694628460122D8
:1036D0004FF0FF33FEF746FE55208DF800002046E0
:1036E00080210122FDF7D2FA6946284601224FF0D7
:1036F000FF33FEF737FEB2208DF800002046802110
:103700000022FDF7C3FA6946284601224FF0FF3335
:10371000FEF728FE3320019040F60C40C3F2003043
:103720000090204680210122FDF7B0FA6946284624
:1037300005224FF0FF33FEF715FE36208DF800000E
:10374000204680210022FDF7A1FA69462846012281
:103750004FF0FF33FEF706FEA0208DF80000204654
:1037600080210122FDF792FA6946284601224FF096
:10377000FF33FEF7F7FDB7208DF8000020468021CB
:103780000022FDF783FA6946284601224FF0FF33F5
:10379000FEF7E8FD35208DF800002046802101224B
:1037A000FDF774FA6946284601224FF0FF33FEF711
:1037B000D9FDBB208DF80000204680210022FDF7B6
:1037C00065FA6946284601224FF0FF33FEF7CAFD2D
:1037D0002046802101228DF80070FDF757FA6946D6
:1037E000284601224FF0FF33FEF7BCFDC0208DF8C4
:1037F0000000204680210022FDF748FA694628464D
:1038000001224FF0FF33FEF7ADFD2C208DF80000B4
:10381000204680210122FDF739FA69462846012217
:103820004FF0FF33FEF79EFDC2208DF800002046CA
:1038300080210022FDF72AFA6946284601224FF02E
:10384000FF33FEF78FFD2046802101228DF80060B6
:10385000FDF71CFA6946284601224FF0FF33FEF7B8
:1038600081FDC3208DF80000204680210022FDF755
:103870000DFA6946284601224FF0FF33FEF772FD2C
:1038800012208DF80000204680210122FDF7FEF96C
:103890006946284601224FF0FF33FEF763FDC4203E
:1038A0008DF80000204680210022FDF7EFF96946DF
:1038B000284601224FF0FF33FEF754FD20208DF8FB
:1038C0000000204680210122FDF7E0F969462846E4
:1038D00001224FF0FF33FEF745FDC6208DF80000B2
:1038E000204680210022FDF7D1F9694628460122B1
:1038F0004FF0FF33FEF736FD0F208DF80000204615
:1039000080210122FDF7C2F96946284601224FF0C5
:10391000FF33FEF727FDD0208DF8000020468021E0
:103920000022FDF7B3F96946284601224FF0FF3324
:10393000FEF718FDA4208DF800002046802101220A
:10394000FDF7A4F96946284601224FF0FF33FEF740
:1039500009FDA1208DF80000204680210122FDF7FD
:1039600095F96946284601224FF0FF33FEF7FAFC2D
:10397000E0208DF80000204680210022FDF786F926
:103980006946284601224FF0FF33FEF7EBFC42F276
:103990001F30039041F64C00C0F60D30029042F605
:1039A0001330C5F23F40019040F2D040C1F20D10FB
:1039B0000090204680210122FDF768F969462846DB
:1039C0000E224FF0FF33FEF7CDFCE1208DF8000012
:1039D000204680210022FDF759F969462846012238
:1039E0004FF0FF33FEF7BEFC42F22030039042F668
:1039F0005170C1F61F70029042F61340C4F23F406E
:103A0000019040F2D040C1F20C100090204680217D
:103A10000122FDF73BF9694628460E224FF0FF339D
:103A2000FEF7A0FC21208DF8000020468021002216
:103A3000FDF72CF96946284601224FF0FF33FEF7C7
:103A400091FC11208DF80000204680210022FDF716
:103A50001DF96946284601224FF0FF33FEF782FC2C
:103A600013208DF80000204680210022FDF70EF97A
:103A70006946284601224FF0FF33FEF773FC2920E8
:103A80008DF80000204680210022FDF7FFF86946EE
:103A9000284601224FF0FF33FEF764FC05B0F0BD6D
:103AA0002DE9F04784B040F25C04C1F200040E46F8
:103AB000218840F600089A46174605468142C4F61A
:103AC000000802D16088B8422CD0280A8DF809007D
:103AD000380A8DF80B002A208DF80D004046802111
:103AE00000228DF80A508DF80C70FDF7CFF840F2E7
:103AF000C459C1F200090DF10D01484601224FF0F1
:103B0000FF33FEF72FFC404680210122FDF7BEF86F
:103B10000DF10901484604224FF0FF33FEF722FC65
:103B200025806780A088B04202D1E08850452ED021
:103B3000300A8DF805004FEA1A208DF807002B2077
:103B40008DF80E004046802100228DF806608DF829
:103B500008A0FDF79BF840F2C455C1F200050DF135
:103B60000E01284601224FF0FF33FEF7FBFB4046D3
:103B700080210122FDF78AF80DF105012846042273
:103B80004FF0FF33FEF7EEFBA680A4F806A02C2032
:103B90008DF80F00404680210022FDF777F840F2B3
:103BA000C450C1F200000DF10F0101224FF0FF33AC
:103BB000FEF7D8FB04B0BDE8F087000070470000B6
:103BC00080B5FDF711FB40F27860C1F2000001887A
:103BD0004A1C0529028038BF80BD0021018040F2C7
:103BE000E820C1F200000121017080BD4EF688502E
:103BF000CEF20000016841F47001016070470000DE
:103C000040F22860C1F20000FEF7A2BEFEE700000D
:103C1000B0B540F29424C1F200042046442101F0E2
:103C200073FD47F21D00C0F600001921002229F0A3
:103C3000DDFA40F23825C1F20005686001202870E5
:103C4000204601F031FD0146686821B129F0DAFB18
:103C500000202870B0BD29F0C5FB00202870B0BD41
:103C60002DE9F043B1F900E0B2F90460B64511DC8A
:103C7000B1F90440B2F90050AC420BDBB1F902C01B
:103C8000B2F90690CC4505DCB1F90670B2F9023004
:103C90009F4203DAFF2358B2BDE8F083AE4509DB4B
:103CA000634507DCB44205DC4F4503DC002358B212
:103CB000BDE8F083A3EB0C052DB2012DA7EB0C069C
:103CC0000BDBA0F800E0A0F802C08480C380B2F84B
:103CD0000690B1F802C0012300E00023A6EB09051D
:103CE00065442DB2012D16DBB1F906500FFA89F7A4
:103CF000AF4210DA0D888F88B44400EBC30620F879
:103D00003350A6F80290B780A6F806C0B1F802C0FA
:103D1000B2F806900133B2F902500FFA8CF6B542B0
:103D2000C8BFAC46B1F90660B2F800800F880FFA40
:103D300089F5B542A8EB07052DB2B8BF4E46012D57
:103D4000A4EB0E050FDBA6EB0C0424B2012C0ADB5E
:103D500000EBC30420F83370A4F802C0A4F8048078
:103D6000E6800F88013391886A1A3A4412B2012A18
:103D700009DB7A1900EBC30720F833100133A7F8E9
:103D800002C0BA80FE8058B2BDE8F08370B5034629
:103D9000B1F90000B2F90040B1F902C0B2F9025025
:103DA000B1F904E0B2F90460A042B1F90610B2F929
:103DB0000620C8BF0446AC451C80C8BF6546B64552
:103DC0005D80B8BF764691429E80B8BF0A4600200B
:103DD000B4424FF00001D8BF01219542D8BF012065
:103DE0000840DA8070BD00002DE9F04381B00C4638
:103DF000B0F90070B1F900108F423DDBB0F90260FC
:103E0000B4F902108E4237DBB0F90490B4F9041013
:103E1000894531DCB0F90680B4F9060080452BDC19
:103E200015466AB3694620462A46ADF80070ADF8DB
:103E3000026000F097F8F8B1694620462A46ADF8CE
:103E40000090ADF8026000F08DF8A8B169462046F8
:103E50002A46ADF80070ADF8028000F083F858B142
:103E6000694620462A46ADF80090ADF8028000F081
:103E700079F801B0BDE8F083002001B0BDE8F0831F
:103E8000012001B0BDE8F083B0F90020B1F90430A1
:103E90009A4213DCB0F90420B1F900309A420DDBEC
:103EA000B0F90220B1F906309A4207DCB0F90600F9
:103EB000B1F902108842A4BF01207047002070476A
:103EC0002DE9F04381B00C46B0F90460B1F900105F
:103ED0008E4211DBB0F90670B4F902108F420BDB91
:103EE000B0F90080B4F90410884505DCB0F90290FF
:103EF000B4F90600814503DD012001B0BDE8F0837F
:103F00001546EAB1694620462A46ADF80080ADF86C
:103F1000029000F027F898B9694620462A46ADF885
:103F20000060ADF8029000F01DF848B969462046DF
:103F30002A46ADF80080ADF8027000F013F818B111
:103F4000002001B0BDE8F083694620462A46ADF85E
:103F50000060ADF8027000F005F880F0010001B0DB
:103F6000BDE8F0832DE9F041B1F90030B0F900402F
:103F7000A3420DDBB0F904E0734509DCB1F902C0DE
:103F8000B0F902108C4503DBB0F90650AC4502DDF8
:103F90000020BDE8F081012A52DBAEEB04000130C5
:103FA00086B200EBD63006B2681A013087B200EB59
:103FB000D73007B24FEA66087810B8EB670FB8BF82
:103FC00070109042A8BF1046021917B24218BB42A7
:103FD00016B2D8BFB44515DD2A1ABB4212B22ADC8C
:103FE000944528DB391809B2091B01EBD171801AFD
:103FF0004F1004EB6106A0EB61009B1B604407FBC4
:1040000007F10EE0384400B2001B00EBD070421004
:1040100004EB600701EB6000DB1BACEB000002FB74
:1040200002F110FB00F013FB030200208A4298BF4C
:104030000120BDE8F081AEEB000424B2A34202DA15
:104040000120BDE8F081944516DAB445F8DC201A69
:1040500002B2AEEB020202EBD27201EB620100EBA4
:104060006200ACEB01015710181A11FB01F107FBBC
:1040700007F210FB001113E0211A0CB2AEEB04079B
:1040800007EBD777801AA0EB670001EB670160446C
:104090007E10591A10FB00F006FB06F211FB01011D
:1040A0000020914298BF0120BDE8F08170B5B1F9C0
:1040B0000030B2F90040B1F902C0B2F90250B1F9D2
:1040C00004E0B2F90460A342B1F90610B2F9062087
:1040D000B8BF1C46AC450480B8BF6546B6454580B0
:1040E000C8BF764686809142C8BF0A46C28070BD6E
:1040F0002DE9F04F91B0044629F006F8002108910F
:1041000003900CB1E06801E00EF090F940F24C1B16
:104110000169C1F2000BCBF80000084624F094FDC1
:10412000DBF80010486918B124F08EFDDBF80010B0
:10413000C86924F089FDDBF80000006A24F084FDE2
:10414000DBF800000169002900F0E080B0F85011B0
:10415000002959D000274FF001080DF12409012250
:1041600004E000BF01378F420A464DD2002AF9D041
:10417000C21992F83021002AF4D1002507E000BFCF
:10418000DBF800000135B0F850118D42EAD2BD4293
:10419000F6D0411991F830110029F1D100F1300128
:1041A00001EBC70001EBC501FFF76EFE0028E7D069
:1041B000DBF80000303000EBC70100EBC5024846D9
:1041C000FFF774FF484609F0CDFBDBF8001004460A
:1041D00001EBC700303009F0C5FBDBF800100646E4
:1041E00001EBC500303009F0BDFB30448442C7D23A
:1041F000DBF80000DDE9092300EBC70128440A636E
:104200004B6380F83081BBE701680A7CD20700F07D
:10421000A980C9684968002900F0A48000F5AC7045
:1042200001F0DEFA002840F09D80DBF80000016814
:10423000C9680B688A689A4208BF4B68CDE90623B3
:104240000EF012F9DBF800100590B1F850210020B3
:10425000002ACDE90F00CDE90D00CDE90B00CDE935
:10426000090059D009AEA6F1080A4FF0000907E08D
:10427000DBF8001009F10109B1F8500181454BD27A
:1042800001EB090090F830010028F1D101F5AC7084
:1042900001F00AFA0028EBD0044608E0214601F0BC
:1042A000A9FA20461DF0E8FB002D2C46E0D0DBF8F3
:1042B0000000214600F5AC7001F018FADBF80010A0
:1042C000054601EBC90000F1300230462146FFF7F8
:1042D000C7FC01460130E7D0DBF80000012900F5FA
:1042E000AC70DBDB5FFA81F8574600BF214601F076
:1042F0002DFA57F8081FB8F101087A68016042608A
:10430000DBF8000000F5AC70F0D1C7E70021A0F8A1
:10431000501111B000F01CBB01F5AC7001F0C4F9F4
:104320000446DBF80000DDF81C80BCB1DDE9056562
:1043300000682946C06B3246876B2346CDE900866C
:104340000294B847DBF80000214600F5AC7001F09C
:10435000CDF90446DBF80000002CE9D100F5AC7083
:1043600001F072F9DBF800100020B1F85081CBF8B1
:104370000400B8F1000F00F0C681B8F1010F1ADB9C
:1043800001EB080090F82F21C2B1B8F1020F12DB47
:1043900090F82E21AAB1B8F1030F0CDB90F82D2173
:1043A00092B1B8F1040F06DB90F82C01A8F10408D3
:1043B0000028E2D10AE04FF0000807E0A8F1010868
:1043C00004E0A8F1020801E0A8F103080868426BC4
:1043D0001AB19047DBF800100868C068027E02F04E
:1043E000FE0202760868C068027E02F0FD020276D4
:1043F000B1F8502191F82800002A40F0040281F819
:10440000282000F07C810DF124090024CDF81080D3
:104410001AE0017E62F3410101763046C6F808A039
:104420002AF0AAF9DBF8000000EBC400303009F0F4
:1044300099FADBE900121044CBF80400B1F85001FE
:104440000134844280F01081081990F8300100286E
:10445000F4D1444505D10868C068027E42F00102EB
:104460000276086801EBC405C06805F1300A027ED7
:1044700002F0FD0202760868C268C66B926832607C
:10448000007C80071FD008460DF0EEFFDBF800101F
:10449000451E08460EF03EF8013807B22BB24846DA
:1044A00000210022009709F097FADBF80000C6F817
:1044B00004900168D1E90301027E8907A9D542F081
:1044C0000201CA46A8E735F9367FBAF800002B4644
:1044D00033F8022DCDF81CA006932B46101A33F8A2
:1044E000042D00F1010AB81A00F1010908460593EC
:1044F0000EF010F8874202DAB5F8008005E0DBF82C
:1045000000000EF007F8A0F10108DBF800000FFA38
:104510008AF30068C1688269C968B1FBF3FA0FFACF
:1045200089F18A45C8BF8A4652B300210DF124099A
:104530000991ADF82810AAF101074946ADF82A7093
:104540009047BDF82610BDF92A00411A013109B281
:104550008A4518DA38B200281CDDDBF80000013F7C
:10456000006849468269ADF82A709047BDF8261068
:10457000BDF92A00411A013109B28A45EADB06E099
:104580000DF1240908E00FFA8AF1012902DB00F19C
:10459000010A01E04FF0000A05980FFA88F7B0F918
:1045A00000000AEB00014A1EBA4280B20DDD002174
:1045B000079AB94239D154E030462AF0DDF80AFAB8
:1045C00085F14A1EBA42284627DC079B0D461B8808
:1045D0000FFA82F9ADF82430069B4F451B88ADF8E1
:1045E0002600ADF8283009ABDBF80000ADF82A2032
:1045F0007360B36000681FFA88F2C0688168316038
:10460000BCBFADF82A80C1461FFA89F18A42D3D1D6
:10461000017E41F002010176CEE70FFA89F12846CA
:104620000DF12409079AB9421BD01188ADF8241066
:1046300006990988ADF82600DBF80000ADF82810CF
:10464000ADF82A80C6F80490C6F808900068C068E3
:1046500081683160017E41F00201017630462AF026
:104660008BF8DDF81080DDE691F82820002802F0B4
:10467000FB0281F8282046D00868027CD2071ED0B1
:10468000C0684068D8B130244FF4987508E000BF86
:10469000B1F85001A5F22F120834013582420ED232
:1046A000485D0028F4D101F5AC7001F07FF8DBF82B
:1046B00000100A1952680B5942600360E8E701F1E3
:1046C00030004FF480711DF0BFFEDBF800002021A8
:1046D00000F598701DF0B8FEDBF800000021A0F88E
:1046E0005011039828F0F8FC0890DBF800000068EF
:1046F000436A43B10899DBF80420984703E000F0CF
:10470000FB0081F828001CF0E1FF00F069F900F0DF
:1047100023F9DBF82440ECBB0DF088FE0DF0BCFE65
:104720001BF0FAF97F210022044624F0B9F9204653
:104730000021002224F0A8F920464FF6FF71002244
:1047400024F0E4F920460321002224F0D3F9204686
:104750000321002224F0BCF920460321002224F08A
:10476000BDF920460321002224F0BEF92046032192
:10477000002224F0C5F949F28A51C0F6030120460F
:104780001CF0B8FB20460621002200231EF0A0FFEB
:10479000CBF82440DBF8100028F09EFC80084A2863
:1047A0003ED8DBF8040041F2893188420AD30898E8
:1047B000DBE905120844511CCBE90501DBF80C408C
:1047C00024B967E0DBF80C40002C63D0DBF808006C
:1047D00028F082FCB0F5967F40F29D8028F094FC92
:1047E000CBF8080009A81DF071F909980B994AF255
:1047F000A102401A40F2FE310140CAF2A002A1FB20
:104800000213820A9DF83C009DF83D709B090090C0
:1048100046A1204601971CF0AFFB11B000F098B8FC
:1048200028F072FCDBF80010CBF81000486828B1C3
:1048300000684FF47A71B1FBF0F000E02820DBF85B
:1048400014100546002904BF0121CBF81410DBF831
:10485000182022B14FF47A735A43B2FBF1F50021CC
:10486000CBE90511854288BF0546DBE907102844DE
:10487000CBF82000481CCBF81C0028F0DDFCC0F170
:10488000640326A120462A461CF076FBDBF80C4088
:10489000002C9BD10DF0CAFD0DF0FEFD1BF03CF984
:1048A0007F210022044624F0FBF82046002100224C
:1048B00024F0EAF820464FF6FF71002224F026F992
:1048C00020460321002224F015F92046032100226E
:1048D00024F0FEF820460321002224F0FFF82046B1
:1048E0000321002224F000F949F28A51C0F60301A5
:1048F00020461CF0FFFA20460421002200231EF06F
:10490000E7FECBF80C40DBF8080028F0E5FBB0F53B
:10491000967F3FF663AF11B000F01AB825752046B8
:1049200050530A25752525204350550025752E2501
:1049300075206B4220757365642028256420252529
:10494000290A2564252520667261672E0000000073
:1049500030BCBDE8C08F000010B540F2EC24C1F2BD
:1049600000042068002818BF1DF086F820461C218E
:104970001DF06AFDE069002818BF1DF07DF804F104
:104980001C001C211DF060FDA06B002818BF1DF04D
:1049900073F804F138001C211DF056FD606D0028ED
:1049A00018BF1DF069F804F154001C21BDE8104047
:1049B0001DF04ABD40F22451C1F20001096804E033
:1049C0000A7E42F001020A764969002908BF704751
:1049D0004A688242F4D00A688242F5D1F0E70000CA
:1049E0007047000040F28820C1F20000042100F06E
:1049F0008BBE000040F2A020C1F20000202100F098
:104A000083BE00002DE9F04F85B00E9E1D46002BA1
:104A1000834608BFB6F5807F71D0DDF83C80002367
:104A2000019301A8ADF80810CDF80A30ADF80E20BA
:104A3000ADF81010ADF81220294632464346071D46
:104A400000F1080900F10C0A24F050F93846294613
:104A50003246434624F04AF9484629463246434600
:104A600024F044F9504629463246434624F03EF9A4
:104A7000BDF90420BDF90830BDF90C60BDF9104046
:104A80009A421F46BDF90610BDF90A00B8BF174685
:104A9000A6422546B8BF3546AF42B8BF3D46AF1E19
:104AA0009A42ABF80070C8BF1346A642C8BF34464E
:104AB000A342C8BF1C46BDF90E70BDF91250814219
:104AC0000246B8BF0A46AF422E46B8BF3E46B24283
:104AD000B8BF1646B21E8142ABF80220C8BF0846D6
:104AE000AF42C8BF3D46A31CA842C8BF0546A81C8C
:104AF000ABF80430ABF8060005B000F00CB80020AD
:104B0000CBF800004B1E501EABF80430ABF806008B
:104B100005B000F000B830BCBDE8C08FF0B581B082
:104B200016460C46074628F0EFFAA2B240F2DC34F3
:104B3000C1F20004054620463946334619F04AFBC7
:104B400030B1E0690021A16268B1204601B0F0BD3A
:104B500020462C211DF078FC4FF00040A06200247C
:104B6000204601B0F0BD284628F0B6FA01460028DC
:104B700008BF01212046E16101B0F0BD10B540F24F
:104B8000AC24C1F200042046142100F0BDFD2046F3
:104B900000F0C2FDB0B1142104461DF055FC4DF2E9
:104BA0008570C0F601004DF639014DF6D1224DF267
:104BB0004D73C0F60101C0F60102C0F601030FC437
:104BC00010BD00BFFEE70000B0B50C460546084624
:104BD00010211DF039FC28680178042908D0022929
:104BE00008D0012908D1A98A2180E98A618003E0DF
:104BF0000A2100E0E96861604268002A08BFB0BD90
:104C00002146BDE8B04010472DE9F04F8DB0014678
:104C1000834631F8140F079120B9BBF8160000281D
:104C200000F00183DBF82C90B9F1000F56D04FF45F
:104C3000807800274D4600BF284600216E2221F0D3
:104C40003FF8C619284600216D2221F039F801B23B
:104C5000C90D50FA81F000B20412284620F0FAF98A
:104C6000054608FB04F037B2002D0FFA80F8E3D1B7
:104C70000004B0F1807F4FEA064008BF00280CD046
:104C80004FF4803191FBF8F2002140420A91011467
:104C9000079812B20AAB24F029F8BBF8400000F0E4
:104CA0000F00032840F06981484620F009FB0546C3
:104CB000484620F083FA07990246B1F9001003270D
:104CC00048462B46009704F04DFD05460026484611
:104CD00020F042FA012D80F267816CE11AF000F8B1
:104CE0000068BBF81410BBF81820037E5018ABF80E
:104CF0001800BBF81600BBF81A10DBF82470084443
:104D0000002FABF81A0000F08E8258420690002067
:104D10004FF00008039000204FF0000A4FF0000908
:104D200005930290CDF810B009E000BF4FF00008E5
:104D3000384620F08FF90746002800F096814FF49E
:104D4000807400263D46CDF8308000BF2846002103
:104D50006E2220F0B5FF0644284600216D2220F087
:104D6000AFFF00B260430412284620F073F90546F5
:104D70000028EBD1DBF8181030040B9108BFB4F514
:104D8000807F0FD04FF48031704291FBF4F201B27A
:104D90000BA80CAB23F0AAFFBDF82C10BDF82E0019
:104DA00001E000BF080C09B2002900B248BF494227
:104DB000002848BF404281424FF000004FF0000100
:104DC000C8BF0120D8BF012149EA01094AEA000A07
:104DD0003846102121F090F9E0B3384654464D464C
:104DE00020F0BAF900EA0A0400F0020900F0040118
:104DF00000F0080005EA910105EAD00B3846099158
:104E0000089520F0DFFA0646384620F03FF90546BF
:104E1000384620F0D3F98046384620F051FA002E6B
:104E2000D8BF012D31DB0999DDF814C0DE4619B178
:104E3000BDF92E10614507DABEF1000F28D0BDF98B
:104E40002E10069A914223DC0C21029139460397D9
:104E50001EE000BF38464FF4807121F04DF9002864
:104E600004BF8AF001005FEAC07000F0FE8038469F
:104E70004FF4007121F040F900287FF459AF89F018
:104E80000100C0077FF454AFEFE0DDF814C0DE4648
:104E900004F00102B8F1000F0AEA5901D8BF012855
:104EA00013DBDDF810B0DDF820901AB1BDF92C301D
:104EB000634505DA69B1BDF92C30069CA34208DCD4
:104EC000032302933B46039703E0DDF810B0DDF8BF
:104ED000209000284FF00003C8BF0123B8F1010F54
:104EE0004FF00004B8BF0124002D4FF00000C8BFF0
:104EF0000120002E4FF0000682F00102C8BF0126FB
:104F0000224304D1BDF92C20624580F29E801940D5
:104F100005D0BDF92C10069A914240F3968009996C
:104F2000314004D0BDF92E10614580F2918010EA25
:104F30000E0005D0BDF92E000699884240F3888006
:104F400038464FF4807121F0D7F8002804BF8AF06A
:104F500001005FEAC07000F0888038464FF40071AD
:104F600021F0CAF800287FF4E1AE89F00100C00703
:104F70004FF000087FF4DCAE77E0484620F022FADC
:104F80000546484620F082F8BBF9161003460C2768
:104F900048462A46009704F0E5FB064600254846A9
:104FA00020F0DAF8012D06DB10F0010103D1002515
:104FB000012E07DA0BE08107002D48BF05EAE175F5
:104FC000012E04DB10F0040101D1002604E00007EB
:104FD000002E48BF06EAE076BBF91A10BBF936305E
:104FE00001FA86F7BBF91800BBF934205C1A9F421E
:104FF000B8BF2646BBF93A30B8BF01FA84F79F42E2
:10500000C8BF5E1A00FA85F1131A9142B8BF1D4657
:10501000BBF93820B8BF00FA83F19142C8BF151A16
:1050200029B232B2484600F033FC9BF801008007F9
:1050300000F1F980BBF81800BBF81A102844ABF84F
:1050400018008819ABF81A00EDE00BF1400004E0FD
:105050005FEACA700BF1400001D0032100E00C218F
:10506000028822F00F0211440180DDF80C90B9F1A2
:10507000000F00F0D880BBF8400002994EF2010505
:1050800061F30300ABF840000020CBF8180048465D
:105090008021CBF82C9021F02FF8D0B1484620F099
:1050A00089F9032821D0022838D0012848D1B9F83D
:1050B000160041F6FF72013001B24846002304F0A9
:1050C000B1FDABF83600B9F8160029B2013802B2CA
:1050D00031E029B20BF1340041F6FF770A4641F680
:1050E000FF73009708F078FC77E0B9F81600B9F87C
:1050F0001A100023091A01318AB201EBD23109B228
:1051000000EB6104601C01B2484641F6FF7204F0F6
:1051100089FDABF83600601E02B20BE0B9F91A1037
:10512000484641F6FF72002304F07CFDABF83600E0
:10513000B9F91A2029B24846002304F073FD03E0B0
:1051400041F6FF70ABF83650ABF83A00484620F015
:1051500029F9032810D0022827D0012837D1B9F91E
:105160001410484641F6FF72002304F091FCABF89E
:105170003400B9F9142024E0B9F81400B9F8181073
:105180000023091A01318AB201EBD23109B200EBD6
:105190006104601C01B2484641F6FF7204F078FCDD
:1051A000ABF83400601E02B20BE0B9F918104846A3
:1051B00041F6FF72002304F06BFCABF83400B9F940
:1051C000182029B24846002304F062FC03E041F6AF
:1051D000FF70ABF83450ABF83800BBF8340009214D
:1051E000002808BFABF83450BBF838000022002874
:1051F00004BF41F6FF70ABF83800BBF8360000285A
:1052000008BFABF83650BBF83A00002804BF41F69F
:10521000FF70ABF83A00484617F080F89BF80100A1
:1052200080077FF504AD0DB000F000B830BCBDE8DC
:10523000C08F00002DE9F04782B0C56A002D00F054
:105240003B810446B0F84000000700F0358119F0BA
:1052500047FD824600684021477E284620F04CFFEB
:10526000002804BF0020E061284620F09BF880461B
:10527000284620F09FF8B4F84010814601F00F0155
:10528000032945D00C2940F01581E68B0020B9F1A7
:10529000000FA0837DD019F023FD002E4FF0000CED
:1052A00000F0C080006848F21F52407E0027C0F125
:1052B0006400C5F2EB1200BF10FB06F353FB02F3D0
:1052C000591101EBD3731904374400F0AC8010FB83
:1052D00003F151FB02F14E1106EBD17631041F446C
:1052E00000F0A18010FB06F151FB02F14B1103EB22
:1052F000D1731904374400F0968010FB03F151FB81
:1053000002F14E1106EBD17631041F44D4D18AE06C
:105310000020B8F1000FE0835FD0A68B19F0E0FC0D
:10532000002E4FF0000C00F0A080006848F21F52E1
:10533000407E0027C0F16400C5F2EB1210FB06F3BB
:1053400053FB02F3591101EBD3731904374400F0F6
:105350008D8010FB03F151FB02F14E1106EBD1766B
:1053600031041F4400F0828010FB06F151FB02F172
:105370004B1103EBD1731904374477D010FB03F1C1
:1053800051FB02F14E1106EBD17631041F44D5D109
:105390006CE030B2C7F16401484348F21F51C5F2D6
:1053A000EB1150FB01F0410901EBD070E08328467E
:1053B0001FF06CFE0746284620F004F8B4F91E10D2
:1053C00002460C2628463B46009604F0CBF90246DE
:1053D000E0832846002100236AE0B4F91C00C7F1ED
:1053E0006401484348F21F51C5F2EB1150FB01F034
:1053F000410901EBD070A08328461FF0DFFE07466D
:1054000028461FF05DFFB4F91C100346032628460A
:105410003A46009604F0A6F90146A08328460022E9
:10542000002345E00027B4F91A00B4F93610B4F9A6
:105430003A2000FA87F3A4F81EC00E1A8B42BCBFB4
:10544000374600FA86F34EF201019342C8BF171A9D
:105450003BB2CFF6FF71284641F6FF7204F0E2FB43
:10546000384402B22846002121E00027B4F9180090
:10547000B4F93410B4F9382000FA87F3A4F81CC04A
:105480000E1A8B42BCBF374600FA86F34EF201017A
:105490009342C8BF171A3BB2CFF6FF71284641F6B8
:1054A000FF7204F0F5FA384401B2284600220123C5
:1054B00022F06CFDA08B10B102B0BDE8F087E08B4C
:1054C0000028F9D1B9F1000F1BD128461FF07AFF4F
:1054D000074628461FF0DAFD002FD8BF012810DB51
:1054E000B7F1FF3F07DDB0F1FF3F0ADC404202B2F7
:1054F0002846002102E0284600213A46012322F0F6
:1055000045FDB8F1000F1AD128461FF057FE074697
:1055100028461FF0D5FE002FD8BF01280FDBB7F1BA
:10552000FF3F06DDB0F1FF3F09DC404201B22846F3
:1055300001E0284639460022012322F027FD2846B3
:105540000A21524616F0EAFE60788007B4D4B4F817
:10555000400020F00F00A4F840000020E06202B0FC
:10556000BDE8F087F0B585B004460D4620B90CF0D3
:105570005DFF0446002853D020460CF0E3FF0028CE
:105580004ED094F8280040074AD40020CDB30290B2
:1055900020460CF069FF0138ADF80C0020460CF0F5
:1055A000B9FF0138ADF80E00684602AA2946FEF799
:1055B000EDFBA8B32068017C890726D482690AB173
:1055C00069469047B4F8500160B304F130050027F4
:1055D0006E4600BF304629460022FEF705FCF8B9AA
:1055E000B4F8501101378F4205F10805F2D31F2995
:1055F00019D90021A4F85011DDE902022063626389
:1056000017E0A4F8500105B0F0BD0298039920639B
:105610000120A4F850016068616308B127F0F2FE30
:1056200005B0F0BD0021DDE9002304EBC1000263F9
:105630004363606801310028A4F8501118BF27F0B7
:10564000E1FE05B0F0BD0000F0B581B010B34568D3
:105650000446FDB1002707E0002BA36014BF9F5054
:1056600067601CF009FAADB1D4E9001328460A1DA1
:10567000AD5883420AD0A66843588642ECD0002B2E
:1056800018BF9D5055B16B50EBE700BF65601DB171
:105690006F50E6E701B0F0BD0021A16001B0BDE8A8
:1056A000F0401CF0E9B90000002814BF4068002059
:1056B00070470000C0B14268B2B10068011D01200E
:1056C0005258002A08BF70475258002A04BF0130C0
:1056D00070475258002A04BF0230704752580430B5
:1056E000002AEDD101387047002070470068084457
:1056F000406870470068085870470000002814BFD1
:1057000080680020704700000331002221F003016F
:10571000C0E900128260704710B504460068083086
:105720001BF0B8FF002808BF10BD216800224250BE
:10573000626843185A606268002A18BF5050A16816
:105740006060002908BFA06010BD000070B504466D
:1057500000284FF0000012D00D4681B1D4E90006B8
:1057600008301BF097FFAE420AD0E0B121686A58BA
:105770000B1D002A18BFD05042506850C55070BD54
:105780004FF0000278B121684250626843185A60B5
:105790006268002A18BF5050A1686060002918BFD5
:1057A00070BDA06070BD002070BD000010B5044643
:1057B000006808301BF06EFF002808BF10BD22688B
:1057C0000023111D4350A3688350A268002A18BF0C
:1057D00050506168A060002908BF606010BD0000E3
:1057E00028B1416809B9806808B1002070470120DC
:1057F0007047000080B5002808BF80BD42688A421B
:1058000013D0D0F800E0826851F80E308A4217D0E9
:105810000EF1040C51F80C00002B18BF43F80C00DB
:10582000002818BF40F80E3080BD02681144496856
:105830000029416007BF002181600020885080BDA1
:105840000021002B836018BF0EEB0300416080BD78
:1058500010B50446006804E00068002808BF10BDC9
:1058600020608268002AF7D0214690472068F3E73D
:105870008068002814BFC08A002000B27047000072
:10588000806800280EBF0020807E800970470000DD
:1058900070B50E4611431DD0154604461EF0A0FA01
:1058A000A0680123018A428A314401825119418250
:1058B000204631462A4621F01DF820460B210022C1
:1058C00016F02CFD012818BF70BD204620F054FFB3
:1058D000012070BD012070BD2DE9F04106464FF654
:1058E000FF70144622EA0008AEB1304662220D462F
:1058F00020F0E6F978B10746006860B130462946E5
:10590000632220F0DDF9010605D03B68A1B2C2B2E6
:10591000384698470446A0B240EA0800BDE8F08146
:105920002DE9F04F91B00446408CDDF868B040F0AE
:105930000800608422841646BBF8082020461F46D3
:105940008A4620F0BDF92784BBF80820054620468A
:10595000514620F0B5F9618C814621F008004D4593
:10596000608403D102D111B000F083B82684BBF863
:1059700008202046514620F0A3F980462046514693
:10598000278405F0F9F90068BBF80810424625F0B5
:1059900051FABBF808000B2828D147F6FF76B1452D
:1059A00018BFB04522D1204620F046FB81B200EB63
:1059B000D13000B2451020461FF0D6FA81B200EB7C
:1059C000D13000B2B0454FEA600005D1691C00F14A
:1059D00001084145B8BF884647F6FF71894505D1A2
:1059E000691C00F101094945B8BF894640F2B82059
:1059F000C1F20000FFF790FED0B3C0E90389046054
:105A00000646BBF808006C46B0802046C6F808A0E1
:105A100007F06CF944F61D50C0F60300019044F6FF
:105A20005970C0F60300029044F69560C0F603007A
:105A3000039000200096CDE90800FF200A90BBF8F3
:105A40000000BBF802100B904842DBF80C100C90E1
:105A50009DF842000791DBF8101000F0FE008DF871
:105A600042002046069107F0C1F911B000F001B8DC
:105A7000FEE730BCBDE8C08F40F2B820C1F20000A4
:105A80001421FFF741BE00002DE9F04782B0044623
:105A9000408C10F47C7F00F02A816FEA01086FEAE5
:105AA00002094FF0000A01AD002709E04FF0020A99
:105AB000608C00BF0137C0F305118F4280F0128166
:105AC000E16801EBC70252689301F3D492B202EA93
:105AD000080302EA0902B3FA83F3B2FA82F25B091D
